{
	"contracts/Sample.sol": {
		"Sample": {
			"abi": [
				{
					"inputs": [],
					"name": "customEnum",
					"outputs": [
						{
							"internalType": "enum Sample.Enum",
							"name": "",
							"type": "uint8"
						}
					],
					"stateMutability": "view",
					"type": "function"
				},
				{
					"inputs": [],
					"name": "getEnum",
					"outputs": [
						{
							"internalType": "enum Sample.Enum",
							"name": "",
							"type": "uint8"
						}
					],
					"stateMutability": "view",
					"type": "function"
				},
				{
					"inputs": [
						{
							"internalType": "enum Sample.Enum",
							"name": "_customEnum",
							"type": "uint8"
						}
					],
					"name": "setEnaum",
					"outputs": [],
					"stateMutability": "nonpayable",
					"type": "function"
				}
			],
			"devdoc": {
				"kind": "dev",
				"methods": {},
				"version": 1
			},
			"evm": {
				"assembly": "    /* \"contracts/Sample.sol\":57:361  contract Sample {... */\n  mstore(0x40, 0x80)\n  callvalue\n  dup1\n  iszero\n  tag_1\n  jumpi\n  0x00\n  dup1\n  revert\ntag_1:\n  pop\n  dataSize(sub_0)\n  dup1\n  dataOffset(sub_0)\n  0x00\n  codecopy\n  0x00\n  return\nstop\n\nsub_0: assembly {\n        /* \"contracts/Sample.sol\":57:361  contract Sample {... */\n      mstore(0x40, 0x80)\n      callvalue\n      dup1\n      iszero\n      tag_1\n      jumpi\n      0x00\n      dup1\n      revert\n    tag_1:\n      pop\n      jumpi(tag_2, lt(calldatasize, 0x04))\n      shr(0xe0, calldataload(0x00))\n      dup1\n      0xb618d2f4\n      eq\n      tag_3\n      jumpi\n      dup1\n      0xc0116bea\n      eq\n      tag_4\n      jumpi\n      dup1\n      0xf0ebce5a\n      eq\n      tag_5\n      jumpi\n    tag_2:\n      0x00\n      dup1\n      revert\n        /* \"contracts/Sample.sol\":161:183  Enum public customEnum */\n    tag_3:\n      tag_6\n      tag_7\n      jump\t// in\n    tag_6:\n      mload(0x40)\n      tag_8\n      swap2\n      swap1\n      tag_9\n      jump\t// in\n    tag_8:\n      mload(0x40)\n      dup1\n      swap2\n      sub\n      swap1\n      return\n        /* \"contracts/Sample.sol\":270:352  function setEnaum(Enum _customEnum) public {... */\n    tag_4:\n      tag_10\n      0x04\n      dup1\n      calldatasize\n      sub\n      dup2\n      add\n      swap1\n      tag_11\n      swap2\n      swap1\n      tag_12\n      jump\t// in\n    tag_11:\n      tag_13\n      jump\t// in\n    tag_10:\n      stop\n        /* \"contracts/Sample.sol\":189:265  function getEnum() public view returns(Enum){... */\n    tag_5:\n      tag_14\n      tag_15\n      jump\t// in\n    tag_14:\n      mload(0x40)\n      tag_16\n      swap2\n      swap1\n      tag_9\n      jump\t// in\n    tag_16:\n      mload(0x40)\n      dup1\n      swap2\n      sub\n      swap1\n      return\n        /* \"contracts/Sample.sol\":161:183  Enum public customEnum */\n    tag_7:\n      0x00\n      dup1\n      sload\n      swap1\n      0x0100\n      exp\n      swap1\n      div\n      0xff\n      and\n      dup2\n      jump\t// out\n        /* \"contracts/Sample.sol\":270:352  function setEnaum(Enum _customEnum) public {... */\n    tag_13:\n        /* \"contracts/Sample.sol\":335:346  _customEnum */\n      dup1\n        /* \"contracts/Sample.sol\":322:332  customEnum */\n      0x00\n      dup1\n        /* \"contracts/Sample.sol\":322:346  customEnum = _customEnum */\n      0x0100\n      exp\n      dup2\n      sload\n      dup2\n      0xff\n      mul\n      not\n      and\n      swap1\n      dup4\n      0x02\n      dup2\n      gt\n      iszero\n      tag_18\n      jumpi\n      tag_19\n      tag_20\n      jump\t// in\n    tag_19:\n    tag_18:\n      mul\n      or\n      swap1\n      sstore\n      pop\n        /* \"contracts/Sample.sol\":270:352  function setEnaum(Enum _customEnum) public {... */\n      pop\n      jump\t// out\n        /* \"contracts/Sample.sol\":189:265  function getEnum() public view returns(Enum){... */\n    tag_15:\n        /* \"contracts/Sample.sol\":228:232  Enum */\n      0x00\n        /* \"contracts/Sample.sol\":249:259  customEnum */\n      dup1\n      0x00\n      swap1\n      sload\n      swap1\n      0x0100\n      exp\n      swap1\n      div\n      0xff\n      and\n        /* \"contracts/Sample.sol\":242:259  return customEnum */\n      swap1\n      pop\n        /* \"contracts/Sample.sol\":189:265  function getEnum() public view returns(Enum){... */\n      swap1\n      jump\t// out\n        /* \"#utility.yul\":7:158   */\n    tag_23:\n        /* \"#utility.yul\":59:64   */\n      0x00\n        /* \"#utility.yul\":97:103   */\n      dup2\n        /* \"#utility.yul\":84:104   */\n      calldataload\n        /* \"#utility.yul\":75:104   */\n      swap1\n      pop\n        /* \"#utility.yul\":113:152   */\n      tag_25\n        /* \"#utility.yul\":146:151   */\n      dup2\n        /* \"#utility.yul\":113:152   */\n      tag_26\n      jump\t// in\n    tag_25:\n        /* \"#utility.yul\":7:158   */\n      swap3\n      swap2\n      pop\n      pop\n      jump\t// out\n        /* \"#utility.yul\":164:505   */\n    tag_12:\n        /* \"#utility.yul\":229:235   */\n      0x00\n        /* \"#utility.yul\":278:280   */\n      0x20\n        /* \"#utility.yul\":266:275   */\n      dup3\n        /* \"#utility.yul\":257:264   */\n      dup5\n        /* \"#utility.yul\":253:276   */\n      sub\n        /* \"#utility.yul\":249:281   */\n      slt\n        /* \"#utility.yul\":246:365   */\n      iszero\n      tag_28\n      jumpi\n        /* \"#utility.yul\":284:363   */\n      tag_29\n      tag_30\n      jump\t// in\n    tag_29:\n        /* \"#utility.yul\":246:365   */\n    tag_28:\n        /* \"#utility.yul\":404:405   */\n      0x00\n        /* \"#utility.yul\":429:488   */\n      tag_31\n        /* \"#utility.yul\":480:487   */\n      dup5\n        /* \"#utility.yul\":471:477   */\n      dup3\n        /* \"#utility.yul\":460:469   */\n      dup6\n        /* \"#utility.yul\":456:478   */\n      add\n        /* \"#utility.yul\":429:488   */\n      tag_23\n      jump\t// in\n    tag_31:\n        /* \"#utility.yul\":419:488   */\n      swap2\n      pop\n        /* \"#utility.yul\":375:498   */\n      pop\n        /* \"#utility.yul\":164:505   */\n      swap3\n      swap2\n      pop\n      pop\n      jump\t// out\n        /* \"#utility.yul\":511:650   */\n    tag_32:\n        /* \"#utility.yul\":602:643   */\n      tag_34\n        /* \"#utility.yul\":637:642   */\n      dup2\n        /* \"#utility.yul\":602:643   */\n      tag_35\n      jump\t// in\n    tag_34:\n        /* \"#utility.yul\":597:600   */\n      dup3\n        /* \"#utility.yul\":590:644   */\n      mstore\n        /* \"#utility.yul\":511:650   */\n      pop\n      pop\n      jump\t// out\n        /* \"#utility.yul\":656:886   */\n    tag_9:\n        /* \"#utility.yul\":753:757   */\n      0x00\n        /* \"#utility.yul\":791:793   */\n      0x20\n        /* \"#utility.yul\":780:789   */\n      dup3\n        /* \"#utility.yul\":776:794   */\n      add\n        /* \"#utility.yul\":768:794   */\n      swap1\n      pop\n        /* \"#utility.yul\":804:879   */\n      tag_37\n        /* \"#utility.yul\":876:877   */\n      0x00\n        /* \"#utility.yul\":865:874   */\n      dup4\n        /* \"#utility.yul\":861:878   */\n      add\n        /* \"#utility.yul\":852:858   */\n      dup5\n        /* \"#utility.yul\":804:879   */\n      tag_32\n      jump\t// in\n    tag_37:\n        /* \"#utility.yul\":656:886   */\n      swap3\n      swap2\n      pop\n      pop\n      jump\t// out\n        /* \"#utility.yul\":973:1096   */\n    tag_40:\n        /* \"#utility.yul\":1016:1023   */\n      0x00\n        /* \"#utility.yul\":1045:1050   */\n      dup2\n        /* \"#utility.yul\":1034:1050   */\n      swap1\n      pop\n        /* \"#utility.yul\":1051:1090   */\n      tag_42\n        /* \"#utility.yul\":1084:1089   */\n      dup3\n        /* \"#utility.yul\":1051:1090   */\n      tag_43\n      jump\t// in\n    tag_42:\n        /* \"#utility.yul\":973:1096   */\n      swap2\n      swap1\n      pop\n      jump\t// out\n        /* \"#utility.yul\":1102:1225   */\n    tag_35:\n        /* \"#utility.yul\":1156:1165   */\n      0x00\n        /* \"#utility.yul\":1189:1219   */\n      tag_45\n        /* \"#utility.yul\":1213:1218   */\n      dup3\n        /* \"#utility.yul\":1189:1219   */\n      tag_40\n      jump\t// in\n    tag_45:\n        /* \"#utility.yul\":1176:1219   */\n      swap1\n      pop\n        /* \"#utility.yul\":1102:1225   */\n      swap2\n      swap1\n      pop\n      jump\t// out\n        /* \"#utility.yul\":1231:1411   */\n    tag_20:\n        /* \"#utility.yul\":1279:1356   */\n      0x4e487b7100000000000000000000000000000000000000000000000000000000\n        /* \"#utility.yul\":1276:1277   */\n      0x00\n        /* \"#utility.yul\":1269:1357   */\n      mstore\n        /* \"#utility.yul\":1376:1380   */\n      0x21\n        /* \"#utility.yul\":1373:1374   */\n      0x04\n        /* \"#utility.yul\":1366:1381   */\n      mstore\n        /* \"#utility.yul\":1400:1404   */\n      0x24\n        /* \"#utility.yul\":1397:1398   */\n      0x00\n        /* \"#utility.yul\":1390:1405   */\n      revert\n        /* \"#utility.yul\":1540:1657   */\n    tag_30:\n        /* \"#utility.yul\":1649:1650   */\n      0x00\n        /* \"#utility.yul\":1646:1647   */\n      dup1\n        /* \"#utility.yul\":1639:1651   */\n      revert\n        /* \"#utility.yul\":1663:1774   */\n    tag_43:\n        /* \"#utility.yul\":1742:1743   */\n      0x03\n        /* \"#utility.yul\":1735:1740   */\n      dup2\n        /* \"#utility.yul\":1732:1744   */\n      lt\n        /* \"#utility.yul\":1722:1768   */\n      tag_51\n      jumpi\n        /* \"#utility.yul\":1748:1766   */\n      tag_52\n      tag_20\n      jump\t// in\n    tag_52:\n        /* \"#utility.yul\":1722:1768   */\n    tag_51:\n        /* \"#utility.yul\":1663:1774   */\n      pop\n      jump\t// out\n        /* \"#utility.yul\":1780:1885   */\n    tag_26:\n        /* \"#utility.yul\":1859:1860   */\n      0x03\n        /* \"#utility.yul\":1852:1857   */\n      dup2\n        /* \"#utility.yul\":1849:1861   */\n      lt\n        /* \"#utility.yul\":1839:1879   */\n      tag_54\n      jumpi\n        /* \"#utility.yul\":1875:1876   */\n      0x00\n        /* \"#utility.yul\":1872:1873   */\n      dup1\n        /* \"#utility.yul\":1865:1877   */\n      revert\n        /* \"#utility.yul\":1839:1879   */\n    tag_54:\n        /* \"#utility.yul\":1780:1885   */\n      pop\n      jump\t// out\n\n    auxdata: 0xa26469706673582212204a575c311ac3f3d7145464eed23d198464881a71dc6c2cb5d09308a1b522fd3064736f6c63430008070033\n}\n",
				"bytecode": {
					"linkReferences": {},
					"object": "608060405234801561001057600080fd5b50610210806100206000396000f3fe608060405234801561001057600080fd5b50600436106100415760003560e01c8063b618d2f414610046578063c0116bea14610064578063f0ebce5a14610080575b600080fd5b61004e61009e565b60405161005b9190610142565b60405180910390f35b61007e60048036038101906100799190610106565b6100af565b005b6100886100db565b6040516100959190610142565b60405180910390f35b60008054906101000a900460ff1681565b806000806101000a81548160ff021916908360028111156100d3576100d2610182565b5b021790555050565b60008060009054906101000a900460ff16905090565b600081359050610100816101ca565b92915050565b60006020828403121561011c5761011b6101b1565b5b600061012a848285016100f1565b91505092915050565b61013c81610170565b82525050565b60006020820190506101576000830184610133565b92915050565b600081905061016b826101b6565b919050565b600061017b8261015d565b9050919050565b7f4e487b7100000000000000000000000000000000000000000000000000000000600052602160045260246000fd5b600080fd5b600381106101c7576101c6610182565b5b50565b600381106101d757600080fd5b5056fea26469706673582212204a575c311ac3f3d7145464eed23d198464881a71dc6c2cb5d09308a1b522fd3064736f6c63430008070033",
					"opcodes": "PUSH1 0x80 PUSH1 0x40 MSTORE CALLVALUE DUP1 ISZERO PUSH2 0x10 JUMPI PUSH1 0x0 DUP1 REVERT JUMPDEST POP PUSH2 0x210 DUP1 PUSH2 0x20 PUSH1 0x0 CODECOPY PUSH1 0x0 RETURN INVALID PUSH1 0x80 PUSH1 0x40 MSTORE CALLVALUE DUP1 ISZERO PUSH2 0x10 JUMPI PUSH1 0x0 DUP1 REVERT JUMPDEST POP PUSH1 0x4 CALLDATASIZE LT PUSH2 0x41 JUMPI PUSH1 0x0 CALLDATALOAD PUSH1 0xE0 SHR DUP1 PUSH4 0xB618D2F4 EQ PUSH2 0x46 JUMPI DUP1 PUSH4 0xC0116BEA EQ PUSH2 0x64 JUMPI DUP1 PUSH4 0xF0EBCE5A EQ PUSH2 0x80 JUMPI JUMPDEST PUSH1 0x0 DUP1 REVERT JUMPDEST PUSH2 0x4E PUSH2 0x9E JUMP JUMPDEST PUSH1 0x40 MLOAD PUSH2 0x5B SWAP2 SWAP1 PUSH2 0x142 JUMP JUMPDEST PUSH1 0x40 MLOAD DUP1 SWAP2 SUB SWAP1 RETURN JUMPDEST PUSH2 0x7E PUSH1 0x4 DUP1 CALLDATASIZE SUB DUP2 ADD SWAP1 PUSH2 0x79 SWAP2 SWAP1 PUSH2 0x106 JUMP JUMPDEST PUSH2 0xAF JUMP JUMPDEST STOP JUMPDEST PUSH2 0x88 PUSH2 0xDB JUMP JUMPDEST PUSH1 0x40 MLOAD PUSH2 0x95 SWAP2 SWAP1 PUSH2 0x142 JUMP JUMPDEST PUSH1 0x40 MLOAD DUP1 SWAP2 SUB SWAP1 RETURN JUMPDEST PUSH1 0x0 DUP1 SLOAD SWAP1 PUSH2 0x100 EXP SWAP1 DIV PUSH1 0xFF AND DUP2 JUMP JUMPDEST DUP1 PUSH1 0x0 DUP1 PUSH2 0x100 EXP DUP2 SLOAD DUP2 PUSH1 0xFF MUL NOT AND SWAP1 DUP4 PUSH1 0x2 DUP2 GT ISZERO PUSH2 0xD3 JUMPI PUSH2 0xD2 PUSH2 0x182 JUMP JUMPDEST JUMPDEST MUL OR SWAP1 SSTORE POP POP JUMP JUMPDEST PUSH1 0x0 DUP1 PUSH1 0x0 SWAP1 SLOAD SWAP1 PUSH2 0x100 EXP SWAP1 DIV PUSH1 0xFF AND SWAP1 POP SWAP1 JUMP JUMPDEST PUSH1 0x0 DUP2 CALLDATALOAD SWAP1 POP PUSH2 0x100 DUP2 PUSH2 0x1CA JUMP JUMPDEST SWAP3 SWAP2 POP POP JUMP JUMPDEST PUSH1 0x0 PUSH1 0x20 DUP3 DUP5 SUB SLT ISZERO PUSH2 0x11C JUMPI PUSH2 0x11B PUSH2 0x1B1 JUMP JUMPDEST JUMPDEST PUSH1 0x0 PUSH2 0x12A DUP5 DUP3 DUP6 ADD PUSH2 0xF1 JUMP JUMPDEST SWAP2 POP POP SWAP3 SWAP2 POP POP JUMP JUMPDEST PUSH2 0x13C DUP2 PUSH2 0x170 JUMP JUMPDEST DUP3 MSTORE POP POP JUMP JUMPDEST PUSH1 0x0 PUSH1 0x20 DUP3 ADD SWAP1 POP PUSH2 0x157 PUSH1 0x0 DUP4 ADD DUP5 PUSH2 0x133 JUMP JUMPDEST SWAP3 SWAP2 POP POP JUMP JUMPDEST PUSH1 0x0 DUP2 SWAP1 POP PUSH2 0x16B DUP3 PUSH2 0x1B6 JUMP JUMPDEST SWAP2 SWAP1 POP JUMP JUMPDEST PUSH1 0x0 PUSH2 0x17B DUP3 PUSH2 0x15D JUMP JUMPDEST SWAP1 POP SWAP2 SWAP1 POP JUMP JUMPDEST PUSH32 0x4E487B7100000000000000000000000000000000000000000000000000000000 PUSH1 0x0 MSTORE PUSH1 0x21 PUSH1 0x4 MSTORE PUSH1 0x24 PUSH1 0x0 REVERT JUMPDEST PUSH1 0x0 DUP1 REVERT JUMPDEST PUSH1 0x3 DUP2 LT PUSH2 0x1C7 JUMPI PUSH2 0x1C6 PUSH2 0x182 JUMP JUMPDEST JUMPDEST POP JUMP JUMPDEST PUSH1 0x3 DUP2 LT PUSH2 0x1D7 JUMPI PUSH1 0x0 DUP1 REVERT JUMPDEST POP JUMP INVALID LOG2 PUSH5 0x6970667358 0x22 SLT KECCAK256 0x4A JUMPI 0x5C BALANCE BYTE 0xC3 RETURN 0xD7 EQ SLOAD PUSH5 0xEED23D1984 PUSH5 0x881A71DC6C 0x2C 0xB5 0xD0 SWAP4 ADDMOD LOG1 0xB5 0x22 REVERT ADDRESS PUSH5 0x736F6C6343 STOP ADDMOD SMOD STOP CALLER "
				},
				"gasEstimates": {
					"creation": {
						"codeDepositCost": "105600",
						"executionCost": "153",
						"totalCost": "105753"
					},
					"external": {
						"customEnum()": "2535",
						"getEnum()": "2590",
						"setEnaum(uint8)": "24650"
					}
				},
				"methodIdentifiers": {
					"customEnum()": "b618d2f4",
					"getEnum()": "f0ebce5a",
					"setEnaum(uint8)": "c0116bea"
				}
			},
			"storageLayout": {
				"storage": [
					{
						"astId": 8,
						"contract": "contracts/Sample.sol:Sample",
						"label": "customEnum",
						"offset": 0,
						"slot": "0",
						"type": "t_enum(Enum)5"
					}
				],
				"types": {
					"t_enum(Enum)5": {
						"encoding": "inplace",
						"label": "enum Sample.Enum",
						"numberOfBytes": "1"
					}
				}
			},
			"userdoc": {
				"kind": "user",
				"methods": {},
				"version": 1
			}
		}
	}
}