{
	"contracts/Sample.sol": {
		"Sample": {
			"abi": [
				{
					"inputs": [],
					"name": "customEnum",
					"outputs": [
						{
							"internalType": "enum Sample.Enum",
							"name": "",
							"type": "uint8"
						}
					],
					"stateMutability": "view",
					"type": "function"
				}
			],
			"devdoc": {
				"kind": "dev",
				"methods": {},
				"version": 1
			},
			"evm": {
				"assembly": "    /* \"contracts/Sample.sol\":57:203  contract Sample {... */\n  mstore(0x40, 0x80)\n  callvalue\n  dup1\n  iszero\n  tag_1\n  jumpi\n  0x00\n  dup1\n  revert\ntag_1:\n  pop\n  dataSize(sub_0)\n  dup1\n  dataOffset(sub_0)\n  0x00\n  codecopy\n  0x00\n  return\nstop\n\nsub_0: assembly {\n        /* \"contracts/Sample.sol\":57:203  contract Sample {... */\n      mstore(0x40, 0x80)\n      callvalue\n      dup1\n      iszero\n      tag_1\n      jumpi\n      0x00\n      dup1\n      revert\n    tag_1:\n      pop\n      jumpi(tag_2, lt(calldatasize, 0x04))\n      shr(0xe0, calldataload(0x00))\n      dup1\n      0xb618d2f4\n      eq\n      tag_3\n      jumpi\n    tag_2:\n      0x00\n      dup1\n      revert\n        /* \"contracts/Sample.sol\":161:183  Enum public customEnum */\n    tag_3:\n      tag_4\n      tag_5\n      jump\t// in\n    tag_4:\n      mload(0x40)\n      tag_6\n      swap2\n      swap1\n      tag_7\n      jump\t// in\n    tag_6:\n      mload(0x40)\n      dup1\n      swap2\n      sub\n      swap1\n      return\n    tag_5:\n      0x00\n      dup1\n      sload\n      swap1\n      0x0100\n      exp\n      swap1\n      div\n      0xff\n      and\n      dup2\n      jump\t// out\n        /* \"#utility.yul\":7:146   */\n    tag_9:\n        /* \"#utility.yul\":98:139   */\n      tag_11\n        /* \"#utility.yul\":133:138   */\n      dup2\n        /* \"#utility.yul\":98:139   */\n      tag_12\n      jump\t// in\n    tag_11:\n        /* \"#utility.yul\":93:96   */\n      dup3\n        /* \"#utility.yul\":86:140   */\n      mstore\n        /* \"#utility.yul\":7:146   */\n      pop\n      pop\n      jump\t// out\n        /* \"#utility.yul\":152:382   */\n    tag_7:\n        /* \"#utility.yul\":249:253   */\n      0x00\n        /* \"#utility.yul\":287:289   */\n      0x20\n        /* \"#utility.yul\":276:285   */\n      dup3\n        /* \"#utility.yul\":272:290   */\n      add\n        /* \"#utility.yul\":264:290   */\n      swap1\n      pop\n        /* \"#utility.yul\":300:375   */\n      tag_14\n        /* \"#utility.yul\":372:373   */\n      0x00\n        /* \"#utility.yul\":361:370   */\n      dup4\n        /* \"#utility.yul\":357:374   */\n      add\n        /* \"#utility.yul\":348:354   */\n      dup5\n        /* \"#utility.yul\":300:375   */\n      tag_9\n      jump\t// in\n    tag_14:\n        /* \"#utility.yul\":152:382   */\n      swap3\n      swap2\n      pop\n      pop\n      jump\t// out\n        /* \"#utility.yul\":388:511   */\n    tag_15:\n        /* \"#utility.yul\":431:438   */\n      0x00\n        /* \"#utility.yul\":460:465   */\n      dup2\n        /* \"#utility.yul\":449:465   */\n      swap1\n      pop\n        /* \"#utility.yul\":466:505   */\n      tag_17\n        /* \"#utility.yul\":499:504   */\n      dup3\n        /* \"#utility.yul\":466:505   */\n      tag_18\n      jump\t// in\n    tag_17:\n        /* \"#utility.yul\":388:511   */\n      swap2\n      swap1\n      pop\n      jump\t// out\n        /* \"#utility.yul\":517:640   */\n    tag_12:\n        /* \"#utility.yul\":571:580   */\n      0x00\n        /* \"#utility.yul\":604:634   */\n      tag_20\n        /* \"#utility.yul\":628:633   */\n      dup3\n        /* \"#utility.yul\":604:634   */\n      tag_15\n      jump\t// in\n    tag_20:\n        /* \"#utility.yul\":591:634   */\n      swap1\n      pop\n        /* \"#utility.yul\":517:640   */\n      swap2\n      swap1\n      pop\n      jump\t// out\n        /* \"#utility.yul\":646:826   */\n    tag_21:\n        /* \"#utility.yul\":694:771   */\n      0x4e487b7100000000000000000000000000000000000000000000000000000000\n        /* \"#utility.yul\":691:692   */\n      0x00\n        /* \"#utility.yul\":684:772   */\n      mstore\n        /* \"#utility.yul\":791:795   */\n      0x21\n        /* \"#utility.yul\":788:789   */\n      0x04\n        /* \"#utility.yul\":781:796   */\n      mstore\n        /* \"#utility.yul\":815:819   */\n      0x24\n        /* \"#utility.yul\":812:813   */\n      0x00\n        /* \"#utility.yul\":805:820   */\n      revert\n        /* \"#utility.yul\":832:943   */\n    tag_18:\n        /* \"#utility.yul\":911:912   */\n      0x03\n        /* \"#utility.yul\":904:909   */\n      dup2\n        /* \"#utility.yul\":901:913   */\n      lt\n        /* \"#utility.yul\":891:937   */\n      tag_24\n      jumpi\n        /* \"#utility.yul\":917:935   */\n      tag_25\n      tag_21\n      jump\t// in\n    tag_25:\n        /* \"#utility.yul\":891:937   */\n    tag_24:\n        /* \"#utility.yul\":832:943   */\n      pop\n      jump\t// out\n\n    auxdata: 0xa264697066735822122008a84cc910b05bf26bbe098aa986bc2bc9bb2f9d0487a05d1ebe88bc1f83a16864736f6c63430008070033\n}\n",
				"bytecode": {
					"linkReferences": {},
					"object": "608060405234801561001057600080fd5b50610115806100206000396000f3fe6080604052348015600f57600080fd5b506004361060285760003560e01c8063b618d2f414602d575b600080fd5b60336047565b604051603e91906065565b60405180910390f35b60008054906101000a900460ff1681565b605f81608f565b82525050565b6000602082019050607860008301846058565b92915050565b6000819050608a8260ce565b919050565b6000609882607e565b9050919050565b7f4e487b7100000000000000000000000000000000000000000000000000000000600052602160045260246000fd5b6003811060dc5760db609f565b5b5056fea264697066735822122008a84cc910b05bf26bbe098aa986bc2bc9bb2f9d0487a05d1ebe88bc1f83a16864736f6c63430008070033",
					"opcodes": "PUSH1 0x80 PUSH1 0x40 MSTORE CALLVALUE DUP1 ISZERO PUSH2 0x10 JUMPI PUSH1 0x0 DUP1 REVERT JUMPDEST POP PUSH2 0x115 DUP1 PUSH2 0x20 PUSH1 0x0 CODECOPY PUSH1 0x0 RETURN INVALID PUSH1 0x80 PUSH1 0x40 MSTORE CALLVALUE DUP1 ISZERO PUSH1 0xF JUMPI PUSH1 0x0 DUP1 REVERT JUMPDEST POP PUSH1 0x4 CALLDATASIZE LT PUSH1 0x28 JUMPI PUSH1 0x0 CALLDATALOAD PUSH1 0xE0 SHR DUP1 PUSH4 0xB618D2F4 EQ PUSH1 0x2D JUMPI JUMPDEST PUSH1 0x0 DUP1 REVERT JUMPDEST PUSH1 0x33 PUSH1 0x47 JUMP JUMPDEST PUSH1 0x40 MLOAD PUSH1 0x3E SWAP2 SWAP1 PUSH1 0x65 JUMP JUMPDEST PUSH1 0x40 MLOAD DUP1 SWAP2 SUB SWAP1 RETURN JUMPDEST PUSH1 0x0 DUP1 SLOAD SWAP1 PUSH2 0x100 EXP SWAP1 DIV PUSH1 0xFF AND DUP2 JUMP JUMPDEST PUSH1 0x5F DUP2 PUSH1 0x8F JUMP JUMPDEST DUP3 MSTORE POP POP JUMP JUMPDEST PUSH1 0x0 PUSH1 0x20 DUP3 ADD SWAP1 POP PUSH1 0x78 PUSH1 0x0 DUP4 ADD DUP5 PUSH1 0x58 JUMP JUMPDEST SWAP3 SWAP2 POP POP JUMP JUMPDEST PUSH1 0x0 DUP2 SWAP1 POP PUSH1 0x8A DUP3 PUSH1 0xCE JUMP JUMPDEST SWAP2 SWAP1 POP JUMP JUMPDEST PUSH1 0x0 PUSH1 0x98 DUP3 PUSH1 0x7E JUMP JUMPDEST SWAP1 POP SWAP2 SWAP1 POP JUMP JUMPDEST PUSH32 0x4E487B7100000000000000000000000000000000000000000000000000000000 PUSH1 0x0 MSTORE PUSH1 0x21 PUSH1 0x4 MSTORE PUSH1 0x24 PUSH1 0x0 REVERT JUMPDEST PUSH1 0x3 DUP2 LT PUSH1 0xDC JUMPI PUSH1 0xDB PUSH1 0x9F JUMP JUMPDEST JUMPDEST POP JUMP INVALID LOG2 PUSH5 0x6970667358 0x22 SLT KECCAK256 ADDMOD 0xA8 0x4C 0xC9 LT 0xB0 JUMPDEST CALLCODE PUSH12 0xBE098AA986BC2BC9BB2F9D04 DUP8 LOG0 0x5D 0x1E 0xBE DUP9 0xBC 0x1F DUP4 LOG1 PUSH9 0x64736F6C6343000807 STOP CALLER "
				},
				"gasEstimates": {
					"creation": {
						"codeDepositCost": "55400",
						"executionCost": "105",
						"totalCost": "55505"
					},
					"external": {
						"customEnum()": "2535"
					}
				},
				"methodIdentifiers": {
					"customEnum()": "b618d2f4"
				}
			},
			"storageLayout": {
				"storage": [
					{
						"astId": 8,
						"contract": "contracts/Sample.sol:Sample",
						"label": "customEnum",
						"offset": 0,
						"slot": "0",
						"type": "t_enum(Enum)5"
					}
				],
				"types": {
					"t_enum(Enum)5": {
						"encoding": "inplace",
						"label": "enum Sample.Enum",
						"numberOfBytes": "1"
					}
				}
			},
			"userdoc": {
				"kind": "user",
				"methods": {},
				"version": 1
			}
		}
	}
}