{
	"contracts/lottery.sol": {
		"Lottery": {
			"abi": [
				{
					"inputs": [],
					"stateMutability": "nonpayable",
					"type": "constructor"
				},
				{
					"inputs": [],
					"name": "enter",
					"outputs": [],
					"stateMutability": "payable",
					"type": "function"
				},
				{
					"inputs": [],
					"name": "pickWinner",
					"outputs": [],
					"stateMutability": "nonpayable",
					"type": "function"
				},
				{
					"inputs": [],
					"name": "showPlayer",
					"outputs": [
						{
							"internalType": "address payable[]",
							"name": "",
							"type": "address[]"
						}
					],
					"stateMutability": "view",
					"type": "function"
				}
			],
			"devdoc": {
				"kind": "dev",
				"methods": {},
				"version": 1
			},
			"evm": {
				"assembly": "    /* \"contracts/lottery.sol\":58:1426  contract Lottery{\r... */\n  mstore(0x40, 0x80)\n    /* \"contracts/lottery.sol\":137:189  constructor(){\r... */\n  callvalue\n  dup1\n  iszero\n  tag_1\n  jumpi\n  0x00\n  dup1\n  revert\ntag_1:\n  pop\n    /* \"contracts/lottery.sol\":171:181  msg.sender */\n  caller\n    /* \"contracts/lottery.sol\":161:168  manager */\n  0x00\n  dup1\n    /* \"contracts/lottery.sol\":161:181  manager = msg.sender */\n  0x0100\n  exp\n  dup2\n  sload\n  dup2\n  0xffffffffffffffffffffffffffffffffffffffff\n  mul\n  not\n  and\n  swap1\n  dup4\n  0xffffffffffffffffffffffffffffffffffffffff\n  and\n  mul\n  or\n  swap1\n  sstore\n  pop\n    /* \"contracts/lottery.sol\":58:1426  contract Lottery{\r... */\n  dataSize(sub_0)\n  dup1\n  dataOffset(sub_0)\n  0x00\n  codecopy\n  0x00\n  return\nstop\n\nsub_0: assembly {\n        /* \"contracts/lottery.sol\":58:1426  contract Lottery{\r... */\n      mstore(0x40, 0x80)\n      jumpi(tag_1, lt(calldatasize, 0x04))\n      shr(0xe0, calldataload(0x00))\n      dup1\n      0x5d495aea\n      eq\n      tag_2\n      jumpi\n      dup1\n      0x87997d94\n      eq\n      tag_3\n      jumpi\n      dup1\n      0xe97dcb62\n      eq\n      tag_4\n      jumpi\n    tag_1:\n      0x00\n      dup1\n      revert\n        /* \"contracts/lottery.sol\":1009:1279  function pickWinner() public \r... */\n    tag_2:\n      callvalue\n      dup1\n      iszero\n      tag_5\n      jumpi\n      0x00\n      dup1\n      revert\n    tag_5:\n      pop\n      tag_6\n      tag_7\n      jump\t// in\n    tag_6:\n      stop\n        /* \"contracts/lottery.sol\":1310:1413  function showPlayer() view public returns (address payable [] memory ){\r... */\n    tag_3:\n      callvalue\n      dup1\n      iszero\n      tag_8\n      jumpi\n      0x00\n      dup1\n      revert\n    tag_8:\n      pop\n      tag_9\n      tag_10\n      jump\t// in\n    tag_9:\n      mload(0x40)\n      tag_11\n      swap2\n      swap1\n      tag_12\n      jump\t// in\n    tag_11:\n      mload(0x40)\n      dup1\n      swap2\n      sub\n      swap1\n      return\n        /* \"contracts/lottery.sol\":222:507  function enter() public payable{\r... */\n    tag_4:\n      tag_13\n      tag_14\n      jump\t// in\n    tag_13:\n      stop\n        /* \"contracts/lottery.sol\":1009:1279  function pickWinner() public \r... */\n    tag_7:\n        /* \"contracts/lottery.sol\":1075:1082  manager */\n      0x00\n      dup1\n      sload\n      swap1\n      0x0100\n      exp\n      swap1\n      div\n      0xffffffffffffffffffffffffffffffffffffffff\n      and\n        /* \"contracts/lottery.sol\":1063:1082  msg.sender==manager */\n      0xffffffffffffffffffffffffffffffffffffffff\n      and\n        /* \"contracts/lottery.sol\":1063:1073  msg.sender */\n      caller\n        /* \"contracts/lottery.sol\":1063:1082  msg.sender==manager */\n      0xffffffffffffffffffffffffffffffffffffffff\n      and\n      eq\n        /* \"contracts/lottery.sol\":1055:1136  require(msg.sender==manager,\"Unauthorized Person. Only manager can pick winner.\") */\n      tag_16\n      jumpi\n      mload(0x40)\n      0x08c379a000000000000000000000000000000000000000000000000000000000\n      dup2\n      mstore\n      0x04\n      add\n      tag_17\n      swap1\n      tag_18\n      jump\t// in\n    tag_17:\n      mload(0x40)\n      dup1\n      swap2\n      sub\n      swap1\n      revert\n    tag_16:\n        /* \"contracts/lottery.sol\":1147:1163  uint winnerIndex */\n      0x00\n        /* \"contracts/lottery.sol\":1166:1183  findWinnerIndex() */\n      tag_19\n        /* \"contracts/lottery.sol\":1166:1181  findWinnerIndex */\n      tag_20\n        /* \"contracts/lottery.sol\":1166:1183  findWinnerIndex() */\n      jump\t// in\n    tag_19:\n        /* \"contracts/lottery.sol\":1147:1183  uint winnerIndex = findWinnerIndex() */\n      swap1\n      pop\n        /* \"contracts/lottery.sol\":1194:1201  players */\n      0x01\n        /* \"contracts/lottery.sol\":1202:1213  winnerIndex */\n      dup2\n        /* \"contracts/lottery.sol\":1194:1214  players[winnerIndex] */\n      dup2\n      sload\n      dup2\n      lt\n      tag_21\n      jumpi\n      tag_22\n      tag_23\n      jump\t// in\n    tag_22:\n    tag_21:\n      swap1\n      0x00\n      mstore\n      keccak256(0x00, 0x20)\n      add\n      0x00\n      swap1\n      sload\n      swap1\n      0x0100\n      exp\n      swap1\n      div\n      0xffffffffffffffffffffffffffffffffffffffff\n      and\n        /* \"contracts/lottery.sol\":1194:1223  players[winnerIndex].transfer */\n      0xffffffffffffffffffffffffffffffffffffffff\n      and\n        /* \"contracts/lottery.sol\":1194:1246  players[winnerIndex].transfer(address(this).balance) */\n      0x08fc\n        /* \"contracts/lottery.sol\":1224:1245  address(this).balance */\n      selfbalance\n        /* \"contracts/lottery.sol\":1194:1246  players[winnerIndex].transfer(address(this).balance) */\n      swap1\n      dup2\n      iszero\n      mul\n      swap1\n      mload(0x40)\n      0x00\n      mload(0x40)\n      dup1\n      dup4\n      sub\n      dup2\n      dup6\n      dup9\n      dup9\n      call\n      swap4\n      pop\n      pop\n      pop\n      pop\n      iszero\n      dup1\n      iszero\n      tag_26\n      jumpi\n      returndatasize\n      0x00\n      dup1\n      returndatacopy\n      revert(0x00, returndatasize)\n    tag_26:\n      pop\n        /* \"contracts/lottery.sol\":1264:1271  players */\n      0x01\n      0x00\n        /* \"contracts/lottery.sol\":1257:1271  delete players */\n      tag_27\n      swap2\n      swap1\n      tag_28\n      jump\t// in\n    tag_27:\n        /* \"contracts/lottery.sol\":1044:1279  {\r... */\n      pop\n        /* \"contracts/lottery.sol\":1009:1279  function pickWinner() public \r... */\n      jump\t// out\n        /* \"contracts/lottery.sol\":1310:1413  function showPlayer() view public returns (address payable [] memory ){\r... */\n    tag_10:\n        /* \"contracts/lottery.sol\":1353:1378  address payable [] memory */\n      0x60\n        /* \"contracts/lottery.sol\":1398:1405  players */\n      0x01\n        /* \"contracts/lottery.sol\":1391:1405  return players */\n      dup1\n      sload\n      dup1\n      0x20\n      mul\n      0x20\n      add\n      mload(0x40)\n      swap1\n      dup2\n      add\n      0x40\n      mstore\n      dup1\n      swap3\n      swap2\n      swap1\n      dup2\n      dup2\n      mstore\n      0x20\n      add\n      dup3\n      dup1\n      sload\n      dup1\n      iszero\n      tag_30\n      jumpi\n      0x20\n      mul\n      dup3\n      add\n      swap2\n      swap1\n      0x00\n      mstore\n      keccak256(0x00, 0x20)\n      swap1\n    tag_31:\n      dup2\n      0x00\n      swap1\n      sload\n      swap1\n      0x0100\n      exp\n      swap1\n      div\n      0xffffffffffffffffffffffffffffffffffffffff\n      and\n      0xffffffffffffffffffffffffffffffffffffffff\n      and\n      dup2\n      mstore\n      0x20\n      add\n      swap1\n      0x01\n      add\n      swap1\n      dup1\n      dup4\n      gt\n      tag_31\n      jumpi\n    tag_30:\n      pop\n      pop\n      pop\n      pop\n      pop\n      swap1\n      pop\n        /* \"contracts/lottery.sol\":1310:1413  function showPlayer() view public returns (address payable [] memory ){\r... */\n      swap1\n      jump\t// out\n        /* \"contracts/lottery.sol\":222:507  function enter() public payable{\r... */\n    tag_14:\n        /* \"contracts/lottery.sol\":285:292  manager */\n      0x00\n      dup1\n      sload\n      swap1\n      0x0100\n      exp\n      swap1\n      div\n      0xffffffffffffffffffffffffffffffffffffffff\n      and\n        /* \"contracts/lottery.sol\":272:292  msg.sender !=manager */\n      0xffffffffffffffffffffffffffffffffffffffff\n      and\n        /* \"contracts/lottery.sol\":272:282  msg.sender */\n      caller\n        /* \"contracts/lottery.sol\":272:292  msg.sender !=manager */\n      0xffffffffffffffffffffffffffffffffffffffff\n      and\n      eq\n      iszero\n        /* \"contracts/lottery.sol\":264:315  require(msg.sender !=manager,\"Manager can't enter\") */\n      tag_33\n      jumpi\n      mload(0x40)\n      0x08c379a000000000000000000000000000000000000000000000000000000000\n      dup2\n      mstore\n      0x04\n      add\n      tag_34\n      swap1\n      tag_35\n      jump\t// in\n    tag_34:\n      mload(0x40)\n      dup1\n      swap2\n      sub\n      swap1\n      revert\n    tag_33:\n        /* \"contracts/lottery.sol\":352:357  false */\n      0x00\n        /* \"contracts/lottery.sol\":334:357  alreadyEntered()==false */\n      iszero\n      iszero\n        /* \"contracts/lottery.sol\":334:350  alreadyEntered() */\n      tag_36\n        /* \"contracts/lottery.sol\":334:348  alreadyEntered */\n      tag_37\n        /* \"contracts/lottery.sol\":334:350  alreadyEntered() */\n      jump\t// in\n    tag_36:\n        /* \"contracts/lottery.sol\":334:357  alreadyEntered()==false */\n      iszero\n      iszero\n      eq\n        /* \"contracts/lottery.sol\":326:386  require(alreadyEntered()==false,\"Player already registered\") */\n      tag_38\n      jumpi\n      mload(0x40)\n      0x08c379a000000000000000000000000000000000000000000000000000000000\n      dup2\n      mstore\n      0x04\n      add\n      tag_39\n      swap1\n      tag_40\n      jump\t// in\n    tag_39:\n      mload(0x40)\n      dup1\n      swap2\n      sub\n      swap1\n      revert\n    tag_38:\n        /* \"contracts/lottery.sol\":416:423  1 ether */\n      0x0de0b6b3a7640000\n        /* \"contracts/lottery.sol\":405:414  msg.value */\n      callvalue\n        /* \"contracts/lottery.sol\":405:423  msg.value>=1 ether */\n      lt\n      iszero\n        /* \"contracts/lottery.sol\":397:455  require(msg.value>=1 ether,\"Minimum amount must be payed\") */\n      tag_41\n      jumpi\n      mload(0x40)\n      0x08c379a000000000000000000000000000000000000000000000000000000000\n      dup2\n      mstore\n      0x04\n      add\n      tag_42\n      swap1\n      tag_43\n      jump\t// in\n    tag_42:\n      mload(0x40)\n      dup1\n      swap2\n      sub\n      swap1\n      revert\n    tag_41:\n        /* \"contracts/lottery.sol\":466:473  players */\n      0x01\n        /* \"contracts/lottery.sol\":487:497  msg.sender */\n      caller\n        /* \"contracts/lottery.sol\":466:499  players.push(payable(msg.sender)) */\n      swap1\n      dup1\n      0x01\n      dup2\n      sload\n      add\n      dup1\n      dup3\n      sstore\n      dup1\n      swap2\n      pop\n      pop\n      0x01\n      swap1\n      sub\n      swap1\n      0x00\n      mstore\n      keccak256(0x00, 0x20)\n      add\n      0x00\n      swap1\n      swap2\n      swap1\n      swap2\n      swap1\n      swap2\n      0x0100\n      exp\n      dup2\n      sload\n      dup2\n      0xffffffffffffffffffffffffffffffffffffffff\n      mul\n      not\n      and\n      swap1\n      dup4\n      0xffffffffffffffffffffffffffffffffffffffff\n      and\n      mul\n      or\n      swap1\n      sstore\n      pop\n        /* \"contracts/lottery.sol\":222:507  function enter() public payable{\r... */\n      jump\t// out\n        /* \"contracts/lottery.sol\":807:960  function findWinnerIndex() private view returns(uint) {\r... */\n    tag_20:\n        /* \"contracts/lottery.sol\":855:859  uint */\n      0x00\n        /* \"contracts/lottery.sol\":938:945  players */\n      0x01\n        /* \"contracts/lottery.sol\":938:952  players.length */\n      dup1\n      sload\n      swap1\n      pop\n        /* \"contracts/lottery.sol\":908:924  block.difficulty */\n      difficulty\n        /* \"contracts/lottery.sol\":926:933  players */\n      0x01\n        /* \"contracts/lottery.sol\":891:934  abi.encodePacked(block.difficulty, players) */\n      add(0x20, mload(0x40))\n      tag_46\n      swap3\n      swap2\n      swap1\n      tag_47\n      jump\t// in\n    tag_46:\n      mload(0x40)\n      0x20\n      dup2\n      dup4\n      sub\n      sub\n      dup2\n      mstore\n      swap1\n      0x40\n      mstore\n        /* \"contracts/lottery.sol\":881:935  keccak256(abi.encodePacked(block.difficulty, players)) */\n      dup1\n      mload\n      swap1\n      0x20\n      add\n      keccak256\n        /* \"contracts/lottery.sol\":876:936  uint(keccak256(abi.encodePacked(block.difficulty, players))) */\n      0x00\n      shr\n        /* \"contracts/lottery.sol\":876:952  uint(keccak256(abi.encodePacked(block.difficulty, players))) %players.length */\n      tag_48\n      swap2\n      swap1\n      tag_49\n      jump\t// in\n    tag_48:\n        /* \"contracts/lottery.sol\":869:952  return uint(keccak256(abi.encodePacked(block.difficulty, players))) %players.length */\n      swap1\n      pop\n        /* \"contracts/lottery.sol\":807:960  function findWinnerIndex() private view returns(uint) {\r... */\n      swap1\n      jump\t// out\n        /* \"contracts/lottery.sol\":556:781  function alreadyEntered() private view returns (bool)\r... */\n    tag_37:\n        /* \"contracts/lottery.sol\":604:608  bool */\n      0x00\n        /* \"contracts/lottery.sol\":630:636  uint i */\n      dup1\n        /* \"contracts/lottery.sol\":637:638  0 */\n      0x00\n        /* \"contracts/lottery.sol\":630:638  uint i=0 */\n      swap1\n      pop\n        /* \"contracts/lottery.sol\":626:751  for(uint i=0; i<players.length; i++)\r... */\n    tag_51:\n        /* \"contracts/lottery.sol\":642:649  players */\n      0x01\n        /* \"contracts/lottery.sol\":642:656  players.length */\n      dup1\n      sload\n      swap1\n      pop\n        /* \"contracts/lottery.sol\":640:641  i */\n      dup2\n        /* \"contracts/lottery.sol\":640:656  i<players.length */\n      lt\n        /* \"contracts/lottery.sol\":626:751  for(uint i=0; i<players.length; i++)\r... */\n      iszero\n      tag_52\n      jumpi\n        /* \"contracts/lottery.sol\":702:712  msg.sender */\n      caller\n        /* \"contracts/lottery.sol\":690:712  players[i]==msg.sender */\n      0xffffffffffffffffffffffffffffffffffffffff\n      and\n        /* \"contracts/lottery.sol\":690:697  players */\n      0x01\n        /* \"contracts/lottery.sol\":698:699  i */\n      dup3\n        /* \"contracts/lottery.sol\":690:700  players[i] */\n      dup2\n      sload\n      dup2\n      lt\n      tag_54\n      jumpi\n      tag_55\n      tag_23\n      jump\t// in\n    tag_55:\n    tag_54:\n      swap1\n      0x00\n      mstore\n      keccak256(0x00, 0x20)\n      add\n      0x00\n      swap1\n      sload\n      swap1\n      0x0100\n      exp\n      swap1\n      div\n      0xffffffffffffffffffffffffffffffffffffffff\n      and\n        /* \"contracts/lottery.sol\":690:712  players[i]==msg.sender */\n      0xffffffffffffffffffffffffffffffffffffffff\n      and\n      eq\n        /* \"contracts/lottery.sol\":687:739  if(players[i]==msg.sender)\r... */\n      iszero\n      tag_57\n      jumpi\n        /* \"contracts/lottery.sol\":735:739  true */\n      0x01\n        /* \"contracts/lottery.sol\":728:739  return true */\n      swap2\n      pop\n      pop\n      jump(tag_50)\n        /* \"contracts/lottery.sol\":687:739  if(players[i]==msg.sender)\r... */\n    tag_57:\n        /* \"contracts/lottery.sol\":658:661  i++ */\n      dup1\n      dup1\n      tag_58\n      swap1\n      tag_59\n      jump\t// in\n    tag_58:\n      swap2\n      pop\n      pop\n        /* \"contracts/lottery.sol\":626:751  for(uint i=0; i<players.length; i++)\r... */\n      jump(tag_51)\n    tag_52:\n      pop\n        /* \"contracts/lottery.sol\":768:773  false */\n      0x00\n        /* \"contracts/lottery.sol\":761:773  return false */\n      swap1\n      pop\n        /* \"contracts/lottery.sol\":556:781  function alreadyEntered() private view returns (bool)\r... */\n    tag_50:\n      swap1\n      jump\t// out\n    tag_28:\n      pop\n      dup1\n      sload\n      0x00\n      dup3\n      sstore\n      swap1\n      0x00\n      mstore\n      keccak256(0x00, 0x20)\n      swap1\n      dup2\n      add\n      swap1\n      tag_61\n      swap2\n      swap1\n      tag_62\n      jump\t// in\n    tag_61:\n      pop\n      jump\t// out\n    tag_62:\n    tag_63:\n      dup1\n      dup3\n      gt\n      iszero\n      tag_64\n      jumpi\n      0x00\n      dup2\n      0x00\n      swap1\n      sstore\n      pop\n      0x01\n      add\n      jump(tag_63)\n    tag_64:\n      pop\n      swap1\n      jump\t// out\n        /* \"#utility.yul\":7:218   */\n    tag_66:\n        /* \"#utility.yul\":92:102   */\n      0x00\n        /* \"#utility.yul\":113:175   */\n      tag_68\n        /* \"#utility.yul\":171:174   */\n      dup4\n        /* \"#utility.yul\":163:169   */\n      dup4\n        /* \"#utility.yul\":113:175   */\n      tag_69\n      jump\t// in\n    tag_68:\n        /* \"#utility.yul\":207:211   */\n      0x20\n        /* \"#utility.yul\":202:205   */\n      dup4\n        /* \"#utility.yul\":198:212   */\n      add\n        /* \"#utility.yul\":184:212   */\n      swap1\n      pop\n        /* \"#utility.yul\":7:218   */\n      swap3\n      swap2\n      pop\n      pop\n      jump\t// out\n        /* \"#utility.yul\":224:451   */\n    tag_70:\n        /* \"#utility.yul\":317:327   */\n      0x00\n        /* \"#utility.yul\":338:408   */\n      tag_72\n        /* \"#utility.yul\":404:407   */\n      dup4\n        /* \"#utility.yul\":396:402   */\n      dup4\n        /* \"#utility.yul\":338:408   */\n      tag_73\n      jump\t// in\n    tag_72:\n        /* \"#utility.yul\":440:444   */\n      0x20\n        /* \"#utility.yul\":435:438   */\n      dup4\n        /* \"#utility.yul\":431:445   */\n      add\n        /* \"#utility.yul\":417:445   */\n      swap1\n      pop\n        /* \"#utility.yul\":224:451   */\n      swap3\n      swap2\n      pop\n      pop\n      jump\t// out\n        /* \"#utility.yul\":457:589   */\n    tag_69:\n        /* \"#utility.yul\":550:582   */\n      tag_75\n        /* \"#utility.yul\":576:581   */\n      dup2\n        /* \"#utility.yul\":550:582   */\n      tag_76\n      jump\t// in\n    tag_75:\n        /* \"#utility.yul\":545:548   */\n      dup3\n        /* \"#utility.yul\":538:583   */\n      mstore\n        /* \"#utility.yul\":457:589   */\n      pop\n      pop\n      jump\t// out\n        /* \"#utility.yul\":595:735   */\n    tag_73:\n        /* \"#utility.yul\":696:728   */\n      tag_78\n        /* \"#utility.yul\":722:727   */\n      dup2\n        /* \"#utility.yul\":696:728   */\n      tag_76\n      jump\t// in\n    tag_78:\n        /* \"#utility.yul\":691:694   */\n      dup3\n        /* \"#utility.yul\":684:729   */\n      mstore\n        /* \"#utility.yul\":595:735   */\n      pop\n      pop\n      jump\t// out\n        /* \"#utility.yul\":787:1583   */\n    tag_79:\n        /* \"#utility.yul\":922:925   */\n      0x00\n        /* \"#utility.yul\":951:1013   */\n      tag_81\n        /* \"#utility.yul\":1007:1012   */\n      dup3\n        /* \"#utility.yul\":951:1013   */\n      tag_82\n      jump\t// in\n    tag_81:\n        /* \"#utility.yul\":1029:1123   */\n      tag_83\n        /* \"#utility.yul\":1116:1122   */\n      dup2\n        /* \"#utility.yul\":1111:1114   */\n      dup6\n        /* \"#utility.yul\":1029:1123   */\n      tag_84\n      jump\t// in\n    tag_83:\n        /* \"#utility.yul\":1022:1123   */\n      swap4\n      pop\n        /* \"#utility.yul\":1147:1211   */\n      tag_85\n        /* \"#utility.yul\":1205:1210   */\n      dup4\n        /* \"#utility.yul\":1147:1211   */\n      tag_86\n      jump\t// in\n    tag_85:\n        /* \"#utility.yul\":1234:1241   */\n      dup1\n        /* \"#utility.yul\":1265:1266   */\n      0x00\n        /* \"#utility.yul\":1250:1558   */\n    tag_87:\n        /* \"#utility.yul\":1275:1281   */\n      dup4\n        /* \"#utility.yul\":1272:1273   */\n      dup2\n        /* \"#utility.yul\":1269:1282   */\n      lt\n        /* \"#utility.yul\":1250:1558   */\n      iszero\n      tag_89\n      jumpi\n        /* \"#utility.yul\":1351:1357   */\n      dup2\n        /* \"#utility.yul\":1345:1358   */\n      mload\n        /* \"#utility.yul\":1378:1457   */\n      tag_90\n        /* \"#utility.yul\":1453:1456   */\n      dup9\n        /* \"#utility.yul\":1438:1451   */\n      dup3\n        /* \"#utility.yul\":1378:1457   */\n      tag_66\n      jump\t// in\n    tag_90:\n        /* \"#utility.yul\":1371:1457   */\n      swap8\n      pop\n        /* \"#utility.yul\":1480:1548   */\n      tag_91\n        /* \"#utility.yul\":1541:1547   */\n      dup4\n        /* \"#utility.yul\":1480:1548   */\n      tag_92\n      jump\t// in\n    tag_91:\n        /* \"#utility.yul\":1470:1548   */\n      swap3\n      pop\n        /* \"#utility.yul\":1310:1558   */\n      pop\n        /* \"#utility.yul\":1297:1298   */\n      0x01\n        /* \"#utility.yul\":1294:1295   */\n      dup2\n        /* \"#utility.yul\":1290:1299   */\n      add\n        /* \"#utility.yul\":1285:1299   */\n      swap1\n      pop\n        /* \"#utility.yul\":1250:1558   */\n      jump(tag_87)\n    tag_89:\n        /* \"#utility.yul\":1254:1268   */\n      pop\n        /* \"#utility.yul\":1574:1577   */\n      dup6\n        /* \"#utility.yul\":1567:1577   */\n      swap4\n      pop\n        /* \"#utility.yul\":927:1583   */\n      pop\n      pop\n      pop\n        /* \"#utility.yul\":787:1583   */\n      swap3\n      swap2\n      pop\n      pop\n      jump\t// out\n        /* \"#utility.yul\":1635:2502   */\n    tag_93:\n        /* \"#utility.yul\":1785:1788   */\n      0x00\n        /* \"#utility.yul\":1814:1873   */\n      tag_95\n        /* \"#utility.yul\":1867:1872   */\n      dup3\n        /* \"#utility.yul\":1814:1873   */\n      tag_96\n      jump\t// in\n    tag_95:\n        /* \"#utility.yul\":1889:2001   */\n      tag_97\n        /* \"#utility.yul\":1994:2000   */\n      dup2\n        /* \"#utility.yul\":1989:1992   */\n      dup6\n        /* \"#utility.yul\":1889:2001   */\n      tag_98\n      jump\t// in\n    tag_97:\n        /* \"#utility.yul\":1882:2001   */\n      swap4\n      pop\n        /* \"#utility.yul\":2025:2086   */\n      tag_99\n        /* \"#utility.yul\":2080:2085   */\n      dup4\n        /* \"#utility.yul\":2025:2086   */\n      tag_100\n      jump\t// in\n    tag_99:\n        /* \"#utility.yul\":2109:2116   */\n      dup1\n        /* \"#utility.yul\":2140:2141   */\n      0x00\n        /* \"#utility.yul\":2125:2477   */\n    tag_101:\n        /* \"#utility.yul\":2150:2156   */\n      dup4\n        /* \"#utility.yul\":2147:2148   */\n      dup2\n        /* \"#utility.yul\":2144:2157   */\n      lt\n        /* \"#utility.yul\":2125:2477   */\n      iszero\n      tag_103\n      jumpi\n        /* \"#utility.yul\":2220:2272   */\n      tag_104\n        /* \"#utility.yul\":2265:2271   */\n      dup3\n        /* \"#utility.yul\":2220:2272   */\n      tag_105\n      jump\t// in\n    tag_104:\n        /* \"#utility.yul\":2292:2379   */\n      tag_106\n        /* \"#utility.yul\":2375:2378   */\n      dup9\n        /* \"#utility.yul\":2360:2373   */\n      dup3\n        /* \"#utility.yul\":2292:2379   */\n      tag_70\n      jump\t// in\n    tag_106:\n        /* \"#utility.yul\":2285:2379   */\n      swap8\n      pop\n        /* \"#utility.yul\":2402:2467   */\n      tag_107\n        /* \"#utility.yul\":2460:2466   */\n      dup4\n        /* \"#utility.yul\":2402:2467   */\n      tag_108\n      jump\t// in\n    tag_107:\n        /* \"#utility.yul\":2392:2467   */\n      swap3\n      pop\n        /* \"#utility.yul\":2185:2477   */\n      pop\n        /* \"#utility.yul\":2172:2173   */\n      0x01\n        /* \"#utility.yul\":2169:2170   */\n      dup2\n        /* \"#utility.yul\":2165:2174   */\n      add\n        /* \"#utility.yul\":2160:2174   */\n      swap1\n      pop\n        /* \"#utility.yul\":2125:2477   */\n      jump(tag_101)\n    tag_103:\n        /* \"#utility.yul\":2129:2143   */\n      pop\n        /* \"#utility.yul\":2493:2496   */\n      dup6\n        /* \"#utility.yul\":2486:2496   */\n      swap4\n      pop\n        /* \"#utility.yul\":1790:2502   */\n      pop\n      pop\n      pop\n        /* \"#utility.yul\":1635:2502   */\n      swap3\n      swap2\n      pop\n      pop\n      jump\t// out\n        /* \"#utility.yul\":2508:2874   */\n    tag_109:\n        /* \"#utility.yul\":2650:2653   */\n      0x00\n        /* \"#utility.yul\":2671:2738   */\n      tag_111\n        /* \"#utility.yul\":2735:2737   */\n      0x1c\n        /* \"#utility.yul\":2730:2733   */\n      dup4\n        /* \"#utility.yul\":2671:2738   */\n      tag_112\n      jump\t// in\n    tag_111:\n        /* \"#utility.yul\":2664:2738   */\n      swap2\n      pop\n        /* \"#utility.yul\":2747:2840   */\n      tag_113\n        /* \"#utility.yul\":2836:2839   */\n      dup3\n        /* \"#utility.yul\":2747:2840   */\n      tag_114\n      jump\t// in\n    tag_113:\n        /* \"#utility.yul\":2865:2867   */\n      0x20\n        /* \"#utility.yul\":2860:2863   */\n      dup3\n        /* \"#utility.yul\":2856:2868   */\n      add\n        /* \"#utility.yul\":2849:2868   */\n      swap1\n      pop\n        /* \"#utility.yul\":2508:2874   */\n      swap2\n      swap1\n      pop\n      jump\t// out\n        /* \"#utility.yul\":2880:3246   */\n    tag_115:\n        /* \"#utility.yul\":3022:3025   */\n      0x00\n        /* \"#utility.yul\":3043:3110   */\n      tag_117\n        /* \"#utility.yul\":3107:3109   */\n      0x19\n        /* \"#utility.yul\":3102:3105   */\n      dup4\n        /* \"#utility.yul\":3043:3110   */\n      tag_112\n      jump\t// in\n    tag_117:\n        /* \"#utility.yul\":3036:3110   */\n      swap2\n      pop\n        /* \"#utility.yul\":3119:3212   */\n      tag_118\n        /* \"#utility.yul\":3208:3211   */\n      dup3\n        /* \"#utility.yul\":3119:3212   */\n      tag_119\n      jump\t// in\n    tag_118:\n        /* \"#utility.yul\":3237:3239   */\n      0x20\n        /* \"#utility.yul\":3232:3235   */\n      dup3\n        /* \"#utility.yul\":3228:3240   */\n      add\n        /* \"#utility.yul\":3221:3240   */\n      swap1\n      pop\n        /* \"#utility.yul\":2880:3246   */\n      swap2\n      swap1\n      pop\n      jump\t// out\n        /* \"#utility.yul\":3252:3618   */\n    tag_120:\n        /* \"#utility.yul\":3394:3397   */\n      0x00\n        /* \"#utility.yul\":3415:3482   */\n      tag_122\n        /* \"#utility.yul\":3479:3481   */\n      0x32\n        /* \"#utility.yul\":3474:3477   */\n      dup4\n        /* \"#utility.yul\":3415:3482   */\n      tag_112\n      jump\t// in\n    tag_122:\n        /* \"#utility.yul\":3408:3482   */\n      swap2\n      pop\n        /* \"#utility.yul\":3491:3584   */\n      tag_123\n        /* \"#utility.yul\":3580:3583   */\n      dup3\n        /* \"#utility.yul\":3491:3584   */\n      tag_124\n      jump\t// in\n    tag_123:\n        /* \"#utility.yul\":3609:3611   */\n      0x40\n        /* \"#utility.yul\":3604:3607   */\n      dup3\n        /* \"#utility.yul\":3600:3612   */\n      add\n        /* \"#utility.yul\":3593:3612   */\n      swap1\n      pop\n        /* \"#utility.yul\":3252:3618   */\n      swap2\n      swap1\n      pop\n      jump\t// out\n        /* \"#utility.yul\":3624:3990   */\n    tag_125:\n        /* \"#utility.yul\":3766:3769   */\n      0x00\n        /* \"#utility.yul\":3787:3854   */\n      tag_127\n        /* \"#utility.yul\":3851:3853   */\n      0x13\n        /* \"#utility.yul\":3846:3849   */\n      dup4\n        /* \"#utility.yul\":3787:3854   */\n      tag_112\n      jump\t// in\n    tag_127:\n        /* \"#utility.yul\":3780:3854   */\n      swap2\n      pop\n        /* \"#utility.yul\":3863:3956   */\n      tag_128\n        /* \"#utility.yul\":3952:3955   */\n      dup3\n        /* \"#utility.yul\":3863:3956   */\n      tag_129\n      jump\t// in\n    tag_128:\n        /* \"#utility.yul\":3981:3983   */\n      0x20\n        /* \"#utility.yul\":3976:3979   */\n      dup3\n        /* \"#utility.yul\":3972:3984   */\n      add\n        /* \"#utility.yul\":3965:3984   */\n      swap1\n      pop\n        /* \"#utility.yul\":3624:3990   */\n      swap2\n      swap1\n      pop\n      jump\t// out\n        /* \"#utility.yul\":3996:4153   */\n    tag_130:\n        /* \"#utility.yul\":4101:4146   */\n      tag_132\n        /* \"#utility.yul\":4121:4145   */\n      tag_133\n        /* \"#utility.yul\":4139:4144   */\n      dup3\n        /* \"#utility.yul\":4121:4145   */\n      tag_134\n      jump\t// in\n    tag_133:\n        /* \"#utility.yul\":4101:4146   */\n      tag_135\n      jump\t// in\n    tag_132:\n        /* \"#utility.yul\":4096:4099   */\n      dup3\n        /* \"#utility.yul\":4089:4147   */\n      mstore\n        /* \"#utility.yul\":3996:4153   */\n      pop\n      pop\n      jump\t// out\n        /* \"#utility.yul\":4159:4661   */\n    tag_47:\n        /* \"#utility.yul\":4362:4365   */\n      0x00\n        /* \"#utility.yul\":4377:4452   */\n      tag_137\n        /* \"#utility.yul\":4448:4451   */\n      dup3\n        /* \"#utility.yul\":4439:4445   */\n      dup6\n        /* \"#utility.yul\":4377:4452   */\n      tag_130\n      jump\t// in\n    tag_137:\n        /* \"#utility.yul\":4477:4479   */\n      0x20\n        /* \"#utility.yul\":4472:4475   */\n      dup3\n        /* \"#utility.yul\":4468:4480   */\n      add\n        /* \"#utility.yul\":4461:4480   */\n      swap2\n      pop\n        /* \"#utility.yul\":4497:4635   */\n      tag_138\n        /* \"#utility.yul\":4631:4634   */\n      dup3\n        /* \"#utility.yul\":4622:4628   */\n      dup5\n        /* \"#utility.yul\":4497:4635   */\n      tag_93\n      jump\t// in\n    tag_138:\n        /* \"#utility.yul\":4490:4635   */\n      swap2\n      pop\n        /* \"#utility.yul\":4652:4655   */\n      dup2\n        /* \"#utility.yul\":4645:4655   */\n      swap1\n      pop\n        /* \"#utility.yul\":4159:4661   */\n      swap4\n      swap3\n      pop\n      pop\n      pop\n      jump\t// out\n        /* \"#utility.yul\":4667:5072   */\n    tag_12:\n        /* \"#utility.yul\":4826:4830   */\n      0x00\n        /* \"#utility.yul\":4864:4866   */\n      0x20\n        /* \"#utility.yul\":4853:4862   */\n      dup3\n        /* \"#utility.yul\":4849:4867   */\n      add\n        /* \"#utility.yul\":4841:4867   */\n      swap1\n      pop\n        /* \"#utility.yul\":4913:4922   */\n      dup2\n        /* \"#utility.yul\":4907:4911   */\n      dup2\n        /* \"#utility.yul\":4903:4923   */\n      sub\n        /* \"#utility.yul\":4899:4900   */\n      0x00\n        /* \"#utility.yul\":4888:4897   */\n      dup4\n        /* \"#utility.yul\":4884:4901   */\n      add\n        /* \"#utility.yul\":4877:4924   */\n      mstore\n        /* \"#utility.yul\":4941:5065   */\n      tag_140\n        /* \"#utility.yul\":5060:5064   */\n      dup2\n        /* \"#utility.yul\":5051:5057   */\n      dup5\n        /* \"#utility.yul\":4941:5065   */\n      tag_79\n      jump\t// in\n    tag_140:\n        /* \"#utility.yul\":4933:5065   */\n      swap1\n      pop\n        /* \"#utility.yul\":4667:5072   */\n      swap3\n      swap2\n      pop\n      pop\n      jump\t// out\n        /* \"#utility.yul\":5078:5497   */\n    tag_43:\n        /* \"#utility.yul\":5244:5248   */\n      0x00\n        /* \"#utility.yul\":5282:5284   */\n      0x20\n        /* \"#utility.yul\":5271:5280   */\n      dup3\n        /* \"#utility.yul\":5267:5285   */\n      add\n        /* \"#utility.yul\":5259:5285   */\n      swap1\n      pop\n        /* \"#utility.yul\":5331:5340   */\n      dup2\n        /* \"#utility.yul\":5325:5329   */\n      dup2\n        /* \"#utility.yul\":5321:5341   */\n      sub\n        /* \"#utility.yul\":5317:5318   */\n      0x00\n        /* \"#utility.yul\":5306:5315   */\n      dup4\n        /* \"#utility.yul\":5302:5319   */\n      add\n        /* \"#utility.yul\":5295:5342   */\n      mstore\n        /* \"#utility.yul\":5359:5490   */\n      tag_142\n        /* \"#utility.yul\":5485:5489   */\n      dup2\n        /* \"#utility.yul\":5359:5490   */\n      tag_109\n      jump\t// in\n    tag_142:\n        /* \"#utility.yul\":5351:5490   */\n      swap1\n      pop\n        /* \"#utility.yul\":5078:5497   */\n      swap2\n      swap1\n      pop\n      jump\t// out\n        /* \"#utility.yul\":5503:5922   */\n    tag_40:\n        /* \"#utility.yul\":5669:5673   */\n      0x00\n        /* \"#utility.yul\":5707:5709   */\n      0x20\n        /* \"#utility.yul\":5696:5705   */\n      dup3\n        /* \"#utility.yul\":5692:5710   */\n      add\n        /* \"#utility.yul\":5684:5710   */\n      swap1\n      pop\n        /* \"#utility.yul\":5756:5765   */\n      dup2\n        /* \"#utility.yul\":5750:5754   */\n      dup2\n        /* \"#utility.yul\":5746:5766   */\n      sub\n        /* \"#utility.yul\":5742:5743   */\n      0x00\n        /* \"#utility.yul\":5731:5740   */\n      dup4\n        /* \"#utility.yul\":5727:5744   */\n      add\n        /* \"#utility.yul\":5720:5767   */\n      mstore\n        /* \"#utility.yul\":5784:5915   */\n      tag_144\n        /* \"#utility.yul\":5910:5914   */\n      dup2\n        /* \"#utility.yul\":5784:5915   */\n      tag_115\n      jump\t// in\n    tag_144:\n        /* \"#utility.yul\":5776:5915   */\n      swap1\n      pop\n        /* \"#utility.yul\":5503:5922   */\n      swap2\n      swap1\n      pop\n      jump\t// out\n        /* \"#utility.yul\":5928:6347   */\n    tag_18:\n        /* \"#utility.yul\":6094:6098   */\n      0x00\n        /* \"#utility.yul\":6132:6134   */\n      0x20\n        /* \"#utility.yul\":6121:6130   */\n      dup3\n        /* \"#utility.yul\":6117:6135   */\n      add\n        /* \"#utility.yul\":6109:6135   */\n      swap1\n      pop\n        /* \"#utility.yul\":6181:6190   */\n      dup2\n        /* \"#utility.yul\":6175:6179   */\n      dup2\n        /* \"#utility.yul\":6171:6191   */\n      sub\n        /* \"#utility.yul\":6167:6168   */\n      0x00\n        /* \"#utility.yul\":6156:6165   */\n      dup4\n        /* \"#utility.yul\":6152:6169   */\n      add\n        /* \"#utility.yul\":6145:6192   */\n      mstore\n        /* \"#utility.yul\":6209:6340   */\n      tag_146\n        /* \"#utility.yul\":6335:6339   */\n      dup2\n        /* \"#utility.yul\":6209:6340   */\n      tag_120\n      jump\t// in\n    tag_146:\n        /* \"#utility.yul\":6201:6340   */\n      swap1\n      pop\n        /* \"#utility.yul\":5928:6347   */\n      swap2\n      swap1\n      pop\n      jump\t// out\n        /* \"#utility.yul\":6353:6772   */\n    tag_35:\n        /* \"#utility.yul\":6519:6523   */\n      0x00\n        /* \"#utility.yul\":6557:6559   */\n      0x20\n        /* \"#utility.yul\":6546:6555   */\n      dup3\n        /* \"#utility.yul\":6542:6560   */\n      add\n        /* \"#utility.yul\":6534:6560   */\n      swap1\n      pop\n        /* \"#utility.yul\":6606:6615   */\n      dup2\n        /* \"#utility.yul\":6600:6604   */\n      dup2\n        /* \"#utility.yul\":6596:6616   */\n      sub\n        /* \"#utility.yul\":6592:6593   */\n      0x00\n        /* \"#utility.yul\":6581:6590   */\n      dup4\n        /* \"#utility.yul\":6577:6594   */\n      add\n        /* \"#utility.yul\":6570:6617   */\n      mstore\n        /* \"#utility.yul\":6634:6765   */\n      tag_148\n        /* \"#utility.yul\":6760:6764   */\n      dup2\n        /* \"#utility.yul\":6634:6765   */\n      tag_125\n      jump\t// in\n    tag_148:\n        /* \"#utility.yul\":6626:6765   */\n      swap1\n      pop\n        /* \"#utility.yul\":6353:6772   */\n      swap2\n      swap1\n      pop\n      jump\t// out\n        /* \"#utility.yul\":6778:6918   */\n    tag_86:\n        /* \"#utility.yul\":6853:6857   */\n      0x00\n        /* \"#utility.yul\":6876:6879   */\n      dup2\n        /* \"#utility.yul\":6868:6879   */\n      swap1\n      pop\n        /* \"#utility.yul\":6906:6910   */\n      0x20\n        /* \"#utility.yul\":6901:6904   */\n      dup3\n        /* \"#utility.yul\":6897:6911   */\n      add\n        /* \"#utility.yul\":6889:6911   */\n      swap1\n      pop\n        /* \"#utility.yul\":6778:6918   */\n      swap2\n      swap1\n      pop\n      jump\t// out\n        /* \"#utility.yul\":6924:7088   */\n    tag_100:\n        /* \"#utility.yul\":6996:7000   */\n      0x00\n        /* \"#utility.yul\":7019:7022   */\n      dup2\n        /* \"#utility.yul\":7011:7022   */\n      swap1\n      pop\n        /* \"#utility.yul\":7042:7045   */\n      dup2\n        /* \"#utility.yul\":7039:7040   */\n      0x00\n        /* \"#utility.yul\":7032:7046   */\n      mstore\n        /* \"#utility.yul\":7076:7080   */\n      0x20\n        /* \"#utility.yul\":7073:7074   */\n      0x00\n        /* \"#utility.yul\":7063:7081   */\n      keccak256\n        /* \"#utility.yul\":7055:7081   */\n      swap1\n      pop\n        /* \"#utility.yul\":6924:7088   */\n      swap2\n      swap1\n      pop\n      jump\t// out\n        /* \"#utility.yul\":7094:7216   */\n    tag_82:\n        /* \"#utility.yul\":7169:7175   */\n      0x00\n        /* \"#utility.yul\":7203:7208   */\n      dup2\n        /* \"#utility.yul\":7197:7209   */\n      mload\n        /* \"#utility.yul\":7187:7209   */\n      swap1\n      pop\n        /* \"#utility.yul\":7094:7216   */\n      swap2\n      swap1\n      pop\n      jump\t// out\n        /* \"#utility.yul\":7222:7341   */\n    tag_96:\n        /* \"#utility.yul\":7294:7300   */\n      0x00\n        /* \"#utility.yul\":7328:7333   */\n      dup2\n        /* \"#utility.yul\":7322:7334   */\n      sload\n        /* \"#utility.yul\":7312:7334   */\n      swap1\n      pop\n        /* \"#utility.yul\":7222:7341   */\n      swap2\n      swap1\n      pop\n      jump\t// out\n        /* \"#utility.yul\":7347:7468   */\n    tag_92:\n        /* \"#utility.yul\":7425:7429   */\n      0x00\n        /* \"#utility.yul\":7457:7461   */\n      0x20\n        /* \"#utility.yul\":7452:7455   */\n      dup3\n        /* \"#utility.yul\":7448:7462   */\n      add\n        /* \"#utility.yul\":7440:7462   */\n      swap1\n      pop\n        /* \"#utility.yul\":7347:7468   */\n      swap2\n      swap1\n      pop\n      jump\t// out\n        /* \"#utility.yul\":7474:7592   */\n    tag_108:\n        /* \"#utility.yul\":7549:7553   */\n      0x00\n        /* \"#utility.yul\":7581:7585   */\n      0x01\n        /* \"#utility.yul\":7576:7579   */\n      dup3\n        /* \"#utility.yul\":7572:7586   */\n      add\n        /* \"#utility.yul\":7564:7586   */\n      swap1\n      pop\n        /* \"#utility.yul\":7474:7592   */\n      swap2\n      swap1\n      pop\n      jump\t// out\n        /* \"#utility.yul\":7598:7790   */\n    tag_84:\n        /* \"#utility.yul\":7705:7716   */\n      0x00\n        /* \"#utility.yul\":7739:7745   */\n      dup3\n        /* \"#utility.yul\":7734:7737   */\n      dup3\n        /* \"#utility.yul\":7727:7746   */\n      mstore\n        /* \"#utility.yul\":7779:7783   */\n      0x20\n        /* \"#utility.yul\":7774:7777   */\n      dup3\n        /* \"#utility.yul\":7770:7784   */\n      add\n        /* \"#utility.yul\":7755:7784   */\n      swap1\n      pop\n        /* \"#utility.yul\":7598:7790   */\n      swap3\n      swap2\n      pop\n      pop\n      jump\t// out\n        /* \"#utility.yul\":7796:7967   */\n    tag_98:\n        /* \"#utility.yul\":7921:7932   */\n      0x00\n        /* \"#utility.yul\":7958:7961   */\n      dup2\n        /* \"#utility.yul\":7943:7961   */\n      swap1\n      pop\n        /* \"#utility.yul\":7796:7967   */\n      swap3\n      swap2\n      pop\n      pop\n      jump\t// out\n        /* \"#utility.yul\":7973:8142   */\n    tag_112:\n        /* \"#utility.yul\":8057:8068   */\n      0x00\n        /* \"#utility.yul\":8091:8097   */\n      dup3\n        /* \"#utility.yul\":8086:8089   */\n      dup3\n        /* \"#utility.yul\":8079:8098   */\n      mstore\n        /* \"#utility.yul\":8131:8135   */\n      0x20\n        /* \"#utility.yul\":8126:8129   */\n      dup3\n        /* \"#utility.yul\":8122:8136   */\n      add\n        /* \"#utility.yul\":8107:8136   */\n      swap1\n      pop\n        /* \"#utility.yul\":7973:8142   */\n      swap3\n      swap2\n      pop\n      pop\n      jump\t// out\n        /* \"#utility.yul\":8148:8295   */\n    tag_158:\n        /* \"#utility.yul\":8206:8213   */\n      0x00\n        /* \"#utility.yul\":8246:8288   */\n      0xffffffffffffffffffffffffffffffffffffffff\n        /* \"#utility.yul\":8239:8244   */\n      dup3\n        /* \"#utility.yul\":8235:8289   */\n      and\n        /* \"#utility.yul\":8224:8289   */\n      swap1\n      pop\n        /* \"#utility.yul\":8148:8295   */\n      swap2\n      swap1\n      pop\n      jump\t// out\n        /* \"#utility.yul\":8301:8405   */\n    tag_76:\n        /* \"#utility.yul\":8346:8353   */\n      0x00\n        /* \"#utility.yul\":8375:8399   */\n      tag_161\n        /* \"#utility.yul\":8393:8398   */\n      dup3\n        /* \"#utility.yul\":8375:8399   */\n      tag_162\n      jump\t// in\n    tag_161:\n        /* \"#utility.yul\":8364:8399   */\n      swap1\n      pop\n        /* \"#utility.yul\":8301:8405   */\n      swap2\n      swap1\n      pop\n      jump\t// out\n        /* \"#utility.yul\":8411:8537   */\n    tag_162:\n        /* \"#utility.yul\":8448:8455   */\n      0x00\n        /* \"#utility.yul\":8488:8530   */\n      0xffffffffffffffffffffffffffffffffffffffff\n        /* \"#utility.yul\":8481:8486   */\n      dup3\n        /* \"#utility.yul\":8477:8531   */\n      and\n        /* \"#utility.yul\":8466:8531   */\n      swap1\n      pop\n        /* \"#utility.yul\":8411:8537   */\n      swap2\n      swap1\n      pop\n      jump\t// out\n        /* \"#utility.yul\":8543:8620   */\n    tag_134:\n        /* \"#utility.yul\":8580:8587   */\n      0x00\n        /* \"#utility.yul\":8609:8614   */\n      dup2\n        /* \"#utility.yul\":8598:8614   */\n      swap1\n      pop\n        /* \"#utility.yul\":8543:8620   */\n      swap2\n      swap1\n      pop\n      jump\t// out\n        /* \"#utility.yul\":8626:8808   */\n    tag_165:\n        /* \"#utility.yul\":8703:8708   */\n      0x00\n        /* \"#utility.yul\":8728:8802   */\n      tag_167\n        /* \"#utility.yul\":8767:8801   */\n      tag_168\n        /* \"#utility.yul\":8790:8800   */\n      dup4\n        /* \"#utility.yul\":8767:8801   */\n      tag_169\n      jump\t// in\n    tag_168:\n        /* \"#utility.yul\":8728:8802   */\n      tag_158\n      jump\t// in\n    tag_167:\n        /* \"#utility.yul\":8719:8802   */\n      swap1\n      pop\n        /* \"#utility.yul\":8626:8808   */\n      swap2\n      swap1\n      pop\n      jump\t// out\n        /* \"#utility.yul\":8814:9047   */\n    tag_59:\n        /* \"#utility.yul\":8853:8856   */\n      0x00\n        /* \"#utility.yul\":8876:8900   */\n      tag_171\n        /* \"#utility.yul\":8894:8899   */\n      dup3\n        /* \"#utility.yul\":8876:8900   */\n      tag_134\n      jump\t// in\n    tag_171:\n        /* \"#utility.yul\":8867:8900   */\n      swap2\n      pop\n        /* \"#utility.yul\":8922:8988   */\n      0xffffffffffffffffffffffffffffffffffffffffffffffffffffffffffffffff\n        /* \"#utility.yul\":8915:8920   */\n      dup3\n        /* \"#utility.yul\":8912:8989   */\n      eq\n        /* \"#utility.yul\":8909:9012   */\n      iszero\n      tag_172\n      jumpi\n        /* \"#utility.yul\":8992:9010   */\n      tag_173\n      tag_174\n      jump\t// in\n    tag_173:\n        /* \"#utility.yul\":8909:9012   */\n    tag_172:\n        /* \"#utility.yul\":9039:9040   */\n      0x01\n        /* \"#utility.yul\":9032:9037   */\n      dup3\n        /* \"#utility.yul\":9028:9041   */\n      add\n        /* \"#utility.yul\":9021:9041   */\n      swap1\n      pop\n        /* \"#utility.yul\":8814:9047   */\n      swap2\n      swap1\n      pop\n      jump\t// out\n        /* \"#utility.yul\":9053:9132   */\n    tag_135:\n        /* \"#utility.yul\":9092:9099   */\n      0x00\n        /* \"#utility.yul\":9121:9126   */\n      dup2\n        /* \"#utility.yul\":9110:9126   */\n      swap1\n      pop\n        /* \"#utility.yul\":9053:9132   */\n      swap2\n      swap1\n      pop\n      jump\t// out\n        /* \"#utility.yul\":9138:9314   */\n    tag_49:\n        /* \"#utility.yul\":9170:9171   */\n      0x00\n        /* \"#utility.yul\":9187:9207   */\n      tag_177\n        /* \"#utility.yul\":9205:9206   */\n      dup3\n        /* \"#utility.yul\":9187:9207   */\n      tag_134\n      jump\t// in\n    tag_177:\n        /* \"#utility.yul\":9182:9207   */\n      swap2\n      pop\n        /* \"#utility.yul\":9221:9241   */\n      tag_178\n        /* \"#utility.yul\":9239:9240   */\n      dup4\n        /* \"#utility.yul\":9221:9241   */\n      tag_134\n      jump\t// in\n    tag_178:\n        /* \"#utility.yul\":9216:9241   */\n      swap3\n      pop\n        /* \"#utility.yul\":9260:9261   */\n      dup3\n        /* \"#utility.yul\":9250:9285   */\n      tag_179\n      jumpi\n        /* \"#utility.yul\":9265:9283   */\n      tag_180\n      tag_181\n      jump\t// in\n    tag_180:\n        /* \"#utility.yul\":9250:9285   */\n    tag_179:\n        /* \"#utility.yul\":9306:9307   */\n      dup3\n        /* \"#utility.yul\":9303:9304   */\n      dup3\n        /* \"#utility.yul\":9299:9308   */\n      mod\n        /* \"#utility.yul\":9294:9308   */\n      swap1\n      pop\n        /* \"#utility.yul\":9138:9314   */\n      swap3\n      swap2\n      pop\n      pop\n      jump\t// out\n        /* \"#utility.yul\":9320:9500   */\n    tag_174:\n        /* \"#utility.yul\":9368:9445   */\n      0x4e487b7100000000000000000000000000000000000000000000000000000000\n        /* \"#utility.yul\":9365:9366   */\n      0x00\n        /* \"#utility.yul\":9358:9446   */\n      mstore\n        /* \"#utility.yul\":9465:9469   */\n      0x11\n        /* \"#utility.yul\":9462:9463   */\n      0x04\n        /* \"#utility.yul\":9455:9470   */\n      mstore\n        /* \"#utility.yul\":9489:9493   */\n      0x24\n        /* \"#utility.yul\":9486:9487   */\n      0x00\n        /* \"#utility.yul\":9479:9494   */\n      revert\n        /* \"#utility.yul\":9506:9686   */\n    tag_181:\n        /* \"#utility.yul\":9554:9631   */\n      0x4e487b7100000000000000000000000000000000000000000000000000000000\n        /* \"#utility.yul\":9551:9552   */\n      0x00\n        /* \"#utility.yul\":9544:9632   */\n      mstore\n        /* \"#utility.yul\":9651:9655   */\n      0x12\n        /* \"#utility.yul\":9648:9649   */\n      0x04\n        /* \"#utility.yul\":9641:9656   */\n      mstore\n        /* \"#utility.yul\":9675:9679   */\n      0x24\n        /* \"#utility.yul\":9672:9673   */\n      0x00\n        /* \"#utility.yul\":9665:9680   */\n      revert\n        /* \"#utility.yul\":9692:9872   */\n    tag_23:\n        /* \"#utility.yul\":9740:9817   */\n      0x4e487b7100000000000000000000000000000000000000000000000000000000\n        /* \"#utility.yul\":9737:9738   */\n      0x00\n        /* \"#utility.yul\":9730:9818   */\n      mstore\n        /* \"#utility.yul\":9837:9841   */\n      0x32\n        /* \"#utility.yul\":9834:9835   */\n      0x04\n        /* \"#utility.yul\":9827:9842   */\n      mstore\n        /* \"#utility.yul\":9861:9865   */\n      0x24\n        /* \"#utility.yul\":9858:9859   */\n      0x00\n        /* \"#utility.yul\":9851:9866   */\n      revert\n        /* \"#utility.yul\":9878:10038   */\n    tag_105:\n        /* \"#utility.yul\":9941:9946   */\n      0x00\n        /* \"#utility.yul\":9966:10031   */\n      tag_186\n        /* \"#utility.yul\":10025:10029   */\n      dup3\n        /* \"#utility.yul\":10019:10030   */\n      sload\n        /* \"#utility.yul\":9966:10031   */\n      tag_165\n      jump\t// in\n    tag_186:\n        /* \"#utility.yul\":9957:10031   */\n      swap1\n      pop\n        /* \"#utility.yul\":9878:10038   */\n      swap2\n      swap1\n      pop\n      jump\t// out\n        /* \"#utility.yul\":10044:10146   */\n    tag_169:\n        /* \"#utility.yul\":10086:10094   */\n      0x00\n        /* \"#utility.yul\":10133:10138   */\n      dup2\n        /* \"#utility.yul\":10130:10131   */\n      0x00\n        /* \"#utility.yul\":10126:10139   */\n      shr\n        /* \"#utility.yul\":10105:10139   */\n      swap1\n      pop\n        /* \"#utility.yul\":10044:10146   */\n      swap2\n      swap1\n      pop\n      jump\t// out\n        /* \"#utility.yul\":10152:10330   */\n    tag_114:\n        /* \"#utility.yul\":10292:10322   */\n      0x4d696e696d756d20616d6f756e74206d75737420626520706179656400000000\n        /* \"#utility.yul\":10288:10289   */\n      0x00\n        /* \"#utility.yul\":10280:10286   */\n      dup3\n        /* \"#utility.yul\":10276:10290   */\n      add\n        /* \"#utility.yul\":10269:10323   */\n      mstore\n        /* \"#utility.yul\":10152:10330   */\n      pop\n      jump\t// out\n        /* \"#utility.yul\":10336:10511   */\n    tag_119:\n        /* \"#utility.yul\":10476:10503   */\n      0x506c6179657220616c7265616479207265676973746572656400000000000000\n        /* \"#utility.yul\":10472:10473   */\n      0x00\n        /* \"#utility.yul\":10464:10470   */\n      dup3\n        /* \"#utility.yul\":10460:10474   */\n      add\n        /* \"#utility.yul\":10453:10504   */\n      mstore\n        /* \"#utility.yul\":10336:10511   */\n      pop\n      jump\t// out\n        /* \"#utility.yul\":10517:10754   */\n    tag_124:\n        /* \"#utility.yul\":10657:10691   */\n      0x556e617574686f72697a656420506572736f6e2e204f6e6c79206d616e616765\n        /* \"#utility.yul\":10653:10654   */\n      0x00\n        /* \"#utility.yul\":10645:10651   */\n      dup3\n        /* \"#utility.yul\":10641:10655   */\n      add\n        /* \"#utility.yul\":10634:10692   */\n      mstore\n        /* \"#utility.yul\":10726:10746   */\n      0x722063616e207069636b2077696e6e65722e0000000000000000000000000000\n        /* \"#utility.yul\":10721:10723   */\n      0x20\n        /* \"#utility.yul\":10713:10719   */\n      dup3\n        /* \"#utility.yul\":10709:10724   */\n      add\n        /* \"#utility.yul\":10702:10747   */\n      mstore\n        /* \"#utility.yul\":10517:10754   */\n      pop\n      jump\t// out\n        /* \"#utility.yul\":10760:10929   */\n    tag_129:\n        /* \"#utility.yul\":10900:10921   */\n      0x4d616e616765722063616e277420656e74657200000000000000000000000000\n        /* \"#utility.yul\":10896:10897   */\n      0x00\n        /* \"#utility.yul\":10888:10894   */\n      dup3\n        /* \"#utility.yul\":10884:10898   */\n      add\n        /* \"#utility.yul\":10877:10922   */\n      mstore\n        /* \"#utility.yul\":10760:10929   */\n      pop\n      jump\t// out\n\n    auxdata: 0xa26469706673582212202435e0db79f9ea83f7991105b761632ce1dccc5a8e1e8b9460c7f9b1ce8f7ef164736f6c63430008070033\n}\n",
				"bytecode": {
					"linkReferences": {},
					"object": "608060405234801561001057600080fd5b50336000806101000a81548173ffffffffffffffffffffffffffffffffffffffff021916908373ffffffffffffffffffffffffffffffffffffffff160217905550610aa6806100606000396000f3fe6080604052600436106100345760003560e01c80635d495aea1461003957806387997d9414610050578063e97dcb621461007b575b600080fd5b34801561004557600080fd5b5061004e610085565b005b34801561005c57600080fd5b506100656101b5565b60405161007291906106db565b60405180910390f35b610083610243565b005b60008054906101000a900473ffffffffffffffffffffffffffffffffffffffff1673ffffffffffffffffffffffffffffffffffffffff163373ffffffffffffffffffffffffffffffffffffffff1614610113576040517f08c379a000000000000000000000000000000000000000000000000000000000815260040161010a9061073d565b60405180910390fd5b600061011d6103d0565b90506001818154811061013357610132610957565b5b9060005260206000200160009054906101000a900473ffffffffffffffffffffffffffffffffffffffff1673ffffffffffffffffffffffffffffffffffffffff166108fc479081150290604051600060405180830381858888f193505050501580156101a3573d6000803e3d6000fd5b50600160006101b291906104c1565b50565b6060600180548060200260200160405190810160405280929190818152602001828054801561023957602002820191906000526020600020905b8160009054906101000a900473ffffffffffffffffffffffffffffffffffffffff1673ffffffffffffffffffffffffffffffffffffffff16815260200190600101908083116101ef575b5050505050905090565b60008054906101000a900473ffffffffffffffffffffffffffffffffffffffff1673ffffffffffffffffffffffffffffffffffffffff163373ffffffffffffffffffffffffffffffffffffffff1614156102d2576040517f08c379a00000000000000000000000000000000000000000000000000000000081526004016102c99061075d565b60405180910390fd5b600015156102de610414565b151514610320576040517f08c379a00000000000000000000000000000000000000000000000000000000081526004016103179061071d565b60405180910390fd5b670de0b6b3a764000034101561036b576040517f08c379a0000000000000000000000000000000000000000000000000000000008152600401610362906106fd565b60405180910390fd5b6001339080600181540180825580915050600190039060005260206000200160009091909190916101000a81548173ffffffffffffffffffffffffffffffffffffffff021916908373ffffffffffffffffffffffffffffffffffffffff160217905550565b60006001805490504460016040516020016103ec9291906106b3565b6040516020818303038152906040528051906020012060001c61040f91906108c8565b905090565b600080600090505b6001805490508110156104b8573373ffffffffffffffffffffffffffffffffffffffff166001828154811061045457610453610957565b5b9060005260206000200160009054906101000a900473ffffffffffffffffffffffffffffffffffffffff1673ffffffffffffffffffffffffffffffffffffffff1614156104a55760019150506104be565b80806104b090610875565b91505061041c565b50600090505b90565b50805460008255906000526020600020908101906104df91906104e2565b50565b5b808211156104fb5760008160009055506001016104e3565b5090565b600061050b838361052f565b60208301905092915050565b6000610523838361053e565b60208301905092915050565b6105388161081f565b82525050565b6105478161081f565b82525050565b6000610558826107a2565b61056281856107d2565b935061056d8361077d565b8060005b8381101561059e57815161058588826104ff565b9750610590836107b8565b925050600181019050610571565b5085935050505092915050565b60006105b6826107ad565b6105c081856107e3565b93506105cb8361078d565b8060005b83811015610603576105e082610986565b6105ea8882610517565b97506105f5836107c5565b9250506001810190506105cf565b5085935050505092915050565b600061061d601c836107ee565b9150610628826109a6565b602082019050919050565b60006106406019836107ee565b915061064b826109cf565b602082019050919050565b60006106636032836107ee565b915061066e826109f8565b604082019050919050565b60006106866013836107ee565b915061069182610a47565b602082019050919050565b6106ad6106a882610851565b6108be565b82525050565b60006106bf828561069c565b6020820191506106cf82846105ab565b91508190509392505050565b600060208201905081810360008301526106f5818461054d565b905092915050565b6000602082019050818103600083015261071681610610565b9050919050565b6000602082019050818103600083015261073681610633565b9050919050565b6000602082019050818103600083015261075681610656565b9050919050565b6000602082019050818103600083015261077681610679565b9050919050565b6000819050602082019050919050565b60008190508160005260206000209050919050565b600081519050919050565b600081549050919050565b6000602082019050919050565b6000600182019050919050565b600082825260208201905092915050565b600081905092915050565b600082825260208201905092915050565b600073ffffffffffffffffffffffffffffffffffffffff82169050919050565b600061082a82610831565b9050919050565b600073ffffffffffffffffffffffffffffffffffffffff82169050919050565b6000819050919050565b600061086e61086983610999565b6107ff565b9050919050565b600061088082610851565b91507fffffffffffffffffffffffffffffffffffffffffffffffffffffffffffffffff8214156108b3576108b26108f9565b5b600182019050919050565b6000819050919050565b60006108d382610851565b91506108de83610851565b9250826108ee576108ed610928565b5b828206905092915050565b7f4e487b7100000000000000000000000000000000000000000000000000000000600052601160045260246000fd5b7f4e487b7100000000000000000000000000000000000000000000000000000000600052601260045260246000fd5b7f4e487b7100000000000000000000000000000000000000000000000000000000600052603260045260246000fd5b6000610992825461085b565b9050919050565b60008160001c9050919050565b7f4d696e696d756d20616d6f756e74206d75737420626520706179656400000000600082015250565b7f506c6179657220616c7265616479207265676973746572656400000000000000600082015250565b7f556e617574686f72697a656420506572736f6e2e204f6e6c79206d616e61676560008201527f722063616e207069636b2077696e6e65722e0000000000000000000000000000602082015250565b7f4d616e616765722063616e277420656e7465720000000000000000000000000060008201525056fea26469706673582212202435e0db79f9ea83f7991105b761632ce1dccc5a8e1e8b9460c7f9b1ce8f7ef164736f6c63430008070033",
					"opcodes": "PUSH1 0x80 PUSH1 0x40 MSTORE CALLVALUE DUP1 ISZERO PUSH2 0x10 JUMPI PUSH1 0x0 DUP1 REVERT JUMPDEST POP CALLER PUSH1 0x0 DUP1 PUSH2 0x100 EXP DUP2 SLOAD DUP2 PUSH20 0xFFFFFFFFFFFFFFFFFFFFFFFFFFFFFFFFFFFFFFFF MUL NOT AND SWAP1 DUP4 PUSH20 0xFFFFFFFFFFFFFFFFFFFFFFFFFFFFFFFFFFFFFFFF AND MUL OR SWAP1 SSTORE POP PUSH2 0xAA6 DUP1 PUSH2 0x60 PUSH1 0x0 CODECOPY PUSH1 0x0 RETURN INVALID PUSH1 0x80 PUSH1 0x40 MSTORE PUSH1 0x4 CALLDATASIZE LT PUSH2 0x34 JUMPI PUSH1 0x0 CALLDATALOAD PUSH1 0xE0 SHR DUP1 PUSH4 0x5D495AEA EQ PUSH2 0x39 JUMPI DUP1 PUSH4 0x87997D94 EQ PUSH2 0x50 JUMPI DUP1 PUSH4 0xE97DCB62 EQ PUSH2 0x7B JUMPI JUMPDEST PUSH1 0x0 DUP1 REVERT JUMPDEST CALLVALUE DUP1 ISZERO PUSH2 0x45 JUMPI PUSH1 0x0 DUP1 REVERT JUMPDEST POP PUSH2 0x4E PUSH2 0x85 JUMP JUMPDEST STOP JUMPDEST CALLVALUE DUP1 ISZERO PUSH2 0x5C JUMPI PUSH1 0x0 DUP1 REVERT JUMPDEST POP PUSH2 0x65 PUSH2 0x1B5 JUMP JUMPDEST PUSH1 0x40 MLOAD PUSH2 0x72 SWAP2 SWAP1 PUSH2 0x6DB JUMP JUMPDEST PUSH1 0x40 MLOAD DUP1 SWAP2 SUB SWAP1 RETURN JUMPDEST PUSH2 0x83 PUSH2 0x243 JUMP JUMPDEST STOP JUMPDEST PUSH1 0x0 DUP1 SLOAD SWAP1 PUSH2 0x100 EXP SWAP1 DIV PUSH20 0xFFFFFFFFFFFFFFFFFFFFFFFFFFFFFFFFFFFFFFFF AND PUSH20 0xFFFFFFFFFFFFFFFFFFFFFFFFFFFFFFFFFFFFFFFF AND CALLER PUSH20 0xFFFFFFFFFFFFFFFFFFFFFFFFFFFFFFFFFFFFFFFF AND EQ PUSH2 0x113 JUMPI PUSH1 0x40 MLOAD PUSH32 0x8C379A000000000000000000000000000000000000000000000000000000000 DUP2 MSTORE PUSH1 0x4 ADD PUSH2 0x10A SWAP1 PUSH2 0x73D JUMP JUMPDEST PUSH1 0x40 MLOAD DUP1 SWAP2 SUB SWAP1 REVERT JUMPDEST PUSH1 0x0 PUSH2 0x11D PUSH2 0x3D0 JUMP JUMPDEST SWAP1 POP PUSH1 0x1 DUP2 DUP2 SLOAD DUP2 LT PUSH2 0x133 JUMPI PUSH2 0x132 PUSH2 0x957 JUMP JUMPDEST JUMPDEST SWAP1 PUSH1 0x0 MSTORE PUSH1 0x20 PUSH1 0x0 KECCAK256 ADD PUSH1 0x0 SWAP1 SLOAD SWAP1 PUSH2 0x100 EXP SWAP1 DIV PUSH20 0xFFFFFFFFFFFFFFFFFFFFFFFFFFFFFFFFFFFFFFFF AND PUSH20 0xFFFFFFFFFFFFFFFFFFFFFFFFFFFFFFFFFFFFFFFF AND PUSH2 0x8FC SELFBALANCE SWAP1 DUP2 ISZERO MUL SWAP1 PUSH1 0x40 MLOAD PUSH1 0x0 PUSH1 0x40 MLOAD DUP1 DUP4 SUB DUP2 DUP6 DUP9 DUP9 CALL SWAP4 POP POP POP POP ISZERO DUP1 ISZERO PUSH2 0x1A3 JUMPI RETURNDATASIZE PUSH1 0x0 DUP1 RETURNDATACOPY RETURNDATASIZE PUSH1 0x0 REVERT JUMPDEST POP PUSH1 0x1 PUSH1 0x0 PUSH2 0x1B2 SWAP2 SWAP1 PUSH2 0x4C1 JUMP JUMPDEST POP JUMP JUMPDEST PUSH1 0x60 PUSH1 0x1 DUP1 SLOAD DUP1 PUSH1 0x20 MUL PUSH1 0x20 ADD PUSH1 0x40 MLOAD SWAP1 DUP2 ADD PUSH1 0x40 MSTORE DUP1 SWAP3 SWAP2 SWAP1 DUP2 DUP2 MSTORE PUSH1 0x20 ADD DUP3 DUP1 SLOAD DUP1 ISZERO PUSH2 0x239 JUMPI PUSH1 0x20 MUL DUP3 ADD SWAP2 SWAP1 PUSH1 0x0 MSTORE PUSH1 0x20 PUSH1 0x0 KECCAK256 SWAP1 JUMPDEST DUP2 PUSH1 0x0 SWAP1 SLOAD SWAP1 PUSH2 0x100 EXP SWAP1 DIV PUSH20 0xFFFFFFFFFFFFFFFFFFFFFFFFFFFFFFFFFFFFFFFF AND PUSH20 0xFFFFFFFFFFFFFFFFFFFFFFFFFFFFFFFFFFFFFFFF AND DUP2 MSTORE PUSH1 0x20 ADD SWAP1 PUSH1 0x1 ADD SWAP1 DUP1 DUP4 GT PUSH2 0x1EF JUMPI JUMPDEST POP POP POP POP POP SWAP1 POP SWAP1 JUMP JUMPDEST PUSH1 0x0 DUP1 SLOAD SWAP1 PUSH2 0x100 EXP SWAP1 DIV PUSH20 0xFFFFFFFFFFFFFFFFFFFFFFFFFFFFFFFFFFFFFFFF AND PUSH20 0xFFFFFFFFFFFFFFFFFFFFFFFFFFFFFFFFFFFFFFFF AND CALLER PUSH20 0xFFFFFFFFFFFFFFFFFFFFFFFFFFFFFFFFFFFFFFFF AND EQ ISZERO PUSH2 0x2D2 JUMPI PUSH1 0x40 MLOAD PUSH32 0x8C379A000000000000000000000000000000000000000000000000000000000 DUP2 MSTORE PUSH1 0x4 ADD PUSH2 0x2C9 SWAP1 PUSH2 0x75D JUMP JUMPDEST PUSH1 0x40 MLOAD DUP1 SWAP2 SUB SWAP1 REVERT JUMPDEST PUSH1 0x0 ISZERO ISZERO PUSH2 0x2DE PUSH2 0x414 JUMP JUMPDEST ISZERO ISZERO EQ PUSH2 0x320 JUMPI PUSH1 0x40 MLOAD PUSH32 0x8C379A000000000000000000000000000000000000000000000000000000000 DUP2 MSTORE PUSH1 0x4 ADD PUSH2 0x317 SWAP1 PUSH2 0x71D JUMP JUMPDEST PUSH1 0x40 MLOAD DUP1 SWAP2 SUB SWAP1 REVERT JUMPDEST PUSH8 0xDE0B6B3A7640000 CALLVALUE LT ISZERO PUSH2 0x36B JUMPI PUSH1 0x40 MLOAD PUSH32 0x8C379A000000000000000000000000000000000000000000000000000000000 DUP2 MSTORE PUSH1 0x4 ADD PUSH2 0x362 SWAP1 PUSH2 0x6FD JUMP JUMPDEST PUSH1 0x40 MLOAD DUP1 SWAP2 SUB SWAP1 REVERT JUMPDEST PUSH1 0x1 CALLER SWAP1 DUP1 PUSH1 0x1 DUP2 SLOAD ADD DUP1 DUP3 SSTORE DUP1 SWAP2 POP POP PUSH1 0x1 SWAP1 SUB SWAP1 PUSH1 0x0 MSTORE PUSH1 0x20 PUSH1 0x0 KECCAK256 ADD PUSH1 0x0 SWAP1 SWAP2 SWAP1 SWAP2 SWAP1 SWAP2 PUSH2 0x100 EXP DUP2 SLOAD DUP2 PUSH20 0xFFFFFFFFFFFFFFFFFFFFFFFFFFFFFFFFFFFFFFFF MUL NOT AND SWAP1 DUP4 PUSH20 0xFFFFFFFFFFFFFFFFFFFFFFFFFFFFFFFFFFFFFFFF AND MUL OR SWAP1 SSTORE POP JUMP JUMPDEST PUSH1 0x0 PUSH1 0x1 DUP1 SLOAD SWAP1 POP DIFFICULTY PUSH1 0x1 PUSH1 0x40 MLOAD PUSH1 0x20 ADD PUSH2 0x3EC SWAP3 SWAP2 SWAP1 PUSH2 0x6B3 JUMP JUMPDEST PUSH1 0x40 MLOAD PUSH1 0x20 DUP2 DUP4 SUB SUB DUP2 MSTORE SWAP1 PUSH1 0x40 MSTORE DUP1 MLOAD SWAP1 PUSH1 0x20 ADD KECCAK256 PUSH1 0x0 SHR PUSH2 0x40F SWAP2 SWAP1 PUSH2 0x8C8 JUMP JUMPDEST SWAP1 POP SWAP1 JUMP JUMPDEST PUSH1 0x0 DUP1 PUSH1 0x0 SWAP1 POP JUMPDEST PUSH1 0x1 DUP1 SLOAD SWAP1 POP DUP2 LT ISZERO PUSH2 0x4B8 JUMPI CALLER PUSH20 0xFFFFFFFFFFFFFFFFFFFFFFFFFFFFFFFFFFFFFFFF AND PUSH1 0x1 DUP3 DUP2 SLOAD DUP2 LT PUSH2 0x454 JUMPI PUSH2 0x453 PUSH2 0x957 JUMP JUMPDEST JUMPDEST SWAP1 PUSH1 0x0 MSTORE PUSH1 0x20 PUSH1 0x0 KECCAK256 ADD PUSH1 0x0 SWAP1 SLOAD SWAP1 PUSH2 0x100 EXP SWAP1 DIV PUSH20 0xFFFFFFFFFFFFFFFFFFFFFFFFFFFFFFFFFFFFFFFF AND PUSH20 0xFFFFFFFFFFFFFFFFFFFFFFFFFFFFFFFFFFFFFFFF AND EQ ISZERO PUSH2 0x4A5 JUMPI PUSH1 0x1 SWAP2 POP POP PUSH2 0x4BE JUMP JUMPDEST DUP1 DUP1 PUSH2 0x4B0 SWAP1 PUSH2 0x875 JUMP JUMPDEST SWAP2 POP POP PUSH2 0x41C JUMP JUMPDEST POP PUSH1 0x0 SWAP1 POP JUMPDEST SWAP1 JUMP JUMPDEST POP DUP1 SLOAD PUSH1 0x0 DUP3 SSTORE SWAP1 PUSH1 0x0 MSTORE PUSH1 0x20 PUSH1 0x0 KECCAK256 SWAP1 DUP2 ADD SWAP1 PUSH2 0x4DF SWAP2 SWAP1 PUSH2 0x4E2 JUMP JUMPDEST POP JUMP JUMPDEST JUMPDEST DUP1 DUP3 GT ISZERO PUSH2 0x4FB JUMPI PUSH1 0x0 DUP2 PUSH1 0x0 SWAP1 SSTORE POP PUSH1 0x1 ADD PUSH2 0x4E3 JUMP JUMPDEST POP SWAP1 JUMP JUMPDEST PUSH1 0x0 PUSH2 0x50B DUP4 DUP4 PUSH2 0x52F JUMP JUMPDEST PUSH1 0x20 DUP4 ADD SWAP1 POP SWAP3 SWAP2 POP POP JUMP JUMPDEST PUSH1 0x0 PUSH2 0x523 DUP4 DUP4 PUSH2 0x53E JUMP JUMPDEST PUSH1 0x20 DUP4 ADD SWAP1 POP SWAP3 SWAP2 POP POP JUMP JUMPDEST PUSH2 0x538 DUP2 PUSH2 0x81F JUMP JUMPDEST DUP3 MSTORE POP POP JUMP JUMPDEST PUSH2 0x547 DUP2 PUSH2 0x81F JUMP JUMPDEST DUP3 MSTORE POP POP JUMP JUMPDEST PUSH1 0x0 PUSH2 0x558 DUP3 PUSH2 0x7A2 JUMP JUMPDEST PUSH2 0x562 DUP2 DUP6 PUSH2 0x7D2 JUMP JUMPDEST SWAP4 POP PUSH2 0x56D DUP4 PUSH2 0x77D JUMP JUMPDEST DUP1 PUSH1 0x0 JUMPDEST DUP4 DUP2 LT ISZERO PUSH2 0x59E JUMPI DUP2 MLOAD PUSH2 0x585 DUP9 DUP3 PUSH2 0x4FF JUMP JUMPDEST SWAP8 POP PUSH2 0x590 DUP4 PUSH2 0x7B8 JUMP JUMPDEST SWAP3 POP POP PUSH1 0x1 DUP2 ADD SWAP1 POP PUSH2 0x571 JUMP JUMPDEST POP DUP6 SWAP4 POP POP POP POP SWAP3 SWAP2 POP POP JUMP JUMPDEST PUSH1 0x0 PUSH2 0x5B6 DUP3 PUSH2 0x7AD JUMP JUMPDEST PUSH2 0x5C0 DUP2 DUP6 PUSH2 0x7E3 JUMP JUMPDEST SWAP4 POP PUSH2 0x5CB DUP4 PUSH2 0x78D JUMP JUMPDEST DUP1 PUSH1 0x0 JUMPDEST DUP4 DUP2 LT ISZERO PUSH2 0x603 JUMPI PUSH2 0x5E0 DUP3 PUSH2 0x986 JUMP JUMPDEST PUSH2 0x5EA DUP9 DUP3 PUSH2 0x517 JUMP JUMPDEST SWAP8 POP PUSH2 0x5F5 DUP4 PUSH2 0x7C5 JUMP JUMPDEST SWAP3 POP POP PUSH1 0x1 DUP2 ADD SWAP1 POP PUSH2 0x5CF JUMP JUMPDEST POP DUP6 SWAP4 POP POP POP POP SWAP3 SWAP2 POP POP JUMP JUMPDEST PUSH1 0x0 PUSH2 0x61D PUSH1 0x1C DUP4 PUSH2 0x7EE JUMP JUMPDEST SWAP2 POP PUSH2 0x628 DUP3 PUSH2 0x9A6 JUMP JUMPDEST PUSH1 0x20 DUP3 ADD SWAP1 POP SWAP2 SWAP1 POP JUMP JUMPDEST PUSH1 0x0 PUSH2 0x640 PUSH1 0x19 DUP4 PUSH2 0x7EE JUMP JUMPDEST SWAP2 POP PUSH2 0x64B DUP3 PUSH2 0x9CF JUMP JUMPDEST PUSH1 0x20 DUP3 ADD SWAP1 POP SWAP2 SWAP1 POP JUMP JUMPDEST PUSH1 0x0 PUSH2 0x663 PUSH1 0x32 DUP4 PUSH2 0x7EE JUMP JUMPDEST SWAP2 POP PUSH2 0x66E DUP3 PUSH2 0x9F8 JUMP JUMPDEST PUSH1 0x40 DUP3 ADD SWAP1 POP SWAP2 SWAP1 POP JUMP JUMPDEST PUSH1 0x0 PUSH2 0x686 PUSH1 0x13 DUP4 PUSH2 0x7EE JUMP JUMPDEST SWAP2 POP PUSH2 0x691 DUP3 PUSH2 0xA47 JUMP JUMPDEST PUSH1 0x20 DUP3 ADD SWAP1 POP SWAP2 SWAP1 POP JUMP JUMPDEST PUSH2 0x6AD PUSH2 0x6A8 DUP3 PUSH2 0x851 JUMP JUMPDEST PUSH2 0x8BE JUMP JUMPDEST DUP3 MSTORE POP POP JUMP JUMPDEST PUSH1 0x0 PUSH2 0x6BF DUP3 DUP6 PUSH2 0x69C JUMP JUMPDEST PUSH1 0x20 DUP3 ADD SWAP2 POP PUSH2 0x6CF DUP3 DUP5 PUSH2 0x5AB JUMP JUMPDEST SWAP2 POP DUP2 SWAP1 POP SWAP4 SWAP3 POP POP POP JUMP JUMPDEST PUSH1 0x0 PUSH1 0x20 DUP3 ADD SWAP1 POP DUP2 DUP2 SUB PUSH1 0x0 DUP4 ADD MSTORE PUSH2 0x6F5 DUP2 DUP5 PUSH2 0x54D JUMP JUMPDEST SWAP1 POP SWAP3 SWAP2 POP POP JUMP JUMPDEST PUSH1 0x0 PUSH1 0x20 DUP3 ADD SWAP1 POP DUP2 DUP2 SUB PUSH1 0x0 DUP4 ADD MSTORE PUSH2 0x716 DUP2 PUSH2 0x610 JUMP JUMPDEST SWAP1 POP SWAP2 SWAP1 POP JUMP JUMPDEST PUSH1 0x0 PUSH1 0x20 DUP3 ADD SWAP1 POP DUP2 DUP2 SUB PUSH1 0x0 DUP4 ADD MSTORE PUSH2 0x736 DUP2 PUSH2 0x633 JUMP JUMPDEST SWAP1 POP SWAP2 SWAP1 POP JUMP JUMPDEST PUSH1 0x0 PUSH1 0x20 DUP3 ADD SWAP1 POP DUP2 DUP2 SUB PUSH1 0x0 DUP4 ADD MSTORE PUSH2 0x756 DUP2 PUSH2 0x656 JUMP JUMPDEST SWAP1 POP SWAP2 SWAP1 POP JUMP JUMPDEST PUSH1 0x0 PUSH1 0x20 DUP3 ADD SWAP1 POP DUP2 DUP2 SUB PUSH1 0x0 DUP4 ADD MSTORE PUSH2 0x776 DUP2 PUSH2 0x679 JUMP JUMPDEST SWAP1 POP SWAP2 SWAP1 POP JUMP JUMPDEST PUSH1 0x0 DUP2 SWAP1 POP PUSH1 0x20 DUP3 ADD SWAP1 POP SWAP2 SWAP1 POP JUMP JUMPDEST PUSH1 0x0 DUP2 SWAP1 POP DUP2 PUSH1 0x0 MSTORE PUSH1 0x20 PUSH1 0x0 KECCAK256 SWAP1 POP SWAP2 SWAP1 POP JUMP JUMPDEST PUSH1 0x0 DUP2 MLOAD SWAP1 POP SWAP2 SWAP1 POP JUMP JUMPDEST PUSH1 0x0 DUP2 SLOAD SWAP1 POP SWAP2 SWAP1 POP JUMP JUMPDEST PUSH1 0x0 PUSH1 0x20 DUP3 ADD SWAP1 POP SWAP2 SWAP1 POP JUMP JUMPDEST PUSH1 0x0 PUSH1 0x1 DUP3 ADD SWAP1 POP SWAP2 SWAP1 POP JUMP JUMPDEST PUSH1 0x0 DUP3 DUP3 MSTORE PUSH1 0x20 DUP3 ADD SWAP1 POP SWAP3 SWAP2 POP POP JUMP JUMPDEST PUSH1 0x0 DUP2 SWAP1 POP SWAP3 SWAP2 POP POP JUMP JUMPDEST PUSH1 0x0 DUP3 DUP3 MSTORE PUSH1 0x20 DUP3 ADD SWAP1 POP SWAP3 SWAP2 POP POP JUMP JUMPDEST PUSH1 0x0 PUSH20 0xFFFFFFFFFFFFFFFFFFFFFFFFFFFFFFFFFFFFFFFF DUP3 AND SWAP1 POP SWAP2 SWAP1 POP JUMP JUMPDEST PUSH1 0x0 PUSH2 0x82A DUP3 PUSH2 0x831 JUMP JUMPDEST SWAP1 POP SWAP2 SWAP1 POP JUMP JUMPDEST PUSH1 0x0 PUSH20 0xFFFFFFFFFFFFFFFFFFFFFFFFFFFFFFFFFFFFFFFF DUP3 AND SWAP1 POP SWAP2 SWAP1 POP JUMP JUMPDEST PUSH1 0x0 DUP2 SWAP1 POP SWAP2 SWAP1 POP JUMP JUMPDEST PUSH1 0x0 PUSH2 0x86E PUSH2 0x869 DUP4 PUSH2 0x999 JUMP JUMPDEST PUSH2 0x7FF JUMP JUMPDEST SWAP1 POP SWAP2 SWAP1 POP JUMP JUMPDEST PUSH1 0x0 PUSH2 0x880 DUP3 PUSH2 0x851 JUMP JUMPDEST SWAP2 POP PUSH32 0xFFFFFFFFFFFFFFFFFFFFFFFFFFFFFFFFFFFFFFFFFFFFFFFFFFFFFFFFFFFFFFFF DUP3 EQ ISZERO PUSH2 0x8B3 JUMPI PUSH2 0x8B2 PUSH2 0x8F9 JUMP JUMPDEST JUMPDEST PUSH1 0x1 DUP3 ADD SWAP1 POP SWAP2 SWAP1 POP JUMP JUMPDEST PUSH1 0x0 DUP2 SWAP1 POP SWAP2 SWAP1 POP JUMP JUMPDEST PUSH1 0x0 PUSH2 0x8D3 DUP3 PUSH2 0x851 JUMP JUMPDEST SWAP2 POP PUSH2 0x8DE DUP4 PUSH2 0x851 JUMP JUMPDEST SWAP3 POP DUP3 PUSH2 0x8EE JUMPI PUSH2 0x8ED PUSH2 0x928 JUMP JUMPDEST JUMPDEST DUP3 DUP3 MOD SWAP1 POP SWAP3 SWAP2 POP POP JUMP JUMPDEST PUSH32 0x4E487B7100000000000000000000000000000000000000000000000000000000 PUSH1 0x0 MSTORE PUSH1 0x11 PUSH1 0x4 MSTORE PUSH1 0x24 PUSH1 0x0 REVERT JUMPDEST PUSH32 0x4E487B7100000000000000000000000000000000000000000000000000000000 PUSH1 0x0 MSTORE PUSH1 0x12 PUSH1 0x4 MSTORE PUSH1 0x24 PUSH1 0x0 REVERT JUMPDEST PUSH32 0x4E487B7100000000000000000000000000000000000000000000000000000000 PUSH1 0x0 MSTORE PUSH1 0x32 PUSH1 0x4 MSTORE PUSH1 0x24 PUSH1 0x0 REVERT JUMPDEST PUSH1 0x0 PUSH2 0x992 DUP3 SLOAD PUSH2 0x85B JUMP JUMPDEST SWAP1 POP SWAP2 SWAP1 POP JUMP JUMPDEST PUSH1 0x0 DUP2 PUSH1 0x0 SHR SWAP1 POP SWAP2 SWAP1 POP JUMP JUMPDEST PUSH32 0x4D696E696D756D20616D6F756E74206D75737420626520706179656400000000 PUSH1 0x0 DUP3 ADD MSTORE POP JUMP JUMPDEST PUSH32 0x506C6179657220616C7265616479207265676973746572656400000000000000 PUSH1 0x0 DUP3 ADD MSTORE POP JUMP JUMPDEST PUSH32 0x556E617574686F72697A656420506572736F6E2E204F6E6C79206D616E616765 PUSH1 0x0 DUP3 ADD MSTORE PUSH32 0x722063616E207069636B2077696E6E65722E0000000000000000000000000000 PUSH1 0x20 DUP3 ADD MSTORE POP JUMP JUMPDEST PUSH32 0x4D616E616765722063616E277420656E74657200000000000000000000000000 PUSH1 0x0 DUP3 ADD MSTORE POP JUMP INVALID LOG2 PUSH5 0x6970667358 0x22 SLT KECCAK256 0x24 CALLDATALOAD 0xE0 0xDB PUSH26 0xF9EA83F7991105B761632CE1DCCC5A8E1E8B9460C7F9B1CE8F7E CALL PUSH5 0x736F6C6343 STOP ADDMOD SMOD STOP CALLER "
				},
				"gasEstimates": {
					"creation": {
						"codeDepositCost": "545200",
						"executionCost": "24847",
						"totalCost": "570047"
					},
					"external": {
						"enter()": "infinite",
						"pickWinner()": "infinite",
						"showPlayer()": "infinite"
					},
					"internal": {
						"alreadyEntered()": "infinite",
						"findWinnerIndex()": "infinite"
					}
				},
				"methodIdentifiers": {
					"enter()": "e97dcb62",
					"pickWinner()": "5d495aea",
					"showPlayer()": "87997d94"
				}
			},
			"storageLayout": {
				"storage": [
					{
						"astId": 3,
						"contract": "contracts/lottery.sol:Lottery",
						"label": "manager",
						"offset": 0,
						"slot": "0",
						"type": "t_address"
					},
					{
						"astId": 6,
						"contract": "contracts/lottery.sol:Lottery",
						"label": "players",
						"offset": 0,
						"slot": "1",
						"type": "t_array(t_address_payable)dyn_storage"
					}
				],
				"types": {
					"t_address": {
						"encoding": "inplace",
						"label": "address",
						"numberOfBytes": "20"
					},
					"t_address_payable": {
						"encoding": "inplace",
						"label": "address payable",
						"numberOfBytes": "20"
					},
					"t_array(t_address_payable)dyn_storage": {
						"base": "t_address_payable",
						"encoding": "dynamic_array",
						"label": "address payable[]",
						"numberOfBytes": "32"
					}
				}
			},
			"userdoc": {
				"kind": "user",
				"methods": {},
				"version": 1
			}
		}
	}
}