{
	"contracts/lottery.sol": {
		"Lottery": {
			"abi": [
				{
					"inputs": [],
					"stateMutability": "nonpayable",
					"type": "constructor"
				},
				{
					"inputs": [
						{
							"internalType": "address",
							"name": "_newUserAdd",
							"type": "address"
						}
					],
					"name": "enter",
					"outputs": [],
					"stateMutability": "payable",
					"type": "function"
				},
				{
					"inputs": [],
					"name": "manager",
					"outputs": [
						{
							"internalType": "address",
							"name": "",
							"type": "address"
						}
					],
					"stateMutability": "view",
					"type": "function"
				},
				{
					"inputs": [
						{
							"internalType": "uint256",
							"name": "",
							"type": "uint256"
						}
					],
					"name": "players",
					"outputs": [
						{
							"internalType": "address payable",
							"name": "",
							"type": "address"
						}
					],
					"stateMutability": "view",
					"type": "function"
				}
			],
			"devdoc": {
				"kind": "dev",
				"methods": {},
				"version": 1
			},
			"evm": {
				"assembly": "    /* \"contracts/lottery.sol\":58:691  contract Lottery{\r... */\n  mstore(0x40, 0x80)\n    /* \"contracts/lottery.sol\":150:202  constructor(){\r... */\n  callvalue\n  dup1\n  iszero\n  tag_1\n  jumpi\n  0x00\n  dup1\n  revert\ntag_1:\n  pop\n    /* \"contracts/lottery.sol\":184:194  msg.sender */\n  caller\n    /* \"contracts/lottery.sol\":174:181  manager */\n  0x00\n  dup1\n    /* \"contracts/lottery.sol\":174:194  manager = msg.sender */\n  0x0100\n  exp\n  dup2\n  sload\n  dup2\n  0xffffffffffffffffffffffffffffffffffffffff\n  mul\n  not\n  and\n  swap1\n  dup4\n  0xffffffffffffffffffffffffffffffffffffffff\n  and\n  mul\n  or\n  swap1\n  sstore\n  pop\n    /* \"contracts/lottery.sol\":58:691  contract Lottery{\r... */\n  dataSize(sub_0)\n  dup1\n  dataOffset(sub_0)\n  0x00\n  codecopy\n  0x00\n  return\nstop\n\nsub_0: assembly {\n        /* \"contracts/lottery.sol\":58:691  contract Lottery{\r... */\n      mstore(0x40, 0x80)\n      jumpi(tag_1, lt(calldatasize, 0x04))\n      shr(0xe0, calldataload(0x00))\n      dup1\n      0x481c6a75\n      eq\n      tag_2\n      jumpi\n      dup1\n      0xd014c01f\n      eq\n      tag_3\n      jumpi\n      dup1\n      0xf71d96cb\n      eq\n      tag_4\n      jumpi\n    tag_1:\n      0x00\n      dup1\n      revert\n        /* \"contracts/lottery.sol\":81:103  address public manager */\n    tag_2:\n      callvalue\n      dup1\n      iszero\n      tag_5\n      jumpi\n      0x00\n      dup1\n      revert\n    tag_5:\n      pop\n      tag_6\n      tag_7\n      jump\t// in\n    tag_6:\n      mload(0x40)\n      tag_8\n      swap2\n      swap1\n      tag_9\n      jump\t// in\n    tag_8:\n      mload(0x40)\n      dup1\n      swap2\n      sub\n      swap1\n      return\n        /* \"contracts/lottery.sol\":210:403  function enter(address _newUserAdd) public payable{\r... */\n    tag_3:\n      tag_10\n      0x04\n      dup1\n      calldatasize\n      sub\n      dup2\n      add\n      swap1\n      tag_11\n      swap2\n      swap1\n      tag_12\n      jump\t// in\n    tag_11:\n      tag_13\n      jump\t// in\n    tag_10:\n      stop\n        /* \"contracts/lottery.sol\":111:143  address payable[] public players */\n    tag_4:\n      callvalue\n      dup1\n      iszero\n      tag_14\n      jumpi\n      0x00\n      dup1\n      revert\n    tag_14:\n      pop\n      tag_15\n      0x04\n      dup1\n      calldatasize\n      sub\n      dup2\n      add\n      swap1\n      tag_16\n      swap2\n      swap1\n      tag_17\n      jump\t// in\n    tag_16:\n      tag_18\n      jump\t// in\n    tag_15:\n      mload(0x40)\n      tag_19\n      swap2\n      swap1\n      tag_20\n      jump\t// in\n    tag_19:\n      mload(0x40)\n      dup1\n      swap2\n      sub\n      swap1\n      return\n        /* \"contracts/lottery.sol\":81:103  address public manager */\n    tag_7:\n      0x00\n      dup1\n      sload\n      swap1\n      0x0100\n      exp\n      swap1\n      div\n      0xffffffffffffffffffffffffffffffffffffffff\n      and\n      dup2\n      jump\t// out\n        /* \"contracts/lottery.sol\":210:403  function enter(address _newUserAdd) public payable{\r... */\n    tag_13:\n        /* \"contracts/lottery.sol\":292:299  manager */\n      0x00\n      dup1\n      sload\n      swap1\n      0x0100\n      exp\n      swap1\n      div\n      0xffffffffffffffffffffffffffffffffffffffff\n      and\n        /* \"contracts/lottery.sol\":279:299  msg.sender !=manager */\n      0xffffffffffffffffffffffffffffffffffffffff\n      and\n        /* \"contracts/lottery.sol\":279:289  msg.sender */\n      caller\n        /* \"contracts/lottery.sol\":279:299  msg.sender !=manager */\n      0xffffffffffffffffffffffffffffffffffffffff\n      and\n      eq\n      iszero\n        /* \"contracts/lottery.sol\":271:322  require(msg.sender !=manager,\"Manager can't enter\") */\n      tag_22\n      jumpi\n      mload(0x40)\n      0x08c379a000000000000000000000000000000000000000000000000000000000\n      dup2\n      mstore\n      0x04\n      add\n      tag_23\n      swap1\n      tag_24\n      jump\t// in\n    tag_23:\n      mload(0x40)\n      dup1\n      swap2\n      sub\n      swap1\n      revert\n    tag_22:\n        /* \"contracts/lottery.sol\":359:364  false */\n      0x00\n        /* \"contracts/lottery.sol\":341:364  alreadyEntered()==false */\n      iszero\n      iszero\n        /* \"contracts/lottery.sol\":341:357  alreadyEntered() */\n      tag_25\n        /* \"contracts/lottery.sol\":341:355  alreadyEntered */\n      tag_26\n        /* \"contracts/lottery.sol\":341:357  alreadyEntered() */\n      jump\t// in\n    tag_25:\n        /* \"contracts/lottery.sol\":341:364  alreadyEntered()==false */\n      iszero\n      iszero\n      eq\n        /* \"contracts/lottery.sol\":333:393  require(alreadyEntered()==false,\"Player already registered\") */\n      tag_27\n      jumpi\n      mload(0x40)\n      0x08c379a000000000000000000000000000000000000000000000000000000000\n      dup2\n      mstore\n      0x04\n      add\n      tag_28\n      swap1\n      tag_29\n      jump\t// in\n    tag_28:\n      mload(0x40)\n      dup1\n      swap2\n      sub\n      swap1\n      revert\n    tag_27:\n        /* \"contracts/lottery.sol\":210:403  function enter(address _newUserAdd) public payable{\r... */\n      pop\n      jump\t// out\n        /* \"contracts/lottery.sol\":111:143  address payable[] public players */\n    tag_18:\n      0x01\n      dup2\n      dup2\n      sload\n      dup2\n      lt\n      tag_30\n      jumpi\n      0x00\n      dup1\n      revert\n    tag_30:\n      swap1\n      0x00\n      mstore\n      keccak256(0x00, 0x20)\n      add\n      0x00\n      swap2\n      pop\n      sload\n      swap1\n      0x0100\n      exp\n      swap1\n      div\n      0xffffffffffffffffffffffffffffffffffffffff\n      and\n      dup2\n      jump\t// out\n        /* \"contracts/lottery.sol\":452:678  function alreadyEntered() internal view returns (bool)\r... */\n    tag_26:\n        /* \"contracts/lottery.sol\":501:505  bool */\n      0x00\n        /* \"contracts/lottery.sol\":527:533  uint i */\n      dup1\n        /* \"contracts/lottery.sol\":534:535  0 */\n      0x00\n        /* \"contracts/lottery.sol\":527:535  uint i=0 */\n      swap1\n      pop\n        /* \"contracts/lottery.sol\":523:648  for(uint i=0; i<players.length; i++)\r... */\n    tag_33:\n        /* \"contracts/lottery.sol\":539:546  players */\n      0x01\n        /* \"contracts/lottery.sol\":539:553  players.length */\n      dup1\n      sload\n      swap1\n      pop\n        /* \"contracts/lottery.sol\":537:538  i */\n      dup2\n        /* \"contracts/lottery.sol\":537:553  i<players.length */\n      lt\n        /* \"contracts/lottery.sol\":523:648  for(uint i=0; i<players.length; i++)\r... */\n      iszero\n      tag_34\n      jumpi\n        /* \"contracts/lottery.sol\":599:609  msg.sender */\n      caller\n        /* \"contracts/lottery.sol\":587:609  players[i]==msg.sender */\n      0xffffffffffffffffffffffffffffffffffffffff\n      and\n        /* \"contracts/lottery.sol\":587:594  players */\n      0x01\n        /* \"contracts/lottery.sol\":595:596  i */\n      dup3\n        /* \"contracts/lottery.sol\":587:597  players[i] */\n      dup2\n      sload\n      dup2\n      lt\n      tag_36\n      jumpi\n      tag_37\n      tag_38\n      jump\t// in\n    tag_37:\n    tag_36:\n      swap1\n      0x00\n      mstore\n      keccak256(0x00, 0x20)\n      add\n      0x00\n      swap1\n      sload\n      swap1\n      0x0100\n      exp\n      swap1\n      div\n      0xffffffffffffffffffffffffffffffffffffffff\n      and\n        /* \"contracts/lottery.sol\":587:609  players[i]==msg.sender */\n      0xffffffffffffffffffffffffffffffffffffffff\n      and\n      eq\n        /* \"contracts/lottery.sol\":584:636  if(players[i]==msg.sender)\r... */\n      iszero\n      tag_40\n      jumpi\n        /* \"contracts/lottery.sol\":632:636  true */\n      0x01\n        /* \"contracts/lottery.sol\":625:636  return true */\n      swap2\n      pop\n      pop\n      jump(tag_32)\n        /* \"contracts/lottery.sol\":584:636  if(players[i]==msg.sender)\r... */\n    tag_40:\n        /* \"contracts/lottery.sol\":555:558  i++ */\n      dup1\n      dup1\n      tag_41\n      swap1\n      tag_42\n      jump\t// in\n    tag_41:\n      swap2\n      pop\n      pop\n        /* \"contracts/lottery.sol\":523:648  for(uint i=0; i<players.length; i++)\r... */\n      jump(tag_33)\n    tag_34:\n      pop\n        /* \"contracts/lottery.sol\":665:670  false */\n      0x00\n        /* \"contracts/lottery.sol\":658:670  return false */\n      swap1\n      pop\n        /* \"contracts/lottery.sol\":452:678  function alreadyEntered() internal view returns (bool)\r... */\n    tag_32:\n      swap1\n      jump\t// out\n        /* \"#utility.yul\":7:146   */\n    tag_44:\n        /* \"#utility.yul\":53:58   */\n      0x00\n        /* \"#utility.yul\":91:97   */\n      dup2\n        /* \"#utility.yul\":78:98   */\n      calldataload\n        /* \"#utility.yul\":69:98   */\n      swap1\n      pop\n        /* \"#utility.yul\":107:140   */\n      tag_46\n        /* \"#utility.yul\":134:139   */\n      dup2\n        /* \"#utility.yul\":107:140   */\n      tag_47\n      jump\t// in\n    tag_46:\n        /* \"#utility.yul\":7:146   */\n      swap3\n      swap2\n      pop\n      pop\n      jump\t// out\n        /* \"#utility.yul\":152:291   */\n    tag_48:\n        /* \"#utility.yul\":198:203   */\n      0x00\n        /* \"#utility.yul\":236:242   */\n      dup2\n        /* \"#utility.yul\":223:243   */\n      calldataload\n        /* \"#utility.yul\":214:243   */\n      swap1\n      pop\n        /* \"#utility.yul\":252:285   */\n      tag_50\n        /* \"#utility.yul\":279:284   */\n      dup2\n        /* \"#utility.yul\":252:285   */\n      tag_51\n      jump\t// in\n    tag_50:\n        /* \"#utility.yul\":152:291   */\n      swap3\n      swap2\n      pop\n      pop\n      jump\t// out\n        /* \"#utility.yul\":297:626   */\n    tag_12:\n        /* \"#utility.yul\":356:362   */\n      0x00\n        /* \"#utility.yul\":405:407   */\n      0x20\n        /* \"#utility.yul\":393:402   */\n      dup3\n        /* \"#utility.yul\":384:391   */\n      dup5\n        /* \"#utility.yul\":380:403   */\n      sub\n        /* \"#utility.yul\":376:408   */\n      slt\n        /* \"#utility.yul\":373:492   */\n      iszero\n      tag_53\n      jumpi\n        /* \"#utility.yul\":411:490   */\n      tag_54\n      tag_55\n      jump\t// in\n    tag_54:\n        /* \"#utility.yul\":373:492   */\n    tag_53:\n        /* \"#utility.yul\":531:532   */\n      0x00\n        /* \"#utility.yul\":556:609   */\n      tag_56\n        /* \"#utility.yul\":601:608   */\n      dup5\n        /* \"#utility.yul\":592:598   */\n      dup3\n        /* \"#utility.yul\":581:590   */\n      dup6\n        /* \"#utility.yul\":577:599   */\n      add\n        /* \"#utility.yul\":556:609   */\n      tag_44\n      jump\t// in\n    tag_56:\n        /* \"#utility.yul\":546:609   */\n      swap2\n      pop\n        /* \"#utility.yul\":502:619   */\n      pop\n        /* \"#utility.yul\":297:626   */\n      swap3\n      swap2\n      pop\n      pop\n      jump\t// out\n        /* \"#utility.yul\":632:961   */\n    tag_17:\n        /* \"#utility.yul\":691:697   */\n      0x00\n        /* \"#utility.yul\":740:742   */\n      0x20\n        /* \"#utility.yul\":728:737   */\n      dup3\n        /* \"#utility.yul\":719:726   */\n      dup5\n        /* \"#utility.yul\":715:738   */\n      sub\n        /* \"#utility.yul\":711:743   */\n      slt\n        /* \"#utility.yul\":708:827   */\n      iszero\n      tag_58\n      jumpi\n        /* \"#utility.yul\":746:825   */\n      tag_59\n      tag_55\n      jump\t// in\n    tag_59:\n        /* \"#utility.yul\":708:827   */\n    tag_58:\n        /* \"#utility.yul\":866:867   */\n      0x00\n        /* \"#utility.yul\":891:944   */\n      tag_60\n        /* \"#utility.yul\":936:943   */\n      dup5\n        /* \"#utility.yul\":927:933   */\n      dup3\n        /* \"#utility.yul\":916:925   */\n      dup6\n        /* \"#utility.yul\":912:934   */\n      add\n        /* \"#utility.yul\":891:944   */\n      tag_48\n      jump\t// in\n    tag_60:\n        /* \"#utility.yul\":881:944   */\n      swap2\n      pop\n        /* \"#utility.yul\":837:954   */\n      pop\n        /* \"#utility.yul\":632:961   */\n      swap3\n      swap2\n      pop\n      pop\n      jump\t// out\n        /* \"#utility.yul\":967:1109   */\n    tag_61:\n        /* \"#utility.yul\":1070:1102   */\n      tag_63\n        /* \"#utility.yul\":1096:1101   */\n      dup2\n        /* \"#utility.yul\":1070:1102   */\n      tag_64\n      jump\t// in\n    tag_63:\n        /* \"#utility.yul\":1065:1068   */\n      dup3\n        /* \"#utility.yul\":1058:1103   */\n      mstore\n        /* \"#utility.yul\":967:1109   */\n      pop\n      pop\n      jump\t// out\n        /* \"#utility.yul\":1115:1233   */\n    tag_65:\n        /* \"#utility.yul\":1202:1226   */\n      tag_67\n        /* \"#utility.yul\":1220:1225   */\n      dup2\n        /* \"#utility.yul\":1202:1226   */\n      tag_68\n      jump\t// in\n    tag_67:\n        /* \"#utility.yul\":1197:1200   */\n      dup3\n        /* \"#utility.yul\":1190:1227   */\n      mstore\n        /* \"#utility.yul\":1115:1233   */\n      pop\n      pop\n      jump\t// out\n        /* \"#utility.yul\":1239:1605   */\n    tag_69:\n        /* \"#utility.yul\":1381:1384   */\n      0x00\n        /* \"#utility.yul\":1402:1469   */\n      tag_71\n        /* \"#utility.yul\":1466:1468   */\n      0x19\n        /* \"#utility.yul\":1461:1464   */\n      dup4\n        /* \"#utility.yul\":1402:1469   */\n      tag_72\n      jump\t// in\n    tag_71:\n        /* \"#utility.yul\":1395:1469   */\n      swap2\n      pop\n        /* \"#utility.yul\":1478:1571   */\n      tag_73\n        /* \"#utility.yul\":1567:1570   */\n      dup3\n        /* \"#utility.yul\":1478:1571   */\n      tag_74\n      jump\t// in\n    tag_73:\n        /* \"#utility.yul\":1596:1598   */\n      0x20\n        /* \"#utility.yul\":1591:1594   */\n      dup3\n        /* \"#utility.yul\":1587:1599   */\n      add\n        /* \"#utility.yul\":1580:1599   */\n      swap1\n      pop\n        /* \"#utility.yul\":1239:1605   */\n      swap2\n      swap1\n      pop\n      jump\t// out\n        /* \"#utility.yul\":1611:1977   */\n    tag_75:\n        /* \"#utility.yul\":1753:1756   */\n      0x00\n        /* \"#utility.yul\":1774:1841   */\n      tag_77\n        /* \"#utility.yul\":1838:1840   */\n      0x13\n        /* \"#utility.yul\":1833:1836   */\n      dup4\n        /* \"#utility.yul\":1774:1841   */\n      tag_72\n      jump\t// in\n    tag_77:\n        /* \"#utility.yul\":1767:1841   */\n      swap2\n      pop\n        /* \"#utility.yul\":1850:1943   */\n      tag_78\n        /* \"#utility.yul\":1939:1942   */\n      dup3\n        /* \"#utility.yul\":1850:1943   */\n      tag_79\n      jump\t// in\n    tag_78:\n        /* \"#utility.yul\":1968:1970   */\n      0x20\n        /* \"#utility.yul\":1963:1966   */\n      dup3\n        /* \"#utility.yul\":1959:1971   */\n      add\n        /* \"#utility.yul\":1952:1971   */\n      swap1\n      pop\n        /* \"#utility.yul\":1611:1977   */\n      swap2\n      swap1\n      pop\n      jump\t// out\n        /* \"#utility.yul\":1983:2205   */\n    tag_9:\n        /* \"#utility.yul\":2076:2080   */\n      0x00\n        /* \"#utility.yul\":2114:2116   */\n      0x20\n        /* \"#utility.yul\":2103:2112   */\n      dup3\n        /* \"#utility.yul\":2099:2117   */\n      add\n        /* \"#utility.yul\":2091:2117   */\n      swap1\n      pop\n        /* \"#utility.yul\":2127:2198   */\n      tag_81\n        /* \"#utility.yul\":2195:2196   */\n      0x00\n        /* \"#utility.yul\":2184:2193   */\n      dup4\n        /* \"#utility.yul\":2180:2197   */\n      add\n        /* \"#utility.yul\":2171:2177   */\n      dup5\n        /* \"#utility.yul\":2127:2198   */\n      tag_65\n      jump\t// in\n    tag_81:\n        /* \"#utility.yul\":1983:2205   */\n      swap3\n      swap2\n      pop\n      pop\n      jump\t// out\n        /* \"#utility.yul\":2211:2465   */\n    tag_20:\n        /* \"#utility.yul\":2320:2324   */\n      0x00\n        /* \"#utility.yul\":2358:2360   */\n      0x20\n        /* \"#utility.yul\":2347:2356   */\n      dup3\n        /* \"#utility.yul\":2343:2361   */\n      add\n        /* \"#utility.yul\":2335:2361   */\n      swap1\n      pop\n        /* \"#utility.yul\":2371:2458   */\n      tag_83\n        /* \"#utility.yul\":2455:2456   */\n      0x00\n        /* \"#utility.yul\":2444:2453   */\n      dup4\n        /* \"#utility.yul\":2440:2457   */\n      add\n        /* \"#utility.yul\":2431:2437   */\n      dup5\n        /* \"#utility.yul\":2371:2458   */\n      tag_61\n      jump\t// in\n    tag_83:\n        /* \"#utility.yul\":2211:2465   */\n      swap3\n      swap2\n      pop\n      pop\n      jump\t// out\n        /* \"#utility.yul\":2471:2890   */\n    tag_29:\n        /* \"#utility.yul\":2637:2641   */\n      0x00\n        /* \"#utility.yul\":2675:2677   */\n      0x20\n        /* \"#utility.yul\":2664:2673   */\n      dup3\n        /* \"#utility.yul\":2660:2678   */\n      add\n        /* \"#utility.yul\":2652:2678   */\n      swap1\n      pop\n        /* \"#utility.yul\":2724:2733   */\n      dup2\n        /* \"#utility.yul\":2718:2722   */\n      dup2\n        /* \"#utility.yul\":2714:2734   */\n      sub\n        /* \"#utility.yul\":2710:2711   */\n      0x00\n        /* \"#utility.yul\":2699:2708   */\n      dup4\n        /* \"#utility.yul\":2695:2712   */\n      add\n        /* \"#utility.yul\":2688:2735   */\n      mstore\n        /* \"#utility.yul\":2752:2883   */\n      tag_85\n        /* \"#utility.yul\":2878:2882   */\n      dup2\n        /* \"#utility.yul\":2752:2883   */\n      tag_69\n      jump\t// in\n    tag_85:\n        /* \"#utility.yul\":2744:2883   */\n      swap1\n      pop\n        /* \"#utility.yul\":2471:2890   */\n      swap2\n      swap1\n      pop\n      jump\t// out\n        /* \"#utility.yul\":2896:3315   */\n    tag_24:\n        /* \"#utility.yul\":3062:3066   */\n      0x00\n        /* \"#utility.yul\":3100:3102   */\n      0x20\n        /* \"#utility.yul\":3089:3098   */\n      dup3\n        /* \"#utility.yul\":3085:3103   */\n      add\n        /* \"#utility.yul\":3077:3103   */\n      swap1\n      pop\n        /* \"#utility.yul\":3149:3158   */\n      dup2\n        /* \"#utility.yul\":3143:3147   */\n      dup2\n        /* \"#utility.yul\":3139:3159   */\n      sub\n        /* \"#utility.yul\":3135:3136   */\n      0x00\n        /* \"#utility.yul\":3124:3133   */\n      dup4\n        /* \"#utility.yul\":3120:3137   */\n      add\n        /* \"#utility.yul\":3113:3160   */\n      mstore\n        /* \"#utility.yul\":3177:3308   */\n      tag_87\n        /* \"#utility.yul\":3303:3307   */\n      dup2\n        /* \"#utility.yul\":3177:3308   */\n      tag_75\n      jump\t// in\n    tag_87:\n        /* \"#utility.yul\":3169:3308   */\n      swap1\n      pop\n        /* \"#utility.yul\":2896:3315   */\n      swap2\n      swap1\n      pop\n      jump\t// out\n        /* \"#utility.yul\":3402:3571   */\n    tag_72:\n        /* \"#utility.yul\":3486:3497   */\n      0x00\n        /* \"#utility.yul\":3520:3526   */\n      dup3\n        /* \"#utility.yul\":3515:3518   */\n      dup3\n        /* \"#utility.yul\":3508:3527   */\n      mstore\n        /* \"#utility.yul\":3560:3564   */\n      0x20\n        /* \"#utility.yul\":3555:3558   */\n      dup3\n        /* \"#utility.yul\":3551:3565   */\n      add\n        /* \"#utility.yul\":3536:3565   */\n      swap1\n      pop\n        /* \"#utility.yul\":3402:3571   */\n      swap3\n      swap2\n      pop\n      pop\n      jump\t// out\n        /* \"#utility.yul\":3577:3673   */\n    tag_68:\n        /* \"#utility.yul\":3614:3621   */\n      0x00\n        /* \"#utility.yul\":3643:3667   */\n      tag_92\n        /* \"#utility.yul\":3661:3666   */\n      dup3\n        /* \"#utility.yul\":3643:3667   */\n      tag_93\n      jump\t// in\n    tag_92:\n        /* \"#utility.yul\":3632:3667   */\n      swap1\n      pop\n        /* \"#utility.yul\":3577:3673   */\n      swap2\n      swap1\n      pop\n      jump\t// out\n        /* \"#utility.yul\":3679:3783   */\n    tag_64:\n        /* \"#utility.yul\":3724:3731   */\n      0x00\n        /* \"#utility.yul\":3753:3777   */\n      tag_95\n        /* \"#utility.yul\":3771:3776   */\n      dup3\n        /* \"#utility.yul\":3753:3777   */\n      tag_93\n      jump\t// in\n    tag_95:\n        /* \"#utility.yul\":3742:3777   */\n      swap1\n      pop\n        /* \"#utility.yul\":3679:3783   */\n      swap2\n      swap1\n      pop\n      jump\t// out\n        /* \"#utility.yul\":3789:3915   */\n    tag_93:\n        /* \"#utility.yul\":3826:3833   */\n      0x00\n        /* \"#utility.yul\":3866:3908   */\n      0xffffffffffffffffffffffffffffffffffffffff\n        /* \"#utility.yul\":3859:3864   */\n      dup3\n        /* \"#utility.yul\":3855:3909   */\n      and\n        /* \"#utility.yul\":3844:3909   */\n      swap1\n      pop\n        /* \"#utility.yul\":3789:3915   */\n      swap2\n      swap1\n      pop\n      jump\t// out\n        /* \"#utility.yul\":3921:3998   */\n    tag_97:\n        /* \"#utility.yul\":3958:3965   */\n      0x00\n        /* \"#utility.yul\":3987:3992   */\n      dup2\n        /* \"#utility.yul\":3976:3992   */\n      swap1\n      pop\n        /* \"#utility.yul\":3921:3998   */\n      swap2\n      swap1\n      pop\n      jump\t// out\n        /* \"#utility.yul\":4004:4237   */\n    tag_42:\n        /* \"#utility.yul\":4043:4046   */\n      0x00\n        /* \"#utility.yul\":4066:4090   */\n      tag_100\n        /* \"#utility.yul\":4084:4089   */\n      dup3\n        /* \"#utility.yul\":4066:4090   */\n      tag_97\n      jump\t// in\n    tag_100:\n        /* \"#utility.yul\":4057:4090   */\n      swap2\n      pop\n        /* \"#utility.yul\":4112:4178   */\n      0xffffffffffffffffffffffffffffffffffffffffffffffffffffffffffffffff\n        /* \"#utility.yul\":4105:4110   */\n      dup3\n        /* \"#utility.yul\":4102:4179   */\n      eq\n        /* \"#utility.yul\":4099:4202   */\n      iszero\n      tag_101\n      jumpi\n        /* \"#utility.yul\":4182:4200   */\n      tag_102\n      tag_103\n      jump\t// in\n    tag_102:\n        /* \"#utility.yul\":4099:4202   */\n    tag_101:\n        /* \"#utility.yul\":4229:4230   */\n      0x01\n        /* \"#utility.yul\":4222:4227   */\n      dup3\n        /* \"#utility.yul\":4218:4231   */\n      add\n        /* \"#utility.yul\":4211:4231   */\n      swap1\n      pop\n        /* \"#utility.yul\":4004:4237   */\n      swap2\n      swap1\n      pop\n      jump\t// out\n        /* \"#utility.yul\":4243:4423   */\n    tag_103:\n        /* \"#utility.yul\":4291:4368   */\n      0x4e487b7100000000000000000000000000000000000000000000000000000000\n        /* \"#utility.yul\":4288:4289   */\n      0x00\n        /* \"#utility.yul\":4281:4369   */\n      mstore\n        /* \"#utility.yul\":4388:4392   */\n      0x11\n        /* \"#utility.yul\":4385:4386   */\n      0x04\n        /* \"#utility.yul\":4378:4393   */\n      mstore\n        /* \"#utility.yul\":4412:4416   */\n      0x24\n        /* \"#utility.yul\":4409:4410   */\n      0x00\n        /* \"#utility.yul\":4402:4417   */\n      revert\n        /* \"#utility.yul\":4429:4609   */\n    tag_38:\n        /* \"#utility.yul\":4477:4554   */\n      0x4e487b7100000000000000000000000000000000000000000000000000000000\n        /* \"#utility.yul\":4474:4475   */\n      0x00\n        /* \"#utility.yul\":4467:4555   */\n      mstore\n        /* \"#utility.yul\":4574:4578   */\n      0x32\n        /* \"#utility.yul\":4571:4572   */\n      0x04\n        /* \"#utility.yul\":4564:4579   */\n      mstore\n        /* \"#utility.yul\":4598:4602   */\n      0x24\n        /* \"#utility.yul\":4595:4596   */\n      0x00\n        /* \"#utility.yul\":4588:4603   */\n      revert\n        /* \"#utility.yul\":4738:4855   */\n    tag_55:\n        /* \"#utility.yul\":4847:4848   */\n      0x00\n        /* \"#utility.yul\":4844:4845   */\n      dup1\n        /* \"#utility.yul\":4837:4849   */\n      revert\n        /* \"#utility.yul\":4861:5036   */\n    tag_74:\n        /* \"#utility.yul\":5001:5028   */\n      0x506c6179657220616c7265616479207265676973746572656400000000000000\n        /* \"#utility.yul\":4997:4998   */\n      0x00\n        /* \"#utility.yul\":4989:4995   */\n      dup3\n        /* \"#utility.yul\":4985:4999   */\n      add\n        /* \"#utility.yul\":4978:5029   */\n      mstore\n        /* \"#utility.yul\":4861:5036   */\n      pop\n      jump\t// out\n        /* \"#utility.yul\":5042:5211   */\n    tag_79:\n        /* \"#utility.yul\":5182:5203   */\n      0x4d616e616765722063616e277420656e74657200000000000000000000000000\n        /* \"#utility.yul\":5178:5179   */\n      0x00\n        /* \"#utility.yul\":5170:5176   */\n      dup3\n        /* \"#utility.yul\":5166:5180   */\n      add\n        /* \"#utility.yul\":5159:5204   */\n      mstore\n        /* \"#utility.yul\":5042:5211   */\n      pop\n      jump\t// out\n        /* \"#utility.yul\":5217:5339   */\n    tag_47:\n        /* \"#utility.yul\":5290:5314   */\n      tag_112\n        /* \"#utility.yul\":5308:5313   */\n      dup2\n        /* \"#utility.yul\":5290:5314   */\n      tag_68\n      jump\t// in\n    tag_112:\n        /* \"#utility.yul\":5283:5288   */\n      dup2\n        /* \"#utility.yul\":5280:5315   */\n      eq\n        /* \"#utility.yul\":5270:5333   */\n      tag_113\n      jumpi\n        /* \"#utility.yul\":5329:5330   */\n      0x00\n        /* \"#utility.yul\":5326:5327   */\n      dup1\n        /* \"#utility.yul\":5319:5331   */\n      revert\n        /* \"#utility.yul\":5270:5333   */\n    tag_113:\n        /* \"#utility.yul\":5217:5339   */\n      pop\n      jump\t// out\n        /* \"#utility.yul\":5345:5467   */\n    tag_51:\n        /* \"#utility.yul\":5418:5442   */\n      tag_115\n        /* \"#utility.yul\":5436:5441   */\n      dup2\n        /* \"#utility.yul\":5418:5442   */\n      tag_97\n      jump\t// in\n    tag_115:\n        /* \"#utility.yul\":5411:5416   */\n      dup2\n        /* \"#utility.yul\":5408:5443   */\n      eq\n        /* \"#utility.yul\":5398:5461   */\n      tag_116\n      jumpi\n        /* \"#utility.yul\":5457:5458   */\n      0x00\n        /* \"#utility.yul\":5454:5455   */\n      dup1\n        /* \"#utility.yul\":5447:5459   */\n      revert\n        /* \"#utility.yul\":5398:5461   */\n    tag_116:\n        /* \"#utility.yul\":5345:5467   */\n      pop\n      jump\t// out\n\n    auxdata: 0xa264697066735822122019d7c0ea682ad736f7be2b1fbdfb3c059f5edb1715955e598be2aa2a0b6d61bd64736f6c63430008070033\n}\n",
				"bytecode": {
					"linkReferences": {},
					"object": "608060405234801561001057600080fd5b50336000806101000a81548173ffffffffffffffffffffffffffffffffffffffff021916908373ffffffffffffffffffffffffffffffffffffffff1602179055506105cc806100606000396000f3fe6080604052600436106100345760003560e01c8063481c6a7514610039578063d014c01f14610064578063f71d96cb14610080575b600080fd5b34801561004557600080fd5b5061004e6100bd565b60405161005b9190610395565b60405180910390f35b61007e600480360381019061007991906102d7565b6100e1565b005b34801561008c57600080fd5b506100a760048036038101906100a29190610304565b6101c1565b6040516100b491906103b0565b60405180910390f35b60008054906101000a900473ffffffffffffffffffffffffffffffffffffffff1681565b60008054906101000a900473ffffffffffffffffffffffffffffffffffffffff1673ffffffffffffffffffffffffffffffffffffffff163373ffffffffffffffffffffffffffffffffffffffff161415610170576040517f08c379a0000000000000000000000000000000000000000000000000000000008152600401610167906103eb565b60405180910390fd5b6000151561017c610200565b1515146101be576040517f08c379a00000000000000000000000000000000000000000000000000000000081526004016101b5906103cb565b60405180910390fd5b50565b600181815481106101d157600080fd5b906000526020600020016000915054906101000a900473ffffffffffffffffffffffffffffffffffffffff1681565b600080600090505b6001805490508110156102a4573373ffffffffffffffffffffffffffffffffffffffff16600182815481106102405761023f6104e2565b5b9060005260206000200160009054906101000a900473ffffffffffffffffffffffffffffffffffffffff1673ffffffffffffffffffffffffffffffffffffffff1614156102915760019150506102aa565b808061029c9061046a565b915050610208565b50600090505b90565b6000813590506102bc81610568565b92915050565b6000813590506102d18161057f565b92915050565b6000602082840312156102ed576102ec610511565b5b60006102fb848285016102ad565b91505092915050565b60006020828403121561031a57610319610511565b5b6000610328848285016102c2565b91505092915050565b61033a8161042e565b82525050565b6103498161041c565b82525050565b600061035c60198361040b565b915061036782610516565b602082019050919050565b600061037f60138361040b565b915061038a8261053f565b602082019050919050565b60006020820190506103aa6000830184610340565b92915050565b60006020820190506103c56000830184610331565b92915050565b600060208201905081810360008301526103e48161034f565b9050919050565b6000602082019050818103600083015261040481610372565b9050919050565b600082825260208201905092915050565b600061042782610440565b9050919050565b600061043982610440565b9050919050565b600073ffffffffffffffffffffffffffffffffffffffff82169050919050565b6000819050919050565b600061047582610460565b91507fffffffffffffffffffffffffffffffffffffffffffffffffffffffffffffffff8214156104a8576104a76104b3565b5b600182019050919050565b7f4e487b7100000000000000000000000000000000000000000000000000000000600052601160045260246000fd5b7f4e487b7100000000000000000000000000000000000000000000000000000000600052603260045260246000fd5b600080fd5b7f506c6179657220616c7265616479207265676973746572656400000000000000600082015250565b7f4d616e616765722063616e277420656e74657200000000000000000000000000600082015250565b6105718161041c565b811461057c57600080fd5b50565b61058881610460565b811461059357600080fd5b5056fea264697066735822122019d7c0ea682ad736f7be2b1fbdfb3c059f5edb1715955e598be2aa2a0b6d61bd64736f6c63430008070033",
					"opcodes": "PUSH1 0x80 PUSH1 0x40 MSTORE CALLVALUE DUP1 ISZERO PUSH2 0x10 JUMPI PUSH1 0x0 DUP1 REVERT JUMPDEST POP CALLER PUSH1 0x0 DUP1 PUSH2 0x100 EXP DUP2 SLOAD DUP2 PUSH20 0xFFFFFFFFFFFFFFFFFFFFFFFFFFFFFFFFFFFFFFFF MUL NOT AND SWAP1 DUP4 PUSH20 0xFFFFFFFFFFFFFFFFFFFFFFFFFFFFFFFFFFFFFFFF AND MUL OR SWAP1 SSTORE POP PUSH2 0x5CC DUP1 PUSH2 0x60 PUSH1 0x0 CODECOPY PUSH1 0x0 RETURN INVALID PUSH1 0x80 PUSH1 0x40 MSTORE PUSH1 0x4 CALLDATASIZE LT PUSH2 0x34 JUMPI PUSH1 0x0 CALLDATALOAD PUSH1 0xE0 SHR DUP1 PUSH4 0x481C6A75 EQ PUSH2 0x39 JUMPI DUP1 PUSH4 0xD014C01F EQ PUSH2 0x64 JUMPI DUP1 PUSH4 0xF71D96CB EQ PUSH2 0x80 JUMPI JUMPDEST PUSH1 0x0 DUP1 REVERT JUMPDEST CALLVALUE DUP1 ISZERO PUSH2 0x45 JUMPI PUSH1 0x0 DUP1 REVERT JUMPDEST POP PUSH2 0x4E PUSH2 0xBD JUMP JUMPDEST PUSH1 0x40 MLOAD PUSH2 0x5B SWAP2 SWAP1 PUSH2 0x395 JUMP JUMPDEST PUSH1 0x40 MLOAD DUP1 SWAP2 SUB SWAP1 RETURN JUMPDEST PUSH2 0x7E PUSH1 0x4 DUP1 CALLDATASIZE SUB DUP2 ADD SWAP1 PUSH2 0x79 SWAP2 SWAP1 PUSH2 0x2D7 JUMP JUMPDEST PUSH2 0xE1 JUMP JUMPDEST STOP JUMPDEST CALLVALUE DUP1 ISZERO PUSH2 0x8C JUMPI PUSH1 0x0 DUP1 REVERT JUMPDEST POP PUSH2 0xA7 PUSH1 0x4 DUP1 CALLDATASIZE SUB DUP2 ADD SWAP1 PUSH2 0xA2 SWAP2 SWAP1 PUSH2 0x304 JUMP JUMPDEST PUSH2 0x1C1 JUMP JUMPDEST PUSH1 0x40 MLOAD PUSH2 0xB4 SWAP2 SWAP1 PUSH2 0x3B0 JUMP JUMPDEST PUSH1 0x40 MLOAD DUP1 SWAP2 SUB SWAP1 RETURN JUMPDEST PUSH1 0x0 DUP1 SLOAD SWAP1 PUSH2 0x100 EXP SWAP1 DIV PUSH20 0xFFFFFFFFFFFFFFFFFFFFFFFFFFFFFFFFFFFFFFFF AND DUP2 JUMP JUMPDEST PUSH1 0x0 DUP1 SLOAD SWAP1 PUSH2 0x100 EXP SWAP1 DIV PUSH20 0xFFFFFFFFFFFFFFFFFFFFFFFFFFFFFFFFFFFFFFFF AND PUSH20 0xFFFFFFFFFFFFFFFFFFFFFFFFFFFFFFFFFFFFFFFF AND CALLER PUSH20 0xFFFFFFFFFFFFFFFFFFFFFFFFFFFFFFFFFFFFFFFF AND EQ ISZERO PUSH2 0x170 JUMPI PUSH1 0x40 MLOAD PUSH32 0x8C379A000000000000000000000000000000000000000000000000000000000 DUP2 MSTORE PUSH1 0x4 ADD PUSH2 0x167 SWAP1 PUSH2 0x3EB JUMP JUMPDEST PUSH1 0x40 MLOAD DUP1 SWAP2 SUB SWAP1 REVERT JUMPDEST PUSH1 0x0 ISZERO ISZERO PUSH2 0x17C PUSH2 0x200 JUMP JUMPDEST ISZERO ISZERO EQ PUSH2 0x1BE JUMPI PUSH1 0x40 MLOAD PUSH32 0x8C379A000000000000000000000000000000000000000000000000000000000 DUP2 MSTORE PUSH1 0x4 ADD PUSH2 0x1B5 SWAP1 PUSH2 0x3CB JUMP JUMPDEST PUSH1 0x40 MLOAD DUP1 SWAP2 SUB SWAP1 REVERT JUMPDEST POP JUMP JUMPDEST PUSH1 0x1 DUP2 DUP2 SLOAD DUP2 LT PUSH2 0x1D1 JUMPI PUSH1 0x0 DUP1 REVERT JUMPDEST SWAP1 PUSH1 0x0 MSTORE PUSH1 0x20 PUSH1 0x0 KECCAK256 ADD PUSH1 0x0 SWAP2 POP SLOAD SWAP1 PUSH2 0x100 EXP SWAP1 DIV PUSH20 0xFFFFFFFFFFFFFFFFFFFFFFFFFFFFFFFFFFFFFFFF AND DUP2 JUMP JUMPDEST PUSH1 0x0 DUP1 PUSH1 0x0 SWAP1 POP JUMPDEST PUSH1 0x1 DUP1 SLOAD SWAP1 POP DUP2 LT ISZERO PUSH2 0x2A4 JUMPI CALLER PUSH20 0xFFFFFFFFFFFFFFFFFFFFFFFFFFFFFFFFFFFFFFFF AND PUSH1 0x1 DUP3 DUP2 SLOAD DUP2 LT PUSH2 0x240 JUMPI PUSH2 0x23F PUSH2 0x4E2 JUMP JUMPDEST JUMPDEST SWAP1 PUSH1 0x0 MSTORE PUSH1 0x20 PUSH1 0x0 KECCAK256 ADD PUSH1 0x0 SWAP1 SLOAD SWAP1 PUSH2 0x100 EXP SWAP1 DIV PUSH20 0xFFFFFFFFFFFFFFFFFFFFFFFFFFFFFFFFFFFFFFFF AND PUSH20 0xFFFFFFFFFFFFFFFFFFFFFFFFFFFFFFFFFFFFFFFF AND EQ ISZERO PUSH2 0x291 JUMPI PUSH1 0x1 SWAP2 POP POP PUSH2 0x2AA JUMP JUMPDEST DUP1 DUP1 PUSH2 0x29C SWAP1 PUSH2 0x46A JUMP JUMPDEST SWAP2 POP POP PUSH2 0x208 JUMP JUMPDEST POP PUSH1 0x0 SWAP1 POP JUMPDEST SWAP1 JUMP JUMPDEST PUSH1 0x0 DUP2 CALLDATALOAD SWAP1 POP PUSH2 0x2BC DUP2 PUSH2 0x568 JUMP JUMPDEST SWAP3 SWAP2 POP POP JUMP JUMPDEST PUSH1 0x0 DUP2 CALLDATALOAD SWAP1 POP PUSH2 0x2D1 DUP2 PUSH2 0x57F JUMP JUMPDEST SWAP3 SWAP2 POP POP JUMP JUMPDEST PUSH1 0x0 PUSH1 0x20 DUP3 DUP5 SUB SLT ISZERO PUSH2 0x2ED JUMPI PUSH2 0x2EC PUSH2 0x511 JUMP JUMPDEST JUMPDEST PUSH1 0x0 PUSH2 0x2FB DUP5 DUP3 DUP6 ADD PUSH2 0x2AD JUMP JUMPDEST SWAP2 POP POP SWAP3 SWAP2 POP POP JUMP JUMPDEST PUSH1 0x0 PUSH1 0x20 DUP3 DUP5 SUB SLT ISZERO PUSH2 0x31A JUMPI PUSH2 0x319 PUSH2 0x511 JUMP JUMPDEST JUMPDEST PUSH1 0x0 PUSH2 0x328 DUP5 DUP3 DUP6 ADD PUSH2 0x2C2 JUMP JUMPDEST SWAP2 POP POP SWAP3 SWAP2 POP POP JUMP JUMPDEST PUSH2 0x33A DUP2 PUSH2 0x42E JUMP JUMPDEST DUP3 MSTORE POP POP JUMP JUMPDEST PUSH2 0x349 DUP2 PUSH2 0x41C JUMP JUMPDEST DUP3 MSTORE POP POP JUMP JUMPDEST PUSH1 0x0 PUSH2 0x35C PUSH1 0x19 DUP4 PUSH2 0x40B JUMP JUMPDEST SWAP2 POP PUSH2 0x367 DUP3 PUSH2 0x516 JUMP JUMPDEST PUSH1 0x20 DUP3 ADD SWAP1 POP SWAP2 SWAP1 POP JUMP JUMPDEST PUSH1 0x0 PUSH2 0x37F PUSH1 0x13 DUP4 PUSH2 0x40B JUMP JUMPDEST SWAP2 POP PUSH2 0x38A DUP3 PUSH2 0x53F JUMP JUMPDEST PUSH1 0x20 DUP3 ADD SWAP1 POP SWAP2 SWAP1 POP JUMP JUMPDEST PUSH1 0x0 PUSH1 0x20 DUP3 ADD SWAP1 POP PUSH2 0x3AA PUSH1 0x0 DUP4 ADD DUP5 PUSH2 0x340 JUMP JUMPDEST SWAP3 SWAP2 POP POP JUMP JUMPDEST PUSH1 0x0 PUSH1 0x20 DUP3 ADD SWAP1 POP PUSH2 0x3C5 PUSH1 0x0 DUP4 ADD DUP5 PUSH2 0x331 JUMP JUMPDEST SWAP3 SWAP2 POP POP JUMP JUMPDEST PUSH1 0x0 PUSH1 0x20 DUP3 ADD SWAP1 POP DUP2 DUP2 SUB PUSH1 0x0 DUP4 ADD MSTORE PUSH2 0x3E4 DUP2 PUSH2 0x34F JUMP JUMPDEST SWAP1 POP SWAP2 SWAP1 POP JUMP JUMPDEST PUSH1 0x0 PUSH1 0x20 DUP3 ADD SWAP1 POP DUP2 DUP2 SUB PUSH1 0x0 DUP4 ADD MSTORE PUSH2 0x404 DUP2 PUSH2 0x372 JUMP JUMPDEST SWAP1 POP SWAP2 SWAP1 POP JUMP JUMPDEST PUSH1 0x0 DUP3 DUP3 MSTORE PUSH1 0x20 DUP3 ADD SWAP1 POP SWAP3 SWAP2 POP POP JUMP JUMPDEST PUSH1 0x0 PUSH2 0x427 DUP3 PUSH2 0x440 JUMP JUMPDEST SWAP1 POP SWAP2 SWAP1 POP JUMP JUMPDEST PUSH1 0x0 PUSH2 0x439 DUP3 PUSH2 0x440 JUMP JUMPDEST SWAP1 POP SWAP2 SWAP1 POP JUMP JUMPDEST PUSH1 0x0 PUSH20 0xFFFFFFFFFFFFFFFFFFFFFFFFFFFFFFFFFFFFFFFF DUP3 AND SWAP1 POP SWAP2 SWAP1 POP JUMP JUMPDEST PUSH1 0x0 DUP2 SWAP1 POP SWAP2 SWAP1 POP JUMP JUMPDEST PUSH1 0x0 PUSH2 0x475 DUP3 PUSH2 0x460 JUMP JUMPDEST SWAP2 POP PUSH32 0xFFFFFFFFFFFFFFFFFFFFFFFFFFFFFFFFFFFFFFFFFFFFFFFFFFFFFFFFFFFFFFFF DUP3 EQ ISZERO PUSH2 0x4A8 JUMPI PUSH2 0x4A7 PUSH2 0x4B3 JUMP JUMPDEST JUMPDEST PUSH1 0x1 DUP3 ADD SWAP1 POP SWAP2 SWAP1 POP JUMP JUMPDEST PUSH32 0x4E487B7100000000000000000000000000000000000000000000000000000000 PUSH1 0x0 MSTORE PUSH1 0x11 PUSH1 0x4 MSTORE PUSH1 0x24 PUSH1 0x0 REVERT JUMPDEST PUSH32 0x4E487B7100000000000000000000000000000000000000000000000000000000 PUSH1 0x0 MSTORE PUSH1 0x32 PUSH1 0x4 MSTORE PUSH1 0x24 PUSH1 0x0 REVERT JUMPDEST PUSH1 0x0 DUP1 REVERT JUMPDEST PUSH32 0x506C6179657220616C7265616479207265676973746572656400000000000000 PUSH1 0x0 DUP3 ADD MSTORE POP JUMP JUMPDEST PUSH32 0x4D616E616765722063616E277420656E74657200000000000000000000000000 PUSH1 0x0 DUP3 ADD MSTORE POP JUMP JUMPDEST PUSH2 0x571 DUP2 PUSH2 0x41C JUMP JUMPDEST DUP2 EQ PUSH2 0x57C JUMPI PUSH1 0x0 DUP1 REVERT JUMPDEST POP JUMP JUMPDEST PUSH2 0x588 DUP2 PUSH2 0x460 JUMP JUMPDEST DUP2 EQ PUSH2 0x593 JUMPI PUSH1 0x0 DUP1 REVERT JUMPDEST POP JUMP INVALID LOG2 PUSH5 0x6970667358 0x22 SLT KECCAK256 NOT 0xD7 0xC0 0xEA PUSH9 0x2AD736F7BE2B1FBDFB EXTCODECOPY SDIV SWAP16 0x5E 0xDB OR ISZERO SWAP6 0x5E MSIZE DUP12 0xE2 0xAA 0x2A SIGNEXTEND PUSH14 0x61BD64736F6C6343000807003300 "
				},
				"gasEstimates": {
					"creation": {
						"codeDepositCost": "296800",
						"executionCost": "24603",
						"totalCost": "321403"
					},
					"external": {
						"enter(address)": "infinite",
						"manager()": "2489",
						"players(uint256)": "4978"
					},
					"internal": {
						"alreadyEntered()": "infinite"
					}
				},
				"methodIdentifiers": {
					"enter(address)": "d014c01f",
					"manager()": "481c6a75",
					"players(uint256)": "f71d96cb"
				}
			},
			"storageLayout": {
				"storage": [
					{
						"astId": 3,
						"contract": "contracts/lottery.sol:Lottery",
						"label": "manager",
						"offset": 0,
						"slot": "0",
						"type": "t_address"
					},
					{
						"astId": 6,
						"contract": "contracts/lottery.sol:Lottery",
						"label": "players",
						"offset": 0,
						"slot": "1",
						"type": "t_array(t_address_payable)dyn_storage"
					}
				],
				"types": {
					"t_address": {
						"encoding": "inplace",
						"label": "address",
						"numberOfBytes": "20"
					},
					"t_address_payable": {
						"encoding": "inplace",
						"label": "address payable",
						"numberOfBytes": "20"
					},
					"t_array(t_address_payable)dyn_storage": {
						"base": "t_address_payable",
						"encoding": "dynamic_array",
						"label": "address payable[]",
						"numberOfBytes": "32"
					}
				}
			},
			"userdoc": {
				"kind": "user",
				"methods": {},
				"version": 1
			}
		}
	}
}