{
	"contracts/lottery.sol": {
		"Lottery": {
			"abi": [
				{
					"inputs": [],
					"stateMutability": "nonpayable",
					"type": "constructor"
				},
				{
					"inputs": [],
					"name": "enter",
					"outputs": [],
					"stateMutability": "payable",
					"type": "function"
				},
				{
					"inputs": [],
					"name": "findWinner",
					"outputs": [
						{
							"internalType": "address",
							"name": "",
							"type": "address"
						}
					],
					"stateMutability": "view",
					"type": "function"
				},
				{
					"inputs": [],
					"name": "manager",
					"outputs": [
						{
							"internalType": "address",
							"name": "",
							"type": "address"
						}
					],
					"stateMutability": "view",
					"type": "function"
				},
				{
					"inputs": [
						{
							"internalType": "uint256",
							"name": "",
							"type": "uint256"
						}
					],
					"name": "players",
					"outputs": [
						{
							"internalType": "address payable",
							"name": "",
							"type": "address"
						}
					],
					"stateMutability": "view",
					"type": "function"
				}
			],
			"devdoc": {
				"kind": "dev",
				"methods": {},
				"version": 1
			},
			"evm": {
				"assembly": "    /* \"contracts/lottery.sol\":58:982  contract Lottery{\r... */\n  mstore(0x40, 0x80)\n    /* \"contracts/lottery.sol\":150:202  constructor(){\r... */\n  callvalue\n  dup1\n  iszero\n  tag_1\n  jumpi\n  0x00\n  dup1\n  revert\ntag_1:\n  pop\n    /* \"contracts/lottery.sol\":184:194  msg.sender */\n  caller\n    /* \"contracts/lottery.sol\":174:181  manager */\n  0x00\n  dup1\n    /* \"contracts/lottery.sol\":174:194  manager = msg.sender */\n  0x0100\n  exp\n  dup2\n  sload\n  dup2\n  0xffffffffffffffffffffffffffffffffffffffff\n  mul\n  not\n  and\n  swap1\n  dup4\n  0xffffffffffffffffffffffffffffffffffffffff\n  and\n  mul\n  or\n  swap1\n  sstore\n  pop\n    /* \"contracts/lottery.sol\":58:982  contract Lottery{\r... */\n  dataSize(sub_0)\n  dup1\n  dataOffset(sub_0)\n  0x00\n  codecopy\n  0x00\n  return\nstop\n\nsub_0: assembly {\n        /* \"contracts/lottery.sol\":58:982  contract Lottery{\r... */\n      mstore(0x40, 0x80)\n      jumpi(tag_1, lt(calldatasize, 0x04))\n      shr(0xe0, calldataload(0x00))\n      dup1\n      0x481c6a75\n      eq\n      tag_2\n      jumpi\n      dup1\n      0x8e71decb\n      eq\n      tag_3\n      jumpi\n      dup1\n      0xe97dcb62\n      eq\n      tag_4\n      jumpi\n      dup1\n      0xf71d96cb\n      eq\n      tag_5\n      jumpi\n    tag_1:\n      0x00\n      dup1\n      revert\n        /* \"contracts/lottery.sol\":81:103  address public manager */\n    tag_2:\n      callvalue\n      dup1\n      iszero\n      tag_6\n      jumpi\n      0x00\n      dup1\n      revert\n    tag_6:\n      pop\n      tag_7\n      tag_8\n      jump\t// in\n    tag_7:\n      mload(0x40)\n      tag_9\n      swap2\n      swap1\n      tag_10\n      jump\t// in\n    tag_9:\n      mload(0x40)\n      dup1\n      swap2\n      sub\n      swap1\n      return\n        /* \"contracts/lottery.sol\":777:969  function findWinner() public view returns(address) {\r... */\n    tag_3:\n      callvalue\n      dup1\n      iszero\n      tag_11\n      jumpi\n      0x00\n      dup1\n      revert\n    tag_11:\n      pop\n      tag_12\n      tag_13\n      jump\t// in\n    tag_12:\n      mload(0x40)\n      tag_14\n      swap2\n      swap1\n      tag_10\n      jump\t// in\n    tag_14:\n      mload(0x40)\n      dup1\n      swap2\n      sub\n      swap1\n      return\n        /* \"contracts/lottery.sol\":210:495  function enter() public payable{\r... */\n    tag_4:\n      tag_15\n      tag_16\n      jump\t// in\n    tag_15:\n      stop\n        /* \"contracts/lottery.sol\":111:143  address payable[] public players */\n    tag_5:\n      callvalue\n      dup1\n      iszero\n      tag_17\n      jumpi\n      0x00\n      dup1\n      revert\n    tag_17:\n      pop\n      tag_18\n      0x04\n      dup1\n      calldatasize\n      sub\n      dup2\n      add\n      swap1\n      tag_19\n      swap2\n      swap1\n      tag_20\n      jump\t// in\n    tag_19:\n      tag_21\n      jump\t// in\n    tag_18:\n      mload(0x40)\n      tag_22\n      swap2\n      swap1\n      tag_23\n      jump\t// in\n    tag_22:\n      mload(0x40)\n      dup1\n      swap2\n      sub\n      swap1\n      return\n        /* \"contracts/lottery.sol\":81:103  address public manager */\n    tag_8:\n      0x00\n      dup1\n      sload\n      swap1\n      0x0100\n      exp\n      swap1\n      div\n      0xffffffffffffffffffffffffffffffffffffffff\n      and\n      dup2\n      jump\t// out\n        /* \"contracts/lottery.sol\":777:969  function findWinner() public view returns(address) {\r... */\n    tag_13:\n        /* \"contracts/lottery.sol\":819:826  address */\n      0x00\n        /* \"contracts/lottery.sol\":839:855  uint winnerIndex */\n      dup1\n        /* \"contracts/lottery.sol\":909:916  players */\n      0x01\n        /* \"contracts/lottery.sol\":909:923  players.length */\n      dup1\n      sload\n      swap1\n      pop\n        /* \"contracts/lottery.sol\":890:905  block.timestamp */\n      timestamp\n        /* \"contracts/lottery.sol\":873:906  abi.encodePacked(block.timestamp) */\n      add(0x20, mload(0x40))\n      tag_25\n      swap2\n      swap1\n      tag_26\n      jump\t// in\n    tag_25:\n      mload(0x40)\n      0x20\n      dup2\n      dup4\n      sub\n      sub\n      dup2\n      mstore\n      swap1\n      0x40\n      mstore\n        /* \"contracts/lottery.sol\":863:907  keccak256(abi.encodePacked(block.timestamp)) */\n      dup1\n      mload\n      swap1\n      0x20\n      add\n      keccak256\n        /* \"contracts/lottery.sol\":858:908  uint(keccak256(abi.encodePacked(block.timestamp))) */\n      0x00\n      shr\n        /* \"contracts/lottery.sol\":858:923  uint(keccak256(abi.encodePacked(block.timestamp)))%players.length */\n      tag_27\n      swap2\n      swap1\n      tag_28\n      jump\t// in\n    tag_27:\n        /* \"contracts/lottery.sol\":839:923  uint winnerIndex = uint(keccak256(abi.encodePacked(block.timestamp)))%players.length */\n      swap1\n      pop\n        /* \"contracts/lottery.sol\":941:948  players */\n      0x01\n        /* \"contracts/lottery.sol\":949:960  winnerIndex */\n      dup2\n        /* \"contracts/lottery.sol\":941:961  players[winnerIndex] */\n      dup2\n      sload\n      dup2\n      lt\n      tag_29\n      jumpi\n      tag_30\n      tag_31\n      jump\t// in\n    tag_30:\n    tag_29:\n      swap1\n      0x00\n      mstore\n      keccak256(0x00, 0x20)\n      add\n      0x00\n      swap1\n      sload\n      swap1\n      0x0100\n      exp\n      swap1\n      div\n      0xffffffffffffffffffffffffffffffffffffffff\n      and\n        /* \"contracts/lottery.sol\":934:961  return players[winnerIndex] */\n      swap2\n      pop\n      pop\n        /* \"contracts/lottery.sol\":777:969  function findWinner() public view returns(address) {\r... */\n      swap1\n      jump\t// out\n        /* \"contracts/lottery.sol\":210:495  function enter() public payable{\r... */\n    tag_16:\n        /* \"contracts/lottery.sol\":273:280  manager */\n      0x00\n      dup1\n      sload\n      swap1\n      0x0100\n      exp\n      swap1\n      div\n      0xffffffffffffffffffffffffffffffffffffffff\n      and\n        /* \"contracts/lottery.sol\":260:280  msg.sender !=manager */\n      0xffffffffffffffffffffffffffffffffffffffff\n      and\n        /* \"contracts/lottery.sol\":260:270  msg.sender */\n      caller\n        /* \"contracts/lottery.sol\":260:280  msg.sender !=manager */\n      0xffffffffffffffffffffffffffffffffffffffff\n      and\n      eq\n      iszero\n        /* \"contracts/lottery.sol\":252:303  require(msg.sender !=manager,\"Manager can't enter\") */\n      tag_34\n      jumpi\n      mload(0x40)\n      0x08c379a000000000000000000000000000000000000000000000000000000000\n      dup2\n      mstore\n      0x04\n      add\n      tag_35\n      swap1\n      tag_36\n      jump\t// in\n    tag_35:\n      mload(0x40)\n      dup1\n      swap2\n      sub\n      swap1\n      revert\n    tag_34:\n        /* \"contracts/lottery.sol\":340:345  false */\n      0x00\n        /* \"contracts/lottery.sol\":322:345  alreadyEntered()==false */\n      iszero\n      iszero\n        /* \"contracts/lottery.sol\":322:338  alreadyEntered() */\n      tag_37\n        /* \"contracts/lottery.sol\":322:336  alreadyEntered */\n      tag_38\n        /* \"contracts/lottery.sol\":322:338  alreadyEntered() */\n      jump\t// in\n    tag_37:\n        /* \"contracts/lottery.sol\":322:345  alreadyEntered()==false */\n      iszero\n      iszero\n      eq\n        /* \"contracts/lottery.sol\":314:374  require(alreadyEntered()==false,\"Player already registered\") */\n      tag_39\n      jumpi\n      mload(0x40)\n      0x08c379a000000000000000000000000000000000000000000000000000000000\n      dup2\n      mstore\n      0x04\n      add\n      tag_40\n      swap1\n      tag_41\n      jump\t// in\n    tag_40:\n      mload(0x40)\n      dup1\n      swap2\n      sub\n      swap1\n      revert\n    tag_39:\n        /* \"contracts/lottery.sol\":404:411  1 ether */\n      0x0de0b6b3a7640000\n        /* \"contracts/lottery.sol\":393:402  msg.value */\n      callvalue\n        /* \"contracts/lottery.sol\":393:411  msg.value>=1 ether */\n      lt\n      iszero\n        /* \"contracts/lottery.sol\":385:443  require(msg.value>=1 ether,\"Minimum amount must be payed\") */\n      tag_42\n      jumpi\n      mload(0x40)\n      0x08c379a000000000000000000000000000000000000000000000000000000000\n      dup2\n      mstore\n      0x04\n      add\n      tag_43\n      swap1\n      tag_44\n      jump\t// in\n    tag_43:\n      mload(0x40)\n      dup1\n      swap2\n      sub\n      swap1\n      revert\n    tag_42:\n        /* \"contracts/lottery.sol\":454:461  players */\n      0x01\n        /* \"contracts/lottery.sol\":475:485  msg.sender */\n      caller\n        /* \"contracts/lottery.sol\":454:487  players.push(payable(msg.sender)) */\n      swap1\n      dup1\n      0x01\n      dup2\n      sload\n      add\n      dup1\n      dup3\n      sstore\n      dup1\n      swap2\n      pop\n      pop\n      0x01\n      swap1\n      sub\n      swap1\n      0x00\n      mstore\n      keccak256(0x00, 0x20)\n      add\n      0x00\n      swap1\n      swap2\n      swap1\n      swap2\n      swap1\n      swap2\n      0x0100\n      exp\n      dup2\n      sload\n      dup2\n      0xffffffffffffffffffffffffffffffffffffffff\n      mul\n      not\n      and\n      swap1\n      dup4\n      0xffffffffffffffffffffffffffffffffffffffff\n      and\n      mul\n      or\n      swap1\n      sstore\n      pop\n        /* \"contracts/lottery.sol\":210:495  function enter() public payable{\r... */\n      jump\t// out\n        /* \"contracts/lottery.sol\":111:143  address payable[] public players */\n    tag_21:\n      0x01\n      dup2\n      dup2\n      sload\n      dup2\n      lt\n      tag_46\n      jumpi\n      0x00\n      dup1\n      revert\n    tag_46:\n      swap1\n      0x00\n      mstore\n      keccak256(0x00, 0x20)\n      add\n      0x00\n      swap2\n      pop\n      sload\n      swap1\n      0x0100\n      exp\n      swap1\n      div\n      0xffffffffffffffffffffffffffffffffffffffff\n      and\n      dup2\n      jump\t// out\n        /* \"contracts/lottery.sol\":544:769  function alreadyEntered() private view returns (bool)\r... */\n    tag_38:\n        /* \"contracts/lottery.sol\":592:596  bool */\n      0x00\n        /* \"contracts/lottery.sol\":618:624  uint i */\n      dup1\n        /* \"contracts/lottery.sol\":625:626  0 */\n      0x00\n        /* \"contracts/lottery.sol\":618:626  uint i=0 */\n      swap1\n      pop\n        /* \"contracts/lottery.sol\":614:739  for(uint i=0; i<players.length; i++)\r... */\n    tag_49:\n        /* \"contracts/lottery.sol\":630:637  players */\n      0x01\n        /* \"contracts/lottery.sol\":630:644  players.length */\n      dup1\n      sload\n      swap1\n      pop\n        /* \"contracts/lottery.sol\":628:629  i */\n      dup2\n        /* \"contracts/lottery.sol\":628:644  i<players.length */\n      lt\n        /* \"contracts/lottery.sol\":614:739  for(uint i=0; i<players.length; i++)\r... */\n      iszero\n      tag_50\n      jumpi\n        /* \"contracts/lottery.sol\":690:700  msg.sender */\n      caller\n        /* \"contracts/lottery.sol\":678:700  players[i]==msg.sender */\n      0xffffffffffffffffffffffffffffffffffffffff\n      and\n        /* \"contracts/lottery.sol\":678:685  players */\n      0x01\n        /* \"contracts/lottery.sol\":686:687  i */\n      dup3\n        /* \"contracts/lottery.sol\":678:688  players[i] */\n      dup2\n      sload\n      dup2\n      lt\n      tag_52\n      jumpi\n      tag_53\n      tag_31\n      jump\t// in\n    tag_53:\n    tag_52:\n      swap1\n      0x00\n      mstore\n      keccak256(0x00, 0x20)\n      add\n      0x00\n      swap1\n      sload\n      swap1\n      0x0100\n      exp\n      swap1\n      div\n      0xffffffffffffffffffffffffffffffffffffffff\n      and\n        /* \"contracts/lottery.sol\":678:700  players[i]==msg.sender */\n      0xffffffffffffffffffffffffffffffffffffffff\n      and\n      eq\n        /* \"contracts/lottery.sol\":675:727  if(players[i]==msg.sender)\r... */\n      iszero\n      tag_55\n      jumpi\n        /* \"contracts/lottery.sol\":723:727  true */\n      0x01\n        /* \"contracts/lottery.sol\":716:727  return true */\n      swap2\n      pop\n      pop\n      jump(tag_48)\n        /* \"contracts/lottery.sol\":675:727  if(players[i]==msg.sender)\r... */\n    tag_55:\n        /* \"contracts/lottery.sol\":646:649  i++ */\n      dup1\n      dup1\n      tag_56\n      swap1\n      tag_57\n      jump\t// in\n    tag_56:\n      swap2\n      pop\n      pop\n        /* \"contracts/lottery.sol\":614:739  for(uint i=0; i<players.length; i++)\r... */\n      jump(tag_49)\n    tag_50:\n      pop\n        /* \"contracts/lottery.sol\":756:761  false */\n      0x00\n        /* \"contracts/lottery.sol\":749:761  return false */\n      swap1\n      pop\n        /* \"contracts/lottery.sol\":544:769  function alreadyEntered() private view returns (bool)\r... */\n    tag_48:\n      swap1\n      jump\t// out\n        /* \"#utility.yul\":7:146   */\n    tag_59:\n        /* \"#utility.yul\":53:58   */\n      0x00\n        /* \"#utility.yul\":91:97   */\n      dup2\n        /* \"#utility.yul\":78:98   */\n      calldataload\n        /* \"#utility.yul\":69:98   */\n      swap1\n      pop\n        /* \"#utility.yul\":107:140   */\n      tag_61\n        /* \"#utility.yul\":134:139   */\n      dup2\n        /* \"#utility.yul\":107:140   */\n      tag_62\n      jump\t// in\n    tag_61:\n        /* \"#utility.yul\":7:146   */\n      swap3\n      swap2\n      pop\n      pop\n      jump\t// out\n        /* \"#utility.yul\":152:481   */\n    tag_20:\n        /* \"#utility.yul\":211:217   */\n      0x00\n        /* \"#utility.yul\":260:262   */\n      0x20\n        /* \"#utility.yul\":248:257   */\n      dup3\n        /* \"#utility.yul\":239:246   */\n      dup5\n        /* \"#utility.yul\":235:258   */\n      sub\n        /* \"#utility.yul\":231:263   */\n      slt\n        /* \"#utility.yul\":228:347   */\n      iszero\n      tag_64\n      jumpi\n        /* \"#utility.yul\":266:345   */\n      tag_65\n      tag_66\n      jump\t// in\n    tag_65:\n        /* \"#utility.yul\":228:347   */\n    tag_64:\n        /* \"#utility.yul\":386:387   */\n      0x00\n        /* \"#utility.yul\":411:464   */\n      tag_67\n        /* \"#utility.yul\":456:463   */\n      dup5\n        /* \"#utility.yul\":447:453   */\n      dup3\n        /* \"#utility.yul\":436:445   */\n      dup6\n        /* \"#utility.yul\":432:454   */\n      add\n        /* \"#utility.yul\":411:464   */\n      tag_59\n      jump\t// in\n    tag_67:\n        /* \"#utility.yul\":401:464   */\n      swap2\n      pop\n        /* \"#utility.yul\":357:474   */\n      pop\n        /* \"#utility.yul\":152:481   */\n      swap3\n      swap2\n      pop\n      pop\n      jump\t// out\n        /* \"#utility.yul\":487:629   */\n    tag_68:\n        /* \"#utility.yul\":590:622   */\n      tag_70\n        /* \"#utility.yul\":616:621   */\n      dup2\n        /* \"#utility.yul\":590:622   */\n      tag_71\n      jump\t// in\n    tag_70:\n        /* \"#utility.yul\":585:588   */\n      dup3\n        /* \"#utility.yul\":578:623   */\n      mstore\n        /* \"#utility.yul\":487:629   */\n      pop\n      pop\n      jump\t// out\n        /* \"#utility.yul\":635:753   */\n    tag_72:\n        /* \"#utility.yul\":722:746   */\n      tag_74\n        /* \"#utility.yul\":740:745   */\n      dup2\n        /* \"#utility.yul\":722:746   */\n      tag_75\n      jump\t// in\n    tag_74:\n        /* \"#utility.yul\":717:720   */\n      dup3\n        /* \"#utility.yul\":710:747   */\n      mstore\n        /* \"#utility.yul\":635:753   */\n      pop\n      pop\n      jump\t// out\n        /* \"#utility.yul\":759:1125   */\n    tag_76:\n        /* \"#utility.yul\":901:904   */\n      0x00\n        /* \"#utility.yul\":922:989   */\n      tag_78\n        /* \"#utility.yul\":986:988   */\n      0x1c\n        /* \"#utility.yul\":981:984   */\n      dup4\n        /* \"#utility.yul\":922:989   */\n      tag_79\n      jump\t// in\n    tag_78:\n        /* \"#utility.yul\":915:989   */\n      swap2\n      pop\n        /* \"#utility.yul\":998:1091   */\n      tag_80\n        /* \"#utility.yul\":1087:1090   */\n      dup3\n        /* \"#utility.yul\":998:1091   */\n      tag_81\n      jump\t// in\n    tag_80:\n        /* \"#utility.yul\":1116:1118   */\n      0x20\n        /* \"#utility.yul\":1111:1114   */\n      dup3\n        /* \"#utility.yul\":1107:1119   */\n      add\n        /* \"#utility.yul\":1100:1119   */\n      swap1\n      pop\n        /* \"#utility.yul\":759:1125   */\n      swap2\n      swap1\n      pop\n      jump\t// out\n        /* \"#utility.yul\":1131:1497   */\n    tag_82:\n        /* \"#utility.yul\":1273:1276   */\n      0x00\n        /* \"#utility.yul\":1294:1361   */\n      tag_84\n        /* \"#utility.yul\":1358:1360   */\n      0x19\n        /* \"#utility.yul\":1353:1356   */\n      dup4\n        /* \"#utility.yul\":1294:1361   */\n      tag_79\n      jump\t// in\n    tag_84:\n        /* \"#utility.yul\":1287:1361   */\n      swap2\n      pop\n        /* \"#utility.yul\":1370:1463   */\n      tag_85\n        /* \"#utility.yul\":1459:1462   */\n      dup3\n        /* \"#utility.yul\":1370:1463   */\n      tag_86\n      jump\t// in\n    tag_85:\n        /* \"#utility.yul\":1488:1490   */\n      0x20\n        /* \"#utility.yul\":1483:1486   */\n      dup3\n        /* \"#utility.yul\":1479:1491   */\n      add\n        /* \"#utility.yul\":1472:1491   */\n      swap1\n      pop\n        /* \"#utility.yul\":1131:1497   */\n      swap2\n      swap1\n      pop\n      jump\t// out\n        /* \"#utility.yul\":1503:1869   */\n    tag_87:\n        /* \"#utility.yul\":1645:1648   */\n      0x00\n        /* \"#utility.yul\":1666:1733   */\n      tag_89\n        /* \"#utility.yul\":1730:1732   */\n      0x13\n        /* \"#utility.yul\":1725:1728   */\n      dup4\n        /* \"#utility.yul\":1666:1733   */\n      tag_79\n      jump\t// in\n    tag_89:\n        /* \"#utility.yul\":1659:1733   */\n      swap2\n      pop\n        /* \"#utility.yul\":1742:1835   */\n      tag_90\n        /* \"#utility.yul\":1831:1834   */\n      dup3\n        /* \"#utility.yul\":1742:1835   */\n      tag_91\n      jump\t// in\n    tag_90:\n        /* \"#utility.yul\":1860:1862   */\n      0x20\n        /* \"#utility.yul\":1855:1858   */\n      dup3\n        /* \"#utility.yul\":1851:1863   */\n      add\n        /* \"#utility.yul\":1844:1863   */\n      swap1\n      pop\n        /* \"#utility.yul\":1503:1869   */\n      swap2\n      swap1\n      pop\n      jump\t// out\n        /* \"#utility.yul\":1875:2032   */\n    tag_92:\n        /* \"#utility.yul\":1980:2025   */\n      tag_94\n        /* \"#utility.yul\":2000:2024   */\n      tag_95\n        /* \"#utility.yul\":2018:2023   */\n      dup3\n        /* \"#utility.yul\":2000:2024   */\n      tag_96\n      jump\t// in\n    tag_95:\n        /* \"#utility.yul\":1980:2025   */\n      tag_97\n      jump\t// in\n    tag_94:\n        /* \"#utility.yul\":1975:1978   */\n      dup3\n        /* \"#utility.yul\":1968:2026   */\n      mstore\n        /* \"#utility.yul\":1875:2032   */\n      pop\n      pop\n      jump\t// out\n        /* \"#utility.yul\":2038:2294   */\n    tag_26:\n        /* \"#utility.yul\":2150:2153   */\n      0x00\n        /* \"#utility.yul\":2165:2240   */\n      tag_99\n        /* \"#utility.yul\":2236:2239   */\n      dup3\n        /* \"#utility.yul\":2227:2233   */\n      dup5\n        /* \"#utility.yul\":2165:2240   */\n      tag_92\n      jump\t// in\n    tag_99:\n        /* \"#utility.yul\":2265:2267   */\n      0x20\n        /* \"#utility.yul\":2260:2263   */\n      dup3\n        /* \"#utility.yul\":2256:2268   */\n      add\n        /* \"#utility.yul\":2249:2268   */\n      swap2\n      pop\n        /* \"#utility.yul\":2285:2288   */\n      dup2\n        /* \"#utility.yul\":2278:2288   */\n      swap1\n      pop\n        /* \"#utility.yul\":2038:2294   */\n      swap3\n      swap2\n      pop\n      pop\n      jump\t// out\n        /* \"#utility.yul\":2300:2522   */\n    tag_10:\n        /* \"#utility.yul\":2393:2397   */\n      0x00\n        /* \"#utility.yul\":2431:2433   */\n      0x20\n        /* \"#utility.yul\":2420:2429   */\n      dup3\n        /* \"#utility.yul\":2416:2434   */\n      add\n        /* \"#utility.yul\":2408:2434   */\n      swap1\n      pop\n        /* \"#utility.yul\":2444:2515   */\n      tag_101\n        /* \"#utility.yul\":2512:2513   */\n      0x00\n        /* \"#utility.yul\":2501:2510   */\n      dup4\n        /* \"#utility.yul\":2497:2514   */\n      add\n        /* \"#utility.yul\":2488:2494   */\n      dup5\n        /* \"#utility.yul\":2444:2515   */\n      tag_72\n      jump\t// in\n    tag_101:\n        /* \"#utility.yul\":2300:2522   */\n      swap3\n      swap2\n      pop\n      pop\n      jump\t// out\n        /* \"#utility.yul\":2528:2782   */\n    tag_23:\n        /* \"#utility.yul\":2637:2641   */\n      0x00\n        /* \"#utility.yul\":2675:2677   */\n      0x20\n        /* \"#utility.yul\":2664:2673   */\n      dup3\n        /* \"#utility.yul\":2660:2678   */\n      add\n        /* \"#utility.yul\":2652:2678   */\n      swap1\n      pop\n        /* \"#utility.yul\":2688:2775   */\n      tag_103\n        /* \"#utility.yul\":2772:2773   */\n      0x00\n        /* \"#utility.yul\":2761:2770   */\n      dup4\n        /* \"#utility.yul\":2757:2774   */\n      add\n        /* \"#utility.yul\":2748:2754   */\n      dup5\n        /* \"#utility.yul\":2688:2775   */\n      tag_68\n      jump\t// in\n    tag_103:\n        /* \"#utility.yul\":2528:2782   */\n      swap3\n      swap2\n      pop\n      pop\n      jump\t// out\n        /* \"#utility.yul\":2788:3207   */\n    tag_44:\n        /* \"#utility.yul\":2954:2958   */\n      0x00\n        /* \"#utility.yul\":2992:2994   */\n      0x20\n        /* \"#utility.yul\":2981:2990   */\n      dup3\n        /* \"#utility.yul\":2977:2995   */\n      add\n        /* \"#utility.yul\":2969:2995   */\n      swap1\n      pop\n        /* \"#utility.yul\":3041:3050   */\n      dup2\n        /* \"#utility.yul\":3035:3039   */\n      dup2\n        /* \"#utility.yul\":3031:3051   */\n      sub\n        /* \"#utility.yul\":3027:3028   */\n      0x00\n        /* \"#utility.yul\":3016:3025   */\n      dup4\n        /* \"#utility.yul\":3012:3029   */\n      add\n        /* \"#utility.yul\":3005:3052   */\n      mstore\n        /* \"#utility.yul\":3069:3200   */\n      tag_105\n        /* \"#utility.yul\":3195:3199   */\n      dup2\n        /* \"#utility.yul\":3069:3200   */\n      tag_76\n      jump\t// in\n    tag_105:\n        /* \"#utility.yul\":3061:3200   */\n      swap1\n      pop\n        /* \"#utility.yul\":2788:3207   */\n      swap2\n      swap1\n      pop\n      jump\t// out\n        /* \"#utility.yul\":3213:3632   */\n    tag_41:\n        /* \"#utility.yul\":3379:3383   */\n      0x00\n        /* \"#utility.yul\":3417:3419   */\n      0x20\n        /* \"#utility.yul\":3406:3415   */\n      dup3\n        /* \"#utility.yul\":3402:3420   */\n      add\n        /* \"#utility.yul\":3394:3420   */\n      swap1\n      pop\n        /* \"#utility.yul\":3466:3475   */\n      dup2\n        /* \"#utility.yul\":3460:3464   */\n      dup2\n        /* \"#utility.yul\":3456:3476   */\n      sub\n        /* \"#utility.yul\":3452:3453   */\n      0x00\n        /* \"#utility.yul\":3441:3450   */\n      dup4\n        /* \"#utility.yul\":3437:3454   */\n      add\n        /* \"#utility.yul\":3430:3477   */\n      mstore\n        /* \"#utility.yul\":3494:3625   */\n      tag_107\n        /* \"#utility.yul\":3620:3624   */\n      dup2\n        /* \"#utility.yul\":3494:3625   */\n      tag_82\n      jump\t// in\n    tag_107:\n        /* \"#utility.yul\":3486:3625   */\n      swap1\n      pop\n        /* \"#utility.yul\":3213:3632   */\n      swap2\n      swap1\n      pop\n      jump\t// out\n        /* \"#utility.yul\":3638:4057   */\n    tag_36:\n        /* \"#utility.yul\":3804:3808   */\n      0x00\n        /* \"#utility.yul\":3842:3844   */\n      0x20\n        /* \"#utility.yul\":3831:3840   */\n      dup3\n        /* \"#utility.yul\":3827:3845   */\n      add\n        /* \"#utility.yul\":3819:3845   */\n      swap1\n      pop\n        /* \"#utility.yul\":3891:3900   */\n      dup2\n        /* \"#utility.yul\":3885:3889   */\n      dup2\n        /* \"#utility.yul\":3881:3901   */\n      sub\n        /* \"#utility.yul\":3877:3878   */\n      0x00\n        /* \"#utility.yul\":3866:3875   */\n      dup4\n        /* \"#utility.yul\":3862:3879   */\n      add\n        /* \"#utility.yul\":3855:3902   */\n      mstore\n        /* \"#utility.yul\":3919:4050   */\n      tag_109\n        /* \"#utility.yul\":4045:4049   */\n      dup2\n        /* \"#utility.yul\":3919:4050   */\n      tag_87\n      jump\t// in\n    tag_109:\n        /* \"#utility.yul\":3911:4050   */\n      swap1\n      pop\n        /* \"#utility.yul\":3638:4057   */\n      swap2\n      swap1\n      pop\n      jump\t// out\n        /* \"#utility.yul\":4144:4313   */\n    tag_79:\n        /* \"#utility.yul\":4228:4239   */\n      0x00\n        /* \"#utility.yul\":4262:4268   */\n      dup3\n        /* \"#utility.yul\":4257:4260   */\n      dup3\n        /* \"#utility.yul\":4250:4269   */\n      mstore\n        /* \"#utility.yul\":4302:4306   */\n      0x20\n        /* \"#utility.yul\":4297:4300   */\n      dup3\n        /* \"#utility.yul\":4293:4307   */\n      add\n        /* \"#utility.yul\":4278:4307   */\n      swap1\n      pop\n        /* \"#utility.yul\":4144:4313   */\n      swap3\n      swap2\n      pop\n      pop\n      jump\t// out\n        /* \"#utility.yul\":4319:4415   */\n    tag_75:\n        /* \"#utility.yul\":4356:4363   */\n      0x00\n        /* \"#utility.yul\":4385:4409   */\n      tag_114\n        /* \"#utility.yul\":4403:4408   */\n      dup3\n        /* \"#utility.yul\":4385:4409   */\n      tag_115\n      jump\t// in\n    tag_114:\n        /* \"#utility.yul\":4374:4409   */\n      swap1\n      pop\n        /* \"#utility.yul\":4319:4415   */\n      swap2\n      swap1\n      pop\n      jump\t// out\n        /* \"#utility.yul\":4421:4525   */\n    tag_71:\n        /* \"#utility.yul\":4466:4473   */\n      0x00\n        /* \"#utility.yul\":4495:4519   */\n      tag_117\n        /* \"#utility.yul\":4513:4518   */\n      dup3\n        /* \"#utility.yul\":4495:4519   */\n      tag_115\n      jump\t// in\n    tag_117:\n        /* \"#utility.yul\":4484:4519   */\n      swap1\n      pop\n        /* \"#utility.yul\":4421:4525   */\n      swap2\n      swap1\n      pop\n      jump\t// out\n        /* \"#utility.yul\":4531:4657   */\n    tag_115:\n        /* \"#utility.yul\":4568:4575   */\n      0x00\n        /* \"#utility.yul\":4608:4650   */\n      0xffffffffffffffffffffffffffffffffffffffff\n        /* \"#utility.yul\":4601:4606   */\n      dup3\n        /* \"#utility.yul\":4597:4651   */\n      and\n        /* \"#utility.yul\":4586:4651   */\n      swap1\n      pop\n        /* \"#utility.yul\":4531:4657   */\n      swap2\n      swap1\n      pop\n      jump\t// out\n        /* \"#utility.yul\":4663:4740   */\n    tag_96:\n        /* \"#utility.yul\":4700:4707   */\n      0x00\n        /* \"#utility.yul\":4729:4734   */\n      dup2\n        /* \"#utility.yul\":4718:4734   */\n      swap1\n      pop\n        /* \"#utility.yul\":4663:4740   */\n      swap2\n      swap1\n      pop\n      jump\t// out\n        /* \"#utility.yul\":4746:4979   */\n    tag_57:\n        /* \"#utility.yul\":4785:4788   */\n      0x00\n        /* \"#utility.yul\":4808:4832   */\n      tag_121\n        /* \"#utility.yul\":4826:4831   */\n      dup3\n        /* \"#utility.yul\":4808:4832   */\n      tag_96\n      jump\t// in\n    tag_121:\n        /* \"#utility.yul\":4799:4832   */\n      swap2\n      pop\n        /* \"#utility.yul\":4854:4920   */\n      0xffffffffffffffffffffffffffffffffffffffffffffffffffffffffffffffff\n        /* \"#utility.yul\":4847:4852   */\n      dup3\n        /* \"#utility.yul\":4844:4921   */\n      eq\n        /* \"#utility.yul\":4841:4944   */\n      iszero\n      tag_122\n      jumpi\n        /* \"#utility.yul\":4924:4942   */\n      tag_123\n      tag_124\n      jump\t// in\n    tag_123:\n        /* \"#utility.yul\":4841:4944   */\n    tag_122:\n        /* \"#utility.yul\":4971:4972   */\n      0x01\n        /* \"#utility.yul\":4964:4969   */\n      dup3\n        /* \"#utility.yul\":4960:4973   */\n      add\n        /* \"#utility.yul\":4953:4973   */\n      swap1\n      pop\n        /* \"#utility.yul\":4746:4979   */\n      swap2\n      swap1\n      pop\n      jump\t// out\n        /* \"#utility.yul\":4985:5064   */\n    tag_97:\n        /* \"#utility.yul\":5024:5031   */\n      0x00\n        /* \"#utility.yul\":5053:5058   */\n      dup2\n        /* \"#utility.yul\":5042:5058   */\n      swap1\n      pop\n        /* \"#utility.yul\":4985:5064   */\n      swap2\n      swap1\n      pop\n      jump\t// out\n        /* \"#utility.yul\":5070:5246   */\n    tag_28:\n        /* \"#utility.yul\":5102:5103   */\n      0x00\n        /* \"#utility.yul\":5119:5139   */\n      tag_127\n        /* \"#utility.yul\":5137:5138   */\n      dup3\n        /* \"#utility.yul\":5119:5139   */\n      tag_96\n      jump\t// in\n    tag_127:\n        /* \"#utility.yul\":5114:5139   */\n      swap2\n      pop\n        /* \"#utility.yul\":5153:5173   */\n      tag_128\n        /* \"#utility.yul\":5171:5172   */\n      dup4\n        /* \"#utility.yul\":5153:5173   */\n      tag_96\n      jump\t// in\n    tag_128:\n        /* \"#utility.yul\":5148:5173   */\n      swap3\n      pop\n        /* \"#utility.yul\":5192:5193   */\n      dup3\n        /* \"#utility.yul\":5182:5217   */\n      tag_129\n      jumpi\n        /* \"#utility.yul\":5197:5215   */\n      tag_130\n      tag_131\n      jump\t// in\n    tag_130:\n        /* \"#utility.yul\":5182:5217   */\n    tag_129:\n        /* \"#utility.yul\":5238:5239   */\n      dup3\n        /* \"#utility.yul\":5235:5236   */\n      dup3\n        /* \"#utility.yul\":5231:5240   */\n      mod\n        /* \"#utility.yul\":5226:5240   */\n      swap1\n      pop\n        /* \"#utility.yul\":5070:5246   */\n      swap3\n      swap2\n      pop\n      pop\n      jump\t// out\n        /* \"#utility.yul\":5252:5432   */\n    tag_124:\n        /* \"#utility.yul\":5300:5377   */\n      0x4e487b7100000000000000000000000000000000000000000000000000000000\n        /* \"#utility.yul\":5297:5298   */\n      0x00\n        /* \"#utility.yul\":5290:5378   */\n      mstore\n        /* \"#utility.yul\":5397:5401   */\n      0x11\n        /* \"#utility.yul\":5394:5395   */\n      0x04\n        /* \"#utility.yul\":5387:5402   */\n      mstore\n        /* \"#utility.yul\":5421:5425   */\n      0x24\n        /* \"#utility.yul\":5418:5419   */\n      0x00\n        /* \"#utility.yul\":5411:5426   */\n      revert\n        /* \"#utility.yul\":5438:5618   */\n    tag_131:\n        /* \"#utility.yul\":5486:5563   */\n      0x4e487b7100000000000000000000000000000000000000000000000000000000\n        /* \"#utility.yul\":5483:5484   */\n      0x00\n        /* \"#utility.yul\":5476:5564   */\n      mstore\n        /* \"#utility.yul\":5583:5587   */\n      0x12\n        /* \"#utility.yul\":5580:5581   */\n      0x04\n        /* \"#utility.yul\":5573:5588   */\n      mstore\n        /* \"#utility.yul\":5607:5611   */\n      0x24\n        /* \"#utility.yul\":5604:5605   */\n      0x00\n        /* \"#utility.yul\":5597:5612   */\n      revert\n        /* \"#utility.yul\":5624:5804   */\n    tag_31:\n        /* \"#utility.yul\":5672:5749   */\n      0x4e487b7100000000000000000000000000000000000000000000000000000000\n        /* \"#utility.yul\":5669:5670   */\n      0x00\n        /* \"#utility.yul\":5662:5750   */\n      mstore\n        /* \"#utility.yul\":5769:5773   */\n      0x32\n        /* \"#utility.yul\":5766:5767   */\n      0x04\n        /* \"#utility.yul\":5759:5774   */\n      mstore\n        /* \"#utility.yul\":5793:5797   */\n      0x24\n        /* \"#utility.yul\":5790:5791   */\n      0x00\n        /* \"#utility.yul\":5783:5798   */\n      revert\n        /* \"#utility.yul\":5933:6050   */\n    tag_66:\n        /* \"#utility.yul\":6042:6043   */\n      0x00\n        /* \"#utility.yul\":6039:6040   */\n      dup1\n        /* \"#utility.yul\":6032:6044   */\n      revert\n        /* \"#utility.yul\":6056:6234   */\n    tag_81:\n        /* \"#utility.yul\":6196:6226   */\n      0x4d696e696d756d20616d6f756e74206d75737420626520706179656400000000\n        /* \"#utility.yul\":6192:6193   */\n      0x00\n        /* \"#utility.yul\":6184:6190   */\n      dup3\n        /* \"#utility.yul\":6180:6194   */\n      add\n        /* \"#utility.yul\":6173:6227   */\n      mstore\n        /* \"#utility.yul\":6056:6234   */\n      pop\n      jump\t// out\n        /* \"#utility.yul\":6240:6415   */\n    tag_86:\n        /* \"#utility.yul\":6380:6407   */\n      0x506c6179657220616c7265616479207265676973746572656400000000000000\n        /* \"#utility.yul\":6376:6377   */\n      0x00\n        /* \"#utility.yul\":6368:6374   */\n      dup3\n        /* \"#utility.yul\":6364:6378   */\n      add\n        /* \"#utility.yul\":6357:6408   */\n      mstore\n        /* \"#utility.yul\":6240:6415   */\n      pop\n      jump\t// out\n        /* \"#utility.yul\":6421:6590   */\n    tag_91:\n        /* \"#utility.yul\":6561:6582   */\n      0x4d616e616765722063616e277420656e74657200000000000000000000000000\n        /* \"#utility.yul\":6557:6558   */\n      0x00\n        /* \"#utility.yul\":6549:6555   */\n      dup3\n        /* \"#utility.yul\":6545:6559   */\n      add\n        /* \"#utility.yul\":6538:6583   */\n      mstore\n        /* \"#utility.yul\":6421:6590   */\n      pop\n      jump\t// out\n        /* \"#utility.yul\":6596:6718   */\n    tag_62:\n        /* \"#utility.yul\":6669:6693   */\n      tag_142\n        /* \"#utility.yul\":6687:6692   */\n      dup2\n        /* \"#utility.yul\":6669:6693   */\n      tag_96\n      jump\t// in\n    tag_142:\n        /* \"#utility.yul\":6662:6667   */\n      dup2\n        /* \"#utility.yul\":6659:6694   */\n      eq\n        /* \"#utility.yul\":6649:6712   */\n      tag_143\n      jumpi\n        /* \"#utility.yul\":6708:6709   */\n      0x00\n        /* \"#utility.yul\":6705:6706   */\n      dup1\n        /* \"#utility.yul\":6698:6710   */\n      revert\n        /* \"#utility.yul\":6649:6712   */\n    tag_143:\n        /* \"#utility.yul\":6596:6718   */\n      pop\n      jump\t// out\n\n    auxdata: 0xa26469706673582212201332d8ed0cd5ef89dc48e85505ebc6e1ba17fd0446774c1427863e97574b4ee564736f6c63430008070033\n}\n",
				"bytecode": {
					"linkReferences": {},
					"object": "608060405234801561001057600080fd5b50336000806101000a81548173ffffffffffffffffffffffffffffffffffffffff021916908373ffffffffffffffffffffffffffffffffffffffff1602179055506107d0806100606000396000f3fe60806040526004361061003f5760003560e01c8063481c6a75146100445780638e71decb1461006f578063e97dcb621461009a578063f71d96cb146100a4575b600080fd5b34801561005057600080fd5b506100596100e1565b60405161006691906104fd565b60405180910390f35b34801561007b57600080fd5b50610084610105565b60405161009191906104fd565b60405180910390f35b6100a2610189565b005b3480156100b057600080fd5b506100cb60048036038101906100c69190610417565b610316565b6040516100d89190610518565b60405180910390f35b60008054906101000a900473ffffffffffffffffffffffffffffffffffffffff1681565b6000806001805490504260405160200161011f91906104e2565b6040516020818303038152906040528051906020012060001c6101429190610645565b905060018181548110610158576101576106d4565b5b9060005260206000200160009054906101000a900473ffffffffffffffffffffffffffffffffffffffff1691505090565b60008054906101000a900473ffffffffffffffffffffffffffffffffffffffff1673ffffffffffffffffffffffffffffffffffffffff163373ffffffffffffffffffffffffffffffffffffffff161415610218576040517f08c379a000000000000000000000000000000000000000000000000000000000815260040161020f90610573565b60405180910390fd5b60001515610224610355565b151514610266576040517f08c379a000000000000000000000000000000000000000000000000000000000815260040161025d90610553565b60405180910390fd5b670de0b6b3a76400003410156102b1576040517f08c379a00000000000000000000000000000000000000000000000000000000081526004016102a890610533565b60405180910390fd5b6001339080600181540180825580915050600190039060005260206000200160009091909190916101000a81548173ffffffffffffffffffffffffffffffffffffffff021916908373ffffffffffffffffffffffffffffffffffffffff160217905550565b6001818154811061032657600080fd5b906000526020600020016000915054906101000a900473ffffffffffffffffffffffffffffffffffffffff1681565b600080600090505b6001805490508110156103f9573373ffffffffffffffffffffffffffffffffffffffff1660018281548110610395576103946106d4565b5b9060005260206000200160009054906101000a900473ffffffffffffffffffffffffffffffffffffffff1673ffffffffffffffffffffffffffffffffffffffff1614156103e65760019150506103ff565b80806103f1906105f2565b91505061035d565b50600090505b90565b60008135905061041181610783565b92915050565b60006020828403121561042d5761042c610703565b5b600061043b84828501610402565b91505092915050565b61044d816105b6565b82525050565b61045c816105a4565b82525050565b600061046f601c83610593565b915061047a82610708565b602082019050919050565b6000610492601983610593565b915061049d82610731565b602082019050919050565b60006104b5601383610593565b91506104c08261075a565b602082019050919050565b6104dc6104d7826105e8565b61063b565b82525050565b60006104ee82846104cb565b60208201915081905092915050565b60006020820190506105126000830184610453565b92915050565b600060208201905061052d6000830184610444565b92915050565b6000602082019050818103600083015261054c81610462565b9050919050565b6000602082019050818103600083015261056c81610485565b9050919050565b6000602082019050818103600083015261058c816104a8565b9050919050565b600082825260208201905092915050565b60006105af826105c8565b9050919050565b60006105c1826105c8565b9050919050565b600073ffffffffffffffffffffffffffffffffffffffff82169050919050565b6000819050919050565b60006105fd826105e8565b91507fffffffffffffffffffffffffffffffffffffffffffffffffffffffffffffffff8214156106305761062f610676565b5b600182019050919050565b6000819050919050565b6000610650826105e8565b915061065b836105e8565b92508261066b5761066a6106a5565b5b828206905092915050565b7f4e487b7100000000000000000000000000000000000000000000000000000000600052601160045260246000fd5b7f4e487b7100000000000000000000000000000000000000000000000000000000600052601260045260246000fd5b7f4e487b7100000000000000000000000000000000000000000000000000000000600052603260045260246000fd5b600080fd5b7f4d696e696d756d20616d6f756e74206d75737420626520706179656400000000600082015250565b7f506c6179657220616c7265616479207265676973746572656400000000000000600082015250565b7f4d616e616765722063616e277420656e74657200000000000000000000000000600082015250565b61078c816105e8565b811461079757600080fd5b5056fea26469706673582212201332d8ed0cd5ef89dc48e85505ebc6e1ba17fd0446774c1427863e97574b4ee564736f6c63430008070033",
					"opcodes": "PUSH1 0x80 PUSH1 0x40 MSTORE CALLVALUE DUP1 ISZERO PUSH2 0x10 JUMPI PUSH1 0x0 DUP1 REVERT JUMPDEST POP CALLER PUSH1 0x0 DUP1 PUSH2 0x100 EXP DUP2 SLOAD DUP2 PUSH20 0xFFFFFFFFFFFFFFFFFFFFFFFFFFFFFFFFFFFFFFFF MUL NOT AND SWAP1 DUP4 PUSH20 0xFFFFFFFFFFFFFFFFFFFFFFFFFFFFFFFFFFFFFFFF AND MUL OR SWAP1 SSTORE POP PUSH2 0x7D0 DUP1 PUSH2 0x60 PUSH1 0x0 CODECOPY PUSH1 0x0 RETURN INVALID PUSH1 0x80 PUSH1 0x40 MSTORE PUSH1 0x4 CALLDATASIZE LT PUSH2 0x3F JUMPI PUSH1 0x0 CALLDATALOAD PUSH1 0xE0 SHR DUP1 PUSH4 0x481C6A75 EQ PUSH2 0x44 JUMPI DUP1 PUSH4 0x8E71DECB EQ PUSH2 0x6F JUMPI DUP1 PUSH4 0xE97DCB62 EQ PUSH2 0x9A JUMPI DUP1 PUSH4 0xF71D96CB EQ PUSH2 0xA4 JUMPI JUMPDEST PUSH1 0x0 DUP1 REVERT JUMPDEST CALLVALUE DUP1 ISZERO PUSH2 0x50 JUMPI PUSH1 0x0 DUP1 REVERT JUMPDEST POP PUSH2 0x59 PUSH2 0xE1 JUMP JUMPDEST PUSH1 0x40 MLOAD PUSH2 0x66 SWAP2 SWAP1 PUSH2 0x4FD JUMP JUMPDEST PUSH1 0x40 MLOAD DUP1 SWAP2 SUB SWAP1 RETURN JUMPDEST CALLVALUE DUP1 ISZERO PUSH2 0x7B JUMPI PUSH1 0x0 DUP1 REVERT JUMPDEST POP PUSH2 0x84 PUSH2 0x105 JUMP JUMPDEST PUSH1 0x40 MLOAD PUSH2 0x91 SWAP2 SWAP1 PUSH2 0x4FD JUMP JUMPDEST PUSH1 0x40 MLOAD DUP1 SWAP2 SUB SWAP1 RETURN JUMPDEST PUSH2 0xA2 PUSH2 0x189 JUMP JUMPDEST STOP JUMPDEST CALLVALUE DUP1 ISZERO PUSH2 0xB0 JUMPI PUSH1 0x0 DUP1 REVERT JUMPDEST POP PUSH2 0xCB PUSH1 0x4 DUP1 CALLDATASIZE SUB DUP2 ADD SWAP1 PUSH2 0xC6 SWAP2 SWAP1 PUSH2 0x417 JUMP JUMPDEST PUSH2 0x316 JUMP JUMPDEST PUSH1 0x40 MLOAD PUSH2 0xD8 SWAP2 SWAP1 PUSH2 0x518 JUMP JUMPDEST PUSH1 0x40 MLOAD DUP1 SWAP2 SUB SWAP1 RETURN JUMPDEST PUSH1 0x0 DUP1 SLOAD SWAP1 PUSH2 0x100 EXP SWAP1 DIV PUSH20 0xFFFFFFFFFFFFFFFFFFFFFFFFFFFFFFFFFFFFFFFF AND DUP2 JUMP JUMPDEST PUSH1 0x0 DUP1 PUSH1 0x1 DUP1 SLOAD SWAP1 POP TIMESTAMP PUSH1 0x40 MLOAD PUSH1 0x20 ADD PUSH2 0x11F SWAP2 SWAP1 PUSH2 0x4E2 JUMP JUMPDEST PUSH1 0x40 MLOAD PUSH1 0x20 DUP2 DUP4 SUB SUB DUP2 MSTORE SWAP1 PUSH1 0x40 MSTORE DUP1 MLOAD SWAP1 PUSH1 0x20 ADD KECCAK256 PUSH1 0x0 SHR PUSH2 0x142 SWAP2 SWAP1 PUSH2 0x645 JUMP JUMPDEST SWAP1 POP PUSH1 0x1 DUP2 DUP2 SLOAD DUP2 LT PUSH2 0x158 JUMPI PUSH2 0x157 PUSH2 0x6D4 JUMP JUMPDEST JUMPDEST SWAP1 PUSH1 0x0 MSTORE PUSH1 0x20 PUSH1 0x0 KECCAK256 ADD PUSH1 0x0 SWAP1 SLOAD SWAP1 PUSH2 0x100 EXP SWAP1 DIV PUSH20 0xFFFFFFFFFFFFFFFFFFFFFFFFFFFFFFFFFFFFFFFF AND SWAP2 POP POP SWAP1 JUMP JUMPDEST PUSH1 0x0 DUP1 SLOAD SWAP1 PUSH2 0x100 EXP SWAP1 DIV PUSH20 0xFFFFFFFFFFFFFFFFFFFFFFFFFFFFFFFFFFFFFFFF AND PUSH20 0xFFFFFFFFFFFFFFFFFFFFFFFFFFFFFFFFFFFFFFFF AND CALLER PUSH20 0xFFFFFFFFFFFFFFFFFFFFFFFFFFFFFFFFFFFFFFFF AND EQ ISZERO PUSH2 0x218 JUMPI PUSH1 0x40 MLOAD PUSH32 0x8C379A000000000000000000000000000000000000000000000000000000000 DUP2 MSTORE PUSH1 0x4 ADD PUSH2 0x20F SWAP1 PUSH2 0x573 JUMP JUMPDEST PUSH1 0x40 MLOAD DUP1 SWAP2 SUB SWAP1 REVERT JUMPDEST PUSH1 0x0 ISZERO ISZERO PUSH2 0x224 PUSH2 0x355 JUMP JUMPDEST ISZERO ISZERO EQ PUSH2 0x266 JUMPI PUSH1 0x40 MLOAD PUSH32 0x8C379A000000000000000000000000000000000000000000000000000000000 DUP2 MSTORE PUSH1 0x4 ADD PUSH2 0x25D SWAP1 PUSH2 0x553 JUMP JUMPDEST PUSH1 0x40 MLOAD DUP1 SWAP2 SUB SWAP1 REVERT JUMPDEST PUSH8 0xDE0B6B3A7640000 CALLVALUE LT ISZERO PUSH2 0x2B1 JUMPI PUSH1 0x40 MLOAD PUSH32 0x8C379A000000000000000000000000000000000000000000000000000000000 DUP2 MSTORE PUSH1 0x4 ADD PUSH2 0x2A8 SWAP1 PUSH2 0x533 JUMP JUMPDEST PUSH1 0x40 MLOAD DUP1 SWAP2 SUB SWAP1 REVERT JUMPDEST PUSH1 0x1 CALLER SWAP1 DUP1 PUSH1 0x1 DUP2 SLOAD ADD DUP1 DUP3 SSTORE DUP1 SWAP2 POP POP PUSH1 0x1 SWAP1 SUB SWAP1 PUSH1 0x0 MSTORE PUSH1 0x20 PUSH1 0x0 KECCAK256 ADD PUSH1 0x0 SWAP1 SWAP2 SWAP1 SWAP2 SWAP1 SWAP2 PUSH2 0x100 EXP DUP2 SLOAD DUP2 PUSH20 0xFFFFFFFFFFFFFFFFFFFFFFFFFFFFFFFFFFFFFFFF MUL NOT AND SWAP1 DUP4 PUSH20 0xFFFFFFFFFFFFFFFFFFFFFFFFFFFFFFFFFFFFFFFF AND MUL OR SWAP1 SSTORE POP JUMP JUMPDEST PUSH1 0x1 DUP2 DUP2 SLOAD DUP2 LT PUSH2 0x326 JUMPI PUSH1 0x0 DUP1 REVERT JUMPDEST SWAP1 PUSH1 0x0 MSTORE PUSH1 0x20 PUSH1 0x0 KECCAK256 ADD PUSH1 0x0 SWAP2 POP SLOAD SWAP1 PUSH2 0x100 EXP SWAP1 DIV PUSH20 0xFFFFFFFFFFFFFFFFFFFFFFFFFFFFFFFFFFFFFFFF AND DUP2 JUMP JUMPDEST PUSH1 0x0 DUP1 PUSH1 0x0 SWAP1 POP JUMPDEST PUSH1 0x1 DUP1 SLOAD SWAP1 POP DUP2 LT ISZERO PUSH2 0x3F9 JUMPI CALLER PUSH20 0xFFFFFFFFFFFFFFFFFFFFFFFFFFFFFFFFFFFFFFFF AND PUSH1 0x1 DUP3 DUP2 SLOAD DUP2 LT PUSH2 0x395 JUMPI PUSH2 0x394 PUSH2 0x6D4 JUMP JUMPDEST JUMPDEST SWAP1 PUSH1 0x0 MSTORE PUSH1 0x20 PUSH1 0x0 KECCAK256 ADD PUSH1 0x0 SWAP1 SLOAD SWAP1 PUSH2 0x100 EXP SWAP1 DIV PUSH20 0xFFFFFFFFFFFFFFFFFFFFFFFFFFFFFFFFFFFFFFFF AND PUSH20 0xFFFFFFFFFFFFFFFFFFFFFFFFFFFFFFFFFFFFFFFF AND EQ ISZERO PUSH2 0x3E6 JUMPI PUSH1 0x1 SWAP2 POP POP PUSH2 0x3FF JUMP JUMPDEST DUP1 DUP1 PUSH2 0x3F1 SWAP1 PUSH2 0x5F2 JUMP JUMPDEST SWAP2 POP POP PUSH2 0x35D JUMP JUMPDEST POP PUSH1 0x0 SWAP1 POP JUMPDEST SWAP1 JUMP JUMPDEST PUSH1 0x0 DUP2 CALLDATALOAD SWAP1 POP PUSH2 0x411 DUP2 PUSH2 0x783 JUMP JUMPDEST SWAP3 SWAP2 POP POP JUMP JUMPDEST PUSH1 0x0 PUSH1 0x20 DUP3 DUP5 SUB SLT ISZERO PUSH2 0x42D JUMPI PUSH2 0x42C PUSH2 0x703 JUMP JUMPDEST JUMPDEST PUSH1 0x0 PUSH2 0x43B DUP5 DUP3 DUP6 ADD PUSH2 0x402 JUMP JUMPDEST SWAP2 POP POP SWAP3 SWAP2 POP POP JUMP JUMPDEST PUSH2 0x44D DUP2 PUSH2 0x5B6 JUMP JUMPDEST DUP3 MSTORE POP POP JUMP JUMPDEST PUSH2 0x45C DUP2 PUSH2 0x5A4 JUMP JUMPDEST DUP3 MSTORE POP POP JUMP JUMPDEST PUSH1 0x0 PUSH2 0x46F PUSH1 0x1C DUP4 PUSH2 0x593 JUMP JUMPDEST SWAP2 POP PUSH2 0x47A DUP3 PUSH2 0x708 JUMP JUMPDEST PUSH1 0x20 DUP3 ADD SWAP1 POP SWAP2 SWAP1 POP JUMP JUMPDEST PUSH1 0x0 PUSH2 0x492 PUSH1 0x19 DUP4 PUSH2 0x593 JUMP JUMPDEST SWAP2 POP PUSH2 0x49D DUP3 PUSH2 0x731 JUMP JUMPDEST PUSH1 0x20 DUP3 ADD SWAP1 POP SWAP2 SWAP1 POP JUMP JUMPDEST PUSH1 0x0 PUSH2 0x4B5 PUSH1 0x13 DUP4 PUSH2 0x593 JUMP JUMPDEST SWAP2 POP PUSH2 0x4C0 DUP3 PUSH2 0x75A JUMP JUMPDEST PUSH1 0x20 DUP3 ADD SWAP1 POP SWAP2 SWAP1 POP JUMP JUMPDEST PUSH2 0x4DC PUSH2 0x4D7 DUP3 PUSH2 0x5E8 JUMP JUMPDEST PUSH2 0x63B JUMP JUMPDEST DUP3 MSTORE POP POP JUMP JUMPDEST PUSH1 0x0 PUSH2 0x4EE DUP3 DUP5 PUSH2 0x4CB JUMP JUMPDEST PUSH1 0x20 DUP3 ADD SWAP2 POP DUP2 SWAP1 POP SWAP3 SWAP2 POP POP JUMP JUMPDEST PUSH1 0x0 PUSH1 0x20 DUP3 ADD SWAP1 POP PUSH2 0x512 PUSH1 0x0 DUP4 ADD DUP5 PUSH2 0x453 JUMP JUMPDEST SWAP3 SWAP2 POP POP JUMP JUMPDEST PUSH1 0x0 PUSH1 0x20 DUP3 ADD SWAP1 POP PUSH2 0x52D PUSH1 0x0 DUP4 ADD DUP5 PUSH2 0x444 JUMP JUMPDEST SWAP3 SWAP2 POP POP JUMP JUMPDEST PUSH1 0x0 PUSH1 0x20 DUP3 ADD SWAP1 POP DUP2 DUP2 SUB PUSH1 0x0 DUP4 ADD MSTORE PUSH2 0x54C DUP2 PUSH2 0x462 JUMP JUMPDEST SWAP1 POP SWAP2 SWAP1 POP JUMP JUMPDEST PUSH1 0x0 PUSH1 0x20 DUP3 ADD SWAP1 POP DUP2 DUP2 SUB PUSH1 0x0 DUP4 ADD MSTORE PUSH2 0x56C DUP2 PUSH2 0x485 JUMP JUMPDEST SWAP1 POP SWAP2 SWAP1 POP JUMP JUMPDEST PUSH1 0x0 PUSH1 0x20 DUP3 ADD SWAP1 POP DUP2 DUP2 SUB PUSH1 0x0 DUP4 ADD MSTORE PUSH2 0x58C DUP2 PUSH2 0x4A8 JUMP JUMPDEST SWAP1 POP SWAP2 SWAP1 POP JUMP JUMPDEST PUSH1 0x0 DUP3 DUP3 MSTORE PUSH1 0x20 DUP3 ADD SWAP1 POP SWAP3 SWAP2 POP POP JUMP JUMPDEST PUSH1 0x0 PUSH2 0x5AF DUP3 PUSH2 0x5C8 JUMP JUMPDEST SWAP1 POP SWAP2 SWAP1 POP JUMP JUMPDEST PUSH1 0x0 PUSH2 0x5C1 DUP3 PUSH2 0x5C8 JUMP JUMPDEST SWAP1 POP SWAP2 SWAP1 POP JUMP JUMPDEST PUSH1 0x0 PUSH20 0xFFFFFFFFFFFFFFFFFFFFFFFFFFFFFFFFFFFFFFFF DUP3 AND SWAP1 POP SWAP2 SWAP1 POP JUMP JUMPDEST PUSH1 0x0 DUP2 SWAP1 POP SWAP2 SWAP1 POP JUMP JUMPDEST PUSH1 0x0 PUSH2 0x5FD DUP3 PUSH2 0x5E8 JUMP JUMPDEST SWAP2 POP PUSH32 0xFFFFFFFFFFFFFFFFFFFFFFFFFFFFFFFFFFFFFFFFFFFFFFFFFFFFFFFFFFFFFFFF DUP3 EQ ISZERO PUSH2 0x630 JUMPI PUSH2 0x62F PUSH2 0x676 JUMP JUMPDEST JUMPDEST PUSH1 0x1 DUP3 ADD SWAP1 POP SWAP2 SWAP1 POP JUMP JUMPDEST PUSH1 0x0 DUP2 SWAP1 POP SWAP2 SWAP1 POP JUMP JUMPDEST PUSH1 0x0 PUSH2 0x650 DUP3 PUSH2 0x5E8 JUMP JUMPDEST SWAP2 POP PUSH2 0x65B DUP4 PUSH2 0x5E8 JUMP JUMPDEST SWAP3 POP DUP3 PUSH2 0x66B JUMPI PUSH2 0x66A PUSH2 0x6A5 JUMP JUMPDEST JUMPDEST DUP3 DUP3 MOD SWAP1 POP SWAP3 SWAP2 POP POP JUMP JUMPDEST PUSH32 0x4E487B7100000000000000000000000000000000000000000000000000000000 PUSH1 0x0 MSTORE PUSH1 0x11 PUSH1 0x4 MSTORE PUSH1 0x24 PUSH1 0x0 REVERT JUMPDEST PUSH32 0x4E487B7100000000000000000000000000000000000000000000000000000000 PUSH1 0x0 MSTORE PUSH1 0x12 PUSH1 0x4 MSTORE PUSH1 0x24 PUSH1 0x0 REVERT JUMPDEST PUSH32 0x4E487B7100000000000000000000000000000000000000000000000000000000 PUSH1 0x0 MSTORE PUSH1 0x32 PUSH1 0x4 MSTORE PUSH1 0x24 PUSH1 0x0 REVERT JUMPDEST PUSH1 0x0 DUP1 REVERT JUMPDEST PUSH32 0x4D696E696D756D20616D6F756E74206D75737420626520706179656400000000 PUSH1 0x0 DUP3 ADD MSTORE POP JUMP JUMPDEST PUSH32 0x506C6179657220616C7265616479207265676973746572656400000000000000 PUSH1 0x0 DUP3 ADD MSTORE POP JUMP JUMPDEST PUSH32 0x4D616E616765722063616E277420656E74657200000000000000000000000000 PUSH1 0x0 DUP3 ADD MSTORE POP JUMP JUMPDEST PUSH2 0x78C DUP2 PUSH2 0x5E8 JUMP JUMPDEST DUP2 EQ PUSH2 0x797 JUMPI PUSH1 0x0 DUP1 REVERT JUMPDEST POP JUMP INVALID LOG2 PUSH5 0x6970667358 0x22 SLT KECCAK256 SGT ORIGIN 0xD8 0xED 0xC 0xD5 0xEF DUP10 0xDC BASEFEE 0xE8 SSTORE SDIV 0xEB 0xC6 0xE1 0xBA OR REVERT DIV CHAINID PUSH24 0x4C1427863E97574B4EE564736F6C63430008070033000000 "
				},
				"gasEstimates": {
					"creation": {
						"codeDepositCost": "400000",
						"executionCost": "24702",
						"totalCost": "424702"
					},
					"external": {
						"enter()": "infinite",
						"findWinner()": "infinite",
						"manager()": "2489",
						"players(uint256)": "5000"
					},
					"internal": {
						"alreadyEntered()": "infinite"
					}
				},
				"methodIdentifiers": {
					"enter()": "e97dcb62",
					"findWinner()": "8e71decb",
					"manager()": "481c6a75",
					"players(uint256)": "f71d96cb"
				}
			},
			"storageLayout": {
				"storage": [
					{
						"astId": 3,
						"contract": "contracts/lottery.sol:Lottery",
						"label": "manager",
						"offset": 0,
						"slot": "0",
						"type": "t_address"
					},
					{
						"astId": 6,
						"contract": "contracts/lottery.sol:Lottery",
						"label": "players",
						"offset": 0,
						"slot": "1",
						"type": "t_array(t_address_payable)dyn_storage"
					}
				],
				"types": {
					"t_address": {
						"encoding": "inplace",
						"label": "address",
						"numberOfBytes": "20"
					},
					"t_address_payable": {
						"encoding": "inplace",
						"label": "address payable",
						"numberOfBytes": "20"
					},
					"t_array(t_address_payable)dyn_storage": {
						"base": "t_address_payable",
						"encoding": "dynamic_array",
						"label": "address payable[]",
						"numberOfBytes": "32"
					}
				}
			},
			"userdoc": {
				"kind": "user",
				"methods": {},
				"version": 1
			}
		}
	}
}