{
	"contracts/lottery.sol": {
		"Lottery": {
			"abi": [
				{
					"inputs": [],
					"stateMutability": "nonpayable",
					"type": "constructor"
				},
				{
					"inputs": [],
					"name": "enter",
					"outputs": [],
					"stateMutability": "payable",
					"type": "function"
				},
				{
					"inputs": [],
					"name": "manager",
					"outputs": [
						{
							"internalType": "address",
							"name": "",
							"type": "address"
						}
					],
					"stateMutability": "view",
					"type": "function"
				},
				{
					"inputs": [],
					"name": "pickWinner",
					"outputs": [],
					"stateMutability": "nonpayable",
					"type": "function"
				},
				{
					"inputs": [
						{
							"internalType": "uint256",
							"name": "",
							"type": "uint256"
						}
					],
					"name": "players",
					"outputs": [
						{
							"internalType": "address payable",
							"name": "",
							"type": "address"
						}
					],
					"stateMutability": "view",
					"type": "function"
				},
				{
					"inputs": [],
					"name": "showPlayer",
					"outputs": [
						{
							"internalType": "address payable[]",
							"name": "",
							"type": "address[]"
						}
					],
					"stateMutability": "view",
					"type": "function"
				}
			],
			"devdoc": {
				"kind": "dev",
				"methods": {},
				"version": 1
			},
			"evm": {
				"assembly": "    /* \"contracts/lottery.sol\":58:1438  contract Lottery{\r... */\n  mstore(0x40, 0x80)\n    /* \"contracts/lottery.sol\":150:202  constructor(){\r... */\n  callvalue\n  dup1\n  iszero\n  tag_1\n  jumpi\n  0x00\n  dup1\n  revert\ntag_1:\n  pop\n    /* \"contracts/lottery.sol\":184:194  msg.sender */\n  caller\n    /* \"contracts/lottery.sol\":174:181  manager */\n  0x00\n  dup1\n    /* \"contracts/lottery.sol\":174:194  manager = msg.sender */\n  0x0100\n  exp\n  dup2\n  sload\n  dup2\n  0xffffffffffffffffffffffffffffffffffffffff\n  mul\n  not\n  and\n  swap1\n  dup4\n  0xffffffffffffffffffffffffffffffffffffffff\n  and\n  mul\n  or\n  swap1\n  sstore\n  pop\n    /* \"contracts/lottery.sol\":58:1438  contract Lottery{\r... */\n  dataSize(sub_0)\n  dup1\n  dataOffset(sub_0)\n  0x00\n  codecopy\n  0x00\n  return\nstop\n\nsub_0: assembly {\n        /* \"contracts/lottery.sol\":58:1438  contract Lottery{\r... */\n      mstore(0x40, 0x80)\n      jumpi(tag_1, lt(calldatasize, 0x04))\n      shr(0xe0, calldataload(0x00))\n      dup1\n      0x481c6a75\n      eq\n      tag_2\n      jumpi\n      dup1\n      0x5d495aea\n      eq\n      tag_3\n      jumpi\n      dup1\n      0x87997d94\n      eq\n      tag_4\n      jumpi\n      dup1\n      0xe97dcb62\n      eq\n      tag_5\n      jumpi\n      dup1\n      0xf71d96cb\n      eq\n      tag_6\n      jumpi\n    tag_1:\n      0x00\n      dup1\n      revert\n        /* \"contracts/lottery.sol\":81:103  address public manager */\n    tag_2:\n      callvalue\n      dup1\n      iszero\n      tag_7\n      jumpi\n      0x00\n      dup1\n      revert\n    tag_7:\n      pop\n      tag_8\n      tag_9\n      jump\t// in\n    tag_8:\n      mload(0x40)\n      tag_10\n      swap2\n      swap1\n      tag_11\n      jump\t// in\n    tag_10:\n      mload(0x40)\n      dup1\n      swap2\n      sub\n      swap1\n      return\n        /* \"contracts/lottery.sol\":1022:1292  function pickWinner() public \r... */\n    tag_3:\n      callvalue\n      dup1\n      iszero\n      tag_12\n      jumpi\n      0x00\n      dup1\n      revert\n    tag_12:\n      pop\n      tag_13\n      tag_14\n      jump\t// in\n    tag_13:\n      stop\n        /* \"contracts/lottery.sol\":1323:1425  function showPlayer() view public returns (address payable[] memory ){\r... */\n    tag_4:\n      callvalue\n      dup1\n      iszero\n      tag_15\n      jumpi\n      0x00\n      dup1\n      revert\n    tag_15:\n      pop\n      tag_16\n      tag_17\n      jump\t// in\n    tag_16:\n      mload(0x40)\n      tag_18\n      swap2\n      swap1\n      tag_19\n      jump\t// in\n    tag_18:\n      mload(0x40)\n      dup1\n      swap2\n      sub\n      swap1\n      return\n        /* \"contracts/lottery.sol\":235:520  function enter() public payable{\r... */\n    tag_5:\n      tag_20\n      tag_21\n      jump\t// in\n    tag_20:\n      stop\n        /* \"contracts/lottery.sol\":111:143  address payable[] public players */\n    tag_6:\n      callvalue\n      dup1\n      iszero\n      tag_22\n      jumpi\n      0x00\n      dup1\n      revert\n    tag_22:\n      pop\n      tag_23\n      0x04\n      dup1\n      calldatasize\n      sub\n      dup2\n      add\n      swap1\n      tag_24\n      swap2\n      swap1\n      tag_25\n      jump\t// in\n    tag_24:\n      tag_26\n      jump\t// in\n    tag_23:\n      mload(0x40)\n      tag_27\n      swap2\n      swap1\n      tag_28\n      jump\t// in\n    tag_27:\n      mload(0x40)\n      dup1\n      swap2\n      sub\n      swap1\n      return\n        /* \"contracts/lottery.sol\":81:103  address public manager */\n    tag_9:\n      0x00\n      dup1\n      sload\n      swap1\n      0x0100\n      exp\n      swap1\n      div\n      0xffffffffffffffffffffffffffffffffffffffff\n      and\n      dup2\n      jump\t// out\n        /* \"contracts/lottery.sol\":1022:1292  function pickWinner() public \r... */\n    tag_14:\n        /* \"contracts/lottery.sol\":1088:1095  manager */\n      0x00\n      dup1\n      sload\n      swap1\n      0x0100\n      exp\n      swap1\n      div\n      0xffffffffffffffffffffffffffffffffffffffff\n      and\n        /* \"contracts/lottery.sol\":1076:1095  msg.sender==manager */\n      0xffffffffffffffffffffffffffffffffffffffff\n      and\n        /* \"contracts/lottery.sol\":1076:1086  msg.sender */\n      caller\n        /* \"contracts/lottery.sol\":1076:1095  msg.sender==manager */\n      0xffffffffffffffffffffffffffffffffffffffff\n      and\n      eq\n        /* \"contracts/lottery.sol\":1068:1149  require(msg.sender==manager,\"Unauthorized Person. Only manager can pick winner.\") */\n      tag_30\n      jumpi\n      mload(0x40)\n      0x08c379a000000000000000000000000000000000000000000000000000000000\n      dup2\n      mstore\n      0x04\n      add\n      tag_31\n      swap1\n      tag_32\n      jump\t// in\n    tag_31:\n      mload(0x40)\n      dup1\n      swap2\n      sub\n      swap1\n      revert\n    tag_30:\n        /* \"contracts/lottery.sol\":1160:1176  uint winnerIndex */\n      0x00\n        /* \"contracts/lottery.sol\":1179:1196  findWinnerIndex() */\n      tag_33\n        /* \"contracts/lottery.sol\":1179:1194  findWinnerIndex */\n      tag_34\n        /* \"contracts/lottery.sol\":1179:1196  findWinnerIndex() */\n      jump\t// in\n    tag_33:\n        /* \"contracts/lottery.sol\":1160:1196  uint winnerIndex = findWinnerIndex() */\n      swap1\n      pop\n        /* \"contracts/lottery.sol\":1207:1214  players */\n      0x01\n        /* \"contracts/lottery.sol\":1215:1226  winnerIndex */\n      dup2\n        /* \"contracts/lottery.sol\":1207:1227  players[winnerIndex] */\n      dup2\n      sload\n      dup2\n      lt\n      tag_35\n      jumpi\n      tag_36\n      tag_37\n      jump\t// in\n    tag_36:\n    tag_35:\n      swap1\n      0x00\n      mstore\n      keccak256(0x00, 0x20)\n      add\n      0x00\n      swap1\n      sload\n      swap1\n      0x0100\n      exp\n      swap1\n      div\n      0xffffffffffffffffffffffffffffffffffffffff\n      and\n        /* \"contracts/lottery.sol\":1207:1236  players[winnerIndex].transfer */\n      0xffffffffffffffffffffffffffffffffffffffff\n      and\n        /* \"contracts/lottery.sol\":1207:1259  players[winnerIndex].transfer(address(this).balance) */\n      0x08fc\n        /* \"contracts/lottery.sol\":1237:1258  address(this).balance */\n      selfbalance\n        /* \"contracts/lottery.sol\":1207:1259  players[winnerIndex].transfer(address(this).balance) */\n      swap1\n      dup2\n      iszero\n      mul\n      swap1\n      mload(0x40)\n      0x00\n      mload(0x40)\n      dup1\n      dup4\n      sub\n      dup2\n      dup6\n      dup9\n      dup9\n      call\n      swap4\n      pop\n      pop\n      pop\n      pop\n      iszero\n      dup1\n      iszero\n      tag_40\n      jumpi\n      returndatasize\n      0x00\n      dup1\n      returndatacopy\n      revert(0x00, returndatasize)\n    tag_40:\n      pop\n        /* \"contracts/lottery.sol\":1277:1284  players */\n      0x01\n      0x00\n        /* \"contracts/lottery.sol\":1270:1284  delete players */\n      tag_41\n      swap2\n      swap1\n      tag_42\n      jump\t// in\n    tag_41:\n        /* \"contracts/lottery.sol\":1057:1292  {\r... */\n      pop\n        /* \"contracts/lottery.sol\":1022:1292  function pickWinner() public \r... */\n      jump\t// out\n        /* \"contracts/lottery.sol\":1323:1425  function showPlayer() view public returns (address payable[] memory ){\r... */\n    tag_17:\n        /* \"contracts/lottery.sol\":1366:1390  address payable[] memory */\n      0x60\n        /* \"contracts/lottery.sol\":1410:1417  players */\n      0x01\n        /* \"contracts/lottery.sol\":1403:1417  return players */\n      dup1\n      sload\n      dup1\n      0x20\n      mul\n      0x20\n      add\n      mload(0x40)\n      swap1\n      dup2\n      add\n      0x40\n      mstore\n      dup1\n      swap3\n      swap2\n      swap1\n      dup2\n      dup2\n      mstore\n      0x20\n      add\n      dup3\n      dup1\n      sload\n      dup1\n      iszero\n      tag_44\n      jumpi\n      0x20\n      mul\n      dup3\n      add\n      swap2\n      swap1\n      0x00\n      mstore\n      keccak256(0x00, 0x20)\n      swap1\n    tag_45:\n      dup2\n      0x00\n      swap1\n      sload\n      swap1\n      0x0100\n      exp\n      swap1\n      div\n      0xffffffffffffffffffffffffffffffffffffffff\n      and\n      0xffffffffffffffffffffffffffffffffffffffff\n      and\n      dup2\n      mstore\n      0x20\n      add\n      swap1\n      0x01\n      add\n      swap1\n      dup1\n      dup4\n      gt\n      tag_45\n      jumpi\n    tag_44:\n      pop\n      pop\n      pop\n      pop\n      pop\n      swap1\n      pop\n        /* \"contracts/lottery.sol\":1323:1425  function showPlayer() view public returns (address payable[] memory ){\r... */\n      swap1\n      jump\t// out\n        /* \"contracts/lottery.sol\":235:520  function enter() public payable{\r... */\n    tag_21:\n        /* \"contracts/lottery.sol\":298:305  manager */\n      0x00\n      dup1\n      sload\n      swap1\n      0x0100\n      exp\n      swap1\n      div\n      0xffffffffffffffffffffffffffffffffffffffff\n      and\n        /* \"contracts/lottery.sol\":285:305  msg.sender !=manager */\n      0xffffffffffffffffffffffffffffffffffffffff\n      and\n        /* \"contracts/lottery.sol\":285:295  msg.sender */\n      caller\n        /* \"contracts/lottery.sol\":285:305  msg.sender !=manager */\n      0xffffffffffffffffffffffffffffffffffffffff\n      and\n      eq\n      iszero\n        /* \"contracts/lottery.sol\":277:328  require(msg.sender !=manager,\"Manager can't enter\") */\n      tag_47\n      jumpi\n      mload(0x40)\n      0x08c379a000000000000000000000000000000000000000000000000000000000\n      dup2\n      mstore\n      0x04\n      add\n      tag_48\n      swap1\n      tag_49\n      jump\t// in\n    tag_48:\n      mload(0x40)\n      dup1\n      swap2\n      sub\n      swap1\n      revert\n    tag_47:\n        /* \"contracts/lottery.sol\":365:370  false */\n      0x00\n        /* \"contracts/lottery.sol\":347:370  alreadyEntered()==false */\n      iszero\n      iszero\n        /* \"contracts/lottery.sol\":347:363  alreadyEntered() */\n      tag_50\n        /* \"contracts/lottery.sol\":347:361  alreadyEntered */\n      tag_51\n        /* \"contracts/lottery.sol\":347:363  alreadyEntered() */\n      jump\t// in\n    tag_50:\n        /* \"contracts/lottery.sol\":347:370  alreadyEntered()==false */\n      iszero\n      iszero\n      eq\n        /* \"contracts/lottery.sol\":339:399  require(alreadyEntered()==false,\"Player already registered\") */\n      tag_52\n      jumpi\n      mload(0x40)\n      0x08c379a000000000000000000000000000000000000000000000000000000000\n      dup2\n      mstore\n      0x04\n      add\n      tag_53\n      swap1\n      tag_54\n      jump\t// in\n    tag_53:\n      mload(0x40)\n      dup1\n      swap2\n      sub\n      swap1\n      revert\n    tag_52:\n        /* \"contracts/lottery.sol\":429:436  1 ether */\n      0x0de0b6b3a7640000\n        /* \"contracts/lottery.sol\":418:427  msg.value */\n      callvalue\n        /* \"contracts/lottery.sol\":418:436  msg.value>=1 ether */\n      lt\n      iszero\n        /* \"contracts/lottery.sol\":410:468  require(msg.value>=1 ether,\"Minimum amount must be payed\") */\n      tag_55\n      jumpi\n      mload(0x40)\n      0x08c379a000000000000000000000000000000000000000000000000000000000\n      dup2\n      mstore\n      0x04\n      add\n      tag_56\n      swap1\n      tag_57\n      jump\t// in\n    tag_56:\n      mload(0x40)\n      dup1\n      swap2\n      sub\n      swap1\n      revert\n    tag_55:\n        /* \"contracts/lottery.sol\":479:486  players */\n      0x01\n        /* \"contracts/lottery.sol\":500:510  msg.sender */\n      caller\n        /* \"contracts/lottery.sol\":479:512  players.push(payable(msg.sender)) */\n      swap1\n      dup1\n      0x01\n      dup2\n      sload\n      add\n      dup1\n      dup3\n      sstore\n      dup1\n      swap2\n      pop\n      pop\n      0x01\n      swap1\n      sub\n      swap1\n      0x00\n      mstore\n      keccak256(0x00, 0x20)\n      add\n      0x00\n      swap1\n      swap2\n      swap1\n      swap2\n      swap1\n      swap2\n      0x0100\n      exp\n      dup2\n      sload\n      dup2\n      0xffffffffffffffffffffffffffffffffffffffff\n      mul\n      not\n      and\n      swap1\n      dup4\n      0xffffffffffffffffffffffffffffffffffffffff\n      and\n      mul\n      or\n      swap1\n      sstore\n      pop\n        /* \"contracts/lottery.sol\":235:520  function enter() public payable{\r... */\n      jump\t// out\n        /* \"contracts/lottery.sol\":111:143  address payable[] public players */\n    tag_26:\n      0x01\n      dup2\n      dup2\n      sload\n      dup2\n      lt\n      tag_59\n      jumpi\n      0x00\n      dup1\n      revert\n    tag_59:\n      swap1\n      0x00\n      mstore\n      keccak256(0x00, 0x20)\n      add\n      0x00\n      swap2\n      pop\n      sload\n      swap1\n      0x0100\n      exp\n      swap1\n      div\n      0xffffffffffffffffffffffffffffffffffffffff\n      and\n      dup2\n      jump\t// out\n        /* \"contracts/lottery.sol\":820:973  function findWinnerIndex() private view returns(uint) {\r... */\n    tag_34:\n        /* \"contracts/lottery.sol\":868:872  uint */\n      0x00\n        /* \"contracts/lottery.sol\":951:958  players */\n      0x01\n        /* \"contracts/lottery.sol\":951:965  players.length */\n      dup1\n      sload\n      swap1\n      pop\n        /* \"contracts/lottery.sol\":921:937  block.difficulty */\n      difficulty\n        /* \"contracts/lottery.sol\":939:946  players */\n      0x01\n        /* \"contracts/lottery.sol\":904:947  abi.encodePacked(block.difficulty, players) */\n      add(0x20, mload(0x40))\n      tag_62\n      swap3\n      swap2\n      swap1\n      tag_63\n      jump\t// in\n    tag_62:\n      mload(0x40)\n      0x20\n      dup2\n      dup4\n      sub\n      sub\n      dup2\n      mstore\n      swap1\n      0x40\n      mstore\n        /* \"contracts/lottery.sol\":894:948  keccak256(abi.encodePacked(block.difficulty, players)) */\n      dup1\n      mload\n      swap1\n      0x20\n      add\n      keccak256\n        /* \"contracts/lottery.sol\":889:949  uint(keccak256(abi.encodePacked(block.difficulty, players))) */\n      0x00\n      shr\n        /* \"contracts/lottery.sol\":889:965  uint(keccak256(abi.encodePacked(block.difficulty, players))) %players.length */\n      tag_64\n      swap2\n      swap1\n      tag_65\n      jump\t// in\n    tag_64:\n        /* \"contracts/lottery.sol\":882:965  return uint(keccak256(abi.encodePacked(block.difficulty, players))) %players.length */\n      swap1\n      pop\n        /* \"contracts/lottery.sol\":820:973  function findWinnerIndex() private view returns(uint) {\r... */\n      swap1\n      jump\t// out\n        /* \"contracts/lottery.sol\":569:794  function alreadyEntered() private view returns (bool)\r... */\n    tag_51:\n        /* \"contracts/lottery.sol\":617:621  bool */\n      0x00\n        /* \"contracts/lottery.sol\":643:649  uint i */\n      dup1\n        /* \"contracts/lottery.sol\":650:651  0 */\n      0x00\n        /* \"contracts/lottery.sol\":643:651  uint i=0 */\n      swap1\n      pop\n        /* \"contracts/lottery.sol\":639:764  for(uint i=0; i<players.length; i++)\r... */\n    tag_67:\n        /* \"contracts/lottery.sol\":655:662  players */\n      0x01\n        /* \"contracts/lottery.sol\":655:669  players.length */\n      dup1\n      sload\n      swap1\n      pop\n        /* \"contracts/lottery.sol\":653:654  i */\n      dup2\n        /* \"contracts/lottery.sol\":653:669  i<players.length */\n      lt\n        /* \"contracts/lottery.sol\":639:764  for(uint i=0; i<players.length; i++)\r... */\n      iszero\n      tag_68\n      jumpi\n        /* \"contracts/lottery.sol\":715:725  msg.sender */\n      caller\n        /* \"contracts/lottery.sol\":703:725  players[i]==msg.sender */\n      0xffffffffffffffffffffffffffffffffffffffff\n      and\n        /* \"contracts/lottery.sol\":703:710  players */\n      0x01\n        /* \"contracts/lottery.sol\":711:712  i */\n      dup3\n        /* \"contracts/lottery.sol\":703:713  players[i] */\n      dup2\n      sload\n      dup2\n      lt\n      tag_70\n      jumpi\n      tag_71\n      tag_37\n      jump\t// in\n    tag_71:\n    tag_70:\n      swap1\n      0x00\n      mstore\n      keccak256(0x00, 0x20)\n      add\n      0x00\n      swap1\n      sload\n      swap1\n      0x0100\n      exp\n      swap1\n      div\n      0xffffffffffffffffffffffffffffffffffffffff\n      and\n        /* \"contracts/lottery.sol\":703:725  players[i]==msg.sender */\n      0xffffffffffffffffffffffffffffffffffffffff\n      and\n      eq\n        /* \"contracts/lottery.sol\":700:752  if(players[i]==msg.sender)\r... */\n      iszero\n      tag_73\n      jumpi\n        /* \"contracts/lottery.sol\":748:752  true */\n      0x01\n        /* \"contracts/lottery.sol\":741:752  return true */\n      swap2\n      pop\n      pop\n      jump(tag_66)\n        /* \"contracts/lottery.sol\":700:752  if(players[i]==msg.sender)\r... */\n    tag_73:\n        /* \"contracts/lottery.sol\":671:674  i++ */\n      dup1\n      dup1\n      tag_74\n      swap1\n      tag_75\n      jump\t// in\n    tag_74:\n      swap2\n      pop\n      pop\n        /* \"contracts/lottery.sol\":639:764  for(uint i=0; i<players.length; i++)\r... */\n      jump(tag_67)\n    tag_68:\n      pop\n        /* \"contracts/lottery.sol\":781:786  false */\n      0x00\n        /* \"contracts/lottery.sol\":774:786  return false */\n      swap1\n      pop\n        /* \"contracts/lottery.sol\":569:794  function alreadyEntered() private view returns (bool)\r... */\n    tag_66:\n      swap1\n      jump\t// out\n    tag_42:\n      pop\n      dup1\n      sload\n      0x00\n      dup3\n      sstore\n      swap1\n      0x00\n      mstore\n      keccak256(0x00, 0x20)\n      swap1\n      dup2\n      add\n      swap1\n      tag_77\n      swap2\n      swap1\n      tag_78\n      jump\t// in\n    tag_77:\n      pop\n      jump\t// out\n    tag_78:\n    tag_79:\n      dup1\n      dup3\n      gt\n      iszero\n      tag_80\n      jumpi\n      0x00\n      dup2\n      0x00\n      swap1\n      sstore\n      pop\n      0x01\n      add\n      jump(tag_79)\n    tag_80:\n      pop\n      swap1\n      jump\t// out\n        /* \"#utility.yul\":7:146   */\n    tag_82:\n        /* \"#utility.yul\":53:58   */\n      0x00\n        /* \"#utility.yul\":91:97   */\n      dup2\n        /* \"#utility.yul\":78:98   */\n      calldataload\n        /* \"#utility.yul\":69:98   */\n      swap1\n      pop\n        /* \"#utility.yul\":107:140   */\n      tag_84\n        /* \"#utility.yul\":134:139   */\n      dup2\n        /* \"#utility.yul\":107:140   */\n      tag_85\n      jump\t// in\n    tag_84:\n        /* \"#utility.yul\":7:146   */\n      swap3\n      swap2\n      pop\n      pop\n      jump\t// out\n        /* \"#utility.yul\":152:481   */\n    tag_25:\n        /* \"#utility.yul\":211:217   */\n      0x00\n        /* \"#utility.yul\":260:262   */\n      0x20\n        /* \"#utility.yul\":248:257   */\n      dup3\n        /* \"#utility.yul\":239:246   */\n      dup5\n        /* \"#utility.yul\":235:258   */\n      sub\n        /* \"#utility.yul\":231:263   */\n      slt\n        /* \"#utility.yul\":228:347   */\n      iszero\n      tag_87\n      jumpi\n        /* \"#utility.yul\":266:345   */\n      tag_88\n      tag_89\n      jump\t// in\n    tag_88:\n        /* \"#utility.yul\":228:347   */\n    tag_87:\n        /* \"#utility.yul\":386:387   */\n      0x00\n        /* \"#utility.yul\":411:464   */\n      tag_90\n        /* \"#utility.yul\":456:463   */\n      dup5\n        /* \"#utility.yul\":447:453   */\n      dup3\n        /* \"#utility.yul\":436:445   */\n      dup6\n        /* \"#utility.yul\":432:454   */\n      add\n        /* \"#utility.yul\":411:464   */\n      tag_82\n      jump\t// in\n    tag_90:\n        /* \"#utility.yul\":401:464   */\n      swap2\n      pop\n        /* \"#utility.yul\":357:474   */\n      pop\n        /* \"#utility.yul\":152:481   */\n      swap3\n      swap2\n      pop\n      pop\n      jump\t// out\n        /* \"#utility.yul\":487:698   */\n    tag_91:\n        /* \"#utility.yul\":572:582   */\n      0x00\n        /* \"#utility.yul\":593:655   */\n      tag_93\n        /* \"#utility.yul\":651:654   */\n      dup4\n        /* \"#utility.yul\":643:649   */\n      dup4\n        /* \"#utility.yul\":593:655   */\n      tag_94\n      jump\t// in\n    tag_93:\n        /* \"#utility.yul\":687:691   */\n      0x20\n        /* \"#utility.yul\":682:685   */\n      dup4\n        /* \"#utility.yul\":678:692   */\n      add\n        /* \"#utility.yul\":664:692   */\n      swap1\n      pop\n        /* \"#utility.yul\":487:698   */\n      swap3\n      swap2\n      pop\n      pop\n      jump\t// out\n        /* \"#utility.yul\":704:931   */\n    tag_95:\n        /* \"#utility.yul\":797:807   */\n      0x00\n        /* \"#utility.yul\":818:888   */\n      tag_97\n        /* \"#utility.yul\":884:887   */\n      dup4\n        /* \"#utility.yul\":876:882   */\n      dup4\n        /* \"#utility.yul\":818:888   */\n      tag_98\n      jump\t// in\n    tag_97:\n        /* \"#utility.yul\":920:924   */\n      0x20\n        /* \"#utility.yul\":915:918   */\n      dup4\n        /* \"#utility.yul\":911:925   */\n      add\n        /* \"#utility.yul\":897:925   */\n      swap1\n      pop\n        /* \"#utility.yul\":704:931   */\n      swap3\n      swap2\n      pop\n      pop\n      jump\t// out\n        /* \"#utility.yul\":937:1069   */\n    tag_94:\n        /* \"#utility.yul\":1030:1062   */\n      tag_100\n        /* \"#utility.yul\":1056:1061   */\n      dup2\n        /* \"#utility.yul\":1030:1062   */\n      tag_101\n      jump\t// in\n    tag_100:\n        /* \"#utility.yul\":1025:1028   */\n      dup3\n        /* \"#utility.yul\":1018:1063   */\n      mstore\n        /* \"#utility.yul\":937:1069   */\n      pop\n      pop\n      jump\t// out\n        /* \"#utility.yul\":1075:1217   */\n    tag_102:\n        /* \"#utility.yul\":1178:1210   */\n      tag_104\n        /* \"#utility.yul\":1204:1209   */\n      dup2\n        /* \"#utility.yul\":1178:1210   */\n      tag_101\n      jump\t// in\n    tag_104:\n        /* \"#utility.yul\":1173:1176   */\n      dup3\n        /* \"#utility.yul\":1166:1211   */\n      mstore\n        /* \"#utility.yul\":1075:1217   */\n      pop\n      pop\n      jump\t// out\n        /* \"#utility.yul\":1223:1363   */\n    tag_98:\n        /* \"#utility.yul\":1324:1356   */\n      tag_106\n        /* \"#utility.yul\":1350:1355   */\n      dup2\n        /* \"#utility.yul\":1324:1356   */\n      tag_101\n      jump\t// in\n    tag_106:\n        /* \"#utility.yul\":1319:1322   */\n      dup3\n        /* \"#utility.yul\":1312:1357   */\n      mstore\n        /* \"#utility.yul\":1223:1363   */\n      pop\n      pop\n      jump\t// out\n        /* \"#utility.yul\":1369:1487   */\n    tag_107:\n        /* \"#utility.yul\":1456:1480   */\n      tag_109\n        /* \"#utility.yul\":1474:1479   */\n      dup2\n        /* \"#utility.yul\":1456:1480   */\n      tag_110\n      jump\t// in\n    tag_109:\n        /* \"#utility.yul\":1451:1454   */\n      dup3\n        /* \"#utility.yul\":1444:1481   */\n      mstore\n        /* \"#utility.yul\":1369:1487   */\n      pop\n      pop\n      jump\t// out\n        /* \"#utility.yul\":1539:2335   */\n    tag_111:\n        /* \"#utility.yul\":1674:1677   */\n      0x00\n        /* \"#utility.yul\":1703:1765   */\n      tag_113\n        /* \"#utility.yul\":1759:1764   */\n      dup3\n        /* \"#utility.yul\":1703:1765   */\n      tag_114\n      jump\t// in\n    tag_113:\n        /* \"#utility.yul\":1781:1875   */\n      tag_115\n        /* \"#utility.yul\":1868:1874   */\n      dup2\n        /* \"#utility.yul\":1863:1866   */\n      dup6\n        /* \"#utility.yul\":1781:1875   */\n      tag_116\n      jump\t// in\n    tag_115:\n        /* \"#utility.yul\":1774:1875   */\n      swap4\n      pop\n        /* \"#utility.yul\":1899:1963   */\n      tag_117\n        /* \"#utility.yul\":1957:1962   */\n      dup4\n        /* \"#utility.yul\":1899:1963   */\n      tag_118\n      jump\t// in\n    tag_117:\n        /* \"#utility.yul\":1986:1993   */\n      dup1\n        /* \"#utility.yul\":2017:2018   */\n      0x00\n        /* \"#utility.yul\":2002:2310   */\n    tag_119:\n        /* \"#utility.yul\":2027:2033   */\n      dup4\n        /* \"#utility.yul\":2024:2025   */\n      dup2\n        /* \"#utility.yul\":2021:2034   */\n      lt\n        /* \"#utility.yul\":2002:2310   */\n      iszero\n      tag_121\n      jumpi\n        /* \"#utility.yul\":2103:2109   */\n      dup2\n        /* \"#utility.yul\":2097:2110   */\n      mload\n        /* \"#utility.yul\":2130:2209   */\n      tag_122\n        /* \"#utility.yul\":2205:2208   */\n      dup9\n        /* \"#utility.yul\":2190:2203   */\n      dup3\n        /* \"#utility.yul\":2130:2209   */\n      tag_91\n      jump\t// in\n    tag_122:\n        /* \"#utility.yul\":2123:2209   */\n      swap8\n      pop\n        /* \"#utility.yul\":2232:2300   */\n      tag_123\n        /* \"#utility.yul\":2293:2299   */\n      dup4\n        /* \"#utility.yul\":2232:2300   */\n      tag_124\n      jump\t// in\n    tag_123:\n        /* \"#utility.yul\":2222:2300   */\n      swap3\n      pop\n        /* \"#utility.yul\":2062:2310   */\n      pop\n        /* \"#utility.yul\":2049:2050   */\n      0x01\n        /* \"#utility.yul\":2046:2047   */\n      dup2\n        /* \"#utility.yul\":2042:2051   */\n      add\n        /* \"#utility.yul\":2037:2051   */\n      swap1\n      pop\n        /* \"#utility.yul\":2002:2310   */\n      jump(tag_119)\n    tag_121:\n        /* \"#utility.yul\":2006:2020   */\n      pop\n        /* \"#utility.yul\":2326:2329   */\n      dup6\n        /* \"#utility.yul\":2319:2329   */\n      swap4\n      pop\n        /* \"#utility.yul\":1679:2335   */\n      pop\n      pop\n      pop\n        /* \"#utility.yul\":1539:2335   */\n      swap3\n      swap2\n      pop\n      pop\n      jump\t// out\n        /* \"#utility.yul\":2387:3254   */\n    tag_125:\n        /* \"#utility.yul\":2537:2540   */\n      0x00\n        /* \"#utility.yul\":2566:2625   */\n      tag_127\n        /* \"#utility.yul\":2619:2624   */\n      dup3\n        /* \"#utility.yul\":2566:2625   */\n      tag_128\n      jump\t// in\n    tag_127:\n        /* \"#utility.yul\":2641:2753   */\n      tag_129\n        /* \"#utility.yul\":2746:2752   */\n      dup2\n        /* \"#utility.yul\":2741:2744   */\n      dup6\n        /* \"#utility.yul\":2641:2753   */\n      tag_130\n      jump\t// in\n    tag_129:\n        /* \"#utility.yul\":2634:2753   */\n      swap4\n      pop\n        /* \"#utility.yul\":2777:2838   */\n      tag_131\n        /* \"#utility.yul\":2832:2837   */\n      dup4\n        /* \"#utility.yul\":2777:2838   */\n      tag_132\n      jump\t// in\n    tag_131:\n        /* \"#utility.yul\":2861:2868   */\n      dup1\n        /* \"#utility.yul\":2892:2893   */\n      0x00\n        /* \"#utility.yul\":2877:3229   */\n    tag_133:\n        /* \"#utility.yul\":2902:2908   */\n      dup4\n        /* \"#utility.yul\":2899:2900   */\n      dup2\n        /* \"#utility.yul\":2896:2909   */\n      lt\n        /* \"#utility.yul\":2877:3229   */\n      iszero\n      tag_135\n      jumpi\n        /* \"#utility.yul\":2972:3024   */\n      tag_136\n        /* \"#utility.yul\":3017:3023   */\n      dup3\n        /* \"#utility.yul\":2972:3024   */\n      tag_137\n      jump\t// in\n    tag_136:\n        /* \"#utility.yul\":3044:3131   */\n      tag_138\n        /* \"#utility.yul\":3127:3130   */\n      dup9\n        /* \"#utility.yul\":3112:3125   */\n      dup3\n        /* \"#utility.yul\":3044:3131   */\n      tag_95\n      jump\t// in\n    tag_138:\n        /* \"#utility.yul\":3037:3131   */\n      swap8\n      pop\n        /* \"#utility.yul\":3154:3219   */\n      tag_139\n        /* \"#utility.yul\":3212:3218   */\n      dup4\n        /* \"#utility.yul\":3154:3219   */\n      tag_140\n      jump\t// in\n    tag_139:\n        /* \"#utility.yul\":3144:3219   */\n      swap3\n      pop\n        /* \"#utility.yul\":2937:3229   */\n      pop\n        /* \"#utility.yul\":2924:2925   */\n      0x01\n        /* \"#utility.yul\":2921:2922   */\n      dup2\n        /* \"#utility.yul\":2917:2926   */\n      add\n        /* \"#utility.yul\":2912:2926   */\n      swap1\n      pop\n        /* \"#utility.yul\":2877:3229   */\n      jump(tag_133)\n    tag_135:\n        /* \"#utility.yul\":2881:2895   */\n      pop\n        /* \"#utility.yul\":3245:3248   */\n      dup6\n        /* \"#utility.yul\":3238:3248   */\n      swap4\n      pop\n        /* \"#utility.yul\":2542:3254   */\n      pop\n      pop\n      pop\n        /* \"#utility.yul\":2387:3254   */\n      swap3\n      swap2\n      pop\n      pop\n      jump\t// out\n        /* \"#utility.yul\":3260:3626   */\n    tag_141:\n        /* \"#utility.yul\":3402:3405   */\n      0x00\n        /* \"#utility.yul\":3423:3490   */\n      tag_143\n        /* \"#utility.yul\":3487:3489   */\n      0x1c\n        /* \"#utility.yul\":3482:3485   */\n      dup4\n        /* \"#utility.yul\":3423:3490   */\n      tag_144\n      jump\t// in\n    tag_143:\n        /* \"#utility.yul\":3416:3490   */\n      swap2\n      pop\n        /* \"#utility.yul\":3499:3592   */\n      tag_145\n        /* \"#utility.yul\":3588:3591   */\n      dup3\n        /* \"#utility.yul\":3499:3592   */\n      tag_146\n      jump\t// in\n    tag_145:\n        /* \"#utility.yul\":3617:3619   */\n      0x20\n        /* \"#utility.yul\":3612:3615   */\n      dup3\n        /* \"#utility.yul\":3608:3620   */\n      add\n        /* \"#utility.yul\":3601:3620   */\n      swap1\n      pop\n        /* \"#utility.yul\":3260:3626   */\n      swap2\n      swap1\n      pop\n      jump\t// out\n        /* \"#utility.yul\":3632:3998   */\n    tag_147:\n        /* \"#utility.yul\":3774:3777   */\n      0x00\n        /* \"#utility.yul\":3795:3862   */\n      tag_149\n        /* \"#utility.yul\":3859:3861   */\n      0x19\n        /* \"#utility.yul\":3854:3857   */\n      dup4\n        /* \"#utility.yul\":3795:3862   */\n      tag_144\n      jump\t// in\n    tag_149:\n        /* \"#utility.yul\":3788:3862   */\n      swap2\n      pop\n        /* \"#utility.yul\":3871:3964   */\n      tag_150\n        /* \"#utility.yul\":3960:3963   */\n      dup3\n        /* \"#utility.yul\":3871:3964   */\n      tag_151\n      jump\t// in\n    tag_150:\n        /* \"#utility.yul\":3989:3991   */\n      0x20\n        /* \"#utility.yul\":3984:3987   */\n      dup3\n        /* \"#utility.yul\":3980:3992   */\n      add\n        /* \"#utility.yul\":3973:3992   */\n      swap1\n      pop\n        /* \"#utility.yul\":3632:3998   */\n      swap2\n      swap1\n      pop\n      jump\t// out\n        /* \"#utility.yul\":4004:4370   */\n    tag_152:\n        /* \"#utility.yul\":4146:4149   */\n      0x00\n        /* \"#utility.yul\":4167:4234   */\n      tag_154\n        /* \"#utility.yul\":4231:4233   */\n      0x32\n        /* \"#utility.yul\":4226:4229   */\n      dup4\n        /* \"#utility.yul\":4167:4234   */\n      tag_144\n      jump\t// in\n    tag_154:\n        /* \"#utility.yul\":4160:4234   */\n      swap2\n      pop\n        /* \"#utility.yul\":4243:4336   */\n      tag_155\n        /* \"#utility.yul\":4332:4335   */\n      dup3\n        /* \"#utility.yul\":4243:4336   */\n      tag_156\n      jump\t// in\n    tag_155:\n        /* \"#utility.yul\":4361:4363   */\n      0x40\n        /* \"#utility.yul\":4356:4359   */\n      dup3\n        /* \"#utility.yul\":4352:4364   */\n      add\n        /* \"#utility.yul\":4345:4364   */\n      swap1\n      pop\n        /* \"#utility.yul\":4004:4370   */\n      swap2\n      swap1\n      pop\n      jump\t// out\n        /* \"#utility.yul\":4376:4742   */\n    tag_157:\n        /* \"#utility.yul\":4518:4521   */\n      0x00\n        /* \"#utility.yul\":4539:4606   */\n      tag_159\n        /* \"#utility.yul\":4603:4605   */\n      0x13\n        /* \"#utility.yul\":4598:4601   */\n      dup4\n        /* \"#utility.yul\":4539:4606   */\n      tag_144\n      jump\t// in\n    tag_159:\n        /* \"#utility.yul\":4532:4606   */\n      swap2\n      pop\n        /* \"#utility.yul\":4615:4708   */\n      tag_160\n        /* \"#utility.yul\":4704:4707   */\n      dup3\n        /* \"#utility.yul\":4615:4708   */\n      tag_161\n      jump\t// in\n    tag_160:\n        /* \"#utility.yul\":4733:4735   */\n      0x20\n        /* \"#utility.yul\":4728:4731   */\n      dup3\n        /* \"#utility.yul\":4724:4736   */\n      add\n        /* \"#utility.yul\":4717:4736   */\n      swap1\n      pop\n        /* \"#utility.yul\":4376:4742   */\n      swap2\n      swap1\n      pop\n      jump\t// out\n        /* \"#utility.yul\":4748:4905   */\n    tag_162:\n        /* \"#utility.yul\":4853:4898   */\n      tag_164\n        /* \"#utility.yul\":4873:4897   */\n      tag_165\n        /* \"#utility.yul\":4891:4896   */\n      dup3\n        /* \"#utility.yul\":4873:4897   */\n      tag_166\n      jump\t// in\n    tag_165:\n        /* \"#utility.yul\":4853:4898   */\n      tag_167\n      jump\t// in\n    tag_164:\n        /* \"#utility.yul\":4848:4851   */\n      dup3\n        /* \"#utility.yul\":4841:4899   */\n      mstore\n        /* \"#utility.yul\":4748:4905   */\n      pop\n      pop\n      jump\t// out\n        /* \"#utility.yul\":4911:5413   */\n    tag_63:\n        /* \"#utility.yul\":5114:5117   */\n      0x00\n        /* \"#utility.yul\":5129:5204   */\n      tag_169\n        /* \"#utility.yul\":5200:5203   */\n      dup3\n        /* \"#utility.yul\":5191:5197   */\n      dup6\n        /* \"#utility.yul\":5129:5204   */\n      tag_162\n      jump\t// in\n    tag_169:\n        /* \"#utility.yul\":5229:5231   */\n      0x20\n        /* \"#utility.yul\":5224:5227   */\n      dup3\n        /* \"#utility.yul\":5220:5232   */\n      add\n        /* \"#utility.yul\":5213:5232   */\n      swap2\n      pop\n        /* \"#utility.yul\":5249:5387   */\n      tag_170\n        /* \"#utility.yul\":5383:5386   */\n      dup3\n        /* \"#utility.yul\":5374:5380   */\n      dup5\n        /* \"#utility.yul\":5249:5387   */\n      tag_125\n      jump\t// in\n    tag_170:\n        /* \"#utility.yul\":5242:5387   */\n      swap2\n      pop\n        /* \"#utility.yul\":5404:5407   */\n      dup2\n        /* \"#utility.yul\":5397:5407   */\n      swap1\n      pop\n        /* \"#utility.yul\":4911:5413   */\n      swap4\n      swap3\n      pop\n      pop\n      pop\n      jump\t// out\n        /* \"#utility.yul\":5419:5641   */\n    tag_11:\n        /* \"#utility.yul\":5512:5516   */\n      0x00\n        /* \"#utility.yul\":5550:5552   */\n      0x20\n        /* \"#utility.yul\":5539:5548   */\n      dup3\n        /* \"#utility.yul\":5535:5553   */\n      add\n        /* \"#utility.yul\":5527:5553   */\n      swap1\n      pop\n        /* \"#utility.yul\":5563:5634   */\n      tag_172\n        /* \"#utility.yul\":5631:5632   */\n      0x00\n        /* \"#utility.yul\":5620:5629   */\n      dup4\n        /* \"#utility.yul\":5616:5633   */\n      add\n        /* \"#utility.yul\":5607:5613   */\n      dup5\n        /* \"#utility.yul\":5563:5634   */\n      tag_107\n      jump\t// in\n    tag_172:\n        /* \"#utility.yul\":5419:5641   */\n      swap3\n      swap2\n      pop\n      pop\n      jump\t// out\n        /* \"#utility.yul\":5647:5901   */\n    tag_28:\n        /* \"#utility.yul\":5756:5760   */\n      0x00\n        /* \"#utility.yul\":5794:5796   */\n      0x20\n        /* \"#utility.yul\":5783:5792   */\n      dup3\n        /* \"#utility.yul\":5779:5797   */\n      add\n        /* \"#utility.yul\":5771:5797   */\n      swap1\n      pop\n        /* \"#utility.yul\":5807:5894   */\n      tag_174\n        /* \"#utility.yul\":5891:5892   */\n      0x00\n        /* \"#utility.yul\":5880:5889   */\n      dup4\n        /* \"#utility.yul\":5876:5893   */\n      add\n        /* \"#utility.yul\":5867:5873   */\n      dup5\n        /* \"#utility.yul\":5807:5894   */\n      tag_102\n      jump\t// in\n    tag_174:\n        /* \"#utility.yul\":5647:5901   */\n      swap3\n      swap2\n      pop\n      pop\n      jump\t// out\n        /* \"#utility.yul\":5907:6312   */\n    tag_19:\n        /* \"#utility.yul\":6066:6070   */\n      0x00\n        /* \"#utility.yul\":6104:6106   */\n      0x20\n        /* \"#utility.yul\":6093:6102   */\n      dup3\n        /* \"#utility.yul\":6089:6107   */\n      add\n        /* \"#utility.yul\":6081:6107   */\n      swap1\n      pop\n        /* \"#utility.yul\":6153:6162   */\n      dup2\n        /* \"#utility.yul\":6147:6151   */\n      dup2\n        /* \"#utility.yul\":6143:6163   */\n      sub\n        /* \"#utility.yul\":6139:6140   */\n      0x00\n        /* \"#utility.yul\":6128:6137   */\n      dup4\n        /* \"#utility.yul\":6124:6141   */\n      add\n        /* \"#utility.yul\":6117:6164   */\n      mstore\n        /* \"#utility.yul\":6181:6305   */\n      tag_176\n        /* \"#utility.yul\":6300:6304   */\n      dup2\n        /* \"#utility.yul\":6291:6297   */\n      dup5\n        /* \"#utility.yul\":6181:6305   */\n      tag_111\n      jump\t// in\n    tag_176:\n        /* \"#utility.yul\":6173:6305   */\n      swap1\n      pop\n        /* \"#utility.yul\":5907:6312   */\n      swap3\n      swap2\n      pop\n      pop\n      jump\t// out\n        /* \"#utility.yul\":6318:6737   */\n    tag_57:\n        /* \"#utility.yul\":6484:6488   */\n      0x00\n        /* \"#utility.yul\":6522:6524   */\n      0x20\n        /* \"#utility.yul\":6511:6520   */\n      dup3\n        /* \"#utility.yul\":6507:6525   */\n      add\n        /* \"#utility.yul\":6499:6525   */\n      swap1\n      pop\n        /* \"#utility.yul\":6571:6580   */\n      dup2\n        /* \"#utility.yul\":6565:6569   */\n      dup2\n        /* \"#utility.yul\":6561:6581   */\n      sub\n        /* \"#utility.yul\":6557:6558   */\n      0x00\n        /* \"#utility.yul\":6546:6555   */\n      dup4\n        /* \"#utility.yul\":6542:6559   */\n      add\n        /* \"#utility.yul\":6535:6582   */\n      mstore\n        /* \"#utility.yul\":6599:6730   */\n      tag_178\n        /* \"#utility.yul\":6725:6729   */\n      dup2\n        /* \"#utility.yul\":6599:6730   */\n      tag_141\n      jump\t// in\n    tag_178:\n        /* \"#utility.yul\":6591:6730   */\n      swap1\n      pop\n        /* \"#utility.yul\":6318:6737   */\n      swap2\n      swap1\n      pop\n      jump\t// out\n        /* \"#utility.yul\":6743:7162   */\n    tag_54:\n        /* \"#utility.yul\":6909:6913   */\n      0x00\n        /* \"#utility.yul\":6947:6949   */\n      0x20\n        /* \"#utility.yul\":6936:6945   */\n      dup3\n        /* \"#utility.yul\":6932:6950   */\n      add\n        /* \"#utility.yul\":6924:6950   */\n      swap1\n      pop\n        /* \"#utility.yul\":6996:7005   */\n      dup2\n        /* \"#utility.yul\":6990:6994   */\n      dup2\n        /* \"#utility.yul\":6986:7006   */\n      sub\n        /* \"#utility.yul\":6982:6983   */\n      0x00\n        /* \"#utility.yul\":6971:6980   */\n      dup4\n        /* \"#utility.yul\":6967:6984   */\n      add\n        /* \"#utility.yul\":6960:7007   */\n      mstore\n        /* \"#utility.yul\":7024:7155   */\n      tag_180\n        /* \"#utility.yul\":7150:7154   */\n      dup2\n        /* \"#utility.yul\":7024:7155   */\n      tag_147\n      jump\t// in\n    tag_180:\n        /* \"#utility.yul\":7016:7155   */\n      swap1\n      pop\n        /* \"#utility.yul\":6743:7162   */\n      swap2\n      swap1\n      pop\n      jump\t// out\n        /* \"#utility.yul\":7168:7587   */\n    tag_32:\n        /* \"#utility.yul\":7334:7338   */\n      0x00\n        /* \"#utility.yul\":7372:7374   */\n      0x20\n        /* \"#utility.yul\":7361:7370   */\n      dup3\n        /* \"#utility.yul\":7357:7375   */\n      add\n        /* \"#utility.yul\":7349:7375   */\n      swap1\n      pop\n        /* \"#utility.yul\":7421:7430   */\n      dup2\n        /* \"#utility.yul\":7415:7419   */\n      dup2\n        /* \"#utility.yul\":7411:7431   */\n      sub\n        /* \"#utility.yul\":7407:7408   */\n      0x00\n        /* \"#utility.yul\":7396:7405   */\n      dup4\n        /* \"#utility.yul\":7392:7409   */\n      add\n        /* \"#utility.yul\":7385:7432   */\n      mstore\n        /* \"#utility.yul\":7449:7580   */\n      tag_182\n        /* \"#utility.yul\":7575:7579   */\n      dup2\n        /* \"#utility.yul\":7449:7580   */\n      tag_152\n      jump\t// in\n    tag_182:\n        /* \"#utility.yul\":7441:7580   */\n      swap1\n      pop\n        /* \"#utility.yul\":7168:7587   */\n      swap2\n      swap1\n      pop\n      jump\t// out\n        /* \"#utility.yul\":7593:8012   */\n    tag_49:\n        /* \"#utility.yul\":7759:7763   */\n      0x00\n        /* \"#utility.yul\":7797:7799   */\n      0x20\n        /* \"#utility.yul\":7786:7795   */\n      dup3\n        /* \"#utility.yul\":7782:7800   */\n      add\n        /* \"#utility.yul\":7774:7800   */\n      swap1\n      pop\n        /* \"#utility.yul\":7846:7855   */\n      dup2\n        /* \"#utility.yul\":7840:7844   */\n      dup2\n        /* \"#utility.yul\":7836:7856   */\n      sub\n        /* \"#utility.yul\":7832:7833   */\n      0x00\n        /* \"#utility.yul\":7821:7830   */\n      dup4\n        /* \"#utility.yul\":7817:7834   */\n      add\n        /* \"#utility.yul\":7810:7857   */\n      mstore\n        /* \"#utility.yul\":7874:8005   */\n      tag_184\n        /* \"#utility.yul\":8000:8004   */\n      dup2\n        /* \"#utility.yul\":7874:8005   */\n      tag_157\n      jump\t// in\n    tag_184:\n        /* \"#utility.yul\":7866:8005   */\n      swap1\n      pop\n        /* \"#utility.yul\":7593:8012   */\n      swap2\n      swap1\n      pop\n      jump\t// out\n        /* \"#utility.yul\":8099:8239   */\n    tag_118:\n        /* \"#utility.yul\":8174:8178   */\n      0x00\n        /* \"#utility.yul\":8197:8200   */\n      dup2\n        /* \"#utility.yul\":8189:8200   */\n      swap1\n      pop\n        /* \"#utility.yul\":8227:8231   */\n      0x20\n        /* \"#utility.yul\":8222:8225   */\n      dup3\n        /* \"#utility.yul\":8218:8232   */\n      add\n        /* \"#utility.yul\":8210:8232   */\n      swap1\n      pop\n        /* \"#utility.yul\":8099:8239   */\n      swap2\n      swap1\n      pop\n      jump\t// out\n        /* \"#utility.yul\":8245:8409   */\n    tag_132:\n        /* \"#utility.yul\":8317:8321   */\n      0x00\n        /* \"#utility.yul\":8340:8343   */\n      dup2\n        /* \"#utility.yul\":8332:8343   */\n      swap1\n      pop\n        /* \"#utility.yul\":8363:8366   */\n      dup2\n        /* \"#utility.yul\":8360:8361   */\n      0x00\n        /* \"#utility.yul\":8353:8367   */\n      mstore\n        /* \"#utility.yul\":8397:8401   */\n      0x20\n        /* \"#utility.yul\":8394:8395   */\n      0x00\n        /* \"#utility.yul\":8384:8402   */\n      keccak256\n        /* \"#utility.yul\":8376:8402   */\n      swap1\n      pop\n        /* \"#utility.yul\":8245:8409   */\n      swap2\n      swap1\n      pop\n      jump\t// out\n        /* \"#utility.yul\":8415:8537   */\n    tag_114:\n        /* \"#utility.yul\":8490:8496   */\n      0x00\n        /* \"#utility.yul\":8524:8529   */\n      dup2\n        /* \"#utility.yul\":8518:8530   */\n      mload\n        /* \"#utility.yul\":8508:8530   */\n      swap1\n      pop\n        /* \"#utility.yul\":8415:8537   */\n      swap2\n      swap1\n      pop\n      jump\t// out\n        /* \"#utility.yul\":8543:8662   */\n    tag_128:\n        /* \"#utility.yul\":8615:8621   */\n      0x00\n        /* \"#utility.yul\":8649:8654   */\n      dup2\n        /* \"#utility.yul\":8643:8655   */\n      sload\n        /* \"#utility.yul\":8633:8655   */\n      swap1\n      pop\n        /* \"#utility.yul\":8543:8662   */\n      swap2\n      swap1\n      pop\n      jump\t// out\n        /* \"#utility.yul\":8668:8789   */\n    tag_124:\n        /* \"#utility.yul\":8746:8750   */\n      0x00\n        /* \"#utility.yul\":8778:8782   */\n      0x20\n        /* \"#utility.yul\":8773:8776   */\n      dup3\n        /* \"#utility.yul\":8769:8783   */\n      add\n        /* \"#utility.yul\":8761:8783   */\n      swap1\n      pop\n        /* \"#utility.yul\":8668:8789   */\n      swap2\n      swap1\n      pop\n      jump\t// out\n        /* \"#utility.yul\":8795:8913   */\n    tag_140:\n        /* \"#utility.yul\":8870:8874   */\n      0x00\n        /* \"#utility.yul\":8902:8906   */\n      0x01\n        /* \"#utility.yul\":8897:8900   */\n      dup3\n        /* \"#utility.yul\":8893:8907   */\n      add\n        /* \"#utility.yul\":8885:8907   */\n      swap1\n      pop\n        /* \"#utility.yul\":8795:8913   */\n      swap2\n      swap1\n      pop\n      jump\t// out\n        /* \"#utility.yul\":8919:9111   */\n    tag_116:\n        /* \"#utility.yul\":9026:9037   */\n      0x00\n        /* \"#utility.yul\":9060:9066   */\n      dup3\n        /* \"#utility.yul\":9055:9058   */\n      dup3\n        /* \"#utility.yul\":9048:9067   */\n      mstore\n        /* \"#utility.yul\":9100:9104   */\n      0x20\n        /* \"#utility.yul\":9095:9098   */\n      dup3\n        /* \"#utility.yul\":9091:9105   */\n      add\n        /* \"#utility.yul\":9076:9105   */\n      swap1\n      pop\n        /* \"#utility.yul\":8919:9111   */\n      swap3\n      swap2\n      pop\n      pop\n      jump\t// out\n        /* \"#utility.yul\":9117:9288   */\n    tag_130:\n        /* \"#utility.yul\":9242:9253   */\n      0x00\n        /* \"#utility.yul\":9279:9282   */\n      dup2\n        /* \"#utility.yul\":9264:9282   */\n      swap1\n      pop\n        /* \"#utility.yul\":9117:9288   */\n      swap3\n      swap2\n      pop\n      pop\n      jump\t// out\n        /* \"#utility.yul\":9294:9463   */\n    tag_144:\n        /* \"#utility.yul\":9378:9389   */\n      0x00\n        /* \"#utility.yul\":9412:9418   */\n      dup3\n        /* \"#utility.yul\":9407:9410   */\n      dup3\n        /* \"#utility.yul\":9400:9419   */\n      mstore\n        /* \"#utility.yul\":9452:9456   */\n      0x20\n        /* \"#utility.yul\":9447:9450   */\n      dup3\n        /* \"#utility.yul\":9443:9457   */\n      add\n        /* \"#utility.yul\":9428:9457   */\n      swap1\n      pop\n        /* \"#utility.yul\":9294:9463   */\n      swap3\n      swap2\n      pop\n      pop\n      jump\t// out\n        /* \"#utility.yul\":9469:9616   */\n    tag_196:\n        /* \"#utility.yul\":9527:9534   */\n      0x00\n        /* \"#utility.yul\":9567:9609   */\n      0xffffffffffffffffffffffffffffffffffffffff\n        /* \"#utility.yul\":9560:9565   */\n      dup3\n        /* \"#utility.yul\":9556:9610   */\n      and\n        /* \"#utility.yul\":9545:9610   */\n      swap1\n      pop\n        /* \"#utility.yul\":9469:9616   */\n      swap2\n      swap1\n      pop\n      jump\t// out\n        /* \"#utility.yul\":9622:9718   */\n    tag_110:\n        /* \"#utility.yul\":9659:9666   */\n      0x00\n        /* \"#utility.yul\":9688:9712   */\n      tag_199\n        /* \"#utility.yul\":9706:9711   */\n      dup3\n        /* \"#utility.yul\":9688:9712   */\n      tag_200\n      jump\t// in\n    tag_199:\n        /* \"#utility.yul\":9677:9712   */\n      swap1\n      pop\n        /* \"#utility.yul\":9622:9718   */\n      swap2\n      swap1\n      pop\n      jump\t// out\n        /* \"#utility.yul\":9724:9828   */\n    tag_101:\n        /* \"#utility.yul\":9769:9776   */\n      0x00\n        /* \"#utility.yul\":9798:9822   */\n      tag_202\n        /* \"#utility.yul\":9816:9821   */\n      dup3\n        /* \"#utility.yul\":9798:9822   */\n      tag_200\n      jump\t// in\n    tag_202:\n        /* \"#utility.yul\":9787:9822   */\n      swap1\n      pop\n        /* \"#utility.yul\":9724:9828   */\n      swap2\n      swap1\n      pop\n      jump\t// out\n        /* \"#utility.yul\":9834:9960   */\n    tag_200:\n        /* \"#utility.yul\":9871:9878   */\n      0x00\n        /* \"#utility.yul\":9911:9953   */\n      0xffffffffffffffffffffffffffffffffffffffff\n        /* \"#utility.yul\":9904:9909   */\n      dup3\n        /* \"#utility.yul\":9900:9954   */\n      and\n        /* \"#utility.yul\":9889:9954   */\n      swap1\n      pop\n        /* \"#utility.yul\":9834:9960   */\n      swap2\n      swap1\n      pop\n      jump\t// out\n        /* \"#utility.yul\":9966:10043   */\n    tag_166:\n        /* \"#utility.yul\":10003:10010   */\n      0x00\n        /* \"#utility.yul\":10032:10037   */\n      dup2\n        /* \"#utility.yul\":10021:10037   */\n      swap1\n      pop\n        /* \"#utility.yul\":9966:10043   */\n      swap2\n      swap1\n      pop\n      jump\t// out\n        /* \"#utility.yul\":10049:10231   */\n    tag_205:\n        /* \"#utility.yul\":10126:10131   */\n      0x00\n        /* \"#utility.yul\":10151:10225   */\n      tag_207\n        /* \"#utility.yul\":10190:10224   */\n      tag_208\n        /* \"#utility.yul\":10213:10223   */\n      dup4\n        /* \"#utility.yul\":10190:10224   */\n      tag_209\n      jump\t// in\n    tag_208:\n        /* \"#utility.yul\":10151:10225   */\n      tag_196\n      jump\t// in\n    tag_207:\n        /* \"#utility.yul\":10142:10225   */\n      swap1\n      pop\n        /* \"#utility.yul\":10049:10231   */\n      swap2\n      swap1\n      pop\n      jump\t// out\n        /* \"#utility.yul\":10237:10470   */\n    tag_75:\n        /* \"#utility.yul\":10276:10279   */\n      0x00\n        /* \"#utility.yul\":10299:10323   */\n      tag_211\n        /* \"#utility.yul\":10317:10322   */\n      dup3\n        /* \"#utility.yul\":10299:10323   */\n      tag_166\n      jump\t// in\n    tag_211:\n        /* \"#utility.yul\":10290:10323   */\n      swap2\n      pop\n        /* \"#utility.yul\":10345:10411   */\n      0xffffffffffffffffffffffffffffffffffffffffffffffffffffffffffffffff\n        /* \"#utility.yul\":10338:10343   */\n      dup3\n        /* \"#utility.yul\":10335:10412   */\n      eq\n        /* \"#utility.yul\":10332:10435   */\n      iszero\n      tag_212\n      jumpi\n        /* \"#utility.yul\":10415:10433   */\n      tag_213\n      tag_214\n      jump\t// in\n    tag_213:\n        /* \"#utility.yul\":10332:10435   */\n    tag_212:\n        /* \"#utility.yul\":10462:10463   */\n      0x01\n        /* \"#utility.yul\":10455:10460   */\n      dup3\n        /* \"#utility.yul\":10451:10464   */\n      add\n        /* \"#utility.yul\":10444:10464   */\n      swap1\n      pop\n        /* \"#utility.yul\":10237:10470   */\n      swap2\n      swap1\n      pop\n      jump\t// out\n        /* \"#utility.yul\":10476:10555   */\n    tag_167:\n        /* \"#utility.yul\":10515:10522   */\n      0x00\n        /* \"#utility.yul\":10544:10549   */\n      dup2\n        /* \"#utility.yul\":10533:10549   */\n      swap1\n      pop\n        /* \"#utility.yul\":10476:10555   */\n      swap2\n      swap1\n      pop\n      jump\t// out\n        /* \"#utility.yul\":10561:10737   */\n    tag_65:\n        /* \"#utility.yul\":10593:10594   */\n      0x00\n        /* \"#utility.yul\":10610:10630   */\n      tag_217\n        /* \"#utility.yul\":10628:10629   */\n      dup3\n        /* \"#utility.yul\":10610:10630   */\n      tag_166\n      jump\t// in\n    tag_217:\n        /* \"#utility.yul\":10605:10630   */\n      swap2\n      pop\n        /* \"#utility.yul\":10644:10664   */\n      tag_218\n        /* \"#utility.yul\":10662:10663   */\n      dup4\n        /* \"#utility.yul\":10644:10664   */\n      tag_166\n      jump\t// in\n    tag_218:\n        /* \"#utility.yul\":10639:10664   */\n      swap3\n      pop\n        /* \"#utility.yul\":10683:10684   */\n      dup3\n        /* \"#utility.yul\":10673:10708   */\n      tag_219\n      jumpi\n        /* \"#utility.yul\":10688:10706   */\n      tag_220\n      tag_221\n      jump\t// in\n    tag_220:\n        /* \"#utility.yul\":10673:10708   */\n    tag_219:\n        /* \"#utility.yul\":10729:10730   */\n      dup3\n        /* \"#utility.yul\":10726:10727   */\n      dup3\n        /* \"#utility.yul\":10722:10731   */\n      mod\n        /* \"#utility.yul\":10717:10731   */\n      swap1\n      pop\n        /* \"#utility.yul\":10561:10737   */\n      swap3\n      swap2\n      pop\n      pop\n      jump\t// out\n        /* \"#utility.yul\":10743:10923   */\n    tag_214:\n        /* \"#utility.yul\":10791:10868   */\n      0x4e487b7100000000000000000000000000000000000000000000000000000000\n        /* \"#utility.yul\":10788:10789   */\n      0x00\n        /* \"#utility.yul\":10781:10869   */\n      mstore\n        /* \"#utility.yul\":10888:10892   */\n      0x11\n        /* \"#utility.yul\":10885:10886   */\n      0x04\n        /* \"#utility.yul\":10878:10893   */\n      mstore\n        /* \"#utility.yul\":10912:10916   */\n      0x24\n        /* \"#utility.yul\":10909:10910   */\n      0x00\n        /* \"#utility.yul\":10902:10917   */\n      revert\n        /* \"#utility.yul\":10929:11109   */\n    tag_221:\n        /* \"#utility.yul\":10977:11054   */\n      0x4e487b7100000000000000000000000000000000000000000000000000000000\n        /* \"#utility.yul\":10974:10975   */\n      0x00\n        /* \"#utility.yul\":10967:11055   */\n      mstore\n        /* \"#utility.yul\":11074:11078   */\n      0x12\n        /* \"#utility.yul\":11071:11072   */\n      0x04\n        /* \"#utility.yul\":11064:11079   */\n      mstore\n        /* \"#utility.yul\":11098:11102   */\n      0x24\n        /* \"#utility.yul\":11095:11096   */\n      0x00\n        /* \"#utility.yul\":11088:11103   */\n      revert\n        /* \"#utility.yul\":11115:11295   */\n    tag_37:\n        /* \"#utility.yul\":11163:11240   */\n      0x4e487b7100000000000000000000000000000000000000000000000000000000\n        /* \"#utility.yul\":11160:11161   */\n      0x00\n        /* \"#utility.yul\":11153:11241   */\n      mstore\n        /* \"#utility.yul\":11260:11264   */\n      0x32\n        /* \"#utility.yul\":11257:11258   */\n      0x04\n        /* \"#utility.yul\":11250:11265   */\n      mstore\n        /* \"#utility.yul\":11284:11288   */\n      0x24\n        /* \"#utility.yul\":11281:11282   */\n      0x00\n        /* \"#utility.yul\":11274:11289   */\n      revert\n        /* \"#utility.yul\":11301:11461   */\n    tag_137:\n        /* \"#utility.yul\":11364:11369   */\n      0x00\n        /* \"#utility.yul\":11389:11454   */\n      tag_226\n        /* \"#utility.yul\":11448:11452   */\n      dup3\n        /* \"#utility.yul\":11442:11453   */\n      sload\n        /* \"#utility.yul\":11389:11454   */\n      tag_205\n      jump\t// in\n    tag_226:\n        /* \"#utility.yul\":11380:11454   */\n      swap1\n      pop\n        /* \"#utility.yul\":11301:11461   */\n      swap2\n      swap1\n      pop\n      jump\t// out\n        /* \"#utility.yul\":11590:11707   */\n    tag_89:\n        /* \"#utility.yul\":11699:11700   */\n      0x00\n        /* \"#utility.yul\":11696:11697   */\n      dup1\n        /* \"#utility.yul\":11689:11701   */\n      revert\n        /* \"#utility.yul\":11713:11815   */\n    tag_209:\n        /* \"#utility.yul\":11755:11763   */\n      0x00\n        /* \"#utility.yul\":11802:11807   */\n      dup2\n        /* \"#utility.yul\":11799:11800   */\n      0x00\n        /* \"#utility.yul\":11795:11808   */\n      shr\n        /* \"#utility.yul\":11774:11808   */\n      swap1\n      pop\n        /* \"#utility.yul\":11713:11815   */\n      swap2\n      swap1\n      pop\n      jump\t// out\n        /* \"#utility.yul\":11821:11999   */\n    tag_146:\n        /* \"#utility.yul\":11961:11991   */\n      0x4d696e696d756d20616d6f756e74206d75737420626520706179656400000000\n        /* \"#utility.yul\":11957:11958   */\n      0x00\n        /* \"#utility.yul\":11949:11955   */\n      dup3\n        /* \"#utility.yul\":11945:11959   */\n      add\n        /* \"#utility.yul\":11938:11992   */\n      mstore\n        /* \"#utility.yul\":11821:11999   */\n      pop\n      jump\t// out\n        /* \"#utility.yul\":12005:12180   */\n    tag_151:\n        /* \"#utility.yul\":12145:12172   */\n      0x506c6179657220616c7265616479207265676973746572656400000000000000\n        /* \"#utility.yul\":12141:12142   */\n      0x00\n        /* \"#utility.yul\":12133:12139   */\n      dup3\n        /* \"#utility.yul\":12129:12143   */\n      add\n        /* \"#utility.yul\":12122:12173   */\n      mstore\n        /* \"#utility.yul\":12005:12180   */\n      pop\n      jump\t// out\n        /* \"#utility.yul\":12186:12423   */\n    tag_156:\n        /* \"#utility.yul\":12326:12360   */\n      0x556e617574686f72697a656420506572736f6e2e204f6e6c79206d616e616765\n        /* \"#utility.yul\":12322:12323   */\n      0x00\n        /* \"#utility.yul\":12314:12320   */\n      dup3\n        /* \"#utility.yul\":12310:12324   */\n      add\n        /* \"#utility.yul\":12303:12361   */\n      mstore\n        /* \"#utility.yul\":12395:12415   */\n      0x722063616e207069636b2077696e6e65722e0000000000000000000000000000\n        /* \"#utility.yul\":12390:12392   */\n      0x20\n        /* \"#utility.yul\":12382:12388   */\n      dup3\n        /* \"#utility.yul\":12378:12393   */\n      add\n        /* \"#utility.yul\":12371:12416   */\n      mstore\n        /* \"#utility.yul\":12186:12423   */\n      pop\n      jump\t// out\n        /* \"#utility.yul\":12429:12598   */\n    tag_161:\n        /* \"#utility.yul\":12569:12590   */\n      0x4d616e616765722063616e277420656e74657200000000000000000000000000\n        /* \"#utility.yul\":12565:12566   */\n      0x00\n        /* \"#utility.yul\":12557:12563   */\n      dup3\n        /* \"#utility.yul\":12553:12567   */\n      add\n        /* \"#utility.yul\":12546:12591   */\n      mstore\n        /* \"#utility.yul\":12429:12598   */\n      pop\n      jump\t// out\n        /* \"#utility.yul\":12604:12726   */\n    tag_85:\n        /* \"#utility.yul\":12677:12701   */\n      tag_236\n        /* \"#utility.yul\":12695:12700   */\n      dup2\n        /* \"#utility.yul\":12677:12701   */\n      tag_166\n      jump\t// in\n    tag_236:\n        /* \"#utility.yul\":12670:12675   */\n      dup2\n        /* \"#utility.yul\":12667:12702   */\n      eq\n        /* \"#utility.yul\":12657:12720   */\n      tag_237\n      jumpi\n        /* \"#utility.yul\":12716:12717   */\n      0x00\n        /* \"#utility.yul\":12713:12714   */\n      dup1\n        /* \"#utility.yul\":12706:12718   */\n      revert\n        /* \"#utility.yul\":12657:12720   */\n    tag_237:\n        /* \"#utility.yul\":12604:12726   */\n      pop\n      jump\t// out\n\n    auxdata: 0xa26469706673582212207eb94ae5f92f8fa5a5b016c2532e664b68d0259b6f8e371cf5fd1a828841b7fd64736f6c63430008070033\n}\n",
				"bytecode": {
					"linkReferences": {},
					"object": "608060405234801561001057600080fd5b50336000806101000a81548173ffffffffffffffffffffffffffffffffffffffff021916908373ffffffffffffffffffffffffffffffffffffffff160217905550610c4b806100606000396000f3fe60806040526004361061004a5760003560e01c8063481c6a751461004f5780635d495aea1461007a57806387997d9414610091578063e97dcb62146100bc578063f71d96cb146100c6575b600080fd5b34801561005b57600080fd5b50610064610103565b604051610071919061081c565b60405180910390f35b34801561008657600080fd5b5061008f610127565b005b34801561009d57600080fd5b506100a6610257565b6040516100b39190610852565b60405180910390f35b6100c46102e5565b005b3480156100d257600080fd5b506100ed60048036038101906100e891906105f5565b610472565b6040516100fa9190610837565b60405180910390f35b60008054906101000a900473ffffffffffffffffffffffffffffffffffffffff1681565b60008054906101000a900473ffffffffffffffffffffffffffffffffffffffff1673ffffffffffffffffffffffffffffffffffffffff163373ffffffffffffffffffffffffffffffffffffffff16146101b5576040517f08c379a00000000000000000000000000000000000000000000000000000000081526004016101ac906108b4565b60405180910390fd5b60006101bf6104b1565b9050600181815481106101d5576101d4610ae0565b5b9060005260206000200160009054906101000a900473ffffffffffffffffffffffffffffffffffffffff1673ffffffffffffffffffffffffffffffffffffffff166108fc479081150290604051600060405180830381858888f19350505050158015610245573d6000803e3d6000fd5b506001600061025491906105a2565b50565b606060018054806020026020016040519081016040528092919081815260200182805480156102db57602002820191906000526020600020905b8160009054906101000a900473ffffffffffffffffffffffffffffffffffffffff1673ffffffffffffffffffffffffffffffffffffffff1681526020019060010190808311610291575b5050505050905090565b60008054906101000a900473ffffffffffffffffffffffffffffffffffffffff1673ffffffffffffffffffffffffffffffffffffffff163373ffffffffffffffffffffffffffffffffffffffff161415610374576040517f08c379a000000000000000000000000000000000000000000000000000000000815260040161036b906108d4565b60405180910390fd5b600015156103806104f5565b1515146103c2576040517f08c379a00000000000000000000000000000000000000000000000000000000081526004016103b990610894565b60405180910390fd5b670de0b6b3a764000034101561040d576040517f08c379a000000000000000000000000000000000000000000000000000000000815260040161040490610874565b60405180910390fd5b6001339080600181540180825580915050600190039060005260206000200160009091909190916101000a81548173ffffffffffffffffffffffffffffffffffffffff021916908373ffffffffffffffffffffffffffffffffffffffff160217905550565b6001818154811061048257600080fd5b906000526020600020016000915054906101000a900473ffffffffffffffffffffffffffffffffffffffff1681565b60006001805490504460016040516020016104cd9291906107f4565b6040516020818303038152906040528051906020012060001c6104f09190610a51565b905090565b600080600090505b600180549050811015610599573373ffffffffffffffffffffffffffffffffffffffff166001828154811061053557610534610ae0565b5b9060005260206000200160009054906101000a900473ffffffffffffffffffffffffffffffffffffffff1673ffffffffffffffffffffffffffffffffffffffff16141561058657600191505061059f565b8080610591906109fe565b9150506104fd565b50600090505b90565b50805460008255906000526020600020908101906105c091906105c3565b50565b5b808211156105dc5760008160009055506001016105c4565b5090565b6000813590506105ef81610bfe565b92915050565b60006020828403121561060b5761060a610b22565b5b6000610619848285016105e0565b91505092915050565b600061062e8383610652565b60208301905092915050565b60006106468383610670565b60208301905092915050565b61065b816109a8565b82525050565b61066a816109a8565b82525050565b610679816109a8565b82525050565b61068881610996565b82525050565b600061069982610919565b6106a38185610949565b93506106ae836108f4565b8060005b838110156106df5781516106c68882610622565b97506106d18361092f565b9250506001810190506106b2565b5085935050505092915050565b60006106f782610924565b610701818561095a565b935061070c83610904565b8060005b838110156107445761072182610b0f565b61072b888261063a565b97506107368361093c565b925050600181019050610710565b5085935050505092915050565b600061075e601c83610965565b915061076982610b34565b602082019050919050565b6000610781601983610965565b915061078c82610b5d565b602082019050919050565b60006107a4603283610965565b91506107af82610b86565b604082019050919050565b60006107c7601383610965565b91506107d282610bd5565b602082019050919050565b6107ee6107e9826109da565b610a47565b82525050565b600061080082856107dd565b60208201915061081082846106ec565b91508190509392505050565b6000602082019050610831600083018461067f565b92915050565b600060208201905061084c6000830184610661565b92915050565b6000602082019050818103600083015261086c818461068e565b905092915050565b6000602082019050818103600083015261088d81610751565b9050919050565b600060208201905081810360008301526108ad81610774565b9050919050565b600060208201905081810360008301526108cd81610797565b9050919050565b600060208201905081810360008301526108ed816107ba565b9050919050565b6000819050602082019050919050565b60008190508160005260206000209050919050565b600081519050919050565b600081549050919050565b6000602082019050919050565b6000600182019050919050565b600082825260208201905092915050565b600081905092915050565b600082825260208201905092915050565b600073ffffffffffffffffffffffffffffffffffffffff82169050919050565b60006109a1826109ba565b9050919050565b60006109b3826109ba565b9050919050565b600073ffffffffffffffffffffffffffffffffffffffff82169050919050565b6000819050919050565b60006109f76109f283610b27565b610976565b9050919050565b6000610a09826109da565b91507fffffffffffffffffffffffffffffffffffffffffffffffffffffffffffffffff821415610a3c57610a3b610a82565b5b600182019050919050565b6000819050919050565b6000610a5c826109da565b9150610a67836109da565b925082610a7757610a76610ab1565b5b828206905092915050565b7f4e487b7100000000000000000000000000000000000000000000000000000000600052601160045260246000fd5b7f4e487b7100000000000000000000000000000000000000000000000000000000600052601260045260246000fd5b7f4e487b7100000000000000000000000000000000000000000000000000000000600052603260045260246000fd5b6000610b1b82546109e4565b9050919050565b600080fd5b60008160001c9050919050565b7f4d696e696d756d20616d6f756e74206d75737420626520706179656400000000600082015250565b7f506c6179657220616c7265616479207265676973746572656400000000000000600082015250565b7f556e617574686f72697a656420506572736f6e2e204f6e6c79206d616e61676560008201527f722063616e207069636b2077696e6e65722e0000000000000000000000000000602082015250565b7f4d616e616765722063616e277420656e74657200000000000000000000000000600082015250565b610c07816109da565b8114610c1257600080fd5b5056fea26469706673582212207eb94ae5f92f8fa5a5b016c2532e664b68d0259b6f8e371cf5fd1a828841b7fd64736f6c63430008070033",
					"opcodes": "PUSH1 0x80 PUSH1 0x40 MSTORE CALLVALUE DUP1 ISZERO PUSH2 0x10 JUMPI PUSH1 0x0 DUP1 REVERT JUMPDEST POP CALLER PUSH1 0x0 DUP1 PUSH2 0x100 EXP DUP2 SLOAD DUP2 PUSH20 0xFFFFFFFFFFFFFFFFFFFFFFFFFFFFFFFFFFFFFFFF MUL NOT AND SWAP1 DUP4 PUSH20 0xFFFFFFFFFFFFFFFFFFFFFFFFFFFFFFFFFFFFFFFF AND MUL OR SWAP1 SSTORE POP PUSH2 0xC4B DUP1 PUSH2 0x60 PUSH1 0x0 CODECOPY PUSH1 0x0 RETURN INVALID PUSH1 0x80 PUSH1 0x40 MSTORE PUSH1 0x4 CALLDATASIZE LT PUSH2 0x4A JUMPI PUSH1 0x0 CALLDATALOAD PUSH1 0xE0 SHR DUP1 PUSH4 0x481C6A75 EQ PUSH2 0x4F JUMPI DUP1 PUSH4 0x5D495AEA EQ PUSH2 0x7A JUMPI DUP1 PUSH4 0x87997D94 EQ PUSH2 0x91 JUMPI DUP1 PUSH4 0xE97DCB62 EQ PUSH2 0xBC JUMPI DUP1 PUSH4 0xF71D96CB EQ PUSH2 0xC6 JUMPI JUMPDEST PUSH1 0x0 DUP1 REVERT JUMPDEST CALLVALUE DUP1 ISZERO PUSH2 0x5B JUMPI PUSH1 0x0 DUP1 REVERT JUMPDEST POP PUSH2 0x64 PUSH2 0x103 JUMP JUMPDEST PUSH1 0x40 MLOAD PUSH2 0x71 SWAP2 SWAP1 PUSH2 0x81C JUMP JUMPDEST PUSH1 0x40 MLOAD DUP1 SWAP2 SUB SWAP1 RETURN JUMPDEST CALLVALUE DUP1 ISZERO PUSH2 0x86 JUMPI PUSH1 0x0 DUP1 REVERT JUMPDEST POP PUSH2 0x8F PUSH2 0x127 JUMP JUMPDEST STOP JUMPDEST CALLVALUE DUP1 ISZERO PUSH2 0x9D JUMPI PUSH1 0x0 DUP1 REVERT JUMPDEST POP PUSH2 0xA6 PUSH2 0x257 JUMP JUMPDEST PUSH1 0x40 MLOAD PUSH2 0xB3 SWAP2 SWAP1 PUSH2 0x852 JUMP JUMPDEST PUSH1 0x40 MLOAD DUP1 SWAP2 SUB SWAP1 RETURN JUMPDEST PUSH2 0xC4 PUSH2 0x2E5 JUMP JUMPDEST STOP JUMPDEST CALLVALUE DUP1 ISZERO PUSH2 0xD2 JUMPI PUSH1 0x0 DUP1 REVERT JUMPDEST POP PUSH2 0xED PUSH1 0x4 DUP1 CALLDATASIZE SUB DUP2 ADD SWAP1 PUSH2 0xE8 SWAP2 SWAP1 PUSH2 0x5F5 JUMP JUMPDEST PUSH2 0x472 JUMP JUMPDEST PUSH1 0x40 MLOAD PUSH2 0xFA SWAP2 SWAP1 PUSH2 0x837 JUMP JUMPDEST PUSH1 0x40 MLOAD DUP1 SWAP2 SUB SWAP1 RETURN JUMPDEST PUSH1 0x0 DUP1 SLOAD SWAP1 PUSH2 0x100 EXP SWAP1 DIV PUSH20 0xFFFFFFFFFFFFFFFFFFFFFFFFFFFFFFFFFFFFFFFF AND DUP2 JUMP JUMPDEST PUSH1 0x0 DUP1 SLOAD SWAP1 PUSH2 0x100 EXP SWAP1 DIV PUSH20 0xFFFFFFFFFFFFFFFFFFFFFFFFFFFFFFFFFFFFFFFF AND PUSH20 0xFFFFFFFFFFFFFFFFFFFFFFFFFFFFFFFFFFFFFFFF AND CALLER PUSH20 0xFFFFFFFFFFFFFFFFFFFFFFFFFFFFFFFFFFFFFFFF AND EQ PUSH2 0x1B5 JUMPI PUSH1 0x40 MLOAD PUSH32 0x8C379A000000000000000000000000000000000000000000000000000000000 DUP2 MSTORE PUSH1 0x4 ADD PUSH2 0x1AC SWAP1 PUSH2 0x8B4 JUMP JUMPDEST PUSH1 0x40 MLOAD DUP1 SWAP2 SUB SWAP1 REVERT JUMPDEST PUSH1 0x0 PUSH2 0x1BF PUSH2 0x4B1 JUMP JUMPDEST SWAP1 POP PUSH1 0x1 DUP2 DUP2 SLOAD DUP2 LT PUSH2 0x1D5 JUMPI PUSH2 0x1D4 PUSH2 0xAE0 JUMP JUMPDEST JUMPDEST SWAP1 PUSH1 0x0 MSTORE PUSH1 0x20 PUSH1 0x0 KECCAK256 ADD PUSH1 0x0 SWAP1 SLOAD SWAP1 PUSH2 0x100 EXP SWAP1 DIV PUSH20 0xFFFFFFFFFFFFFFFFFFFFFFFFFFFFFFFFFFFFFFFF AND PUSH20 0xFFFFFFFFFFFFFFFFFFFFFFFFFFFFFFFFFFFFFFFF AND PUSH2 0x8FC SELFBALANCE SWAP1 DUP2 ISZERO MUL SWAP1 PUSH1 0x40 MLOAD PUSH1 0x0 PUSH1 0x40 MLOAD DUP1 DUP4 SUB DUP2 DUP6 DUP9 DUP9 CALL SWAP4 POP POP POP POP ISZERO DUP1 ISZERO PUSH2 0x245 JUMPI RETURNDATASIZE PUSH1 0x0 DUP1 RETURNDATACOPY RETURNDATASIZE PUSH1 0x0 REVERT JUMPDEST POP PUSH1 0x1 PUSH1 0x0 PUSH2 0x254 SWAP2 SWAP1 PUSH2 0x5A2 JUMP JUMPDEST POP JUMP JUMPDEST PUSH1 0x60 PUSH1 0x1 DUP1 SLOAD DUP1 PUSH1 0x20 MUL PUSH1 0x20 ADD PUSH1 0x40 MLOAD SWAP1 DUP2 ADD PUSH1 0x40 MSTORE DUP1 SWAP3 SWAP2 SWAP1 DUP2 DUP2 MSTORE PUSH1 0x20 ADD DUP3 DUP1 SLOAD DUP1 ISZERO PUSH2 0x2DB JUMPI PUSH1 0x20 MUL DUP3 ADD SWAP2 SWAP1 PUSH1 0x0 MSTORE PUSH1 0x20 PUSH1 0x0 KECCAK256 SWAP1 JUMPDEST DUP2 PUSH1 0x0 SWAP1 SLOAD SWAP1 PUSH2 0x100 EXP SWAP1 DIV PUSH20 0xFFFFFFFFFFFFFFFFFFFFFFFFFFFFFFFFFFFFFFFF AND PUSH20 0xFFFFFFFFFFFFFFFFFFFFFFFFFFFFFFFFFFFFFFFF AND DUP2 MSTORE PUSH1 0x20 ADD SWAP1 PUSH1 0x1 ADD SWAP1 DUP1 DUP4 GT PUSH2 0x291 JUMPI JUMPDEST POP POP POP POP POP SWAP1 POP SWAP1 JUMP JUMPDEST PUSH1 0x0 DUP1 SLOAD SWAP1 PUSH2 0x100 EXP SWAP1 DIV PUSH20 0xFFFFFFFFFFFFFFFFFFFFFFFFFFFFFFFFFFFFFFFF AND PUSH20 0xFFFFFFFFFFFFFFFFFFFFFFFFFFFFFFFFFFFFFFFF AND CALLER PUSH20 0xFFFFFFFFFFFFFFFFFFFFFFFFFFFFFFFFFFFFFFFF AND EQ ISZERO PUSH2 0x374 JUMPI PUSH1 0x40 MLOAD PUSH32 0x8C379A000000000000000000000000000000000000000000000000000000000 DUP2 MSTORE PUSH1 0x4 ADD PUSH2 0x36B SWAP1 PUSH2 0x8D4 JUMP JUMPDEST PUSH1 0x40 MLOAD DUP1 SWAP2 SUB SWAP1 REVERT JUMPDEST PUSH1 0x0 ISZERO ISZERO PUSH2 0x380 PUSH2 0x4F5 JUMP JUMPDEST ISZERO ISZERO EQ PUSH2 0x3C2 JUMPI PUSH1 0x40 MLOAD PUSH32 0x8C379A000000000000000000000000000000000000000000000000000000000 DUP2 MSTORE PUSH1 0x4 ADD PUSH2 0x3B9 SWAP1 PUSH2 0x894 JUMP JUMPDEST PUSH1 0x40 MLOAD DUP1 SWAP2 SUB SWAP1 REVERT JUMPDEST PUSH8 0xDE0B6B3A7640000 CALLVALUE LT ISZERO PUSH2 0x40D JUMPI PUSH1 0x40 MLOAD PUSH32 0x8C379A000000000000000000000000000000000000000000000000000000000 DUP2 MSTORE PUSH1 0x4 ADD PUSH2 0x404 SWAP1 PUSH2 0x874 JUMP JUMPDEST PUSH1 0x40 MLOAD DUP1 SWAP2 SUB SWAP1 REVERT JUMPDEST PUSH1 0x1 CALLER SWAP1 DUP1 PUSH1 0x1 DUP2 SLOAD ADD DUP1 DUP3 SSTORE DUP1 SWAP2 POP POP PUSH1 0x1 SWAP1 SUB SWAP1 PUSH1 0x0 MSTORE PUSH1 0x20 PUSH1 0x0 KECCAK256 ADD PUSH1 0x0 SWAP1 SWAP2 SWAP1 SWAP2 SWAP1 SWAP2 PUSH2 0x100 EXP DUP2 SLOAD DUP2 PUSH20 0xFFFFFFFFFFFFFFFFFFFFFFFFFFFFFFFFFFFFFFFF MUL NOT AND SWAP1 DUP4 PUSH20 0xFFFFFFFFFFFFFFFFFFFFFFFFFFFFFFFFFFFFFFFF AND MUL OR SWAP1 SSTORE POP JUMP JUMPDEST PUSH1 0x1 DUP2 DUP2 SLOAD DUP2 LT PUSH2 0x482 JUMPI PUSH1 0x0 DUP1 REVERT JUMPDEST SWAP1 PUSH1 0x0 MSTORE PUSH1 0x20 PUSH1 0x0 KECCAK256 ADD PUSH1 0x0 SWAP2 POP SLOAD SWAP1 PUSH2 0x100 EXP SWAP1 DIV PUSH20 0xFFFFFFFFFFFFFFFFFFFFFFFFFFFFFFFFFFFFFFFF AND DUP2 JUMP JUMPDEST PUSH1 0x0 PUSH1 0x1 DUP1 SLOAD SWAP1 POP DIFFICULTY PUSH1 0x1 PUSH1 0x40 MLOAD PUSH1 0x20 ADD PUSH2 0x4CD SWAP3 SWAP2 SWAP1 PUSH2 0x7F4 JUMP JUMPDEST PUSH1 0x40 MLOAD PUSH1 0x20 DUP2 DUP4 SUB SUB DUP2 MSTORE SWAP1 PUSH1 0x40 MSTORE DUP1 MLOAD SWAP1 PUSH1 0x20 ADD KECCAK256 PUSH1 0x0 SHR PUSH2 0x4F0 SWAP2 SWAP1 PUSH2 0xA51 JUMP JUMPDEST SWAP1 POP SWAP1 JUMP JUMPDEST PUSH1 0x0 DUP1 PUSH1 0x0 SWAP1 POP JUMPDEST PUSH1 0x1 DUP1 SLOAD SWAP1 POP DUP2 LT ISZERO PUSH2 0x599 JUMPI CALLER PUSH20 0xFFFFFFFFFFFFFFFFFFFFFFFFFFFFFFFFFFFFFFFF AND PUSH1 0x1 DUP3 DUP2 SLOAD DUP2 LT PUSH2 0x535 JUMPI PUSH2 0x534 PUSH2 0xAE0 JUMP JUMPDEST JUMPDEST SWAP1 PUSH1 0x0 MSTORE PUSH1 0x20 PUSH1 0x0 KECCAK256 ADD PUSH1 0x0 SWAP1 SLOAD SWAP1 PUSH2 0x100 EXP SWAP1 DIV PUSH20 0xFFFFFFFFFFFFFFFFFFFFFFFFFFFFFFFFFFFFFFFF AND PUSH20 0xFFFFFFFFFFFFFFFFFFFFFFFFFFFFFFFFFFFFFFFF AND EQ ISZERO PUSH2 0x586 JUMPI PUSH1 0x1 SWAP2 POP POP PUSH2 0x59F JUMP JUMPDEST DUP1 DUP1 PUSH2 0x591 SWAP1 PUSH2 0x9FE JUMP JUMPDEST SWAP2 POP POP PUSH2 0x4FD JUMP JUMPDEST POP PUSH1 0x0 SWAP1 POP JUMPDEST SWAP1 JUMP JUMPDEST POP DUP1 SLOAD PUSH1 0x0 DUP3 SSTORE SWAP1 PUSH1 0x0 MSTORE PUSH1 0x20 PUSH1 0x0 KECCAK256 SWAP1 DUP2 ADD SWAP1 PUSH2 0x5C0 SWAP2 SWAP1 PUSH2 0x5C3 JUMP JUMPDEST POP JUMP JUMPDEST JUMPDEST DUP1 DUP3 GT ISZERO PUSH2 0x5DC JUMPI PUSH1 0x0 DUP2 PUSH1 0x0 SWAP1 SSTORE POP PUSH1 0x1 ADD PUSH2 0x5C4 JUMP JUMPDEST POP SWAP1 JUMP JUMPDEST PUSH1 0x0 DUP2 CALLDATALOAD SWAP1 POP PUSH2 0x5EF DUP2 PUSH2 0xBFE JUMP JUMPDEST SWAP3 SWAP2 POP POP JUMP JUMPDEST PUSH1 0x0 PUSH1 0x20 DUP3 DUP5 SUB SLT ISZERO PUSH2 0x60B JUMPI PUSH2 0x60A PUSH2 0xB22 JUMP JUMPDEST JUMPDEST PUSH1 0x0 PUSH2 0x619 DUP5 DUP3 DUP6 ADD PUSH2 0x5E0 JUMP JUMPDEST SWAP2 POP POP SWAP3 SWAP2 POP POP JUMP JUMPDEST PUSH1 0x0 PUSH2 0x62E DUP4 DUP4 PUSH2 0x652 JUMP JUMPDEST PUSH1 0x20 DUP4 ADD SWAP1 POP SWAP3 SWAP2 POP POP JUMP JUMPDEST PUSH1 0x0 PUSH2 0x646 DUP4 DUP4 PUSH2 0x670 JUMP JUMPDEST PUSH1 0x20 DUP4 ADD SWAP1 POP SWAP3 SWAP2 POP POP JUMP JUMPDEST PUSH2 0x65B DUP2 PUSH2 0x9A8 JUMP JUMPDEST DUP3 MSTORE POP POP JUMP JUMPDEST PUSH2 0x66A DUP2 PUSH2 0x9A8 JUMP JUMPDEST DUP3 MSTORE POP POP JUMP JUMPDEST PUSH2 0x679 DUP2 PUSH2 0x9A8 JUMP JUMPDEST DUP3 MSTORE POP POP JUMP JUMPDEST PUSH2 0x688 DUP2 PUSH2 0x996 JUMP JUMPDEST DUP3 MSTORE POP POP JUMP JUMPDEST PUSH1 0x0 PUSH2 0x699 DUP3 PUSH2 0x919 JUMP JUMPDEST PUSH2 0x6A3 DUP2 DUP6 PUSH2 0x949 JUMP JUMPDEST SWAP4 POP PUSH2 0x6AE DUP4 PUSH2 0x8F4 JUMP JUMPDEST DUP1 PUSH1 0x0 JUMPDEST DUP4 DUP2 LT ISZERO PUSH2 0x6DF JUMPI DUP2 MLOAD PUSH2 0x6C6 DUP9 DUP3 PUSH2 0x622 JUMP JUMPDEST SWAP8 POP PUSH2 0x6D1 DUP4 PUSH2 0x92F JUMP JUMPDEST SWAP3 POP POP PUSH1 0x1 DUP2 ADD SWAP1 POP PUSH2 0x6B2 JUMP JUMPDEST POP DUP6 SWAP4 POP POP POP POP SWAP3 SWAP2 POP POP JUMP JUMPDEST PUSH1 0x0 PUSH2 0x6F7 DUP3 PUSH2 0x924 JUMP JUMPDEST PUSH2 0x701 DUP2 DUP6 PUSH2 0x95A JUMP JUMPDEST SWAP4 POP PUSH2 0x70C DUP4 PUSH2 0x904 JUMP JUMPDEST DUP1 PUSH1 0x0 JUMPDEST DUP4 DUP2 LT ISZERO PUSH2 0x744 JUMPI PUSH2 0x721 DUP3 PUSH2 0xB0F JUMP JUMPDEST PUSH2 0x72B DUP9 DUP3 PUSH2 0x63A JUMP JUMPDEST SWAP8 POP PUSH2 0x736 DUP4 PUSH2 0x93C JUMP JUMPDEST SWAP3 POP POP PUSH1 0x1 DUP2 ADD SWAP1 POP PUSH2 0x710 JUMP JUMPDEST POP DUP6 SWAP4 POP POP POP POP SWAP3 SWAP2 POP POP JUMP JUMPDEST PUSH1 0x0 PUSH2 0x75E PUSH1 0x1C DUP4 PUSH2 0x965 JUMP JUMPDEST SWAP2 POP PUSH2 0x769 DUP3 PUSH2 0xB34 JUMP JUMPDEST PUSH1 0x20 DUP3 ADD SWAP1 POP SWAP2 SWAP1 POP JUMP JUMPDEST PUSH1 0x0 PUSH2 0x781 PUSH1 0x19 DUP4 PUSH2 0x965 JUMP JUMPDEST SWAP2 POP PUSH2 0x78C DUP3 PUSH2 0xB5D JUMP JUMPDEST PUSH1 0x20 DUP3 ADD SWAP1 POP SWAP2 SWAP1 POP JUMP JUMPDEST PUSH1 0x0 PUSH2 0x7A4 PUSH1 0x32 DUP4 PUSH2 0x965 JUMP JUMPDEST SWAP2 POP PUSH2 0x7AF DUP3 PUSH2 0xB86 JUMP JUMPDEST PUSH1 0x40 DUP3 ADD SWAP1 POP SWAP2 SWAP1 POP JUMP JUMPDEST PUSH1 0x0 PUSH2 0x7C7 PUSH1 0x13 DUP4 PUSH2 0x965 JUMP JUMPDEST SWAP2 POP PUSH2 0x7D2 DUP3 PUSH2 0xBD5 JUMP JUMPDEST PUSH1 0x20 DUP3 ADD SWAP1 POP SWAP2 SWAP1 POP JUMP JUMPDEST PUSH2 0x7EE PUSH2 0x7E9 DUP3 PUSH2 0x9DA JUMP JUMPDEST PUSH2 0xA47 JUMP JUMPDEST DUP3 MSTORE POP POP JUMP JUMPDEST PUSH1 0x0 PUSH2 0x800 DUP3 DUP6 PUSH2 0x7DD JUMP JUMPDEST PUSH1 0x20 DUP3 ADD SWAP2 POP PUSH2 0x810 DUP3 DUP5 PUSH2 0x6EC JUMP JUMPDEST SWAP2 POP DUP2 SWAP1 POP SWAP4 SWAP3 POP POP POP JUMP JUMPDEST PUSH1 0x0 PUSH1 0x20 DUP3 ADD SWAP1 POP PUSH2 0x831 PUSH1 0x0 DUP4 ADD DUP5 PUSH2 0x67F JUMP JUMPDEST SWAP3 SWAP2 POP POP JUMP JUMPDEST PUSH1 0x0 PUSH1 0x20 DUP3 ADD SWAP1 POP PUSH2 0x84C PUSH1 0x0 DUP4 ADD DUP5 PUSH2 0x661 JUMP JUMPDEST SWAP3 SWAP2 POP POP JUMP JUMPDEST PUSH1 0x0 PUSH1 0x20 DUP3 ADD SWAP1 POP DUP2 DUP2 SUB PUSH1 0x0 DUP4 ADD MSTORE PUSH2 0x86C DUP2 DUP5 PUSH2 0x68E JUMP JUMPDEST SWAP1 POP SWAP3 SWAP2 POP POP JUMP JUMPDEST PUSH1 0x0 PUSH1 0x20 DUP3 ADD SWAP1 POP DUP2 DUP2 SUB PUSH1 0x0 DUP4 ADD MSTORE PUSH2 0x88D DUP2 PUSH2 0x751 JUMP JUMPDEST SWAP1 POP SWAP2 SWAP1 POP JUMP JUMPDEST PUSH1 0x0 PUSH1 0x20 DUP3 ADD SWAP1 POP DUP2 DUP2 SUB PUSH1 0x0 DUP4 ADD MSTORE PUSH2 0x8AD DUP2 PUSH2 0x774 JUMP JUMPDEST SWAP1 POP SWAP2 SWAP1 POP JUMP JUMPDEST PUSH1 0x0 PUSH1 0x20 DUP3 ADD SWAP1 POP DUP2 DUP2 SUB PUSH1 0x0 DUP4 ADD MSTORE PUSH2 0x8CD DUP2 PUSH2 0x797 JUMP JUMPDEST SWAP1 POP SWAP2 SWAP1 POP JUMP JUMPDEST PUSH1 0x0 PUSH1 0x20 DUP3 ADD SWAP1 POP DUP2 DUP2 SUB PUSH1 0x0 DUP4 ADD MSTORE PUSH2 0x8ED DUP2 PUSH2 0x7BA JUMP JUMPDEST SWAP1 POP SWAP2 SWAP1 POP JUMP JUMPDEST PUSH1 0x0 DUP2 SWAP1 POP PUSH1 0x20 DUP3 ADD SWAP1 POP SWAP2 SWAP1 POP JUMP JUMPDEST PUSH1 0x0 DUP2 SWAP1 POP DUP2 PUSH1 0x0 MSTORE PUSH1 0x20 PUSH1 0x0 KECCAK256 SWAP1 POP SWAP2 SWAP1 POP JUMP JUMPDEST PUSH1 0x0 DUP2 MLOAD SWAP1 POP SWAP2 SWAP1 POP JUMP JUMPDEST PUSH1 0x0 DUP2 SLOAD SWAP1 POP SWAP2 SWAP1 POP JUMP JUMPDEST PUSH1 0x0 PUSH1 0x20 DUP3 ADD SWAP1 POP SWAP2 SWAP1 POP JUMP JUMPDEST PUSH1 0x0 PUSH1 0x1 DUP3 ADD SWAP1 POP SWAP2 SWAP1 POP JUMP JUMPDEST PUSH1 0x0 DUP3 DUP3 MSTORE PUSH1 0x20 DUP3 ADD SWAP1 POP SWAP3 SWAP2 POP POP JUMP JUMPDEST PUSH1 0x0 DUP2 SWAP1 POP SWAP3 SWAP2 POP POP JUMP JUMPDEST PUSH1 0x0 DUP3 DUP3 MSTORE PUSH1 0x20 DUP3 ADD SWAP1 POP SWAP3 SWAP2 POP POP JUMP JUMPDEST PUSH1 0x0 PUSH20 0xFFFFFFFFFFFFFFFFFFFFFFFFFFFFFFFFFFFFFFFF DUP3 AND SWAP1 POP SWAP2 SWAP1 POP JUMP JUMPDEST PUSH1 0x0 PUSH2 0x9A1 DUP3 PUSH2 0x9BA JUMP JUMPDEST SWAP1 POP SWAP2 SWAP1 POP JUMP JUMPDEST PUSH1 0x0 PUSH2 0x9B3 DUP3 PUSH2 0x9BA JUMP JUMPDEST SWAP1 POP SWAP2 SWAP1 POP JUMP JUMPDEST PUSH1 0x0 PUSH20 0xFFFFFFFFFFFFFFFFFFFFFFFFFFFFFFFFFFFFFFFF DUP3 AND SWAP1 POP SWAP2 SWAP1 POP JUMP JUMPDEST PUSH1 0x0 DUP2 SWAP1 POP SWAP2 SWAP1 POP JUMP JUMPDEST PUSH1 0x0 PUSH2 0x9F7 PUSH2 0x9F2 DUP4 PUSH2 0xB27 JUMP JUMPDEST PUSH2 0x976 JUMP JUMPDEST SWAP1 POP SWAP2 SWAP1 POP JUMP JUMPDEST PUSH1 0x0 PUSH2 0xA09 DUP3 PUSH2 0x9DA JUMP JUMPDEST SWAP2 POP PUSH32 0xFFFFFFFFFFFFFFFFFFFFFFFFFFFFFFFFFFFFFFFFFFFFFFFFFFFFFFFFFFFFFFFF DUP3 EQ ISZERO PUSH2 0xA3C JUMPI PUSH2 0xA3B PUSH2 0xA82 JUMP JUMPDEST JUMPDEST PUSH1 0x1 DUP3 ADD SWAP1 POP SWAP2 SWAP1 POP JUMP JUMPDEST PUSH1 0x0 DUP2 SWAP1 POP SWAP2 SWAP1 POP JUMP JUMPDEST PUSH1 0x0 PUSH2 0xA5C DUP3 PUSH2 0x9DA JUMP JUMPDEST SWAP2 POP PUSH2 0xA67 DUP4 PUSH2 0x9DA JUMP JUMPDEST SWAP3 POP DUP3 PUSH2 0xA77 JUMPI PUSH2 0xA76 PUSH2 0xAB1 JUMP JUMPDEST JUMPDEST DUP3 DUP3 MOD SWAP1 POP SWAP3 SWAP2 POP POP JUMP JUMPDEST PUSH32 0x4E487B7100000000000000000000000000000000000000000000000000000000 PUSH1 0x0 MSTORE PUSH1 0x11 PUSH1 0x4 MSTORE PUSH1 0x24 PUSH1 0x0 REVERT JUMPDEST PUSH32 0x4E487B7100000000000000000000000000000000000000000000000000000000 PUSH1 0x0 MSTORE PUSH1 0x12 PUSH1 0x4 MSTORE PUSH1 0x24 PUSH1 0x0 REVERT JUMPDEST PUSH32 0x4E487B7100000000000000000000000000000000000000000000000000000000 PUSH1 0x0 MSTORE PUSH1 0x32 PUSH1 0x4 MSTORE PUSH1 0x24 PUSH1 0x0 REVERT JUMPDEST PUSH1 0x0 PUSH2 0xB1B DUP3 SLOAD PUSH2 0x9E4 JUMP JUMPDEST SWAP1 POP SWAP2 SWAP1 POP JUMP JUMPDEST PUSH1 0x0 DUP1 REVERT JUMPDEST PUSH1 0x0 DUP2 PUSH1 0x0 SHR SWAP1 POP SWAP2 SWAP1 POP JUMP JUMPDEST PUSH32 0x4D696E696D756D20616D6F756E74206D75737420626520706179656400000000 PUSH1 0x0 DUP3 ADD MSTORE POP JUMP JUMPDEST PUSH32 0x506C6179657220616C7265616479207265676973746572656400000000000000 PUSH1 0x0 DUP3 ADD MSTORE POP JUMP JUMPDEST PUSH32 0x556E617574686F72697A656420506572736F6E2E204F6E6C79206D616E616765 PUSH1 0x0 DUP3 ADD MSTORE PUSH32 0x722063616E207069636B2077696E6E65722E0000000000000000000000000000 PUSH1 0x20 DUP3 ADD MSTORE POP JUMP JUMPDEST PUSH32 0x4D616E616765722063616E277420656E74657200000000000000000000000000 PUSH1 0x0 DUP3 ADD MSTORE POP JUMP JUMPDEST PUSH2 0xC07 DUP2 PUSH2 0x9DA JUMP JUMPDEST DUP2 EQ PUSH2 0xC12 JUMPI PUSH1 0x0 DUP1 REVERT JUMPDEST POP JUMP INVALID LOG2 PUSH5 0x6970667358 0x22 SLT KECCAK256 PUSH31 0xB94AE5F92F8FA5A5B016C2532E664B68D0259B6F8E371CF5FD1A828841B7FD PUSH5 0x736F6C6343 STOP ADDMOD SMOD STOP CALLER "
				},
				"gasEstimates": {
					"creation": {
						"codeDepositCost": "629400",
						"executionCost": "24930",
						"totalCost": "654330"
					},
					"external": {
						"enter()": "infinite",
						"manager()": "2489",
						"pickWinner()": "infinite",
						"players(uint256)": "5022",
						"showPlayer()": "infinite"
					},
					"internal": {
						"alreadyEntered()": "infinite",
						"findWinnerIndex()": "infinite"
					}
				},
				"methodIdentifiers": {
					"enter()": "e97dcb62",
					"manager()": "481c6a75",
					"pickWinner()": "5d495aea",
					"players(uint256)": "f71d96cb",
					"showPlayer()": "87997d94"
				}
			},
			"storageLayout": {
				"storage": [
					{
						"astId": 3,
						"contract": "contracts/lottery.sol:Lottery",
						"label": "manager",
						"offset": 0,
						"slot": "0",
						"type": "t_address"
					},
					{
						"astId": 6,
						"contract": "contracts/lottery.sol:Lottery",
						"label": "players",
						"offset": 0,
						"slot": "1",
						"type": "t_array(t_address_payable)dyn_storage"
					}
				],
				"types": {
					"t_address": {
						"encoding": "inplace",
						"label": "address",
						"numberOfBytes": "20"
					},
					"t_address_payable": {
						"encoding": "inplace",
						"label": "address payable",
						"numberOfBytes": "20"
					},
					"t_array(t_address_payable)dyn_storage": {
						"base": "t_address_payable",
						"encoding": "dynamic_array",
						"label": "address payable[]",
						"numberOfBytes": "32"
					}
				}
			},
			"userdoc": {
				"kind": "user",
				"methods": {},
				"version": 1
			}
		}
	}
}