{
	"contracts/lottery.sol": {
		"Lottery": {
			"abi": [
				{
					"inputs": [],
					"stateMutability": "nonpayable",
					"type": "constructor"
				},
				{
					"inputs": [],
					"name": "enter",
					"outputs": [],
					"stateMutability": "payable",
					"type": "function"
				},
				{
					"inputs": [],
					"name": "manager",
					"outputs": [
						{
							"internalType": "address",
							"name": "",
							"type": "address"
						}
					],
					"stateMutability": "view",
					"type": "function"
				},
				{
					"inputs": [],
					"name": "pickWinner",
					"outputs": [],
					"stateMutability": "nonpayable",
					"type": "function"
				},
				{
					"inputs": [],
					"name": "showPlayer",
					"outputs": [
						{
							"internalType": "address payable[]",
							"name": "",
							"type": "address[]"
						}
					],
					"stateMutability": "view",
					"type": "function"
				}
			],
			"devdoc": {
				"kind": "dev",
				"methods": {},
				"version": 1
			},
			"evm": {
				"assembly": "    /* \"contracts/lottery.sol\":58:1433  contract Lottery{\r... */\n  mstore(0x40, 0x80)\n    /* \"contracts/lottery.sol\":144:196  constructor(){\r... */\n  callvalue\n  dup1\n  iszero\n  tag_1\n  jumpi\n  0x00\n  dup1\n  revert\ntag_1:\n  pop\n    /* \"contracts/lottery.sol\":178:188  msg.sender */\n  caller\n    /* \"contracts/lottery.sol\":168:175  manager */\n  0x00\n  dup1\n    /* \"contracts/lottery.sol\":168:188  manager = msg.sender */\n  0x0100\n  exp\n  dup2\n  sload\n  dup2\n  0xffffffffffffffffffffffffffffffffffffffff\n  mul\n  not\n  and\n  swap1\n  dup4\n  0xffffffffffffffffffffffffffffffffffffffff\n  and\n  mul\n  or\n  swap1\n  sstore\n  pop\n    /* \"contracts/lottery.sol\":58:1433  contract Lottery{\r... */\n  dataSize(sub_0)\n  dup1\n  dataOffset(sub_0)\n  0x00\n  codecopy\n  0x00\n  return\nstop\n\nsub_0: assembly {\n        /* \"contracts/lottery.sol\":58:1433  contract Lottery{\r... */\n      mstore(0x40, 0x80)\n      jumpi(tag_1, lt(calldatasize, 0x04))\n      shr(0xe0, calldataload(0x00))\n      dup1\n      0x481c6a75\n      eq\n      tag_2\n      jumpi\n      dup1\n      0x5d495aea\n      eq\n      tag_3\n      jumpi\n      dup1\n      0x87997d94\n      eq\n      tag_4\n      jumpi\n      dup1\n      0xe97dcb62\n      eq\n      tag_5\n      jumpi\n    tag_1:\n      0x00\n      dup1\n      revert\n        /* \"contracts/lottery.sol\":81:103  address public manager */\n    tag_2:\n      callvalue\n      dup1\n      iszero\n      tag_6\n      jumpi\n      0x00\n      dup1\n      revert\n    tag_6:\n      pop\n      tag_7\n      tag_8\n      jump\t// in\n    tag_7:\n      mload(0x40)\n      tag_9\n      swap2\n      swap1\n      tag_10\n      jump\t// in\n    tag_9:\n      mload(0x40)\n      dup1\n      swap2\n      sub\n      swap1\n      return\n        /* \"contracts/lottery.sol\":1016:1286  function pickWinner() public \r... */\n    tag_3:\n      callvalue\n      dup1\n      iszero\n      tag_11\n      jumpi\n      0x00\n      dup1\n      revert\n    tag_11:\n      pop\n      tag_12\n      tag_13\n      jump\t// in\n    tag_12:\n      stop\n        /* \"contracts/lottery.sol\":1317:1420  function showPlayer() view public returns (address payable [] memory ){\r... */\n    tag_4:\n      callvalue\n      dup1\n      iszero\n      tag_14\n      jumpi\n      0x00\n      dup1\n      revert\n    tag_14:\n      pop\n      tag_15\n      tag_16\n      jump\t// in\n    tag_15:\n      mload(0x40)\n      tag_17\n      swap2\n      swap1\n      tag_18\n      jump\t// in\n    tag_17:\n      mload(0x40)\n      dup1\n      swap2\n      sub\n      swap1\n      return\n        /* \"contracts/lottery.sol\":229:514  function enter() public payable{\r... */\n    tag_5:\n      tag_19\n      tag_20\n      jump\t// in\n    tag_19:\n      stop\n        /* \"contracts/lottery.sol\":81:103  address public manager */\n    tag_8:\n      0x00\n      dup1\n      sload\n      swap1\n      0x0100\n      exp\n      swap1\n      div\n      0xffffffffffffffffffffffffffffffffffffffff\n      and\n      dup2\n      jump\t// out\n        /* \"contracts/lottery.sol\":1016:1286  function pickWinner() public \r... */\n    tag_13:\n        /* \"contracts/lottery.sol\":1082:1089  manager */\n      0x00\n      dup1\n      sload\n      swap1\n      0x0100\n      exp\n      swap1\n      div\n      0xffffffffffffffffffffffffffffffffffffffff\n      and\n        /* \"contracts/lottery.sol\":1070:1089  msg.sender==manager */\n      0xffffffffffffffffffffffffffffffffffffffff\n      and\n        /* \"contracts/lottery.sol\":1070:1080  msg.sender */\n      caller\n        /* \"contracts/lottery.sol\":1070:1089  msg.sender==manager */\n      0xffffffffffffffffffffffffffffffffffffffff\n      and\n      eq\n        /* \"contracts/lottery.sol\":1062:1143  require(msg.sender==manager,\"Unauthorized Person. Only manager can pick winner.\") */\n      tag_22\n      jumpi\n      mload(0x40)\n      0x08c379a000000000000000000000000000000000000000000000000000000000\n      dup2\n      mstore\n      0x04\n      add\n      tag_23\n      swap1\n      tag_24\n      jump\t// in\n    tag_23:\n      mload(0x40)\n      dup1\n      swap2\n      sub\n      swap1\n      revert\n    tag_22:\n        /* \"contracts/lottery.sol\":1154:1170  uint winnerIndex */\n      0x00\n        /* \"contracts/lottery.sol\":1173:1190  findWinnerIndex() */\n      tag_25\n        /* \"contracts/lottery.sol\":1173:1188  findWinnerIndex */\n      tag_26\n        /* \"contracts/lottery.sol\":1173:1190  findWinnerIndex() */\n      jump\t// in\n    tag_25:\n        /* \"contracts/lottery.sol\":1154:1190  uint winnerIndex = findWinnerIndex() */\n      swap1\n      pop\n        /* \"contracts/lottery.sol\":1201:1208  players */\n      0x01\n        /* \"contracts/lottery.sol\":1209:1220  winnerIndex */\n      dup2\n        /* \"contracts/lottery.sol\":1201:1221  players[winnerIndex] */\n      dup2\n      sload\n      dup2\n      lt\n      tag_27\n      jumpi\n      tag_28\n      tag_29\n      jump\t// in\n    tag_28:\n    tag_27:\n      swap1\n      0x00\n      mstore\n      keccak256(0x00, 0x20)\n      add\n      0x00\n      swap1\n      sload\n      swap1\n      0x0100\n      exp\n      swap1\n      div\n      0xffffffffffffffffffffffffffffffffffffffff\n      and\n        /* \"contracts/lottery.sol\":1201:1230  players[winnerIndex].transfer */\n      0xffffffffffffffffffffffffffffffffffffffff\n      and\n        /* \"contracts/lottery.sol\":1201:1253  players[winnerIndex].transfer(address(this).balance) */\n      0x08fc\n        /* \"contracts/lottery.sol\":1231:1252  address(this).balance */\n      selfbalance\n        /* \"contracts/lottery.sol\":1201:1253  players[winnerIndex].transfer(address(this).balance) */\n      swap1\n      dup2\n      iszero\n      mul\n      swap1\n      mload(0x40)\n      0x00\n      mload(0x40)\n      dup1\n      dup4\n      sub\n      dup2\n      dup6\n      dup9\n      dup9\n      call\n      swap4\n      pop\n      pop\n      pop\n      pop\n      iszero\n      dup1\n      iszero\n      tag_32\n      jumpi\n      returndatasize\n      0x00\n      dup1\n      returndatacopy\n      revert(0x00, returndatasize)\n    tag_32:\n      pop\n        /* \"contracts/lottery.sol\":1271:1278  players */\n      0x01\n      0x00\n        /* \"contracts/lottery.sol\":1264:1278  delete players */\n      tag_33\n      swap2\n      swap1\n      tag_34\n      jump\t// in\n    tag_33:\n        /* \"contracts/lottery.sol\":1051:1286  {\r... */\n      pop\n        /* \"contracts/lottery.sol\":1016:1286  function pickWinner() public \r... */\n      jump\t// out\n        /* \"contracts/lottery.sol\":1317:1420  function showPlayer() view public returns (address payable [] memory ){\r... */\n    tag_16:\n        /* \"contracts/lottery.sol\":1360:1385  address payable [] memory */\n      0x60\n        /* \"contracts/lottery.sol\":1405:1412  players */\n      0x01\n        /* \"contracts/lottery.sol\":1398:1412  return players */\n      dup1\n      sload\n      dup1\n      0x20\n      mul\n      0x20\n      add\n      mload(0x40)\n      swap1\n      dup2\n      add\n      0x40\n      mstore\n      dup1\n      swap3\n      swap2\n      swap1\n      dup2\n      dup2\n      mstore\n      0x20\n      add\n      dup3\n      dup1\n      sload\n      dup1\n      iszero\n      tag_36\n      jumpi\n      0x20\n      mul\n      dup3\n      add\n      swap2\n      swap1\n      0x00\n      mstore\n      keccak256(0x00, 0x20)\n      swap1\n    tag_37:\n      dup2\n      0x00\n      swap1\n      sload\n      swap1\n      0x0100\n      exp\n      swap1\n      div\n      0xffffffffffffffffffffffffffffffffffffffff\n      and\n      0xffffffffffffffffffffffffffffffffffffffff\n      and\n      dup2\n      mstore\n      0x20\n      add\n      swap1\n      0x01\n      add\n      swap1\n      dup1\n      dup4\n      gt\n      tag_37\n      jumpi\n    tag_36:\n      pop\n      pop\n      pop\n      pop\n      pop\n      swap1\n      pop\n        /* \"contracts/lottery.sol\":1317:1420  function showPlayer() view public returns (address payable [] memory ){\r... */\n      swap1\n      jump\t// out\n        /* \"contracts/lottery.sol\":229:514  function enter() public payable{\r... */\n    tag_20:\n        /* \"contracts/lottery.sol\":292:299  manager */\n      0x00\n      dup1\n      sload\n      swap1\n      0x0100\n      exp\n      swap1\n      div\n      0xffffffffffffffffffffffffffffffffffffffff\n      and\n        /* \"contracts/lottery.sol\":279:299  msg.sender !=manager */\n      0xffffffffffffffffffffffffffffffffffffffff\n      and\n        /* \"contracts/lottery.sol\":279:289  msg.sender */\n      caller\n        /* \"contracts/lottery.sol\":279:299  msg.sender !=manager */\n      0xffffffffffffffffffffffffffffffffffffffff\n      and\n      eq\n      iszero\n        /* \"contracts/lottery.sol\":271:322  require(msg.sender !=manager,\"Manager can't enter\") */\n      tag_39\n      jumpi\n      mload(0x40)\n      0x08c379a000000000000000000000000000000000000000000000000000000000\n      dup2\n      mstore\n      0x04\n      add\n      tag_40\n      swap1\n      tag_41\n      jump\t// in\n    tag_40:\n      mload(0x40)\n      dup1\n      swap2\n      sub\n      swap1\n      revert\n    tag_39:\n        /* \"contracts/lottery.sol\":359:364  false */\n      0x00\n        /* \"contracts/lottery.sol\":341:364  alreadyEntered()==false */\n      iszero\n      iszero\n        /* \"contracts/lottery.sol\":341:357  alreadyEntered() */\n      tag_42\n        /* \"contracts/lottery.sol\":341:355  alreadyEntered */\n      tag_43\n        /* \"contracts/lottery.sol\":341:357  alreadyEntered() */\n      jump\t// in\n    tag_42:\n        /* \"contracts/lottery.sol\":341:364  alreadyEntered()==false */\n      iszero\n      iszero\n      eq\n        /* \"contracts/lottery.sol\":333:393  require(alreadyEntered()==false,\"Player already registered\") */\n      tag_44\n      jumpi\n      mload(0x40)\n      0x08c379a000000000000000000000000000000000000000000000000000000000\n      dup2\n      mstore\n      0x04\n      add\n      tag_45\n      swap1\n      tag_46\n      jump\t// in\n    tag_45:\n      mload(0x40)\n      dup1\n      swap2\n      sub\n      swap1\n      revert\n    tag_44:\n        /* \"contracts/lottery.sol\":423:430  1 ether */\n      0x0de0b6b3a7640000\n        /* \"contracts/lottery.sol\":412:421  msg.value */\n      callvalue\n        /* \"contracts/lottery.sol\":412:430  msg.value>=1 ether */\n      lt\n      iszero\n        /* \"contracts/lottery.sol\":404:462  require(msg.value>=1 ether,\"Minimum amount must be payed\") */\n      tag_47\n      jumpi\n      mload(0x40)\n      0x08c379a000000000000000000000000000000000000000000000000000000000\n      dup2\n      mstore\n      0x04\n      add\n      tag_48\n      swap1\n      tag_49\n      jump\t// in\n    tag_48:\n      mload(0x40)\n      dup1\n      swap2\n      sub\n      swap1\n      revert\n    tag_47:\n        /* \"contracts/lottery.sol\":473:480  players */\n      0x01\n        /* \"contracts/lottery.sol\":494:504  msg.sender */\n      caller\n        /* \"contracts/lottery.sol\":473:506  players.push(payable(msg.sender)) */\n      swap1\n      dup1\n      0x01\n      dup2\n      sload\n      add\n      dup1\n      dup3\n      sstore\n      dup1\n      swap2\n      pop\n      pop\n      0x01\n      swap1\n      sub\n      swap1\n      0x00\n      mstore\n      keccak256(0x00, 0x20)\n      add\n      0x00\n      swap1\n      swap2\n      swap1\n      swap2\n      swap1\n      swap2\n      0x0100\n      exp\n      dup2\n      sload\n      dup2\n      0xffffffffffffffffffffffffffffffffffffffff\n      mul\n      not\n      and\n      swap1\n      dup4\n      0xffffffffffffffffffffffffffffffffffffffff\n      and\n      mul\n      or\n      swap1\n      sstore\n      pop\n        /* \"contracts/lottery.sol\":229:514  function enter() public payable{\r... */\n      jump\t// out\n        /* \"contracts/lottery.sol\":814:967  function findWinnerIndex() private view returns(uint) {\r... */\n    tag_26:\n        /* \"contracts/lottery.sol\":862:866  uint */\n      0x00\n        /* \"contracts/lottery.sol\":945:952  players */\n      0x01\n        /* \"contracts/lottery.sol\":945:959  players.length */\n      dup1\n      sload\n      swap1\n      pop\n        /* \"contracts/lottery.sol\":915:931  block.difficulty */\n      difficulty\n        /* \"contracts/lottery.sol\":933:940  players */\n      0x01\n        /* \"contracts/lottery.sol\":898:941  abi.encodePacked(block.difficulty, players) */\n      add(0x20, mload(0x40))\n      tag_52\n      swap3\n      swap2\n      swap1\n      tag_53\n      jump\t// in\n    tag_52:\n      mload(0x40)\n      0x20\n      dup2\n      dup4\n      sub\n      sub\n      dup2\n      mstore\n      swap1\n      0x40\n      mstore\n        /* \"contracts/lottery.sol\":888:942  keccak256(abi.encodePacked(block.difficulty, players)) */\n      dup1\n      mload\n      swap1\n      0x20\n      add\n      keccak256\n        /* \"contracts/lottery.sol\":883:943  uint(keccak256(abi.encodePacked(block.difficulty, players))) */\n      0x00\n      shr\n        /* \"contracts/lottery.sol\":883:959  uint(keccak256(abi.encodePacked(block.difficulty, players))) %players.length */\n      tag_54\n      swap2\n      swap1\n      tag_55\n      jump\t// in\n    tag_54:\n        /* \"contracts/lottery.sol\":876:959  return uint(keccak256(abi.encodePacked(block.difficulty, players))) %players.length */\n      swap1\n      pop\n        /* \"contracts/lottery.sol\":814:967  function findWinnerIndex() private view returns(uint) {\r... */\n      swap1\n      jump\t// out\n        /* \"contracts/lottery.sol\":563:788  function alreadyEntered() private view returns (bool)\r... */\n    tag_43:\n        /* \"contracts/lottery.sol\":611:615  bool */\n      0x00\n        /* \"contracts/lottery.sol\":637:643  uint i */\n      dup1\n        /* \"contracts/lottery.sol\":644:645  0 */\n      0x00\n        /* \"contracts/lottery.sol\":637:645  uint i=0 */\n      swap1\n      pop\n        /* \"contracts/lottery.sol\":633:758  for(uint i=0; i<players.length; i++)\r... */\n    tag_57:\n        /* \"contracts/lottery.sol\":649:656  players */\n      0x01\n        /* \"contracts/lottery.sol\":649:663  players.length */\n      dup1\n      sload\n      swap1\n      pop\n        /* \"contracts/lottery.sol\":647:648  i */\n      dup2\n        /* \"contracts/lottery.sol\":647:663  i<players.length */\n      lt\n        /* \"contracts/lottery.sol\":633:758  for(uint i=0; i<players.length; i++)\r... */\n      iszero\n      tag_58\n      jumpi\n        /* \"contracts/lottery.sol\":709:719  msg.sender */\n      caller\n        /* \"contracts/lottery.sol\":697:719  players[i]==msg.sender */\n      0xffffffffffffffffffffffffffffffffffffffff\n      and\n        /* \"contracts/lottery.sol\":697:704  players */\n      0x01\n        /* \"contracts/lottery.sol\":705:706  i */\n      dup3\n        /* \"contracts/lottery.sol\":697:707  players[i] */\n      dup2\n      sload\n      dup2\n      lt\n      tag_60\n      jumpi\n      tag_61\n      tag_29\n      jump\t// in\n    tag_61:\n    tag_60:\n      swap1\n      0x00\n      mstore\n      keccak256(0x00, 0x20)\n      add\n      0x00\n      swap1\n      sload\n      swap1\n      0x0100\n      exp\n      swap1\n      div\n      0xffffffffffffffffffffffffffffffffffffffff\n      and\n        /* \"contracts/lottery.sol\":697:719  players[i]==msg.sender */\n      0xffffffffffffffffffffffffffffffffffffffff\n      and\n      eq\n        /* \"contracts/lottery.sol\":694:746  if(players[i]==msg.sender)\r... */\n      iszero\n      tag_63\n      jumpi\n        /* \"contracts/lottery.sol\":742:746  true */\n      0x01\n        /* \"contracts/lottery.sol\":735:746  return true */\n      swap2\n      pop\n      pop\n      jump(tag_56)\n        /* \"contracts/lottery.sol\":694:746  if(players[i]==msg.sender)\r... */\n    tag_63:\n        /* \"contracts/lottery.sol\":665:668  i++ */\n      dup1\n      dup1\n      tag_64\n      swap1\n      tag_65\n      jump\t// in\n    tag_64:\n      swap2\n      pop\n      pop\n        /* \"contracts/lottery.sol\":633:758  for(uint i=0; i<players.length; i++)\r... */\n      jump(tag_57)\n    tag_58:\n      pop\n        /* \"contracts/lottery.sol\":775:780  false */\n      0x00\n        /* \"contracts/lottery.sol\":768:780  return false */\n      swap1\n      pop\n        /* \"contracts/lottery.sol\":563:788  function alreadyEntered() private view returns (bool)\r... */\n    tag_56:\n      swap1\n      jump\t// out\n    tag_34:\n      pop\n      dup1\n      sload\n      0x00\n      dup3\n      sstore\n      swap1\n      0x00\n      mstore\n      keccak256(0x00, 0x20)\n      swap1\n      dup2\n      add\n      swap1\n      tag_67\n      swap2\n      swap1\n      tag_68\n      jump\t// in\n    tag_67:\n      pop\n      jump\t// out\n    tag_68:\n    tag_69:\n      dup1\n      dup3\n      gt\n      iszero\n      tag_70\n      jumpi\n      0x00\n      dup2\n      0x00\n      swap1\n      sstore\n      pop\n      0x01\n      add\n      jump(tag_69)\n    tag_70:\n      pop\n      swap1\n      jump\t// out\n        /* \"#utility.yul\":7:218   */\n    tag_72:\n        /* \"#utility.yul\":92:102   */\n      0x00\n        /* \"#utility.yul\":113:175   */\n      tag_74\n        /* \"#utility.yul\":171:174   */\n      dup4\n        /* \"#utility.yul\":163:169   */\n      dup4\n        /* \"#utility.yul\":113:175   */\n      tag_75\n      jump\t// in\n    tag_74:\n        /* \"#utility.yul\":207:211   */\n      0x20\n        /* \"#utility.yul\":202:205   */\n      dup4\n        /* \"#utility.yul\":198:212   */\n      add\n        /* \"#utility.yul\":184:212   */\n      swap1\n      pop\n        /* \"#utility.yul\":7:218   */\n      swap3\n      swap2\n      pop\n      pop\n      jump\t// out\n        /* \"#utility.yul\":224:451   */\n    tag_76:\n        /* \"#utility.yul\":317:327   */\n      0x00\n        /* \"#utility.yul\":338:408   */\n      tag_78\n        /* \"#utility.yul\":404:407   */\n      dup4\n        /* \"#utility.yul\":396:402   */\n      dup4\n        /* \"#utility.yul\":338:408   */\n      tag_79\n      jump\t// in\n    tag_78:\n        /* \"#utility.yul\":440:444   */\n      0x20\n        /* \"#utility.yul\":435:438   */\n      dup4\n        /* \"#utility.yul\":431:445   */\n      add\n        /* \"#utility.yul\":417:445   */\n      swap1\n      pop\n        /* \"#utility.yul\":224:451   */\n      swap3\n      swap2\n      pop\n      pop\n      jump\t// out\n        /* \"#utility.yul\":457:589   */\n    tag_75:\n        /* \"#utility.yul\":550:582   */\n      tag_81\n        /* \"#utility.yul\":576:581   */\n      dup2\n        /* \"#utility.yul\":550:582   */\n      tag_82\n      jump\t// in\n    tag_81:\n        /* \"#utility.yul\":545:548   */\n      dup3\n        /* \"#utility.yul\":538:583   */\n      mstore\n        /* \"#utility.yul\":457:589   */\n      pop\n      pop\n      jump\t// out\n        /* \"#utility.yul\":595:735   */\n    tag_79:\n        /* \"#utility.yul\":696:728   */\n      tag_84\n        /* \"#utility.yul\":722:727   */\n      dup2\n        /* \"#utility.yul\":696:728   */\n      tag_82\n      jump\t// in\n    tag_84:\n        /* \"#utility.yul\":691:694   */\n      dup3\n        /* \"#utility.yul\":684:729   */\n      mstore\n        /* \"#utility.yul\":595:735   */\n      pop\n      pop\n      jump\t// out\n        /* \"#utility.yul\":741:859   */\n    tag_85:\n        /* \"#utility.yul\":828:852   */\n      tag_87\n        /* \"#utility.yul\":846:851   */\n      dup2\n        /* \"#utility.yul\":828:852   */\n      tag_88\n      jump\t// in\n    tag_87:\n        /* \"#utility.yul\":823:826   */\n      dup3\n        /* \"#utility.yul\":816:853   */\n      mstore\n        /* \"#utility.yul\":741:859   */\n      pop\n      pop\n      jump\t// out\n        /* \"#utility.yul\":911:1707   */\n    tag_89:\n        /* \"#utility.yul\":1046:1049   */\n      0x00\n        /* \"#utility.yul\":1075:1137   */\n      tag_91\n        /* \"#utility.yul\":1131:1136   */\n      dup3\n        /* \"#utility.yul\":1075:1137   */\n      tag_92\n      jump\t// in\n    tag_91:\n        /* \"#utility.yul\":1153:1247   */\n      tag_93\n        /* \"#utility.yul\":1240:1246   */\n      dup2\n        /* \"#utility.yul\":1235:1238   */\n      dup6\n        /* \"#utility.yul\":1153:1247   */\n      tag_94\n      jump\t// in\n    tag_93:\n        /* \"#utility.yul\":1146:1247   */\n      swap4\n      pop\n        /* \"#utility.yul\":1271:1335   */\n      tag_95\n        /* \"#utility.yul\":1329:1334   */\n      dup4\n        /* \"#utility.yul\":1271:1335   */\n      tag_96\n      jump\t// in\n    tag_95:\n        /* \"#utility.yul\":1358:1365   */\n      dup1\n        /* \"#utility.yul\":1389:1390   */\n      0x00\n        /* \"#utility.yul\":1374:1682   */\n    tag_97:\n        /* \"#utility.yul\":1399:1405   */\n      dup4\n        /* \"#utility.yul\":1396:1397   */\n      dup2\n        /* \"#utility.yul\":1393:1406   */\n      lt\n        /* \"#utility.yul\":1374:1682   */\n      iszero\n      tag_99\n      jumpi\n        /* \"#utility.yul\":1475:1481   */\n      dup2\n        /* \"#utility.yul\":1469:1482   */\n      mload\n        /* \"#utility.yul\":1502:1581   */\n      tag_100\n        /* \"#utility.yul\":1577:1580   */\n      dup9\n        /* \"#utility.yul\":1562:1575   */\n      dup3\n        /* \"#utility.yul\":1502:1581   */\n      tag_72\n      jump\t// in\n    tag_100:\n        /* \"#utility.yul\":1495:1581   */\n      swap8\n      pop\n        /* \"#utility.yul\":1604:1672   */\n      tag_101\n        /* \"#utility.yul\":1665:1671   */\n      dup4\n        /* \"#utility.yul\":1604:1672   */\n      tag_102\n      jump\t// in\n    tag_101:\n        /* \"#utility.yul\":1594:1672   */\n      swap3\n      pop\n        /* \"#utility.yul\":1434:1682   */\n      pop\n        /* \"#utility.yul\":1421:1422   */\n      0x01\n        /* \"#utility.yul\":1418:1419   */\n      dup2\n        /* \"#utility.yul\":1414:1423   */\n      add\n        /* \"#utility.yul\":1409:1423   */\n      swap1\n      pop\n        /* \"#utility.yul\":1374:1682   */\n      jump(tag_97)\n    tag_99:\n        /* \"#utility.yul\":1378:1392   */\n      pop\n        /* \"#utility.yul\":1698:1701   */\n      dup6\n        /* \"#utility.yul\":1691:1701   */\n      swap4\n      pop\n        /* \"#utility.yul\":1051:1707   */\n      pop\n      pop\n      pop\n        /* \"#utility.yul\":911:1707   */\n      swap3\n      swap2\n      pop\n      pop\n      jump\t// out\n        /* \"#utility.yul\":1759:2626   */\n    tag_103:\n        /* \"#utility.yul\":1909:1912   */\n      0x00\n        /* \"#utility.yul\":1938:1997   */\n      tag_105\n        /* \"#utility.yul\":1991:1996   */\n      dup3\n        /* \"#utility.yul\":1938:1997   */\n      tag_106\n      jump\t// in\n    tag_105:\n        /* \"#utility.yul\":2013:2125   */\n      tag_107\n        /* \"#utility.yul\":2118:2124   */\n      dup2\n        /* \"#utility.yul\":2113:2116   */\n      dup6\n        /* \"#utility.yul\":2013:2125   */\n      tag_108\n      jump\t// in\n    tag_107:\n        /* \"#utility.yul\":2006:2125   */\n      swap4\n      pop\n        /* \"#utility.yul\":2149:2210   */\n      tag_109\n        /* \"#utility.yul\":2204:2209   */\n      dup4\n        /* \"#utility.yul\":2149:2210   */\n      tag_110\n      jump\t// in\n    tag_109:\n        /* \"#utility.yul\":2233:2240   */\n      dup1\n        /* \"#utility.yul\":2264:2265   */\n      0x00\n        /* \"#utility.yul\":2249:2601   */\n    tag_111:\n        /* \"#utility.yul\":2274:2280   */\n      dup4\n        /* \"#utility.yul\":2271:2272   */\n      dup2\n        /* \"#utility.yul\":2268:2281   */\n      lt\n        /* \"#utility.yul\":2249:2601   */\n      iszero\n      tag_113\n      jumpi\n        /* \"#utility.yul\":2344:2396   */\n      tag_114\n        /* \"#utility.yul\":2389:2395   */\n      dup3\n        /* \"#utility.yul\":2344:2396   */\n      tag_115\n      jump\t// in\n    tag_114:\n        /* \"#utility.yul\":2416:2503   */\n      tag_116\n        /* \"#utility.yul\":2499:2502   */\n      dup9\n        /* \"#utility.yul\":2484:2497   */\n      dup3\n        /* \"#utility.yul\":2416:2503   */\n      tag_76\n      jump\t// in\n    tag_116:\n        /* \"#utility.yul\":2409:2503   */\n      swap8\n      pop\n        /* \"#utility.yul\":2526:2591   */\n      tag_117\n        /* \"#utility.yul\":2584:2590   */\n      dup4\n        /* \"#utility.yul\":2526:2591   */\n      tag_118\n      jump\t// in\n    tag_117:\n        /* \"#utility.yul\":2516:2591   */\n      swap3\n      pop\n        /* \"#utility.yul\":2309:2601   */\n      pop\n        /* \"#utility.yul\":2296:2297   */\n      0x01\n        /* \"#utility.yul\":2293:2294   */\n      dup2\n        /* \"#utility.yul\":2289:2298   */\n      add\n        /* \"#utility.yul\":2284:2298   */\n      swap1\n      pop\n        /* \"#utility.yul\":2249:2601   */\n      jump(tag_111)\n    tag_113:\n        /* \"#utility.yul\":2253:2267   */\n      pop\n        /* \"#utility.yul\":2617:2620   */\n      dup6\n        /* \"#utility.yul\":2610:2620   */\n      swap4\n      pop\n        /* \"#utility.yul\":1914:2626   */\n      pop\n      pop\n      pop\n        /* \"#utility.yul\":1759:2626   */\n      swap3\n      swap2\n      pop\n      pop\n      jump\t// out\n        /* \"#utility.yul\":2632:2998   */\n    tag_119:\n        /* \"#utility.yul\":2774:2777   */\n      0x00\n        /* \"#utility.yul\":2795:2862   */\n      tag_121\n        /* \"#utility.yul\":2859:2861   */\n      0x1c\n        /* \"#utility.yul\":2854:2857   */\n      dup4\n        /* \"#utility.yul\":2795:2862   */\n      tag_122\n      jump\t// in\n    tag_121:\n        /* \"#utility.yul\":2788:2862   */\n      swap2\n      pop\n        /* \"#utility.yul\":2871:2964   */\n      tag_123\n        /* \"#utility.yul\":2960:2963   */\n      dup3\n        /* \"#utility.yul\":2871:2964   */\n      tag_124\n      jump\t// in\n    tag_123:\n        /* \"#utility.yul\":2989:2991   */\n      0x20\n        /* \"#utility.yul\":2984:2987   */\n      dup3\n        /* \"#utility.yul\":2980:2992   */\n      add\n        /* \"#utility.yul\":2973:2992   */\n      swap1\n      pop\n        /* \"#utility.yul\":2632:2998   */\n      swap2\n      swap1\n      pop\n      jump\t// out\n        /* \"#utility.yul\":3004:3370   */\n    tag_125:\n        /* \"#utility.yul\":3146:3149   */\n      0x00\n        /* \"#utility.yul\":3167:3234   */\n      tag_127\n        /* \"#utility.yul\":3231:3233   */\n      0x19\n        /* \"#utility.yul\":3226:3229   */\n      dup4\n        /* \"#utility.yul\":3167:3234   */\n      tag_122\n      jump\t// in\n    tag_127:\n        /* \"#utility.yul\":3160:3234   */\n      swap2\n      pop\n        /* \"#utility.yul\":3243:3336   */\n      tag_128\n        /* \"#utility.yul\":3332:3335   */\n      dup3\n        /* \"#utility.yul\":3243:3336   */\n      tag_129\n      jump\t// in\n    tag_128:\n        /* \"#utility.yul\":3361:3363   */\n      0x20\n        /* \"#utility.yul\":3356:3359   */\n      dup3\n        /* \"#utility.yul\":3352:3364   */\n      add\n        /* \"#utility.yul\":3345:3364   */\n      swap1\n      pop\n        /* \"#utility.yul\":3004:3370   */\n      swap2\n      swap1\n      pop\n      jump\t// out\n        /* \"#utility.yul\":3376:3742   */\n    tag_130:\n        /* \"#utility.yul\":3518:3521   */\n      0x00\n        /* \"#utility.yul\":3539:3606   */\n      tag_132\n        /* \"#utility.yul\":3603:3605   */\n      0x32\n        /* \"#utility.yul\":3598:3601   */\n      dup4\n        /* \"#utility.yul\":3539:3606   */\n      tag_122\n      jump\t// in\n    tag_132:\n        /* \"#utility.yul\":3532:3606   */\n      swap2\n      pop\n        /* \"#utility.yul\":3615:3708   */\n      tag_133\n        /* \"#utility.yul\":3704:3707   */\n      dup3\n        /* \"#utility.yul\":3615:3708   */\n      tag_134\n      jump\t// in\n    tag_133:\n        /* \"#utility.yul\":3733:3735   */\n      0x40\n        /* \"#utility.yul\":3728:3731   */\n      dup3\n        /* \"#utility.yul\":3724:3736   */\n      add\n        /* \"#utility.yul\":3717:3736   */\n      swap1\n      pop\n        /* \"#utility.yul\":3376:3742   */\n      swap2\n      swap1\n      pop\n      jump\t// out\n        /* \"#utility.yul\":3748:4114   */\n    tag_135:\n        /* \"#utility.yul\":3890:3893   */\n      0x00\n        /* \"#utility.yul\":3911:3978   */\n      tag_137\n        /* \"#utility.yul\":3975:3977   */\n      0x13\n        /* \"#utility.yul\":3970:3973   */\n      dup4\n        /* \"#utility.yul\":3911:3978   */\n      tag_122\n      jump\t// in\n    tag_137:\n        /* \"#utility.yul\":3904:3978   */\n      swap2\n      pop\n        /* \"#utility.yul\":3987:4080   */\n      tag_138\n        /* \"#utility.yul\":4076:4079   */\n      dup3\n        /* \"#utility.yul\":3987:4080   */\n      tag_139\n      jump\t// in\n    tag_138:\n        /* \"#utility.yul\":4105:4107   */\n      0x20\n        /* \"#utility.yul\":4100:4103   */\n      dup3\n        /* \"#utility.yul\":4096:4108   */\n      add\n        /* \"#utility.yul\":4089:4108   */\n      swap1\n      pop\n        /* \"#utility.yul\":3748:4114   */\n      swap2\n      swap1\n      pop\n      jump\t// out\n        /* \"#utility.yul\":4120:4277   */\n    tag_140:\n        /* \"#utility.yul\":4225:4270   */\n      tag_142\n        /* \"#utility.yul\":4245:4269   */\n      tag_143\n        /* \"#utility.yul\":4263:4268   */\n      dup3\n        /* \"#utility.yul\":4245:4269   */\n      tag_144\n      jump\t// in\n    tag_143:\n        /* \"#utility.yul\":4225:4270   */\n      tag_145\n      jump\t// in\n    tag_142:\n        /* \"#utility.yul\":4220:4223   */\n      dup3\n        /* \"#utility.yul\":4213:4271   */\n      mstore\n        /* \"#utility.yul\":4120:4277   */\n      pop\n      pop\n      jump\t// out\n        /* \"#utility.yul\":4283:4785   */\n    tag_53:\n        /* \"#utility.yul\":4486:4489   */\n      0x00\n        /* \"#utility.yul\":4501:4576   */\n      tag_147\n        /* \"#utility.yul\":4572:4575   */\n      dup3\n        /* \"#utility.yul\":4563:4569   */\n      dup6\n        /* \"#utility.yul\":4501:4576   */\n      tag_140\n      jump\t// in\n    tag_147:\n        /* \"#utility.yul\":4601:4603   */\n      0x20\n        /* \"#utility.yul\":4596:4599   */\n      dup3\n        /* \"#utility.yul\":4592:4604   */\n      add\n        /* \"#utility.yul\":4585:4604   */\n      swap2\n      pop\n        /* \"#utility.yul\":4621:4759   */\n      tag_148\n        /* \"#utility.yul\":4755:4758   */\n      dup3\n        /* \"#utility.yul\":4746:4752   */\n      dup5\n        /* \"#utility.yul\":4621:4759   */\n      tag_103\n      jump\t// in\n    tag_148:\n        /* \"#utility.yul\":4614:4759   */\n      swap2\n      pop\n        /* \"#utility.yul\":4776:4779   */\n      dup2\n        /* \"#utility.yul\":4769:4779   */\n      swap1\n      pop\n        /* \"#utility.yul\":4283:4785   */\n      swap4\n      swap3\n      pop\n      pop\n      pop\n      jump\t// out\n        /* \"#utility.yul\":4791:5013   */\n    tag_10:\n        /* \"#utility.yul\":4884:4888   */\n      0x00\n        /* \"#utility.yul\":4922:4924   */\n      0x20\n        /* \"#utility.yul\":4911:4920   */\n      dup3\n        /* \"#utility.yul\":4907:4925   */\n      add\n        /* \"#utility.yul\":4899:4925   */\n      swap1\n      pop\n        /* \"#utility.yul\":4935:5006   */\n      tag_150\n        /* \"#utility.yul\":5003:5004   */\n      0x00\n        /* \"#utility.yul\":4992:5001   */\n      dup4\n        /* \"#utility.yul\":4988:5005   */\n      add\n        /* \"#utility.yul\":4979:4985   */\n      dup5\n        /* \"#utility.yul\":4935:5006   */\n      tag_85\n      jump\t// in\n    tag_150:\n        /* \"#utility.yul\":4791:5013   */\n      swap3\n      swap2\n      pop\n      pop\n      jump\t// out\n        /* \"#utility.yul\":5019:5424   */\n    tag_18:\n        /* \"#utility.yul\":5178:5182   */\n      0x00\n        /* \"#utility.yul\":5216:5218   */\n      0x20\n        /* \"#utility.yul\":5205:5214   */\n      dup3\n        /* \"#utility.yul\":5201:5219   */\n      add\n        /* \"#utility.yul\":5193:5219   */\n      swap1\n      pop\n        /* \"#utility.yul\":5265:5274   */\n      dup2\n        /* \"#utility.yul\":5259:5263   */\n      dup2\n        /* \"#utility.yul\":5255:5275   */\n      sub\n        /* \"#utility.yul\":5251:5252   */\n      0x00\n        /* \"#utility.yul\":5240:5249   */\n      dup4\n        /* \"#utility.yul\":5236:5253   */\n      add\n        /* \"#utility.yul\":5229:5276   */\n      mstore\n        /* \"#utility.yul\":5293:5417   */\n      tag_152\n        /* \"#utility.yul\":5412:5416   */\n      dup2\n        /* \"#utility.yul\":5403:5409   */\n      dup5\n        /* \"#utility.yul\":5293:5417   */\n      tag_89\n      jump\t// in\n    tag_152:\n        /* \"#utility.yul\":5285:5417   */\n      swap1\n      pop\n        /* \"#utility.yul\":5019:5424   */\n      swap3\n      swap2\n      pop\n      pop\n      jump\t// out\n        /* \"#utility.yul\":5430:5849   */\n    tag_49:\n        /* \"#utility.yul\":5596:5600   */\n      0x00\n        /* \"#utility.yul\":5634:5636   */\n      0x20\n        /* \"#utility.yul\":5623:5632   */\n      dup3\n        /* \"#utility.yul\":5619:5637   */\n      add\n        /* \"#utility.yul\":5611:5637   */\n      swap1\n      pop\n        /* \"#utility.yul\":5683:5692   */\n      dup2\n        /* \"#utility.yul\":5677:5681   */\n      dup2\n        /* \"#utility.yul\":5673:5693   */\n      sub\n        /* \"#utility.yul\":5669:5670   */\n      0x00\n        /* \"#utility.yul\":5658:5667   */\n      dup4\n        /* \"#utility.yul\":5654:5671   */\n      add\n        /* \"#utility.yul\":5647:5694   */\n      mstore\n        /* \"#utility.yul\":5711:5842   */\n      tag_154\n        /* \"#utility.yul\":5837:5841   */\n      dup2\n        /* \"#utility.yul\":5711:5842   */\n      tag_119\n      jump\t// in\n    tag_154:\n        /* \"#utility.yul\":5703:5842   */\n      swap1\n      pop\n        /* \"#utility.yul\":5430:5849   */\n      swap2\n      swap1\n      pop\n      jump\t// out\n        /* \"#utility.yul\":5855:6274   */\n    tag_46:\n        /* \"#utility.yul\":6021:6025   */\n      0x00\n        /* \"#utility.yul\":6059:6061   */\n      0x20\n        /* \"#utility.yul\":6048:6057   */\n      dup3\n        /* \"#utility.yul\":6044:6062   */\n      add\n        /* \"#utility.yul\":6036:6062   */\n      swap1\n      pop\n        /* \"#utility.yul\":6108:6117   */\n      dup2\n        /* \"#utility.yul\":6102:6106   */\n      dup2\n        /* \"#utility.yul\":6098:6118   */\n      sub\n        /* \"#utility.yul\":6094:6095   */\n      0x00\n        /* \"#utility.yul\":6083:6092   */\n      dup4\n        /* \"#utility.yul\":6079:6096   */\n      add\n        /* \"#utility.yul\":6072:6119   */\n      mstore\n        /* \"#utility.yul\":6136:6267   */\n      tag_156\n        /* \"#utility.yul\":6262:6266   */\n      dup2\n        /* \"#utility.yul\":6136:6267   */\n      tag_125\n      jump\t// in\n    tag_156:\n        /* \"#utility.yul\":6128:6267   */\n      swap1\n      pop\n        /* \"#utility.yul\":5855:6274   */\n      swap2\n      swap1\n      pop\n      jump\t// out\n        /* \"#utility.yul\":6280:6699   */\n    tag_24:\n        /* \"#utility.yul\":6446:6450   */\n      0x00\n        /* \"#utility.yul\":6484:6486   */\n      0x20\n        /* \"#utility.yul\":6473:6482   */\n      dup3\n        /* \"#utility.yul\":6469:6487   */\n      add\n        /* \"#utility.yul\":6461:6487   */\n      swap1\n      pop\n        /* \"#utility.yul\":6533:6542   */\n      dup2\n        /* \"#utility.yul\":6527:6531   */\n      dup2\n        /* \"#utility.yul\":6523:6543   */\n      sub\n        /* \"#utility.yul\":6519:6520   */\n      0x00\n        /* \"#utility.yul\":6508:6517   */\n      dup4\n        /* \"#utility.yul\":6504:6521   */\n      add\n        /* \"#utility.yul\":6497:6544   */\n      mstore\n        /* \"#utility.yul\":6561:6692   */\n      tag_158\n        /* \"#utility.yul\":6687:6691   */\n      dup2\n        /* \"#utility.yul\":6561:6692   */\n      tag_130\n      jump\t// in\n    tag_158:\n        /* \"#utility.yul\":6553:6692   */\n      swap1\n      pop\n        /* \"#utility.yul\":6280:6699   */\n      swap2\n      swap1\n      pop\n      jump\t// out\n        /* \"#utility.yul\":6705:7124   */\n    tag_41:\n        /* \"#utility.yul\":6871:6875   */\n      0x00\n        /* \"#utility.yul\":6909:6911   */\n      0x20\n        /* \"#utility.yul\":6898:6907   */\n      dup3\n        /* \"#utility.yul\":6894:6912   */\n      add\n        /* \"#utility.yul\":6886:6912   */\n      swap1\n      pop\n        /* \"#utility.yul\":6958:6967   */\n      dup2\n        /* \"#utility.yul\":6952:6956   */\n      dup2\n        /* \"#utility.yul\":6948:6968   */\n      sub\n        /* \"#utility.yul\":6944:6945   */\n      0x00\n        /* \"#utility.yul\":6933:6942   */\n      dup4\n        /* \"#utility.yul\":6929:6946   */\n      add\n        /* \"#utility.yul\":6922:6969   */\n      mstore\n        /* \"#utility.yul\":6986:7117   */\n      tag_160\n        /* \"#utility.yul\":7112:7116   */\n      dup2\n        /* \"#utility.yul\":6986:7117   */\n      tag_135\n      jump\t// in\n    tag_160:\n        /* \"#utility.yul\":6978:7117   */\n      swap1\n      pop\n        /* \"#utility.yul\":6705:7124   */\n      swap2\n      swap1\n      pop\n      jump\t// out\n        /* \"#utility.yul\":7130:7270   */\n    tag_96:\n        /* \"#utility.yul\":7205:7209   */\n      0x00\n        /* \"#utility.yul\":7228:7231   */\n      dup2\n        /* \"#utility.yul\":7220:7231   */\n      swap1\n      pop\n        /* \"#utility.yul\":7258:7262   */\n      0x20\n        /* \"#utility.yul\":7253:7256   */\n      dup3\n        /* \"#utility.yul\":7249:7263   */\n      add\n        /* \"#utility.yul\":7241:7263   */\n      swap1\n      pop\n        /* \"#utility.yul\":7130:7270   */\n      swap2\n      swap1\n      pop\n      jump\t// out\n        /* \"#utility.yul\":7276:7440   */\n    tag_110:\n        /* \"#utility.yul\":7348:7352   */\n      0x00\n        /* \"#utility.yul\":7371:7374   */\n      dup2\n        /* \"#utility.yul\":7363:7374   */\n      swap1\n      pop\n        /* \"#utility.yul\":7394:7397   */\n      dup2\n        /* \"#utility.yul\":7391:7392   */\n      0x00\n        /* \"#utility.yul\":7384:7398   */\n      mstore\n        /* \"#utility.yul\":7428:7432   */\n      0x20\n        /* \"#utility.yul\":7425:7426   */\n      0x00\n        /* \"#utility.yul\":7415:7433   */\n      keccak256\n        /* \"#utility.yul\":7407:7433   */\n      swap1\n      pop\n        /* \"#utility.yul\":7276:7440   */\n      swap2\n      swap1\n      pop\n      jump\t// out\n        /* \"#utility.yul\":7446:7568   */\n    tag_92:\n        /* \"#utility.yul\":7521:7527   */\n      0x00\n        /* \"#utility.yul\":7555:7560   */\n      dup2\n        /* \"#utility.yul\":7549:7561   */\n      mload\n        /* \"#utility.yul\":7539:7561   */\n      swap1\n      pop\n        /* \"#utility.yul\":7446:7568   */\n      swap2\n      swap1\n      pop\n      jump\t// out\n        /* \"#utility.yul\":7574:7693   */\n    tag_106:\n        /* \"#utility.yul\":7646:7652   */\n      0x00\n        /* \"#utility.yul\":7680:7685   */\n      dup2\n        /* \"#utility.yul\":7674:7686   */\n      sload\n        /* \"#utility.yul\":7664:7686   */\n      swap1\n      pop\n        /* \"#utility.yul\":7574:7693   */\n      swap2\n      swap1\n      pop\n      jump\t// out\n        /* \"#utility.yul\":7699:7820   */\n    tag_102:\n        /* \"#utility.yul\":7777:7781   */\n      0x00\n        /* \"#utility.yul\":7809:7813   */\n      0x20\n        /* \"#utility.yul\":7804:7807   */\n      dup3\n        /* \"#utility.yul\":7800:7814   */\n      add\n        /* \"#utility.yul\":7792:7814   */\n      swap1\n      pop\n        /* \"#utility.yul\":7699:7820   */\n      swap2\n      swap1\n      pop\n      jump\t// out\n        /* \"#utility.yul\":7826:7944   */\n    tag_118:\n        /* \"#utility.yul\":7901:7905   */\n      0x00\n        /* \"#utility.yul\":7933:7937   */\n      0x01\n        /* \"#utility.yul\":7928:7931   */\n      dup3\n        /* \"#utility.yul\":7924:7938   */\n      add\n        /* \"#utility.yul\":7916:7938   */\n      swap1\n      pop\n        /* \"#utility.yul\":7826:7944   */\n      swap2\n      swap1\n      pop\n      jump\t// out\n        /* \"#utility.yul\":7950:8142   */\n    tag_94:\n        /* \"#utility.yul\":8057:8068   */\n      0x00\n        /* \"#utility.yul\":8091:8097   */\n      dup3\n        /* \"#utility.yul\":8086:8089   */\n      dup3\n        /* \"#utility.yul\":8079:8098   */\n      mstore\n        /* \"#utility.yul\":8131:8135   */\n      0x20\n        /* \"#utility.yul\":8126:8129   */\n      dup3\n        /* \"#utility.yul\":8122:8136   */\n      add\n        /* \"#utility.yul\":8107:8136   */\n      swap1\n      pop\n        /* \"#utility.yul\":7950:8142   */\n      swap3\n      swap2\n      pop\n      pop\n      jump\t// out\n        /* \"#utility.yul\":8148:8319   */\n    tag_108:\n        /* \"#utility.yul\":8273:8284   */\n      0x00\n        /* \"#utility.yul\":8310:8313   */\n      dup2\n        /* \"#utility.yul\":8295:8313   */\n      swap1\n      pop\n        /* \"#utility.yul\":8148:8319   */\n      swap3\n      swap2\n      pop\n      pop\n      jump\t// out\n        /* \"#utility.yul\":8325:8494   */\n    tag_122:\n        /* \"#utility.yul\":8409:8420   */\n      0x00\n        /* \"#utility.yul\":8443:8449   */\n      dup3\n        /* \"#utility.yul\":8438:8441   */\n      dup3\n        /* \"#utility.yul\":8431:8450   */\n      mstore\n        /* \"#utility.yul\":8483:8487   */\n      0x20\n        /* \"#utility.yul\":8478:8481   */\n      dup3\n        /* \"#utility.yul\":8474:8488   */\n      add\n        /* \"#utility.yul\":8459:8488   */\n      swap1\n      pop\n        /* \"#utility.yul\":8325:8494   */\n      swap3\n      swap2\n      pop\n      pop\n      jump\t// out\n        /* \"#utility.yul\":8500:8647   */\n    tag_170:\n        /* \"#utility.yul\":8558:8565   */\n      0x00\n        /* \"#utility.yul\":8598:8640   */\n      0xffffffffffffffffffffffffffffffffffffffff\n        /* \"#utility.yul\":8591:8596   */\n      dup3\n        /* \"#utility.yul\":8587:8641   */\n      and\n        /* \"#utility.yul\":8576:8641   */\n      swap1\n      pop\n        /* \"#utility.yul\":8500:8647   */\n      swap2\n      swap1\n      pop\n      jump\t// out\n        /* \"#utility.yul\":8653:8749   */\n    tag_88:\n        /* \"#utility.yul\":8690:8697   */\n      0x00\n        /* \"#utility.yul\":8719:8743   */\n      tag_173\n        /* \"#utility.yul\":8737:8742   */\n      dup3\n        /* \"#utility.yul\":8719:8743   */\n      tag_174\n      jump\t// in\n    tag_173:\n        /* \"#utility.yul\":8708:8743   */\n      swap1\n      pop\n        /* \"#utility.yul\":8653:8749   */\n      swap2\n      swap1\n      pop\n      jump\t// out\n        /* \"#utility.yul\":8755:8859   */\n    tag_82:\n        /* \"#utility.yul\":8800:8807   */\n      0x00\n        /* \"#utility.yul\":8829:8853   */\n      tag_176\n        /* \"#utility.yul\":8847:8852   */\n      dup3\n        /* \"#utility.yul\":8829:8853   */\n      tag_174\n      jump\t// in\n    tag_176:\n        /* \"#utility.yul\":8818:8853   */\n      swap1\n      pop\n        /* \"#utility.yul\":8755:8859   */\n      swap2\n      swap1\n      pop\n      jump\t// out\n        /* \"#utility.yul\":8865:8991   */\n    tag_174:\n        /* \"#utility.yul\":8902:8909   */\n      0x00\n        /* \"#utility.yul\":8942:8984   */\n      0xffffffffffffffffffffffffffffffffffffffff\n        /* \"#utility.yul\":8935:8940   */\n      dup3\n        /* \"#utility.yul\":8931:8985   */\n      and\n        /* \"#utility.yul\":8920:8985   */\n      swap1\n      pop\n        /* \"#utility.yul\":8865:8991   */\n      swap2\n      swap1\n      pop\n      jump\t// out\n        /* \"#utility.yul\":8997:9074   */\n    tag_144:\n        /* \"#utility.yul\":9034:9041   */\n      0x00\n        /* \"#utility.yul\":9063:9068   */\n      dup2\n        /* \"#utility.yul\":9052:9068   */\n      swap1\n      pop\n        /* \"#utility.yul\":8997:9074   */\n      swap2\n      swap1\n      pop\n      jump\t// out\n        /* \"#utility.yul\":9080:9262   */\n    tag_179:\n        /* \"#utility.yul\":9157:9162   */\n      0x00\n        /* \"#utility.yul\":9182:9256   */\n      tag_181\n        /* \"#utility.yul\":9221:9255   */\n      tag_182\n        /* \"#utility.yul\":9244:9254   */\n      dup4\n        /* \"#utility.yul\":9221:9255   */\n      tag_183\n      jump\t// in\n    tag_182:\n        /* \"#utility.yul\":9182:9256   */\n      tag_170\n      jump\t// in\n    tag_181:\n        /* \"#utility.yul\":9173:9256   */\n      swap1\n      pop\n        /* \"#utility.yul\":9080:9262   */\n      swap2\n      swap1\n      pop\n      jump\t// out\n        /* \"#utility.yul\":9268:9501   */\n    tag_65:\n        /* \"#utility.yul\":9307:9310   */\n      0x00\n        /* \"#utility.yul\":9330:9354   */\n      tag_185\n        /* \"#utility.yul\":9348:9353   */\n      dup3\n        /* \"#utility.yul\":9330:9354   */\n      tag_144\n      jump\t// in\n    tag_185:\n        /* \"#utility.yul\":9321:9354   */\n      swap2\n      pop\n        /* \"#utility.yul\":9376:9442   */\n      0xffffffffffffffffffffffffffffffffffffffffffffffffffffffffffffffff\n        /* \"#utility.yul\":9369:9374   */\n      dup3\n        /* \"#utility.yul\":9366:9443   */\n      eq\n        /* \"#utility.yul\":9363:9466   */\n      iszero\n      tag_186\n      jumpi\n        /* \"#utility.yul\":9446:9464   */\n      tag_187\n      tag_188\n      jump\t// in\n    tag_187:\n        /* \"#utility.yul\":9363:9466   */\n    tag_186:\n        /* \"#utility.yul\":9493:9494   */\n      0x01\n        /* \"#utility.yul\":9486:9491   */\n      dup3\n        /* \"#utility.yul\":9482:9495   */\n      add\n        /* \"#utility.yul\":9475:9495   */\n      swap1\n      pop\n        /* \"#utility.yul\":9268:9501   */\n      swap2\n      swap1\n      pop\n      jump\t// out\n        /* \"#utility.yul\":9507:9586   */\n    tag_145:\n        /* \"#utility.yul\":9546:9553   */\n      0x00\n        /* \"#utility.yul\":9575:9580   */\n      dup2\n        /* \"#utility.yul\":9564:9580   */\n      swap1\n      pop\n        /* \"#utility.yul\":9507:9586   */\n      swap2\n      swap1\n      pop\n      jump\t// out\n        /* \"#utility.yul\":9592:9768   */\n    tag_55:\n        /* \"#utility.yul\":9624:9625   */\n      0x00\n        /* \"#utility.yul\":9641:9661   */\n      tag_191\n        /* \"#utility.yul\":9659:9660   */\n      dup3\n        /* \"#utility.yul\":9641:9661   */\n      tag_144\n      jump\t// in\n    tag_191:\n        /* \"#utility.yul\":9636:9661   */\n      swap2\n      pop\n        /* \"#utility.yul\":9675:9695   */\n      tag_192\n        /* \"#utility.yul\":9693:9694   */\n      dup4\n        /* \"#utility.yul\":9675:9695   */\n      tag_144\n      jump\t// in\n    tag_192:\n        /* \"#utility.yul\":9670:9695   */\n      swap3\n      pop\n        /* \"#utility.yul\":9714:9715   */\n      dup3\n        /* \"#utility.yul\":9704:9739   */\n      tag_193\n      jumpi\n        /* \"#utility.yul\":9719:9737   */\n      tag_194\n      tag_195\n      jump\t// in\n    tag_194:\n        /* \"#utility.yul\":9704:9739   */\n    tag_193:\n        /* \"#utility.yul\":9760:9761   */\n      dup3\n        /* \"#utility.yul\":9757:9758   */\n      dup3\n        /* \"#utility.yul\":9753:9762   */\n      mod\n        /* \"#utility.yul\":9748:9762   */\n      swap1\n      pop\n        /* \"#utility.yul\":9592:9768   */\n      swap3\n      swap2\n      pop\n      pop\n      jump\t// out\n        /* \"#utility.yul\":9774:9954   */\n    tag_188:\n        /* \"#utility.yul\":9822:9899   */\n      0x4e487b7100000000000000000000000000000000000000000000000000000000\n        /* \"#utility.yul\":9819:9820   */\n      0x00\n        /* \"#utility.yul\":9812:9900   */\n      mstore\n        /* \"#utility.yul\":9919:9923   */\n      0x11\n        /* \"#utility.yul\":9916:9917   */\n      0x04\n        /* \"#utility.yul\":9909:9924   */\n      mstore\n        /* \"#utility.yul\":9943:9947   */\n      0x24\n        /* \"#utility.yul\":9940:9941   */\n      0x00\n        /* \"#utility.yul\":9933:9948   */\n      revert\n        /* \"#utility.yul\":9960:10140   */\n    tag_195:\n        /* \"#utility.yul\":10008:10085   */\n      0x4e487b7100000000000000000000000000000000000000000000000000000000\n        /* \"#utility.yul\":10005:10006   */\n      0x00\n        /* \"#utility.yul\":9998:10086   */\n      mstore\n        /* \"#utility.yul\":10105:10109   */\n      0x12\n        /* \"#utility.yul\":10102:10103   */\n      0x04\n        /* \"#utility.yul\":10095:10110   */\n      mstore\n        /* \"#utility.yul\":10129:10133   */\n      0x24\n        /* \"#utility.yul\":10126:10127   */\n      0x00\n        /* \"#utility.yul\":10119:10134   */\n      revert\n        /* \"#utility.yul\":10146:10326   */\n    tag_29:\n        /* \"#utility.yul\":10194:10271   */\n      0x4e487b7100000000000000000000000000000000000000000000000000000000\n        /* \"#utility.yul\":10191:10192   */\n      0x00\n        /* \"#utility.yul\":10184:10272   */\n      mstore\n        /* \"#utility.yul\":10291:10295   */\n      0x32\n        /* \"#utility.yul\":10288:10289   */\n      0x04\n        /* \"#utility.yul\":10281:10296   */\n      mstore\n        /* \"#utility.yul\":10315:10319   */\n      0x24\n        /* \"#utility.yul\":10312:10313   */\n      0x00\n        /* \"#utility.yul\":10305:10320   */\n      revert\n        /* \"#utility.yul\":10332:10492   */\n    tag_115:\n        /* \"#utility.yul\":10395:10400   */\n      0x00\n        /* \"#utility.yul\":10420:10485   */\n      tag_200\n        /* \"#utility.yul\":10479:10483   */\n      dup3\n        /* \"#utility.yul\":10473:10484   */\n      sload\n        /* \"#utility.yul\":10420:10485   */\n      tag_179\n      jump\t// in\n    tag_200:\n        /* \"#utility.yul\":10411:10485   */\n      swap1\n      pop\n        /* \"#utility.yul\":10332:10492   */\n      swap2\n      swap1\n      pop\n      jump\t// out\n        /* \"#utility.yul\":10498:10600   */\n    tag_183:\n        /* \"#utility.yul\":10540:10548   */\n      0x00\n        /* \"#utility.yul\":10587:10592   */\n      dup2\n        /* \"#utility.yul\":10584:10585   */\n      0x00\n        /* \"#utility.yul\":10580:10593   */\n      shr\n        /* \"#utility.yul\":10559:10593   */\n      swap1\n      pop\n        /* \"#utility.yul\":10498:10600   */\n      swap2\n      swap1\n      pop\n      jump\t// out\n        /* \"#utility.yul\":10606:10784   */\n    tag_124:\n        /* \"#utility.yul\":10746:10776   */\n      0x4d696e696d756d20616d6f756e74206d75737420626520706179656400000000\n        /* \"#utility.yul\":10742:10743   */\n      0x00\n        /* \"#utility.yul\":10734:10740   */\n      dup3\n        /* \"#utility.yul\":10730:10744   */\n      add\n        /* \"#utility.yul\":10723:10777   */\n      mstore\n        /* \"#utility.yul\":10606:10784   */\n      pop\n      jump\t// out\n        /* \"#utility.yul\":10790:10965   */\n    tag_129:\n        /* \"#utility.yul\":10930:10957   */\n      0x506c6179657220616c7265616479207265676973746572656400000000000000\n        /* \"#utility.yul\":10926:10927   */\n      0x00\n        /* \"#utility.yul\":10918:10924   */\n      dup3\n        /* \"#utility.yul\":10914:10928   */\n      add\n        /* \"#utility.yul\":10907:10958   */\n      mstore\n        /* \"#utility.yul\":10790:10965   */\n      pop\n      jump\t// out\n        /* \"#utility.yul\":10971:11208   */\n    tag_134:\n        /* \"#utility.yul\":11111:11145   */\n      0x556e617574686f72697a656420506572736f6e2e204f6e6c79206d616e616765\n        /* \"#utility.yul\":11107:11108   */\n      0x00\n        /* \"#utility.yul\":11099:11105   */\n      dup3\n        /* \"#utility.yul\":11095:11109   */\n      add\n        /* \"#utility.yul\":11088:11146   */\n      mstore\n        /* \"#utility.yul\":11180:11200   */\n      0x722063616e207069636b2077696e6e65722e0000000000000000000000000000\n        /* \"#utility.yul\":11175:11177   */\n      0x20\n        /* \"#utility.yul\":11167:11173   */\n      dup3\n        /* \"#utility.yul\":11163:11178   */\n      add\n        /* \"#utility.yul\":11156:11201   */\n      mstore\n        /* \"#utility.yul\":10971:11208   */\n      pop\n      jump\t// out\n        /* \"#utility.yul\":11214:11383   */\n    tag_139:\n        /* \"#utility.yul\":11354:11375   */\n      0x4d616e616765722063616e277420656e74657200000000000000000000000000\n        /* \"#utility.yul\":11350:11351   */\n      0x00\n        /* \"#utility.yul\":11342:11348   */\n      dup3\n        /* \"#utility.yul\":11338:11352   */\n      add\n        /* \"#utility.yul\":11331:11376   */\n      mstore\n        /* \"#utility.yul\":11214:11383   */\n      pop\n      jump\t// out\n\n    auxdata: 0xa2646970667358221220bb6e9b20e251e8f38293a77bb2952e4766fe5da36b762edce138d4ecb2131bb164736f6c63430008070033\n}\n",
				"bytecode": {
					"linkReferences": {},
					"object": "608060405234801561001057600080fd5b50336000806101000a81548173ffffffffffffffffffffffffffffffffffffffff021916908373ffffffffffffffffffffffffffffffffffffffff160217905550610b3c806100606000396000f3fe60806040526004361061003f5760003560e01c8063481c6a75146100445780635d495aea1461006f57806387997d9414610086578063e97dcb62146100b1575b600080fd5b34801561005057600080fd5b506100596100bb565b6040516100669190610744565b60405180910390f35b34801561007b57600080fd5b506100846100df565b005b34801561009257600080fd5b5061009b61020f565b6040516100a8919061075f565b60405180910390f35b6100b961029d565b005b60008054906101000a900473ffffffffffffffffffffffffffffffffffffffff1681565b60008054906101000a900473ffffffffffffffffffffffffffffffffffffffff1673ffffffffffffffffffffffffffffffffffffffff163373ffffffffffffffffffffffffffffffffffffffff161461016d576040517f08c379a0000000000000000000000000000000000000000000000000000000008152600401610164906107c1565b60405180910390fd5b600061017761042a565b90506001818154811061018d5761018c6109ed565b5b9060005260206000200160009054906101000a900473ffffffffffffffffffffffffffffffffffffffff1673ffffffffffffffffffffffffffffffffffffffff166108fc479081150290604051600060405180830381858888f193505050501580156101fd573d6000803e3d6000fd5b506001600061020c919061051b565b50565b6060600180548060200260200160405190810160405280929190818152602001828054801561029357602002820191906000526020600020905b8160009054906101000a900473ffffffffffffffffffffffffffffffffffffffff1673ffffffffffffffffffffffffffffffffffffffff1681526020019060010190808311610249575b5050505050905090565b60008054906101000a900473ffffffffffffffffffffffffffffffffffffffff1673ffffffffffffffffffffffffffffffffffffffff163373ffffffffffffffffffffffffffffffffffffffff16141561032c576040517f08c379a0000000000000000000000000000000000000000000000000000000008152600401610323906107e1565b60405180910390fd5b6000151561033861046e565b15151461037a576040517f08c379a0000000000000000000000000000000000000000000000000000000008152600401610371906107a1565b60405180910390fd5b670de0b6b3a76400003410156103c5576040517f08c379a00000000000000000000000000000000000000000000000000000000081526004016103bc90610781565b60405180910390fd5b6001339080600181540180825580915050600190039060005260206000200160009091909190916101000a81548173ffffffffffffffffffffffffffffffffffffffff021916908373ffffffffffffffffffffffffffffffffffffffff160217905550565b600060018054905044600160405160200161044692919061071c565b6040516020818303038152906040528051906020012060001c610469919061095e565b905090565b600080600090505b600180549050811015610512573373ffffffffffffffffffffffffffffffffffffffff16600182815481106104ae576104ad6109ed565b5b9060005260206000200160009054906101000a900473ffffffffffffffffffffffffffffffffffffffff1673ffffffffffffffffffffffffffffffffffffffff1614156104ff576001915050610518565b808061050a9061090b565b915050610476565b50600090505b90565b5080546000825590600052602060002090810190610539919061053c565b50565b5b8082111561055557600081600090555060010161053d565b5090565b60006105658383610589565b60208301905092915050565b600061057d8383610598565b60208301905092915050565b610592816108b5565b82525050565b6105a1816108b5565b82525050565b6105b0816108a3565b82525050565b60006105c182610826565b6105cb8185610856565b93506105d683610801565b8060005b838110156106075781516105ee8882610559565b97506105f98361083c565b9250506001810190506105da565b5085935050505092915050565b600061061f82610831565b6106298185610867565b935061063483610811565b8060005b8381101561066c5761064982610a1c565b6106538882610571565b975061065e83610849565b925050600181019050610638565b5085935050505092915050565b6000610686601c83610872565b915061069182610a3c565b602082019050919050565b60006106a9601983610872565b91506106b482610a65565b602082019050919050565b60006106cc603283610872565b91506106d782610a8e565b604082019050919050565b60006106ef601383610872565b91506106fa82610add565b602082019050919050565b610716610711826108e7565b610954565b82525050565b60006107288285610705565b6020820191506107388284610614565b91508190509392505050565b600060208201905061075960008301846105a7565b92915050565b6000602082019050818103600083015261077981846105b6565b905092915050565b6000602082019050818103600083015261079a81610679565b9050919050565b600060208201905081810360008301526107ba8161069c565b9050919050565b600060208201905081810360008301526107da816106bf565b9050919050565b600060208201905081810360008301526107fa816106e2565b9050919050565b6000819050602082019050919050565b60008190508160005260206000209050919050565b600081519050919050565b600081549050919050565b6000602082019050919050565b6000600182019050919050565b600082825260208201905092915050565b600081905092915050565b600082825260208201905092915050565b600073ffffffffffffffffffffffffffffffffffffffff82169050919050565b60006108ae826108c7565b9050919050565b60006108c0826108c7565b9050919050565b600073ffffffffffffffffffffffffffffffffffffffff82169050919050565b6000819050919050565b60006109046108ff83610a2f565b610883565b9050919050565b6000610916826108e7565b91507fffffffffffffffffffffffffffffffffffffffffffffffffffffffffffffffff8214156109495761094861098f565b5b600182019050919050565b6000819050919050565b6000610969826108e7565b9150610974836108e7565b925082610984576109836109be565b5b828206905092915050565b7f4e487b7100000000000000000000000000000000000000000000000000000000600052601160045260246000fd5b7f4e487b7100000000000000000000000000000000000000000000000000000000600052601260045260246000fd5b7f4e487b7100000000000000000000000000000000000000000000000000000000600052603260045260246000fd5b6000610a2882546108f1565b9050919050565b60008160001c9050919050565b7f4d696e696d756d20616d6f756e74206d75737420626520706179656400000000600082015250565b7f506c6179657220616c7265616479207265676973746572656400000000000000600082015250565b7f556e617574686f72697a656420506572736f6e2e204f6e6c79206d616e61676560008201527f722063616e207069636b2077696e6e65722e0000000000000000000000000000602082015250565b7f4d616e616765722063616e277420656e7465720000000000000000000000000060008201525056fea2646970667358221220bb6e9b20e251e8f38293a77bb2952e4766fe5da36b762edce138d4ecb2131bb164736f6c63430008070033",
					"opcodes": "PUSH1 0x80 PUSH1 0x40 MSTORE CALLVALUE DUP1 ISZERO PUSH2 0x10 JUMPI PUSH1 0x0 DUP1 REVERT JUMPDEST POP CALLER PUSH1 0x0 DUP1 PUSH2 0x100 EXP DUP2 SLOAD DUP2 PUSH20 0xFFFFFFFFFFFFFFFFFFFFFFFFFFFFFFFFFFFFFFFF MUL NOT AND SWAP1 DUP4 PUSH20 0xFFFFFFFFFFFFFFFFFFFFFFFFFFFFFFFFFFFFFFFF AND MUL OR SWAP1 SSTORE POP PUSH2 0xB3C DUP1 PUSH2 0x60 PUSH1 0x0 CODECOPY PUSH1 0x0 RETURN INVALID PUSH1 0x80 PUSH1 0x40 MSTORE PUSH1 0x4 CALLDATASIZE LT PUSH2 0x3F JUMPI PUSH1 0x0 CALLDATALOAD PUSH1 0xE0 SHR DUP1 PUSH4 0x481C6A75 EQ PUSH2 0x44 JUMPI DUP1 PUSH4 0x5D495AEA EQ PUSH2 0x6F JUMPI DUP1 PUSH4 0x87997D94 EQ PUSH2 0x86 JUMPI DUP1 PUSH4 0xE97DCB62 EQ PUSH2 0xB1 JUMPI JUMPDEST PUSH1 0x0 DUP1 REVERT JUMPDEST CALLVALUE DUP1 ISZERO PUSH2 0x50 JUMPI PUSH1 0x0 DUP1 REVERT JUMPDEST POP PUSH2 0x59 PUSH2 0xBB JUMP JUMPDEST PUSH1 0x40 MLOAD PUSH2 0x66 SWAP2 SWAP1 PUSH2 0x744 JUMP JUMPDEST PUSH1 0x40 MLOAD DUP1 SWAP2 SUB SWAP1 RETURN JUMPDEST CALLVALUE DUP1 ISZERO PUSH2 0x7B JUMPI PUSH1 0x0 DUP1 REVERT JUMPDEST POP PUSH2 0x84 PUSH2 0xDF JUMP JUMPDEST STOP JUMPDEST CALLVALUE DUP1 ISZERO PUSH2 0x92 JUMPI PUSH1 0x0 DUP1 REVERT JUMPDEST POP PUSH2 0x9B PUSH2 0x20F JUMP JUMPDEST PUSH1 0x40 MLOAD PUSH2 0xA8 SWAP2 SWAP1 PUSH2 0x75F JUMP JUMPDEST PUSH1 0x40 MLOAD DUP1 SWAP2 SUB SWAP1 RETURN JUMPDEST PUSH2 0xB9 PUSH2 0x29D JUMP JUMPDEST STOP JUMPDEST PUSH1 0x0 DUP1 SLOAD SWAP1 PUSH2 0x100 EXP SWAP1 DIV PUSH20 0xFFFFFFFFFFFFFFFFFFFFFFFFFFFFFFFFFFFFFFFF AND DUP2 JUMP JUMPDEST PUSH1 0x0 DUP1 SLOAD SWAP1 PUSH2 0x100 EXP SWAP1 DIV PUSH20 0xFFFFFFFFFFFFFFFFFFFFFFFFFFFFFFFFFFFFFFFF AND PUSH20 0xFFFFFFFFFFFFFFFFFFFFFFFFFFFFFFFFFFFFFFFF AND CALLER PUSH20 0xFFFFFFFFFFFFFFFFFFFFFFFFFFFFFFFFFFFFFFFF AND EQ PUSH2 0x16D JUMPI PUSH1 0x40 MLOAD PUSH32 0x8C379A000000000000000000000000000000000000000000000000000000000 DUP2 MSTORE PUSH1 0x4 ADD PUSH2 0x164 SWAP1 PUSH2 0x7C1 JUMP JUMPDEST PUSH1 0x40 MLOAD DUP1 SWAP2 SUB SWAP1 REVERT JUMPDEST PUSH1 0x0 PUSH2 0x177 PUSH2 0x42A JUMP JUMPDEST SWAP1 POP PUSH1 0x1 DUP2 DUP2 SLOAD DUP2 LT PUSH2 0x18D JUMPI PUSH2 0x18C PUSH2 0x9ED JUMP JUMPDEST JUMPDEST SWAP1 PUSH1 0x0 MSTORE PUSH1 0x20 PUSH1 0x0 KECCAK256 ADD PUSH1 0x0 SWAP1 SLOAD SWAP1 PUSH2 0x100 EXP SWAP1 DIV PUSH20 0xFFFFFFFFFFFFFFFFFFFFFFFFFFFFFFFFFFFFFFFF AND PUSH20 0xFFFFFFFFFFFFFFFFFFFFFFFFFFFFFFFFFFFFFFFF AND PUSH2 0x8FC SELFBALANCE SWAP1 DUP2 ISZERO MUL SWAP1 PUSH1 0x40 MLOAD PUSH1 0x0 PUSH1 0x40 MLOAD DUP1 DUP4 SUB DUP2 DUP6 DUP9 DUP9 CALL SWAP4 POP POP POP POP ISZERO DUP1 ISZERO PUSH2 0x1FD JUMPI RETURNDATASIZE PUSH1 0x0 DUP1 RETURNDATACOPY RETURNDATASIZE PUSH1 0x0 REVERT JUMPDEST POP PUSH1 0x1 PUSH1 0x0 PUSH2 0x20C SWAP2 SWAP1 PUSH2 0x51B JUMP JUMPDEST POP JUMP JUMPDEST PUSH1 0x60 PUSH1 0x1 DUP1 SLOAD DUP1 PUSH1 0x20 MUL PUSH1 0x20 ADD PUSH1 0x40 MLOAD SWAP1 DUP2 ADD PUSH1 0x40 MSTORE DUP1 SWAP3 SWAP2 SWAP1 DUP2 DUP2 MSTORE PUSH1 0x20 ADD DUP3 DUP1 SLOAD DUP1 ISZERO PUSH2 0x293 JUMPI PUSH1 0x20 MUL DUP3 ADD SWAP2 SWAP1 PUSH1 0x0 MSTORE PUSH1 0x20 PUSH1 0x0 KECCAK256 SWAP1 JUMPDEST DUP2 PUSH1 0x0 SWAP1 SLOAD SWAP1 PUSH2 0x100 EXP SWAP1 DIV PUSH20 0xFFFFFFFFFFFFFFFFFFFFFFFFFFFFFFFFFFFFFFFF AND PUSH20 0xFFFFFFFFFFFFFFFFFFFFFFFFFFFFFFFFFFFFFFFF AND DUP2 MSTORE PUSH1 0x20 ADD SWAP1 PUSH1 0x1 ADD SWAP1 DUP1 DUP4 GT PUSH2 0x249 JUMPI JUMPDEST POP POP POP POP POP SWAP1 POP SWAP1 JUMP JUMPDEST PUSH1 0x0 DUP1 SLOAD SWAP1 PUSH2 0x100 EXP SWAP1 DIV PUSH20 0xFFFFFFFFFFFFFFFFFFFFFFFFFFFFFFFFFFFFFFFF AND PUSH20 0xFFFFFFFFFFFFFFFFFFFFFFFFFFFFFFFFFFFFFFFF AND CALLER PUSH20 0xFFFFFFFFFFFFFFFFFFFFFFFFFFFFFFFFFFFFFFFF AND EQ ISZERO PUSH2 0x32C JUMPI PUSH1 0x40 MLOAD PUSH32 0x8C379A000000000000000000000000000000000000000000000000000000000 DUP2 MSTORE PUSH1 0x4 ADD PUSH2 0x323 SWAP1 PUSH2 0x7E1 JUMP JUMPDEST PUSH1 0x40 MLOAD DUP1 SWAP2 SUB SWAP1 REVERT JUMPDEST PUSH1 0x0 ISZERO ISZERO PUSH2 0x338 PUSH2 0x46E JUMP JUMPDEST ISZERO ISZERO EQ PUSH2 0x37A JUMPI PUSH1 0x40 MLOAD PUSH32 0x8C379A000000000000000000000000000000000000000000000000000000000 DUP2 MSTORE PUSH1 0x4 ADD PUSH2 0x371 SWAP1 PUSH2 0x7A1 JUMP JUMPDEST PUSH1 0x40 MLOAD DUP1 SWAP2 SUB SWAP1 REVERT JUMPDEST PUSH8 0xDE0B6B3A7640000 CALLVALUE LT ISZERO PUSH2 0x3C5 JUMPI PUSH1 0x40 MLOAD PUSH32 0x8C379A000000000000000000000000000000000000000000000000000000000 DUP2 MSTORE PUSH1 0x4 ADD PUSH2 0x3BC SWAP1 PUSH2 0x781 JUMP JUMPDEST PUSH1 0x40 MLOAD DUP1 SWAP2 SUB SWAP1 REVERT JUMPDEST PUSH1 0x1 CALLER SWAP1 DUP1 PUSH1 0x1 DUP2 SLOAD ADD DUP1 DUP3 SSTORE DUP1 SWAP2 POP POP PUSH1 0x1 SWAP1 SUB SWAP1 PUSH1 0x0 MSTORE PUSH1 0x20 PUSH1 0x0 KECCAK256 ADD PUSH1 0x0 SWAP1 SWAP2 SWAP1 SWAP2 SWAP1 SWAP2 PUSH2 0x100 EXP DUP2 SLOAD DUP2 PUSH20 0xFFFFFFFFFFFFFFFFFFFFFFFFFFFFFFFFFFFFFFFF MUL NOT AND SWAP1 DUP4 PUSH20 0xFFFFFFFFFFFFFFFFFFFFFFFFFFFFFFFFFFFFFFFF AND MUL OR SWAP1 SSTORE POP JUMP JUMPDEST PUSH1 0x0 PUSH1 0x1 DUP1 SLOAD SWAP1 POP DIFFICULTY PUSH1 0x1 PUSH1 0x40 MLOAD PUSH1 0x20 ADD PUSH2 0x446 SWAP3 SWAP2 SWAP1 PUSH2 0x71C JUMP JUMPDEST PUSH1 0x40 MLOAD PUSH1 0x20 DUP2 DUP4 SUB SUB DUP2 MSTORE SWAP1 PUSH1 0x40 MSTORE DUP1 MLOAD SWAP1 PUSH1 0x20 ADD KECCAK256 PUSH1 0x0 SHR PUSH2 0x469 SWAP2 SWAP1 PUSH2 0x95E JUMP JUMPDEST SWAP1 POP SWAP1 JUMP JUMPDEST PUSH1 0x0 DUP1 PUSH1 0x0 SWAP1 POP JUMPDEST PUSH1 0x1 DUP1 SLOAD SWAP1 POP DUP2 LT ISZERO PUSH2 0x512 JUMPI CALLER PUSH20 0xFFFFFFFFFFFFFFFFFFFFFFFFFFFFFFFFFFFFFFFF AND PUSH1 0x1 DUP3 DUP2 SLOAD DUP2 LT PUSH2 0x4AE JUMPI PUSH2 0x4AD PUSH2 0x9ED JUMP JUMPDEST JUMPDEST SWAP1 PUSH1 0x0 MSTORE PUSH1 0x20 PUSH1 0x0 KECCAK256 ADD PUSH1 0x0 SWAP1 SLOAD SWAP1 PUSH2 0x100 EXP SWAP1 DIV PUSH20 0xFFFFFFFFFFFFFFFFFFFFFFFFFFFFFFFFFFFFFFFF AND PUSH20 0xFFFFFFFFFFFFFFFFFFFFFFFFFFFFFFFFFFFFFFFF AND EQ ISZERO PUSH2 0x4FF JUMPI PUSH1 0x1 SWAP2 POP POP PUSH2 0x518 JUMP JUMPDEST DUP1 DUP1 PUSH2 0x50A SWAP1 PUSH2 0x90B JUMP JUMPDEST SWAP2 POP POP PUSH2 0x476 JUMP JUMPDEST POP PUSH1 0x0 SWAP1 POP JUMPDEST SWAP1 JUMP JUMPDEST POP DUP1 SLOAD PUSH1 0x0 DUP3 SSTORE SWAP1 PUSH1 0x0 MSTORE PUSH1 0x20 PUSH1 0x0 KECCAK256 SWAP1 DUP2 ADD SWAP1 PUSH2 0x539 SWAP2 SWAP1 PUSH2 0x53C JUMP JUMPDEST POP JUMP JUMPDEST JUMPDEST DUP1 DUP3 GT ISZERO PUSH2 0x555 JUMPI PUSH1 0x0 DUP2 PUSH1 0x0 SWAP1 SSTORE POP PUSH1 0x1 ADD PUSH2 0x53D JUMP JUMPDEST POP SWAP1 JUMP JUMPDEST PUSH1 0x0 PUSH2 0x565 DUP4 DUP4 PUSH2 0x589 JUMP JUMPDEST PUSH1 0x20 DUP4 ADD SWAP1 POP SWAP3 SWAP2 POP POP JUMP JUMPDEST PUSH1 0x0 PUSH2 0x57D DUP4 DUP4 PUSH2 0x598 JUMP JUMPDEST PUSH1 0x20 DUP4 ADD SWAP1 POP SWAP3 SWAP2 POP POP JUMP JUMPDEST PUSH2 0x592 DUP2 PUSH2 0x8B5 JUMP JUMPDEST DUP3 MSTORE POP POP JUMP JUMPDEST PUSH2 0x5A1 DUP2 PUSH2 0x8B5 JUMP JUMPDEST DUP3 MSTORE POP POP JUMP JUMPDEST PUSH2 0x5B0 DUP2 PUSH2 0x8A3 JUMP JUMPDEST DUP3 MSTORE POP POP JUMP JUMPDEST PUSH1 0x0 PUSH2 0x5C1 DUP3 PUSH2 0x826 JUMP JUMPDEST PUSH2 0x5CB DUP2 DUP6 PUSH2 0x856 JUMP JUMPDEST SWAP4 POP PUSH2 0x5D6 DUP4 PUSH2 0x801 JUMP JUMPDEST DUP1 PUSH1 0x0 JUMPDEST DUP4 DUP2 LT ISZERO PUSH2 0x607 JUMPI DUP2 MLOAD PUSH2 0x5EE DUP9 DUP3 PUSH2 0x559 JUMP JUMPDEST SWAP8 POP PUSH2 0x5F9 DUP4 PUSH2 0x83C JUMP JUMPDEST SWAP3 POP POP PUSH1 0x1 DUP2 ADD SWAP1 POP PUSH2 0x5DA JUMP JUMPDEST POP DUP6 SWAP4 POP POP POP POP SWAP3 SWAP2 POP POP JUMP JUMPDEST PUSH1 0x0 PUSH2 0x61F DUP3 PUSH2 0x831 JUMP JUMPDEST PUSH2 0x629 DUP2 DUP6 PUSH2 0x867 JUMP JUMPDEST SWAP4 POP PUSH2 0x634 DUP4 PUSH2 0x811 JUMP JUMPDEST DUP1 PUSH1 0x0 JUMPDEST DUP4 DUP2 LT ISZERO PUSH2 0x66C JUMPI PUSH2 0x649 DUP3 PUSH2 0xA1C JUMP JUMPDEST PUSH2 0x653 DUP9 DUP3 PUSH2 0x571 JUMP JUMPDEST SWAP8 POP PUSH2 0x65E DUP4 PUSH2 0x849 JUMP JUMPDEST SWAP3 POP POP PUSH1 0x1 DUP2 ADD SWAP1 POP PUSH2 0x638 JUMP JUMPDEST POP DUP6 SWAP4 POP POP POP POP SWAP3 SWAP2 POP POP JUMP JUMPDEST PUSH1 0x0 PUSH2 0x686 PUSH1 0x1C DUP4 PUSH2 0x872 JUMP JUMPDEST SWAP2 POP PUSH2 0x691 DUP3 PUSH2 0xA3C JUMP JUMPDEST PUSH1 0x20 DUP3 ADD SWAP1 POP SWAP2 SWAP1 POP JUMP JUMPDEST PUSH1 0x0 PUSH2 0x6A9 PUSH1 0x19 DUP4 PUSH2 0x872 JUMP JUMPDEST SWAP2 POP PUSH2 0x6B4 DUP3 PUSH2 0xA65 JUMP JUMPDEST PUSH1 0x20 DUP3 ADD SWAP1 POP SWAP2 SWAP1 POP JUMP JUMPDEST PUSH1 0x0 PUSH2 0x6CC PUSH1 0x32 DUP4 PUSH2 0x872 JUMP JUMPDEST SWAP2 POP PUSH2 0x6D7 DUP3 PUSH2 0xA8E JUMP JUMPDEST PUSH1 0x40 DUP3 ADD SWAP1 POP SWAP2 SWAP1 POP JUMP JUMPDEST PUSH1 0x0 PUSH2 0x6EF PUSH1 0x13 DUP4 PUSH2 0x872 JUMP JUMPDEST SWAP2 POP PUSH2 0x6FA DUP3 PUSH2 0xADD JUMP JUMPDEST PUSH1 0x20 DUP3 ADD SWAP1 POP SWAP2 SWAP1 POP JUMP JUMPDEST PUSH2 0x716 PUSH2 0x711 DUP3 PUSH2 0x8E7 JUMP JUMPDEST PUSH2 0x954 JUMP JUMPDEST DUP3 MSTORE POP POP JUMP JUMPDEST PUSH1 0x0 PUSH2 0x728 DUP3 DUP6 PUSH2 0x705 JUMP JUMPDEST PUSH1 0x20 DUP3 ADD SWAP2 POP PUSH2 0x738 DUP3 DUP5 PUSH2 0x614 JUMP JUMPDEST SWAP2 POP DUP2 SWAP1 POP SWAP4 SWAP3 POP POP POP JUMP JUMPDEST PUSH1 0x0 PUSH1 0x20 DUP3 ADD SWAP1 POP PUSH2 0x759 PUSH1 0x0 DUP4 ADD DUP5 PUSH2 0x5A7 JUMP JUMPDEST SWAP3 SWAP2 POP POP JUMP JUMPDEST PUSH1 0x0 PUSH1 0x20 DUP3 ADD SWAP1 POP DUP2 DUP2 SUB PUSH1 0x0 DUP4 ADD MSTORE PUSH2 0x779 DUP2 DUP5 PUSH2 0x5B6 JUMP JUMPDEST SWAP1 POP SWAP3 SWAP2 POP POP JUMP JUMPDEST PUSH1 0x0 PUSH1 0x20 DUP3 ADD SWAP1 POP DUP2 DUP2 SUB PUSH1 0x0 DUP4 ADD MSTORE PUSH2 0x79A DUP2 PUSH2 0x679 JUMP JUMPDEST SWAP1 POP SWAP2 SWAP1 POP JUMP JUMPDEST PUSH1 0x0 PUSH1 0x20 DUP3 ADD SWAP1 POP DUP2 DUP2 SUB PUSH1 0x0 DUP4 ADD MSTORE PUSH2 0x7BA DUP2 PUSH2 0x69C JUMP JUMPDEST SWAP1 POP SWAP2 SWAP1 POP JUMP JUMPDEST PUSH1 0x0 PUSH1 0x20 DUP3 ADD SWAP1 POP DUP2 DUP2 SUB PUSH1 0x0 DUP4 ADD MSTORE PUSH2 0x7DA DUP2 PUSH2 0x6BF JUMP JUMPDEST SWAP1 POP SWAP2 SWAP1 POP JUMP JUMPDEST PUSH1 0x0 PUSH1 0x20 DUP3 ADD SWAP1 POP DUP2 DUP2 SUB PUSH1 0x0 DUP4 ADD MSTORE PUSH2 0x7FA DUP2 PUSH2 0x6E2 JUMP JUMPDEST SWAP1 POP SWAP2 SWAP1 POP JUMP JUMPDEST PUSH1 0x0 DUP2 SWAP1 POP PUSH1 0x20 DUP3 ADD SWAP1 POP SWAP2 SWAP1 POP JUMP JUMPDEST PUSH1 0x0 DUP2 SWAP1 POP DUP2 PUSH1 0x0 MSTORE PUSH1 0x20 PUSH1 0x0 KECCAK256 SWAP1 POP SWAP2 SWAP1 POP JUMP JUMPDEST PUSH1 0x0 DUP2 MLOAD SWAP1 POP SWAP2 SWAP1 POP JUMP JUMPDEST PUSH1 0x0 DUP2 SLOAD SWAP1 POP SWAP2 SWAP1 POP JUMP JUMPDEST PUSH1 0x0 PUSH1 0x20 DUP3 ADD SWAP1 POP SWAP2 SWAP1 POP JUMP JUMPDEST PUSH1 0x0 PUSH1 0x1 DUP3 ADD SWAP1 POP SWAP2 SWAP1 POP JUMP JUMPDEST PUSH1 0x0 DUP3 DUP3 MSTORE PUSH1 0x20 DUP3 ADD SWAP1 POP SWAP3 SWAP2 POP POP JUMP JUMPDEST PUSH1 0x0 DUP2 SWAP1 POP SWAP3 SWAP2 POP POP JUMP JUMPDEST PUSH1 0x0 DUP3 DUP3 MSTORE PUSH1 0x20 DUP3 ADD SWAP1 POP SWAP3 SWAP2 POP POP JUMP JUMPDEST PUSH1 0x0 PUSH20 0xFFFFFFFFFFFFFFFFFFFFFFFFFFFFFFFFFFFFFFFF DUP3 AND SWAP1 POP SWAP2 SWAP1 POP JUMP JUMPDEST PUSH1 0x0 PUSH2 0x8AE DUP3 PUSH2 0x8C7 JUMP JUMPDEST SWAP1 POP SWAP2 SWAP1 POP JUMP JUMPDEST PUSH1 0x0 PUSH2 0x8C0 DUP3 PUSH2 0x8C7 JUMP JUMPDEST SWAP1 POP SWAP2 SWAP1 POP JUMP JUMPDEST PUSH1 0x0 PUSH20 0xFFFFFFFFFFFFFFFFFFFFFFFFFFFFFFFFFFFFFFFF DUP3 AND SWAP1 POP SWAP2 SWAP1 POP JUMP JUMPDEST PUSH1 0x0 DUP2 SWAP1 POP SWAP2 SWAP1 POP JUMP JUMPDEST PUSH1 0x0 PUSH2 0x904 PUSH2 0x8FF DUP4 PUSH2 0xA2F JUMP JUMPDEST PUSH2 0x883 JUMP JUMPDEST SWAP1 POP SWAP2 SWAP1 POP JUMP JUMPDEST PUSH1 0x0 PUSH2 0x916 DUP3 PUSH2 0x8E7 JUMP JUMPDEST SWAP2 POP PUSH32 0xFFFFFFFFFFFFFFFFFFFFFFFFFFFFFFFFFFFFFFFFFFFFFFFFFFFFFFFFFFFFFFFF DUP3 EQ ISZERO PUSH2 0x949 JUMPI PUSH2 0x948 PUSH2 0x98F JUMP JUMPDEST JUMPDEST PUSH1 0x1 DUP3 ADD SWAP1 POP SWAP2 SWAP1 POP JUMP JUMPDEST PUSH1 0x0 DUP2 SWAP1 POP SWAP2 SWAP1 POP JUMP JUMPDEST PUSH1 0x0 PUSH2 0x969 DUP3 PUSH2 0x8E7 JUMP JUMPDEST SWAP2 POP PUSH2 0x974 DUP4 PUSH2 0x8E7 JUMP JUMPDEST SWAP3 POP DUP3 PUSH2 0x984 JUMPI PUSH2 0x983 PUSH2 0x9BE JUMP JUMPDEST JUMPDEST DUP3 DUP3 MOD SWAP1 POP SWAP3 SWAP2 POP POP JUMP JUMPDEST PUSH32 0x4E487B7100000000000000000000000000000000000000000000000000000000 PUSH1 0x0 MSTORE PUSH1 0x11 PUSH1 0x4 MSTORE PUSH1 0x24 PUSH1 0x0 REVERT JUMPDEST PUSH32 0x4E487B7100000000000000000000000000000000000000000000000000000000 PUSH1 0x0 MSTORE PUSH1 0x12 PUSH1 0x4 MSTORE PUSH1 0x24 PUSH1 0x0 REVERT JUMPDEST PUSH32 0x4E487B7100000000000000000000000000000000000000000000000000000000 PUSH1 0x0 MSTORE PUSH1 0x32 PUSH1 0x4 MSTORE PUSH1 0x24 PUSH1 0x0 REVERT JUMPDEST PUSH1 0x0 PUSH2 0xA28 DUP3 SLOAD PUSH2 0x8F1 JUMP JUMPDEST SWAP1 POP SWAP2 SWAP1 POP JUMP JUMPDEST PUSH1 0x0 DUP2 PUSH1 0x0 SHR SWAP1 POP SWAP2 SWAP1 POP JUMP JUMPDEST PUSH32 0x4D696E696D756D20616D6F756E74206D75737420626520706179656400000000 PUSH1 0x0 DUP3 ADD MSTORE POP JUMP JUMPDEST PUSH32 0x506C6179657220616C7265616479207265676973746572656400000000000000 PUSH1 0x0 DUP3 ADD MSTORE POP JUMP JUMPDEST PUSH32 0x556E617574686F72697A656420506572736F6E2E204F6E6C79206D616E616765 PUSH1 0x0 DUP3 ADD MSTORE PUSH32 0x722063616E207069636B2077696E6E65722E0000000000000000000000000000 PUSH1 0x20 DUP3 ADD MSTORE POP JUMP JUMPDEST PUSH32 0x4D616E616765722063616E277420656E74657200000000000000000000000000 PUSH1 0x0 DUP3 ADD MSTORE POP JUMP INVALID LOG2 PUSH5 0x6970667358 0x22 SLT KECCAK256 0xBB PUSH15 0x9B20E251E8F38293A77BB2952E4766 INVALID 0x5D LOG3 PUSH12 0x762EDCE138D4ECB2131BB164 PUSH20 0x6F6C634300080700330000000000000000000000 "
				},
				"gasEstimates": {
					"creation": {
						"codeDepositCost": "575200",
						"executionCost": "24872",
						"totalCost": "600072"
					},
					"external": {
						"enter()": "infinite",
						"manager()": "2489",
						"pickWinner()": "infinite",
						"showPlayer()": "infinite"
					},
					"internal": {
						"alreadyEntered()": "infinite",
						"findWinnerIndex()": "infinite"
					}
				},
				"methodIdentifiers": {
					"enter()": "e97dcb62",
					"manager()": "481c6a75",
					"pickWinner()": "5d495aea",
					"showPlayer()": "87997d94"
				}
			},
			"storageLayout": {
				"storage": [
					{
						"astId": 3,
						"contract": "contracts/lottery.sol:Lottery",
						"label": "manager",
						"offset": 0,
						"slot": "0",
						"type": "t_address"
					},
					{
						"astId": 6,
						"contract": "contracts/lottery.sol:Lottery",
						"label": "players",
						"offset": 0,
						"slot": "1",
						"type": "t_array(t_address_payable)dyn_storage"
					}
				],
				"types": {
					"t_address": {
						"encoding": "inplace",
						"label": "address",
						"numberOfBytes": "20"
					},
					"t_address_payable": {
						"encoding": "inplace",
						"label": "address payable",
						"numberOfBytes": "20"
					},
					"t_array(t_address_payable)dyn_storage": {
						"base": "t_address_payable",
						"encoding": "dynamic_array",
						"label": "address payable[]",
						"numberOfBytes": "32"
					}
				}
			},
			"userdoc": {
				"kind": "user",
				"methods": {},
				"version": 1
			}
		}
	}
}