{
	"contracts/lottery.sol": {
		"Lottery": {
			"abi": [
				{
					"inputs": [],
					"stateMutability": "nonpayable",
					"type": "constructor"
				},
				{
					"inputs": [
						{
							"internalType": "address",
							"name": "_newUserAdd",
							"type": "address"
						}
					],
					"name": "enter",
					"outputs": [],
					"stateMutability": "payable",
					"type": "function"
				},
				{
					"inputs": [],
					"name": "manager",
					"outputs": [
						{
							"internalType": "address",
							"name": "",
							"type": "address"
						}
					],
					"stateMutability": "view",
					"type": "function"
				},
				{
					"inputs": [
						{
							"internalType": "uint256",
							"name": "",
							"type": "uint256"
						}
					],
					"name": "players",
					"outputs": [
						{
							"internalType": "address payable",
							"name": "",
							"type": "address"
						}
					],
					"stateMutability": "view",
					"type": "function"
				}
			],
			"devdoc": {
				"kind": "dev",
				"methods": {},
				"version": 1
			},
			"evm": {
				"assembly": "    /* \"contracts/lottery.sol\":58:536  contract Lottery{\r... */\n  mstore(0x40, 0x80)\n    /* \"contracts/lottery.sol\":150:202  constructor(){\r... */\n  callvalue\n  dup1\n  iszero\n  tag_1\n  jumpi\n  0x00\n  dup1\n  revert\ntag_1:\n  pop\n    /* \"contracts/lottery.sol\":184:194  msg.sender */\n  caller\n    /* \"contracts/lottery.sol\":174:181  manager */\n  0x00\n  dup1\n    /* \"contracts/lottery.sol\":174:194  manager = msg.sender */\n  0x0100\n  exp\n  dup2\n  sload\n  dup2\n  0xffffffffffffffffffffffffffffffffffffffff\n  mul\n  not\n  and\n  swap1\n  dup4\n  0xffffffffffffffffffffffffffffffffffffffff\n  and\n  mul\n  or\n  swap1\n  sstore\n  pop\n    /* \"contracts/lottery.sol\":58:536  contract Lottery{\r... */\n  dataSize(sub_0)\n  dup1\n  dataOffset(sub_0)\n  0x00\n  codecopy\n  0x00\n  return\nstop\n\nsub_0: assembly {\n        /* \"contracts/lottery.sol\":58:536  contract Lottery{\r... */\n      mstore(0x40, 0x80)\n      jumpi(tag_1, lt(calldatasize, 0x04))\n      shr(0xe0, calldataload(0x00))\n      dup1\n      0x481c6a75\n      eq\n      tag_2\n      jumpi\n      dup1\n      0xd014c01f\n      eq\n      tag_3\n      jumpi\n      dup1\n      0xf71d96cb\n      eq\n      tag_4\n      jumpi\n    tag_1:\n      0x00\n      dup1\n      revert\n        /* \"contracts/lottery.sol\":81:103  address public manager */\n    tag_2:\n      callvalue\n      dup1\n      iszero\n      tag_5\n      jumpi\n      0x00\n      dup1\n      revert\n    tag_5:\n      pop\n      tag_6\n      tag_7\n      jump\t// in\n    tag_6:\n      mload(0x40)\n      tag_8\n      swap2\n      swap1\n      tag_9\n      jump\t// in\n    tag_8:\n      mload(0x40)\n      dup1\n      swap2\n      sub\n      swap1\n      return\n        /* \"contracts/lottery.sol\":210:409  function enter(address _newUserAdd) public payable{\r... */\n    tag_3:\n      tag_10\n      0x04\n      dup1\n      calldatasize\n      sub\n      dup2\n      add\n      swap1\n      tag_11\n      swap2\n      swap1\n      tag_12\n      jump\t// in\n    tag_11:\n      tag_13\n      jump\t// in\n    tag_10:\n      stop\n        /* \"contracts/lottery.sol\":111:143  address payable[] public players */\n    tag_4:\n      callvalue\n      dup1\n      iszero\n      tag_14\n      jumpi\n      0x00\n      dup1\n      revert\n    tag_14:\n      pop\n      tag_15\n      0x04\n      dup1\n      calldatasize\n      sub\n      dup2\n      add\n      swap1\n      tag_16\n      swap2\n      swap1\n      tag_17\n      jump\t// in\n    tag_16:\n      tag_18\n      jump\t// in\n    tag_15:\n      mload(0x40)\n      tag_19\n      swap2\n      swap1\n      tag_20\n      jump\t// in\n    tag_19:\n      mload(0x40)\n      dup1\n      swap2\n      sub\n      swap1\n      return\n        /* \"contracts/lottery.sol\":81:103  address public manager */\n    tag_7:\n      0x00\n      dup1\n      sload\n      swap1\n      0x0100\n      exp\n      swap1\n      div\n      0xffffffffffffffffffffffffffffffffffffffff\n      and\n      dup2\n      jump\t// out\n        /* \"contracts/lottery.sol\":210:409  function enter(address _newUserAdd) public payable{\r... */\n    tag_13:\n        /* \"contracts/lottery.sol\":292:299  manager */\n      0x00\n      dup1\n      sload\n      swap1\n      0x0100\n      exp\n      swap1\n      div\n      0xffffffffffffffffffffffffffffffffffffffff\n      and\n        /* \"contracts/lottery.sol\":279:299  msg.sender !=manager */\n      0xffffffffffffffffffffffffffffffffffffffff\n      and\n        /* \"contracts/lottery.sol\":279:289  msg.sender */\n      caller\n        /* \"contracts/lottery.sol\":279:299  msg.sender !=manager */\n      0xffffffffffffffffffffffffffffffffffffffff\n      and\n      eq\n      iszero\n        /* \"contracts/lottery.sol\":271:322  require(msg.sender !=manager,\"Manager Can't Enter\") */\n      tag_22\n      jumpi\n      mload(0x40)\n      0x08c379a000000000000000000000000000000000000000000000000000000000\n      dup2\n      mstore\n      0x04\n      add\n      tag_23\n      swap1\n      tag_24\n      jump\t// in\n    tag_23:\n      mload(0x40)\n      dup1\n      swap2\n      sub\n      swap1\n      revert\n    tag_22:\n        /* \"contracts/lottery.sol\":210:409  function enter(address _newUserAdd) public payable{\r... */\n      pop\n      jump\t// out\n        /* \"contracts/lottery.sol\":111:143  address payable[] public players */\n    tag_18:\n      0x01\n      dup2\n      dup2\n      sload\n      dup2\n      lt\n      tag_25\n      jumpi\n      0x00\n      dup1\n      revert\n    tag_25:\n      swap1\n      0x00\n      mstore\n      keccak256(0x00, 0x20)\n      add\n      0x00\n      swap2\n      pop\n      sload\n      swap1\n      0x0100\n      exp\n      swap1\n      div\n      0xffffffffffffffffffffffffffffffffffffffff\n      and\n      dup2\n      jump\t// out\n        /* \"#utility.yul\":7:146   */\n    tag_28:\n        /* \"#utility.yul\":53:58   */\n      0x00\n        /* \"#utility.yul\":91:97   */\n      dup2\n        /* \"#utility.yul\":78:98   */\n      calldataload\n        /* \"#utility.yul\":69:98   */\n      swap1\n      pop\n        /* \"#utility.yul\":107:140   */\n      tag_30\n        /* \"#utility.yul\":134:139   */\n      dup2\n        /* \"#utility.yul\":107:140   */\n      tag_31\n      jump\t// in\n    tag_30:\n        /* \"#utility.yul\":7:146   */\n      swap3\n      swap2\n      pop\n      pop\n      jump\t// out\n        /* \"#utility.yul\":152:291   */\n    tag_32:\n        /* \"#utility.yul\":198:203   */\n      0x00\n        /* \"#utility.yul\":236:242   */\n      dup2\n        /* \"#utility.yul\":223:243   */\n      calldataload\n        /* \"#utility.yul\":214:243   */\n      swap1\n      pop\n        /* \"#utility.yul\":252:285   */\n      tag_34\n        /* \"#utility.yul\":279:284   */\n      dup2\n        /* \"#utility.yul\":252:285   */\n      tag_35\n      jump\t// in\n    tag_34:\n        /* \"#utility.yul\":152:291   */\n      swap3\n      swap2\n      pop\n      pop\n      jump\t// out\n        /* \"#utility.yul\":297:626   */\n    tag_12:\n        /* \"#utility.yul\":356:362   */\n      0x00\n        /* \"#utility.yul\":405:407   */\n      0x20\n        /* \"#utility.yul\":393:402   */\n      dup3\n        /* \"#utility.yul\":384:391   */\n      dup5\n        /* \"#utility.yul\":380:403   */\n      sub\n        /* \"#utility.yul\":376:408   */\n      slt\n        /* \"#utility.yul\":373:492   */\n      iszero\n      tag_37\n      jumpi\n        /* \"#utility.yul\":411:490   */\n      tag_38\n      tag_39\n      jump\t// in\n    tag_38:\n        /* \"#utility.yul\":373:492   */\n    tag_37:\n        /* \"#utility.yul\":531:532   */\n      0x00\n        /* \"#utility.yul\":556:609   */\n      tag_40\n        /* \"#utility.yul\":601:608   */\n      dup5\n        /* \"#utility.yul\":592:598   */\n      dup3\n        /* \"#utility.yul\":581:590   */\n      dup6\n        /* \"#utility.yul\":577:599   */\n      add\n        /* \"#utility.yul\":556:609   */\n      tag_28\n      jump\t// in\n    tag_40:\n        /* \"#utility.yul\":546:609   */\n      swap2\n      pop\n        /* \"#utility.yul\":502:619   */\n      pop\n        /* \"#utility.yul\":297:626   */\n      swap3\n      swap2\n      pop\n      pop\n      jump\t// out\n        /* \"#utility.yul\":632:961   */\n    tag_17:\n        /* \"#utility.yul\":691:697   */\n      0x00\n        /* \"#utility.yul\":740:742   */\n      0x20\n        /* \"#utility.yul\":728:737   */\n      dup3\n        /* \"#utility.yul\":719:726   */\n      dup5\n        /* \"#utility.yul\":715:738   */\n      sub\n        /* \"#utility.yul\":711:743   */\n      slt\n        /* \"#utility.yul\":708:827   */\n      iszero\n      tag_42\n      jumpi\n        /* \"#utility.yul\":746:825   */\n      tag_43\n      tag_39\n      jump\t// in\n    tag_43:\n        /* \"#utility.yul\":708:827   */\n    tag_42:\n        /* \"#utility.yul\":866:867   */\n      0x00\n        /* \"#utility.yul\":891:944   */\n      tag_44\n        /* \"#utility.yul\":936:943   */\n      dup5\n        /* \"#utility.yul\":927:933   */\n      dup3\n        /* \"#utility.yul\":916:925   */\n      dup6\n        /* \"#utility.yul\":912:934   */\n      add\n        /* \"#utility.yul\":891:944   */\n      tag_32\n      jump\t// in\n    tag_44:\n        /* \"#utility.yul\":881:944   */\n      swap2\n      pop\n        /* \"#utility.yul\":837:954   */\n      pop\n        /* \"#utility.yul\":632:961   */\n      swap3\n      swap2\n      pop\n      pop\n      jump\t// out\n        /* \"#utility.yul\":967:1109   */\n    tag_45:\n        /* \"#utility.yul\":1070:1102   */\n      tag_47\n        /* \"#utility.yul\":1096:1101   */\n      dup2\n        /* \"#utility.yul\":1070:1102   */\n      tag_48\n      jump\t// in\n    tag_47:\n        /* \"#utility.yul\":1065:1068   */\n      dup3\n        /* \"#utility.yul\":1058:1103   */\n      mstore\n        /* \"#utility.yul\":967:1109   */\n      pop\n      pop\n      jump\t// out\n        /* \"#utility.yul\":1115:1233   */\n    tag_49:\n        /* \"#utility.yul\":1202:1226   */\n      tag_51\n        /* \"#utility.yul\":1220:1225   */\n      dup2\n        /* \"#utility.yul\":1202:1226   */\n      tag_52\n      jump\t// in\n    tag_51:\n        /* \"#utility.yul\":1197:1200   */\n      dup3\n        /* \"#utility.yul\":1190:1227   */\n      mstore\n        /* \"#utility.yul\":1115:1233   */\n      pop\n      pop\n      jump\t// out\n        /* \"#utility.yul\":1239:1605   */\n    tag_53:\n        /* \"#utility.yul\":1381:1384   */\n      0x00\n        /* \"#utility.yul\":1402:1469   */\n      tag_55\n        /* \"#utility.yul\":1466:1468   */\n      0x13\n        /* \"#utility.yul\":1461:1464   */\n      dup4\n        /* \"#utility.yul\":1402:1469   */\n      tag_56\n      jump\t// in\n    tag_55:\n        /* \"#utility.yul\":1395:1469   */\n      swap2\n      pop\n        /* \"#utility.yul\":1478:1571   */\n      tag_57\n        /* \"#utility.yul\":1567:1570   */\n      dup3\n        /* \"#utility.yul\":1478:1571   */\n      tag_58\n      jump\t// in\n    tag_57:\n        /* \"#utility.yul\":1596:1598   */\n      0x20\n        /* \"#utility.yul\":1591:1594   */\n      dup3\n        /* \"#utility.yul\":1587:1599   */\n      add\n        /* \"#utility.yul\":1580:1599   */\n      swap1\n      pop\n        /* \"#utility.yul\":1239:1605   */\n      swap2\n      swap1\n      pop\n      jump\t// out\n        /* \"#utility.yul\":1611:1833   */\n    tag_9:\n        /* \"#utility.yul\":1704:1708   */\n      0x00\n        /* \"#utility.yul\":1742:1744   */\n      0x20\n        /* \"#utility.yul\":1731:1740   */\n      dup3\n        /* \"#utility.yul\":1727:1745   */\n      add\n        /* \"#utility.yul\":1719:1745   */\n      swap1\n      pop\n        /* \"#utility.yul\":1755:1826   */\n      tag_60\n        /* \"#utility.yul\":1823:1824   */\n      0x00\n        /* \"#utility.yul\":1812:1821   */\n      dup4\n        /* \"#utility.yul\":1808:1825   */\n      add\n        /* \"#utility.yul\":1799:1805   */\n      dup5\n        /* \"#utility.yul\":1755:1826   */\n      tag_49\n      jump\t// in\n    tag_60:\n        /* \"#utility.yul\":1611:1833   */\n      swap3\n      swap2\n      pop\n      pop\n      jump\t// out\n        /* \"#utility.yul\":1839:2093   */\n    tag_20:\n        /* \"#utility.yul\":1948:1952   */\n      0x00\n        /* \"#utility.yul\":1986:1988   */\n      0x20\n        /* \"#utility.yul\":1975:1984   */\n      dup3\n        /* \"#utility.yul\":1971:1989   */\n      add\n        /* \"#utility.yul\":1963:1989   */\n      swap1\n      pop\n        /* \"#utility.yul\":1999:2086   */\n      tag_62\n        /* \"#utility.yul\":2083:2084   */\n      0x00\n        /* \"#utility.yul\":2072:2081   */\n      dup4\n        /* \"#utility.yul\":2068:2085   */\n      add\n        /* \"#utility.yul\":2059:2065   */\n      dup5\n        /* \"#utility.yul\":1999:2086   */\n      tag_45\n      jump\t// in\n    tag_62:\n        /* \"#utility.yul\":1839:2093   */\n      swap3\n      swap2\n      pop\n      pop\n      jump\t// out\n        /* \"#utility.yul\":2099:2518   */\n    tag_24:\n        /* \"#utility.yul\":2265:2269   */\n      0x00\n        /* \"#utility.yul\":2303:2305   */\n      0x20\n        /* \"#utility.yul\":2292:2301   */\n      dup3\n        /* \"#utility.yul\":2288:2306   */\n      add\n        /* \"#utility.yul\":2280:2306   */\n      swap1\n      pop\n        /* \"#utility.yul\":2352:2361   */\n      dup2\n        /* \"#utility.yul\":2346:2350   */\n      dup2\n        /* \"#utility.yul\":2342:2362   */\n      sub\n        /* \"#utility.yul\":2338:2339   */\n      0x00\n        /* \"#utility.yul\":2327:2336   */\n      dup4\n        /* \"#utility.yul\":2323:2340   */\n      add\n        /* \"#utility.yul\":2316:2363   */\n      mstore\n        /* \"#utility.yul\":2380:2511   */\n      tag_64\n        /* \"#utility.yul\":2506:2510   */\n      dup2\n        /* \"#utility.yul\":2380:2511   */\n      tag_53\n      jump\t// in\n    tag_64:\n        /* \"#utility.yul\":2372:2511   */\n      swap1\n      pop\n        /* \"#utility.yul\":2099:2518   */\n      swap2\n      swap1\n      pop\n      jump\t// out\n        /* \"#utility.yul\":2605:2774   */\n    tag_56:\n        /* \"#utility.yul\":2689:2700   */\n      0x00\n        /* \"#utility.yul\":2723:2729   */\n      dup3\n        /* \"#utility.yul\":2718:2721   */\n      dup3\n        /* \"#utility.yul\":2711:2730   */\n      mstore\n        /* \"#utility.yul\":2763:2767   */\n      0x20\n        /* \"#utility.yul\":2758:2761   */\n      dup3\n        /* \"#utility.yul\":2754:2768   */\n      add\n        /* \"#utility.yul\":2739:2768   */\n      swap1\n      pop\n        /* \"#utility.yul\":2605:2774   */\n      swap3\n      swap2\n      pop\n      pop\n      jump\t// out\n        /* \"#utility.yul\":2780:2876   */\n    tag_52:\n        /* \"#utility.yul\":2817:2824   */\n      0x00\n        /* \"#utility.yul\":2846:2870   */\n      tag_69\n        /* \"#utility.yul\":2864:2869   */\n      dup3\n        /* \"#utility.yul\":2846:2870   */\n      tag_70\n      jump\t// in\n    tag_69:\n        /* \"#utility.yul\":2835:2870   */\n      swap1\n      pop\n        /* \"#utility.yul\":2780:2876   */\n      swap2\n      swap1\n      pop\n      jump\t// out\n        /* \"#utility.yul\":2882:2986   */\n    tag_48:\n        /* \"#utility.yul\":2927:2934   */\n      0x00\n        /* \"#utility.yul\":2956:2980   */\n      tag_72\n        /* \"#utility.yul\":2974:2979   */\n      dup3\n        /* \"#utility.yul\":2956:2980   */\n      tag_70\n      jump\t// in\n    tag_72:\n        /* \"#utility.yul\":2945:2980   */\n      swap1\n      pop\n        /* \"#utility.yul\":2882:2986   */\n      swap2\n      swap1\n      pop\n      jump\t// out\n        /* \"#utility.yul\":2992:3118   */\n    tag_70:\n        /* \"#utility.yul\":3029:3036   */\n      0x00\n        /* \"#utility.yul\":3069:3111   */\n      0xffffffffffffffffffffffffffffffffffffffff\n        /* \"#utility.yul\":3062:3067   */\n      dup3\n        /* \"#utility.yul\":3058:3112   */\n      and\n        /* \"#utility.yul\":3047:3112   */\n      swap1\n      pop\n        /* \"#utility.yul\":2992:3118   */\n      swap2\n      swap1\n      pop\n      jump\t// out\n        /* \"#utility.yul\":3124:3201   */\n    tag_74:\n        /* \"#utility.yul\":3161:3168   */\n      0x00\n        /* \"#utility.yul\":3190:3195   */\n      dup2\n        /* \"#utility.yul\":3179:3195   */\n      swap1\n      pop\n        /* \"#utility.yul\":3124:3201   */\n      swap2\n      swap1\n      pop\n      jump\t// out\n        /* \"#utility.yul\":3330:3447   */\n    tag_39:\n        /* \"#utility.yul\":3439:3440   */\n      0x00\n        /* \"#utility.yul\":3436:3437   */\n      dup1\n        /* \"#utility.yul\":3429:3441   */\n      revert\n        /* \"#utility.yul\":3453:3622   */\n    tag_58:\n        /* \"#utility.yul\":3593:3614   */\n      0x4d616e616765722043616e277420456e74657200000000000000000000000000\n        /* \"#utility.yul\":3589:3590   */\n      0x00\n        /* \"#utility.yul\":3581:3587   */\n      dup3\n        /* \"#utility.yul\":3577:3591   */\n      add\n        /* \"#utility.yul\":3570:3615   */\n      mstore\n        /* \"#utility.yul\":3453:3622   */\n      pop\n      jump\t// out\n        /* \"#utility.yul\":3628:3750   */\n    tag_31:\n        /* \"#utility.yul\":3701:3725   */\n      tag_81\n        /* \"#utility.yul\":3719:3724   */\n      dup2\n        /* \"#utility.yul\":3701:3725   */\n      tag_52\n      jump\t// in\n    tag_81:\n        /* \"#utility.yul\":3694:3699   */\n      dup2\n        /* \"#utility.yul\":3691:3726   */\n      eq\n        /* \"#utility.yul\":3681:3744   */\n      tag_82\n      jumpi\n        /* \"#utility.yul\":3740:3741   */\n      0x00\n        /* \"#utility.yul\":3737:3738   */\n      dup1\n        /* \"#utility.yul\":3730:3742   */\n      revert\n        /* \"#utility.yul\":3681:3744   */\n    tag_82:\n        /* \"#utility.yul\":3628:3750   */\n      pop\n      jump\t// out\n        /* \"#utility.yul\":3756:3878   */\n    tag_35:\n        /* \"#utility.yul\":3829:3853   */\n      tag_84\n        /* \"#utility.yul\":3847:3852   */\n      dup2\n        /* \"#utility.yul\":3829:3853   */\n      tag_74\n      jump\t// in\n    tag_84:\n        /* \"#utility.yul\":3822:3827   */\n      dup2\n        /* \"#utility.yul\":3819:3854   */\n      eq\n        /* \"#utility.yul\":3809:3872   */\n      tag_85\n      jumpi\n        /* \"#utility.yul\":3868:3869   */\n      0x00\n        /* \"#utility.yul\":3865:3866   */\n      dup1\n        /* \"#utility.yul\":3858:3870   */\n      revert\n        /* \"#utility.yul\":3809:3872   */\n    tag_85:\n        /* \"#utility.yul\":3756:3878   */\n      pop\n      jump\t// out\n\n    auxdata: 0xa264697066735822122026611c7b32cd35b6bf658e893c543455ce56179fe87a9226355ef1d6c58b4e3064736f6c63430008070033\n}\n",
				"bytecode": {
					"linkReferences": {},
					"object": "608060405234801561001057600080fd5b50336000806101000a81548173ffffffffffffffffffffffffffffffffffffffff021916908373ffffffffffffffffffffffffffffffffffffffff1602179055506103be806100606000396000f3fe6080604052600436106100345760003560e01c8063481c6a7514610039578063d014c01f14610064578063f71d96cb14610080575b600080fd5b34801561004557600080fd5b5061004e6100bd565b60405161005b9190610277565b60405180910390f35b61007e600480360381019061007991906101dc565b6100e1565b005b34801561008c57600080fd5b506100a760048036038101906100a29190610209565b610173565b6040516100b49190610292565b60405180910390f35b60008054906101000a900473ffffffffffffffffffffffffffffffffffffffff1681565b60008054906101000a900473ffffffffffffffffffffffffffffffffffffffff1673ffffffffffffffffffffffffffffffffffffffff163373ffffffffffffffffffffffffffffffffffffffff161415610170576040517f08c379a0000000000000000000000000000000000000000000000000000000008152600401610167906102ad565b60405180910390fd5b50565b6001818154811061018357600080fd5b906000526020600020016000915054906101000a900473ffffffffffffffffffffffffffffffffffffffff1681565b6000813590506101c18161035a565b92915050565b6000813590506101d681610371565b92915050565b6000602082840312156101f2576101f161032c565b5b6000610200848285016101b2565b91505092915050565b60006020828403121561021f5761021e61032c565b5b600061022d848285016101c7565b91505092915050565b61023f816102f0565b82525050565b61024e816102de565b82525050565b60006102616013836102cd565b915061026c82610331565b602082019050919050565b600060208201905061028c6000830184610245565b92915050565b60006020820190506102a76000830184610236565b92915050565b600060208201905081810360008301526102c681610254565b9050919050565b600082825260208201905092915050565b60006102e982610302565b9050919050565b60006102fb82610302565b9050919050565b600073ffffffffffffffffffffffffffffffffffffffff82169050919050565b6000819050919050565b600080fd5b7f4d616e616765722043616e277420456e74657200000000000000000000000000600082015250565b610363816102de565b811461036e57600080fd5b50565b61037a81610322565b811461038557600080fd5b5056fea264697066735822122026611c7b32cd35b6bf658e893c543455ce56179fe87a9226355ef1d6c58b4e3064736f6c63430008070033",
					"opcodes": "PUSH1 0x80 PUSH1 0x40 MSTORE CALLVALUE DUP1 ISZERO PUSH2 0x10 JUMPI PUSH1 0x0 DUP1 REVERT JUMPDEST POP CALLER PUSH1 0x0 DUP1 PUSH2 0x100 EXP DUP2 SLOAD DUP2 PUSH20 0xFFFFFFFFFFFFFFFFFFFFFFFFFFFFFFFFFFFFFFFF MUL NOT AND SWAP1 DUP4 PUSH20 0xFFFFFFFFFFFFFFFFFFFFFFFFFFFFFFFFFFFFFFFF AND MUL OR SWAP1 SSTORE POP PUSH2 0x3BE DUP1 PUSH2 0x60 PUSH1 0x0 CODECOPY PUSH1 0x0 RETURN INVALID PUSH1 0x80 PUSH1 0x40 MSTORE PUSH1 0x4 CALLDATASIZE LT PUSH2 0x34 JUMPI PUSH1 0x0 CALLDATALOAD PUSH1 0xE0 SHR DUP1 PUSH4 0x481C6A75 EQ PUSH2 0x39 JUMPI DUP1 PUSH4 0xD014C01F EQ PUSH2 0x64 JUMPI DUP1 PUSH4 0xF71D96CB EQ PUSH2 0x80 JUMPI JUMPDEST PUSH1 0x0 DUP1 REVERT JUMPDEST CALLVALUE DUP1 ISZERO PUSH2 0x45 JUMPI PUSH1 0x0 DUP1 REVERT JUMPDEST POP PUSH2 0x4E PUSH2 0xBD JUMP JUMPDEST PUSH1 0x40 MLOAD PUSH2 0x5B SWAP2 SWAP1 PUSH2 0x277 JUMP JUMPDEST PUSH1 0x40 MLOAD DUP1 SWAP2 SUB SWAP1 RETURN JUMPDEST PUSH2 0x7E PUSH1 0x4 DUP1 CALLDATASIZE SUB DUP2 ADD SWAP1 PUSH2 0x79 SWAP2 SWAP1 PUSH2 0x1DC JUMP JUMPDEST PUSH2 0xE1 JUMP JUMPDEST STOP JUMPDEST CALLVALUE DUP1 ISZERO PUSH2 0x8C JUMPI PUSH1 0x0 DUP1 REVERT JUMPDEST POP PUSH2 0xA7 PUSH1 0x4 DUP1 CALLDATASIZE SUB DUP2 ADD SWAP1 PUSH2 0xA2 SWAP2 SWAP1 PUSH2 0x209 JUMP JUMPDEST PUSH2 0x173 JUMP JUMPDEST PUSH1 0x40 MLOAD PUSH2 0xB4 SWAP2 SWAP1 PUSH2 0x292 JUMP JUMPDEST PUSH1 0x40 MLOAD DUP1 SWAP2 SUB SWAP1 RETURN JUMPDEST PUSH1 0x0 DUP1 SLOAD SWAP1 PUSH2 0x100 EXP SWAP1 DIV PUSH20 0xFFFFFFFFFFFFFFFFFFFFFFFFFFFFFFFFFFFFFFFF AND DUP2 JUMP JUMPDEST PUSH1 0x0 DUP1 SLOAD SWAP1 PUSH2 0x100 EXP SWAP1 DIV PUSH20 0xFFFFFFFFFFFFFFFFFFFFFFFFFFFFFFFFFFFFFFFF AND PUSH20 0xFFFFFFFFFFFFFFFFFFFFFFFFFFFFFFFFFFFFFFFF AND CALLER PUSH20 0xFFFFFFFFFFFFFFFFFFFFFFFFFFFFFFFFFFFFFFFF AND EQ ISZERO PUSH2 0x170 JUMPI PUSH1 0x40 MLOAD PUSH32 0x8C379A000000000000000000000000000000000000000000000000000000000 DUP2 MSTORE PUSH1 0x4 ADD PUSH2 0x167 SWAP1 PUSH2 0x2AD JUMP JUMPDEST PUSH1 0x40 MLOAD DUP1 SWAP2 SUB SWAP1 REVERT JUMPDEST POP JUMP JUMPDEST PUSH1 0x1 DUP2 DUP2 SLOAD DUP2 LT PUSH2 0x183 JUMPI PUSH1 0x0 DUP1 REVERT JUMPDEST SWAP1 PUSH1 0x0 MSTORE PUSH1 0x20 PUSH1 0x0 KECCAK256 ADD PUSH1 0x0 SWAP2 POP SLOAD SWAP1 PUSH2 0x100 EXP SWAP1 DIV PUSH20 0xFFFFFFFFFFFFFFFFFFFFFFFFFFFFFFFFFFFFFFFF AND DUP2 JUMP JUMPDEST PUSH1 0x0 DUP2 CALLDATALOAD SWAP1 POP PUSH2 0x1C1 DUP2 PUSH2 0x35A JUMP JUMPDEST SWAP3 SWAP2 POP POP JUMP JUMPDEST PUSH1 0x0 DUP2 CALLDATALOAD SWAP1 POP PUSH2 0x1D6 DUP2 PUSH2 0x371 JUMP JUMPDEST SWAP3 SWAP2 POP POP JUMP JUMPDEST PUSH1 0x0 PUSH1 0x20 DUP3 DUP5 SUB SLT ISZERO PUSH2 0x1F2 JUMPI PUSH2 0x1F1 PUSH2 0x32C JUMP JUMPDEST JUMPDEST PUSH1 0x0 PUSH2 0x200 DUP5 DUP3 DUP6 ADD PUSH2 0x1B2 JUMP JUMPDEST SWAP2 POP POP SWAP3 SWAP2 POP POP JUMP JUMPDEST PUSH1 0x0 PUSH1 0x20 DUP3 DUP5 SUB SLT ISZERO PUSH2 0x21F JUMPI PUSH2 0x21E PUSH2 0x32C JUMP JUMPDEST JUMPDEST PUSH1 0x0 PUSH2 0x22D DUP5 DUP3 DUP6 ADD PUSH2 0x1C7 JUMP JUMPDEST SWAP2 POP POP SWAP3 SWAP2 POP POP JUMP JUMPDEST PUSH2 0x23F DUP2 PUSH2 0x2F0 JUMP JUMPDEST DUP3 MSTORE POP POP JUMP JUMPDEST PUSH2 0x24E DUP2 PUSH2 0x2DE JUMP JUMPDEST DUP3 MSTORE POP POP JUMP JUMPDEST PUSH1 0x0 PUSH2 0x261 PUSH1 0x13 DUP4 PUSH2 0x2CD JUMP JUMPDEST SWAP2 POP PUSH2 0x26C DUP3 PUSH2 0x331 JUMP JUMPDEST PUSH1 0x20 DUP3 ADD SWAP1 POP SWAP2 SWAP1 POP JUMP JUMPDEST PUSH1 0x0 PUSH1 0x20 DUP3 ADD SWAP1 POP PUSH2 0x28C PUSH1 0x0 DUP4 ADD DUP5 PUSH2 0x245 JUMP JUMPDEST SWAP3 SWAP2 POP POP JUMP JUMPDEST PUSH1 0x0 PUSH1 0x20 DUP3 ADD SWAP1 POP PUSH2 0x2A7 PUSH1 0x0 DUP4 ADD DUP5 PUSH2 0x236 JUMP JUMPDEST SWAP3 SWAP2 POP POP JUMP JUMPDEST PUSH1 0x0 PUSH1 0x20 DUP3 ADD SWAP1 POP DUP2 DUP2 SUB PUSH1 0x0 DUP4 ADD MSTORE PUSH2 0x2C6 DUP2 PUSH2 0x254 JUMP JUMPDEST SWAP1 POP SWAP2 SWAP1 POP JUMP JUMPDEST PUSH1 0x0 DUP3 DUP3 MSTORE PUSH1 0x20 DUP3 ADD SWAP1 POP SWAP3 SWAP2 POP POP JUMP JUMPDEST PUSH1 0x0 PUSH2 0x2E9 DUP3 PUSH2 0x302 JUMP JUMPDEST SWAP1 POP SWAP2 SWAP1 POP JUMP JUMPDEST PUSH1 0x0 PUSH2 0x2FB DUP3 PUSH2 0x302 JUMP JUMPDEST SWAP1 POP SWAP2 SWAP1 POP JUMP JUMPDEST PUSH1 0x0 PUSH20 0xFFFFFFFFFFFFFFFFFFFFFFFFFFFFFFFFFFFFFFFF DUP3 AND SWAP1 POP SWAP2 SWAP1 POP JUMP JUMPDEST PUSH1 0x0 DUP2 SWAP1 POP SWAP2 SWAP1 POP JUMP JUMPDEST PUSH1 0x0 DUP1 REVERT JUMPDEST PUSH32 0x4D616E616765722043616E277420456E74657200000000000000000000000000 PUSH1 0x0 DUP3 ADD MSTORE POP JUMP JUMPDEST PUSH2 0x363 DUP2 PUSH2 0x2DE JUMP JUMPDEST DUP2 EQ PUSH2 0x36E JUMPI PUSH1 0x0 DUP1 REVERT JUMPDEST POP JUMP JUMPDEST PUSH2 0x37A DUP2 PUSH2 0x322 JUMP JUMPDEST DUP2 EQ PUSH2 0x385 JUMPI PUSH1 0x0 DUP1 REVERT JUMPDEST POP JUMP INVALID LOG2 PUSH5 0x6970667358 0x22 SLT KECCAK256 0x26 PUSH2 0x1C7B ORIGIN 0xCD CALLDATALOAD 0xB6 0xBF PUSH6 0x8E893C543455 0xCE JUMP OR SWAP16 0xE8 PUSH27 0x9226355EF1D6C58B4E3064736F6C63430008070033000000000000 "
				},
				"gasEstimates": {
					"creation": {
						"codeDepositCost": "191600",
						"executionCost": "24498",
						"totalCost": "216098"
					},
					"external": {
						"enter(address)": "2888",
						"manager()": "2489",
						"players(uint256)": "4978"
					},
					"internal": {
						"alreadyEntered()": "infinite"
					}
				},
				"methodIdentifiers": {
					"enter(address)": "d014c01f",
					"manager()": "481c6a75",
					"players(uint256)": "f71d96cb"
				}
			},
			"storageLayout": {
				"storage": [
					{
						"astId": 3,
						"contract": "contracts/lottery.sol:Lottery",
						"label": "manager",
						"offset": 0,
						"slot": "0",
						"type": "t_address"
					},
					{
						"astId": 6,
						"contract": "contracts/lottery.sol:Lottery",
						"label": "players",
						"offset": 0,
						"slot": "1",
						"type": "t_array(t_address_payable)dyn_storage"
					}
				],
				"types": {
					"t_address": {
						"encoding": "inplace",
						"label": "address",
						"numberOfBytes": "20"
					},
					"t_address_payable": {
						"encoding": "inplace",
						"label": "address payable",
						"numberOfBytes": "20"
					},
					"t_array(t_address_payable)dyn_storage": {
						"base": "t_address_payable",
						"encoding": "dynamic_array",
						"label": "address payable[]",
						"numberOfBytes": "32"
					}
				}
			},
			"userdoc": {
				"kind": "user",
				"methods": {},
				"version": 1
			}
		}
	}
}